:100000000C9462000C948A000C948A000C948A0070
:100010000C948A000C948A000C948A000C948A0038
:100020000C948A000C948A000C948A000C948A0028
:100030000C948A000C948A000C948A000C948A0018
:100040000C94D5020C948A000C94A3020C947D02AB
:100050000C948A000C948A000C948A000C948A00F8
:100060000C948A000C948A00000000080002010031
:100070000003040700000000000000000000000072
:1000800023002600290000000000250028002B0086
:1000900000000000240027002A00040404040404D3
:1000A0000404020202020202030303030303010227
:1000B00004081020408001020408102001020408F6
:1000C0001020640311241FBECFEFD8E0DEBFCDBFE8
:1000D00022E0ACE3B1E001C01D92A233B207E1F728
:1000E00011E0A0E0B1E0E8E0FDE002C005900D9273
:1000F000AC33B107D9F710E0C2E6D0E004C02197D5
:10010000FE010E947706C136D107C9F70E9412048A
:100110000C9482060C940000E9E4F1E0A089B18916
:1001200082E08C93A485B5851C92A685B7858FEC5B
:100130008C93108EA489B58986E08C93A289B389AB
:100140008C9180618C93A289B3898C9188608C9307
:10015000A289B3898C9180688C930288F389E02D01
:1001600080818F7D80830895CF92DF92EF92FF92FE
:100170000F931F93CF93DF936C017A018B01C0E043
:10018000D0E0CE15DF0581F0D8016D918D01D6014B
:10019000ED91FC910190F081E02DC6010995892B2C
:1001A00011F02196EECF7E01C701DF91CF911F9113
:1001B0000F91FF90EF90DF90CF900895089580E029
:1001C00090E00895FC01538D448D252F30E0842F5D
:1001D00090E0821B930B541710F0CF96089501976F
:1001E0000895FC01918D828D981761F0828DDF0159
:1001F000A80FB11D5D968C91928D9F5F9F73928F1A
:1002000090E008958FEF9FEF0895FC01918D828D0E
:10021000981731F0828DE80FF11D858D90E00895DB
:100220008FEF9FEF0895FC01918D228D892F90E033
:10023000805C9F4F821B91098F739927089589E4F1
:1002400091E00E94130121E0892B09F420E0822F24
:100250000895FC01848DDF01A80FB11DA35ABF4F83
:100260002C91848D90E001968F739927848FA689B5
:10027000B7892C93A089B1898C91837080648C9309
:10028000938D848D981306C00288F389E02D8081B8
:100290008F7D80830895EF92FF920F931F93CF93EA
:1002A000DF93EC0181E0888F9B8D8C8D981305C0C6
:1002B000E889F989808185FD26C0F62E0B8D10E036
:1002C0000F5F1F4F0F731127E02E8C8DE8120CC0AB
:1002D0000FB607FCFACFE889F989808185FFF5CF51
:1002E000CE010E942901F1CF8B8DFE01E80FF11D97
:1002F000E35AFF4FF0829FB7F8940B8FEA89FB898E
:10030000808180620AC09FB7F894EE89FF8960837C
:10031000E889F98980818370806480839FBF81E050
:1003200090E0DF91CF911F910F91FF90EF90089592
:10033000CF93DF93EC01888D8823C9F0EA89FB898C
:10034000808185FD05C0A889B9898C9186FD0FC083
:100350000FB607FCF5CF808185FFF2CFA889B98958
:100360008C9185FFEDCFCE010E942901E7CFDF916F
:10037000CF91089580E090E0892B29F00E941F0121
:1003800081110C940000089590E0FC01E859FF4FA2
:100390002491FC01E255FF4F3491FC01E656FF4FDA
:1003A000E491EE2309F43CC0222339F1233091F08B
:1003B00038F42130A9F0223001F584B58F7D12C0C8
:1003C000273091F02830A1F02430B9F480918000DA
:1003D0008F7D03C0809180008F77809380000DC057
:1003E00084B58F7784BD09C08091B0008F7703C03A
:1003F0008091B0008F7D8093B000F0E0EE0FFF1F82
:10040000EA57FF4FA591B4919FB7F894611104C0CA
:100410008C913095382302C0EC913E2B3C939FBFCA
:1004200008952FB7F8946091410170914201809135
:100430004301909144012FBF08950E947D066115EC
:10044000710579F0FB0101900020E9F73197AF01C8
:10045000461B570BDC01ED91FC910280F381E02DEE
:10046000099480E090E008958F929F92AF92BF929E
:10047000EF92FF920F931F93CF93DF93CDB7DEB729
:10048000A1970FB6F894DEBF0FBECDBF7C01FA0175
:10049000CB0119A2223008F42AE08E010F5D1F4F14
:1004A000822E912CA12CB12CBF01A50194010E9498
:1004B0003606F901CA01015011096A3014F4605D71
:1004C00001C0695CD8016C93232B242B252B61F789
:1004D000B801C7010E941F02A1960FB6F894DEBFB3
:1004E0000FBECDBFDF91CF911F910F91FF90EF9085
:1004F000BF90AF909F908F9008951F920F920FB66C
:100500000F9211242F933F934F935F936F937F9399
:100510008F939F93AF93BF93EF93FF9389E491E001
:100520000E942901FF91EF91BF91AF919F918F910F
:100530007F916F915F914F913F912F910F900FBEDF
:100540000F901F9018951F920F920FB60F921124C3
:100550002F938F939F93EF93FF93E0915901F09125
:100560005A018081E0915F01F091600182FD12C02B
:100570009081809162018F5F8F7320916301821758
:1005800051F0E0916201F0E0E75BFE4F958F8093C0
:10059000620101C08081FF91EF919F918F912F9116
:1005A0000F900FBE0F901F9018951F920F920FB6CD
:1005B0000F9211242F933F938F939F93AF93BF93E9
:1005C0008091410190914201A0914301B091440179
:1005D0003091400123E0230F2D3720F40196A11D17
:1005E000B11D05C026E8230F0296A11DB11D209361
:1005F00040018093410190934201A0934301B09345
:10060000440180913C0190913D01A0913E01B09147
:100610003F010196A11DB11D80933C0190933D01C6
:10062000A0933E01B0933F01BF91AF919F918F91F5
:100630003F912F910F900FBE0F901F901895CF9262
:10064000DF92EF92FF920F931F93E82FF92F05C0CF
:10065000015011092109310961F190819623941704
:10066000B9F305C0015011092109310911F1908137
:1006700096239413F7CFC12CD12CE12CF12C0AC076
:100680008FEFC81AD80AE80AF80A0C151D052E05BE
:100690003F0579F080818623841791F36C2D7D2DA1
:1006A0008E2D9F2D1F910F91FF90EF90DF90CF9097
:1006B000089560E070E080E090E01F910F91FF905E
:1006C000EF90DF90CF900895CF93DF9310924C017D
:1006D00010924B0188EE93E0A0E0B0E080934D01D2
:1006E00090934E01A0934F01B093500184E091E0AC
:1006F00090934A018093490185EC90E090935601D4
:100700008093550184EC90E09093580180935701B9
:1007100080EC90E090935A018093590181EC90E035
:1007200090935C0180935B0182EC90E090935E017A
:1007300080935D0186EC90E09093600180935F016F
:10074000109262011092630110926401109265018F
:100750001092EC011092ED011092EE011092EF0157
:100760001092F0011092F1011092F2011092F30137
:100770001092F4011092F5011092F6011092F70117
:100780001092F8011092F9011092FA011092FB01F7
:1007900082E090E090932F0280932E0283E090E01D
:1007A0009093310280933002E0EBF0E02491ECE989
:1007B000F0E08491882399F090E0880F991FFC0164
:1007C000E057FF4FA591B491FC01EA57FF4F859187
:1007D00094918FB7F894EC91E22BEC938FBFE1EBFF
:1007E000F0E02491EDE9F0E084918823C1F090E0FD
:1007F000880F991FFC01E057FF4FC591D491FC0170
:10080000EA57FF4FA591B4919FB7F8948881E22FE2
:10081000E0958E2388838C91E823EC939FBFDF9132
:10082000CF910895789484B5826084BD84B5816049
:1008300084BD85B5826085BD85B5816085BD8091AB
:100840006E00816080936E00109281008091810023
:10085000826080938100809181008160809381001B
:10086000809180008160809380008091B1008460DD
:100870008093B1008091B00081608093B00080913E
:100880007A00846080937A0080917A0082608093FD
:100890007A0080917A00816080937A0080917A005A
:1008A000806880937A001092C10010922A02109200
:1008B0002B0210922C0210922D021092E80110923D
:1008C000E9011092EA011092EB010E9411026B0102
:1008D0007C014B015C0128EB820E2BE0921EA11CD7
:1008E000B11C0E9411026C157D058E059F0528F034
:1008F00086169706A806B906A0F789E491E09093BA
:100900002902809328020E948C000E9411026093A9
:10091000E8017093E9018093EA019093EB0162E1B1
:1009200071E080912802909129020E941F020E948A
:1009300011026B017C014B015C013AE0830E911CBA
:10094000A11CB11C0E9411026C157D058E059F052E
:1009500028F086169706A806B906A0F781E08093CE
:10096000FC010E948C00C3E2D0E09AE3892E912C16
:10097000A12CB12C0E941102672B682B692B41F42A
:100980000E941102623071058105910508F414C1BD
:100990000E941102C0904501D0904601E0904701AD
:1009A000F09048016C157D058E059F0540F460931D
:1009B0004501709346018093470190934801C09090
:1009C0004501D0904601E0904701F09048019B011D
:1009D000AC012C193D094E095F0969017A013AEF12
:1009E000C316D104E104F10408F4E6C060934501A4
:1009F00070934601809347019093480184EF91E002
:100A0000A0E0B0E08093F4019093F501A093F6018B
:100A1000B093F7011092F8011092F9011092FA01C7
:100A20001092FB018091EC019091ED01A091EE01FB
:100A3000B091EF018093F0019093F101A093F20146
:100A4000B093F3010E9411026093EC017093ED01E9
:100A50008093EE019093EF010E9411026093E801F0
:100A60007093E9018093EA019093EB010E941102D7
:100A70006B017C0164E271E080912802909129026F
:100A80000E941F022AE041E050E060E070E08091A7
:100A90002802909129020E9434026BE271E0809159
:100AA0002802909129020E941F022AE0B701A601A4
:100AB00080912802909129020E9434026DE271E037
:100AC00080912802909129020E941F028091EC01DE
:100AD0009091ED01A091EE01B091EF01B701A60157
:100AE000481B590B6A0B7B0B2AE0809128029091DE
:100AF00029020E9434026DE271E0809128029091F7
:100B000029020E941F024091EC015091ED01609179
:100B1000EE017091EF018091F0019091F101A091AF
:100B2000F201B091F301481B590B6A0B7B0B2AE0D1
:100B300080912802909129020E9434026FE271E0B4
:100B400080912802909129020E941F020E941102A6
:100B5000AB01BC012AE080912802909129020E94F9
:100B60003402E0902802F090290261E371E0C701AD
:100B70000E941F0261E271E0C7010E941F020E94F1
:100B800011026B017C012B013C0192E0490E511CCA
:100B9000611C711C0E9411026C157D058E059F055C
:100BA00008F05DC00E9411026093EC017093ED01AA
:100BB0008093EE019093EF0161E080912E020E94FC
:100BC000C401CE010197F1F760E080912E020E94EE
:100BD000C40180913002909131029927FC01E255C5
:100BE000FF4F6491FC01E656FF4FE491F0E0EE0FF9
:100BF000FF1FE458FF4F8591949100E412E42FE029
:100C000030E0462F0E941F03611571058105910593
:100C100049F0DC01CB010196A11DB11DBC01CD0144
:100C20009F7003C060E070E0CB01A50194010E94B9
:100C30005806BA01A9012AE089E491E00E94340231
:100C400068E371E089E491E00E941F0261E271E0D3
:100C500089E491E00E941F020E94BA018BCE4616E1
:100C600057066806790608F095CF9CCFA1E21A2EA8
:100C7000AA1BBB1BFD010DC0AA1FBB1FEE1FFF1F40
:100C8000A217B307E407F50720F0A21BB30BE40B90
:100C9000F50B661F771F881F991F1A9469F76095D7
:100CA0007095809590959B01AC01BD01CF01089591
:100CB000052E97FB1EF400940E946F0657FD07D087
:100CC0000E94360607FC03D04EF40C946F06509534
:100CD0004095309521953F4F4F4F5F4F0895909528
:100CE0008095709561957F4F8F4F9F4F0895EE0FC0
:100CF000FF1F0590F491E02D099481E090E0F894B5
:080D00000C948206F894FFCF69
:100D0800000000004B01B400E20098011301F1005B
:100D18000501564D4450565F317C315F564D445065
:100D2800560D0A00564D4450455F003A323A007C51
:0C0D3800005F564D4450450020636D00E4
:107E0000112484B714BE81FFF0D085E080938100F7
:107E100082E08093C00088E18093C10086E0809377
:107E2000C20080E18093C4008EE0C9D0259A86E02C
:107E300020E33CEF91E0309385002093840096BBD3
:107E4000B09BFECF1D9AA8958150A9F7CC24DD24C4
:107E500088248394B5E0AB2EA1E19A2EF3E0BF2EE7
:107E6000A2D0813461F49FD0082FAFD0023811F036
:107E7000013811F484E001C083E08DD089C08234E0
:107E800011F484E103C0853419F485E0A6D080C0E4
:107E9000853579F488D0E82EFF2485D0082F10E0AE
:107EA000102F00270E291F29000F111F8ED06801E7
:107EB0006FC0863521F484E090D080E0DECF843638
:107EC00009F040C070D06FD0082F6DD080E0C81688
:107ED00080E7D80618F4F601B7BEE895C0E0D1E017
:107EE00062D089930C17E1F7F0E0CF16F0E7DF06D8
:107EF00018F0F601B7BEE89568D007B600FCFDCFD4
:107F0000A601A0E0B1E02C9130E011968C91119780
:107F100090E0982F8827822B932B1296FA010C0160
:107F200087BEE89511244E5F5F4FF1E0A038BF0790
:107F300051F7F601A7BEE89507B600FCFDCF97BE46
:107F4000E89526C08437B1F42ED02DD0F82E2BD052
:107F50003CD0F601EF2C8F010F5F1F4F84911BD097
:107F6000EA94F801C1F70894C11CD11CFA94CF0C13
:107F7000D11C0EC0853739F428D08EE10CD085E9AC
:107F80000AD08FE07ACF813511F488E018D01DD067
:107F900080E101D065CF982F8091C00085FFFCCF94
:107FA0009093C60008958091C00087FFFCCF809118
:107FB000C00084FD01C0A8958091C6000895E0E648
:107FC000F0E098E1908380830895EDDF803219F02E
:107FD00088E0F5DFFFCF84E1DECF1F93182FE3DFCA
:107FE0001150E9F7F2DF1F91089580E0E8DFEE27F6
:047FF000FF270994CA
:027FFE00040479
:0400000300007E007B
:00000001FF