:100000000C9435000C945D000C945D000C945D0024
:100010000C945D000C945D000C945D000C945D00EC
:100020000C945D000C945D000C945D000C945D00DC
:100030000C945D000C945D000C945D000C945D00CC
:100040000C9480020C945D000C944E020C942802D7
:100050000C945D000C945D000C945D000C945D00AC
:100060000C945D000C945D00CA0211241FBECFEFFA
:10007000D8E0DEBFCDBF22E0A4E4B1E001C01D9214
:10008000A633B207E1F711E0A0E0B1E0E2EAFFE059
:1000900002C005900D92A434B107D9F710E0C5E372
:1000A000D0E004C02197FE010E94C407C433D107E9
:1000B000C9F70E9409030C94CF070C940000E1E5F6
:1000C000F1E0A089B18982E08C93A485B5851C926A
:1000D000A685B7858FEC8C93108EA489B58986E0B0
:1000E0008C93A289B3898C9180618C93A289B38906
:1000F0008C9188608C93A289B3898C9180688C9351
:100100000288F389E02D80818F7D80830895CF92CE
:10011000DF92EF92FF920F931F93CF93DF936C01C7
:100120007A018B01C0E0D0E0CE15DF0581F0D80167
:100130006D918D01D601ED91FC910190F081E02D42
:10014000C6010995892B11F02196EECF7E01C701DA
:10015000DF91CF911F910F91FF90EF90DF90CF90A3
:100160000895089580E090E00895FC01538D448D3A
:10017000252F30E0842F90E0821B930B541710F052
:10018000CF96089501970895FC01918D828D98175F
:1001900061F0828DDF01A80FB11D5D968C91928D6B
:1001A0009F5F9F73928F90E008958FEF9FEF089568
:1001B000FC01918D828D981731F0828DE80FF11D31
:1001C000858D90E008958FEF9FEF0895FC01918D4C
:1001D000228D892F90E0805C9F4F821B91098F7345
:1001E0009927089581E591E00E94E60021E0892B9E
:1001F00009F420E0822F0895FC01848DDF01A80F0F
:10020000B11DA35ABF4F2C91848D90E001968F733E
:100210009927848FA689B7892C93A089B1898C915D
:10022000837080648C93938D848D981306C00288AC
:10023000F389E02D80818F7D80830895EF92FF9276
:100240000F931F93CF93DF93EC0181E0888F9B8DF9
:100250008C8D981305C0E889F989808185FD26C0B9
:10026000F62E0B8D10E00F5F1F4F0F731127E02E3E
:100270008C8DE8120CC00FB607FCFACFE889F9891B
:10028000808185FFF5CFCE010E94FC00F1CF8B8DE0
:10029000FE01E80FF11DE35AFF4FF0829FB7F8947B
:1002A0000B8FEA89FB89808180620AC09FB7F8942E
:1002B000EE89FF896083E889F98980818370806491
:1002C00080839FBF81E090E0DF91CF911F910F91DC
:1002D000FF90EF900895CF93DF93EC01888D8823F2
:1002E000C9F0EA89FB89808185FD05C0A889B989A3
:1002F0008C9186FD0FC00FB607FCF5CF808185FF7E
:10030000F2CFA889B9898C9185FFEDCFCE010E94EB
:10031000FC00E7CFDF91CF91089580E090E0892B3A
:1003200029F00E94F20081110C94000008953FB75B
:10033000F8948091490190914A01A0914B01B091AC
:100340004C0126B5A89B05C02F3F19F00196A11DB1
:10035000B11D3FBFBA2FA92F982F8827820F911D5B
:10036000A11DB11DBC01CD0142E0660F771F881FA2
:10037000991F4A95D1F708952FB7F89460914501D8
:100380007091460180914701909148012FBF0895D7
:100390000E94CA076115710579F0FB0101900020E8
:1003A000E9F73197AF01461B570BDC01ED91FC914A
:1003B0000280F381E02D099480E090E008958F920F
:1003C0009F92AF92BF92EF92FF920F931F93CF93A2
:1003D000DF93CDB7DEB7A1970FB6F894DEBF0FBE9F
:1003E000CDBF7C01FA01CB0119A2223008F42AE02A
:1003F0008E010F5D1F4F822E912CA12CB12CBF01BD
:10040000A50194010E94FC06F901CA0101501109DD
:100410006A3014F4605D01C0695CD8016C93232BD1
:10042000242B252B61F7B801C7010E94CA01A196B0
:100430000FB6F894DEBF0FBECDBFDF91CF911F91F5
:100440000F91FF90EF90BF90AF909F908F90089585
:100450001F920F920FB60F9211242F933F934F9339
:100460005F936F937F938F939F93AF93BF93EF931C
:10047000FF9381E591E00E94FC00FF91EF91BF9115
:10048000AF919F918F917F916F915F914F913F912C
:100490002F910F900FBE0F901F9018951F920F92E3
:1004A0000FB60F9211242F938F939F93EF93FF9387
:1004B000E0916101F09162018081E0916701F0912A
:1004C000680182FD12C0908180916A018F5F8F73F5
:1004D00020916B01821751F0E0916A01F0E0EF5A30
:1004E000FE4F958F80936A0101C08081FF91EF914B
:1004F0009F918F912F910F900FBE0F901F90189585
:100500001F920F920FB60F9211242F933F938F9348
:100510009F93AF93BF938091450190914601A09125
:100520004701B09148013091440123E0230F2D375A
:1005300020F40196A11DB11D05C026E8230F0296E7
:10054000A11DB11D20934401809345019093460164
:10055000A0934701B09348018091490190914A01CD
:10056000A0914B01B0914C010196A11DB11D80934A
:10057000490190934A01A0934B01B0934C01BF9164
:10058000AF919F918F913F912F910F900FBE0F9040
:100590001F901895E1E5F1E01382128288EE93E056
:1005A000A0E0B0E084839583A683B78384E091E0E4
:1005B0009183808385EC90E09587848784EC90E03C
:1005C0009787868780EC90E0918B808B81EC90E020
:1005D000938B828B82EC90E0958B848B86EC90E001
:1005E000978B868B118E128E138E148EEEEEF1E0A9
:1005F0001682178210861186128613861486158637
:1006000016861786108A118A128A138A148A158A06
:100610000895789484B5826084BD84B5816084BD7A
:1006200085B5826085BD85B5816085BD80916E0090
:10063000816080936E0010928100809181008260C1
:1006400080938100809181008160809381008091FE
:1006500080008160809380008091B10084608093ED
:10066000B1008091B00081608093B00080917A00E9
:10067000846080937A0080917A00826080937A000F
:1006800080917A00816080937A0080917A008068FE
:1006900080937A001092C1001092320210923302BD
:1006A00010923402109235021092F0011092F10172
:1006B0001092F2011092F3010E94BC016B017C01C7
:1006C0004B015C0128EB820E2BE0921EA11CB11C99
:1006D0000E94BC016C157D058E059F0528F08616CD
:1006E0009706A806B906A0F781E591E0909331023C
:1006F000809330020E945F000E94BC016093F00171
:100700007093F1018093F2019093F30162E171E043
:1007100080913002909131020E94CA010E94BC0176
:100720006B017C014B015C013AE0830E911CA11C22
:10073000B11C0E94BC016C157D058E059F0528F03B
:1007400086169706A806B906A0F781E080930402F2
:100750000E945F00C1E40E94BC01672B682B692BDB
:1007600041F40E94BC01623071058105910508F4D5
:1007700014C10E94BC01C0904D01D0904E01E09088
:100780004F01F09050016C157D058E059F0540F4DA
:1007900060934D0170934E0180934F0190935001EF
:1007A000C0904D01D0904E01E0904F01F09050016B
:1007B0009B01AC012C193D094E095F0969017A01C1
:1007C0003AEFC316D104E104F10408F4E6C06093E3
:1007D0004D0170934E0180934F019093500184EF2F
:1007E00091E0A0E0B0E08093FC019093FD01A09324
:1007F000FE01B093FF0110920002109201021092CC
:100800000202109203028091F4019091F501A091EF
:10081000F601B091F7018093F8019093F901A0934C
:10082000FA01B093FB010E94BC016093F401709344
:10083000F5018093F6019093F7010E94BC0160934B
:10084000F0017093F1018093F2019093F3010E9403
:10085000BC016B017C0164E271E0809130029091F7
:1008600031020E94CA012AE041E050E060E070E0FD
:1008700080913002909131020E94DF016BE271E0C1
:1008800080913002909131020E94CA012AE0B701A2
:10089000A60180913002909131020E94DF016DE249
:1008A00071E080913002909131020E94CA018091E2
:1008B000F4019091F501A091F601B091F701B70113
:1008C000A601481B590B6A0B7B0B2AE08091300272
:1008D000909131020E94DF016DE271E0809130025F
:1008E000909131020E94CA014091F4015091F501AA
:1008F0006091F6017091F7018091F8019091F901F2
:10090000A091FA01B091FB01481B590B6A0B7B0BBC
:100910002AE080913002909131020E94DF016FE263
:1009200071E080913002909131020E94CA010E94D0
:10093000BC01AB01BC012AE08091300290913102F0
:100940000E94DF01E0903002F090310261E371E03B
:10095000C7010E94CA0161E271E0C7010E94CA0199
:100960000E94BC016B017C014B015C0192E0890E8D
:10097000911CA11CB11C0E94BC016C157D058E054B
:100980009F0508F00EC10E94BC016093F4017093B2
:10099000F5018093F6019093F701C0937C0080915C
:1009A0007A00806480937A0080917A0086FDFCCF83
:1009B000609178008091790070E0782B072E000C10
:1009C000880B990B0E94DF0520E030E040EA50E4FC
:1009D0000E943E0620E030E048EC52E40E943E06D1
:1009E00020E030E040E85AE30E943E066B017C01C3
:1009F0004B015C019B01AC010E94BF07882319F0E9
:100A000068E371E01AC026013701E89477F82FEF08
:100A10003FEF4FE75FE7C301B2010E94BF078111BB
:100A200011C02FEF3FEF4FE75FE7C301B2010E9414
:100A3000D80518163CF46CE371E081E591E00E9462
:100A4000CA017FC02FEF3FEF4FE75FE4C701B60158
:100A50000E94BA0718161CF460E471E0EECF2FEF85
:100A60003FEF4FE75FECC701B6010E94D80587FD55
:100A7000F3CF20E030E0A901C701B6010E94D805FC
:100A800087FF0BC06DE281E591E00E941E014601E7
:100A90005701B7FAB094B7F8B0942AE037ED43EABB
:100AA0005BE3C501B4010E941F074B015C010E947A
:100AB0008B076B017C010E94DD059B01AC01C50128
:100AC000B4010E941E074B015C012AE0B701A60198
:100AD00081E591E00E94DF016EE281E591E00E94F4
:100AE0001E0120E030E040E251E4C501B4010E9463
:100AF0003E064B015C010E948B076B01E12CF12C3F
:100B00002AE0B701A60181E591E00E94DF01C7015B
:100B1000B6010E94DD059B01AC01C501B4010E9434
:100B20001E0720E030E040E251E40E943E060E94B1
:100B30008B07AB0160E070E02AE081E591E00E9464
:100B4000DF0161E271E081E591E00E94CA010E944B
:100B500097014B015C0188EEC82E83E0D82EE12C72
:100B6000F12C0E949701DC01CB0188199909AA098F
:100B7000BB09883E9340A105B10598F3A1E0CA1ACC
:100B8000D108E108F108B8EE8B0EB3E09B1EA11C62
:100B9000B11CC114D104E104F10419F70E948D01C4
:100BA000DACD86169706A806B90608F0E4CEEBCE95
:100BB0000E941A0608F481E00895E89409C097FBA2
:100BC0003EF490958095709561957F4F8F4F9F4F24
:100BD0009923A9F0F92F96E9BB279395F695879568
:100BE00077956795B795F111F8CFFAF4BB0F11F42B
:100BF00060FF1BC06F5F7F4F8F4F9F4F16C08823D2
:100C000011F096E911C0772321F09EE8872F762F07
:100C100005C0662371F096E8862F70E060E02AF048
:100C20009A95660F771F881FDAF7880F9695879534
:100C300097F90895990F0008550FAA0BE0E8FEEF09
:100C400016161706E807F907C0F012161306E40790
:100C5000F50798F0621B730B840B950B39F40A2689
:100C600061F0232B242B252B21F408950A2609F467
:100C7000A140A6958FEF811D811D08950E94510608
:100C80000C94C2060E94B40638F00E94BB0620F005
:100C9000952311F00C94AB060C94B10611240C941E
:100CA000F6060E94D30670F3959FC1F3950F50E0AE
:100CB000551F629FF001729FBB27F00DB11D639F0E
:100CC000AA27F00DB11DAA1F649F6627B00DA11DB4
:100CD000661F829F2227B00DA11D621F739FB00D5A
:100CE000A11D621F839FA00D611D221F749F3327CA
:100CF000A00D611D231F849F600D211D822F762F63
:100D00006A2F11249F5750409AF0F1F088234AF03F
:100D1000EE0FFF1FBB1F661F771F881F91505040AB
:100D2000A9F79E3F510580F00C94AB060C94F60693
:100D30005F3FE4F3983ED4F3869577956795B79532
:100D4000F795E7959F5FC1F7FE2B880F911D96954C
:100D5000879597F9089597F99F6780E870E060E0BC
:100D600008959FEF80EC089500240A941616170644
:100D700018060906089500240A941216130614068C
:100D800005060895092E0394000C11F4882352F0EF
:100D9000BB0F40F4BF2B11F460FF04C06F5F7F4FA7
:100DA0008F4F9F4F089557FD9058440F551F59F08E
:100DB0005F3F71F04795880F97FB991F61F09F3F48
:100DC00079F087950895121613061406551FF2CF71
:100DD0004695F1DF08C0161617061806991FF1CFC1
:100DE00086957105610508940895E894BB276627E8
:100DF0007727CB0197F90895A1E21A2EAA1BBB1BF6
:100E0000FD010DC0AA1FBB1FEE1FFF1FA217B307D6
:100E1000E407F50720F0A21BB30BE40BF50B661FEC
:100E2000771F881F991F1A9469F7609570958095B0
:100E300090959B01AC01BD01CF0108955058BB278F
:100E4000AA270E9436070C94C2060E94B40638F006
:100E50000E94BB0620F039F49F3F19F426F40C944D
:100E6000B1060EF4E095E7FB0C94AB06E92F0E9467
:100E7000D30658F3BA17620773078407950720F063
:100E800079F4A6F50C94F5060EF4E0950B2EBA2F26
:100E9000A02D0B01B90190010C01CA01A001112480
:100EA000FF27591B99F0593F50F4503E68F11A162C
:100EB000F040A22F232F342F4427585FF3CF4695BD
:100EC00037952795A795F0405395C9F77EF41F16DF
:100ED000BA0B620B730B840BBAF09150A1F0FF0FA9
:100EE000BB1F661F771F881FC2F70EC0BA0F621F95
:100EF000731F841F48F4879577956795B795F79585
:100F00009E3F08F0B0CF9395880F08F09927EE0F19
:100F10009795879508950E94DB0688F09F5798F073
:100F2000B92F9927B751B0F0E1F0660F771F881FEE
:100F3000991F1AF0BA95C9F714C0B13091F00E9408
:100F4000F506B1E008950C94F506672F782F8827F1
:100F5000B85F39F0B93FCCF3869577956795B3952F
:100F6000D9F73EF490958095709561957F4F8F4F9E
:100F70009F4F08950E941A0608F48FEF08950E946B
:100F80001A06880B990B0895EE0FFF1F0590F49138
:100F9000E02D099481E090E0F8940C94CF07F89448
:020FA000FFCF81
:100FA200000000001E018700B5006B01E600C400CE
:100FB200D800564D4450565F317C315F564D4450F7
:100FC200560D0A00564D4450455F003A323A007CB5
:100FD200005F564D445045006E616E00696E6600BA
:040FE2006F766600C0
:107E0000112484B714BE81FFF0D085E080938100F7
:107E100082E08093C00088E18093C10086E0809377
:107E2000C20080E18093C4008EE0C9D0259A86E02C
:107E300020E33CEF91E0309385002093840096BBD3
:107E4000B09BFECF1D9AA8958150A9F7CC24DD24C4
:107E500088248394B5E0AB2EA1E19A2EF3E0BF2EE7
:107E6000A2D0813461F49FD0082FAFD0023811F036
:107E7000013811F484E001C083E08DD089C08234E0
:107E800011F484E103C0853419F485E0A6D080C0E4
:107E9000853579F488D0E82EFF2485D0082F10E0AE
:107EA000102F00270E291F29000F111F8ED06801E7
:107EB0006FC0863521F484E090D080E0DECF843638
:107EC00009F040C070D06FD0082F6DD080E0C81688
:107ED00080E7D80618F4F601B7BEE895C0E0D1E017
:107EE00062D089930C17E1F7F0E0CF16F0E7DF06D8
:107EF00018F0F601B7BEE89568D007B600FCFDCFD4
:107F0000A601A0E0B1E02C9130E011968C91119780
:107F100090E0982F8827822B932B1296FA010C0160
:107F200087BEE89511244E5F5F4FF1E0A038BF0790
:107F300051F7F601A7BEE89507B600FCFDCF97BE46
:107F4000E89526C08437B1F42ED02DD0F82E2BD052
:107F50003CD0F601EF2C8F010F5F1F4F84911BD097
:107F6000EA94F801C1F70894C11CD11CFA94CF0C13
:107F7000D11C0EC0853739F428D08EE10CD085E9AC
:107F80000AD08FE07ACF813511F488E018D01DD067
:107F900080E101D065CF982F8091C00085FFFCCF94
:107FA0009093C60008958091C00087FFFCCF809118
:107FB000C00084FD01C0A8958091C6000895E0E648
:107FC000F0E098E1908380830895EDDF803219F02E
:107FD00088E0F5DFFFCF84E1DECF1F93182FE3DFCA
:107FE0001150E9F7F2DF1F91089580E0E8DFEE27F6
:047FF000FF270994CA
:027FFE00040479
:0400000300007E007B
:00000001FF