:100000000C9463000C948B000C948B000C948B006C
:100010000C948B000C948B000C948B000C942B088C
:100020000C948B000C948B000C948B000C94B502F8
:100030000C948B000C948B000C948B000C948B0014
:100040000C946B020C948B000C94C2010C949C01D8
:100050000C948B000C948B000C948B000C948B00F4
:100060000C948B000C948B0000000008000201002F
:100070000003040700000000000000000000000072
:1000800023002600290000000000240027002A0089
:10009000010204081020408001020408102001021F
:1000A0000408102000000000250028002B00040494
:1000B0000404040404040202020202020303030310
:1000C00003030200EB1111241FBECFEFD8E0DEBF07
:1000D000CDBF23E0AAE3B1E001C01D92AA32B2076E
:1000E000E1F711E0A0E0B1E0EEE2FAE202C0059033
:1000F0000D92AA33B107D9F710E0C3E6D0E004C0EF
:100100002197FE010E940A15C236D107C9F70E9445
:1001100087080C9415150C940000089580E090E079
:100120000895FC01538D448D252F30E0842F90E0FD
:10013000821B930B541710F0CF96089501970895E2
:10014000FC01918D828D981761F0828DDF01A80FDF
:10015000B11D5D968C91928D9F5F9F73928F90E001
:1001600008958FEF9FEF0895FC01918D828D981770
:1001700031F0828DE80FF11D858D90E008958FEFAD
:100180009FEF0895FC01918D228D892F90E0805C76
:100190009F4F821B91098F739927089581E691E003
:1001A0000E94C20021E0892B09F420E0822F0895EB
:1001B000FC01848DDF01A80FB11DA35ABF4F2C9104
:1001C000848D90E001968F739927848FA689B789D3
:1001D0002C93A089B1898C91837080648C93938DCA
:1001E000848D981306C00288F389E02D80818F7D6D
:1001F00080830895EF92FF920F931F93CF93DF9325
:10020000EC0181E0888F9B8D8C8D981305C0E88967
:10021000F989808185FD26C0F62E0B8D10E00F5FD9
:100220001F4F0F731127E02E8C8DE8120CC00FB6F4
:1002300007FCFACFE889F989808185FFF5CFCE01E7
:100240000E94D800F1CF8B8DFE01E80FF11DE35A1B
:10025000FF4FF0829FB7F8940B8FEA89FB8980816A
:1002600080620AC09FB7F894EE89FF896083E889AD
:10027000F98980818370806480839FBF81E090E0F2
:10028000DF91CF911F910F91FF90EF900895CF9341
:10029000DF93EC01888D8823C9F0EA89FB8980818E
:1002A00085FD05C0A889B9898C9186FD0FC00FB660
:1002B00007FCF5CF808185FFF2CFA889B9898C91A1
:1002C00085FFEDCFCE010E94D800E7CFDF91CF911F
:1002D000089580E090E0892B29F00E94CE008111E2
:1002E0000C9400000895833081F028F4813099F057
:1002F0008230A1F008958730A9F08830B9F08430B9
:10030000D1F4809180008F7D03C0809180008F7731
:1003100080938000089584B58F7702C084B58F7D67
:1003200084BD08958091B0008F7703C08091B000A4
:100330008F7D8093B00008951F920F920FB60F9299
:1003400011242F933F934F935F936F937F938F93DA
:100350009F93AF93BF93EF93FF9381E691E00E9449
:10036000D800FF91EF91BF91AF919F918F917F91B5
:100370006F915F914F913F912F910F900FBE0F9012
:100380001F9018951F920F920FB60F9211242F9362
:100390008F939F93EF93FF93E0917101F09172011E
:1003A0008081E0917701F091780182FD12C0908107
:1003B00080917A018F5F8F7320917B01821751F0BA
:1003C000E0917A01F0E0EF59FE4F958F80937A012A
:1003D00001C08081FF91EF919F918F912F910F909C
:1003E0000FBE0F901F9018951F93CF93DF93282F68
:1003F00030E0F901E859FF4F8491F901E057FF4FD0
:10040000D491F901E255FF4FC491CC23C1F0162FCE
:1004100081110E947301EC2FF0E0EE0FFF1FEC55ED
:10042000FF4FA591B4919FB7F894111104C08C911E
:10043000D095D82302C0EC91DE2BDC939FBFDF91D7
:10044000CF911F910895CF93DF9390E0FC01E05787
:10045000FF4F2491FC01E255FF4F8491882361F105
:1004600090E0880F991FFC01EA57FF4FC591D49186
:10047000FC01EC55FF4FA591B491611109C09FB7E4
:10048000F8948881209582238883EC912E230BC0D9
:10049000623061F49FB7F8948881322F30958323BE
:1004A0008883EC912E2B2C939FBF06C08FB7F894B6
:1004B000E8812E2B28838FBFDF91CF9108952FB72E
:1004C000F89460914D0170914E0180914F0190918F
:1004D00050012FBF08951F920F920FB60F92112453
:1004E0002F933F938F939F93AF93BF9380914D0131
:1004F00090914E01A0914F01B091500130914C016B
:1005000023E0230F2D3720F40196A11DB11D05C056
:1005100026E8230F0296A11DB11D20934C01809364
:100520004D0190934E01A0934F01B09350018091E3
:10053000480190914901A0914A01B0914B01019667
:10054000A11DB11D8093480190934901A0934A01D8
:10055000B0934B01BF91AF919F918F913F912F919C
:100560000F900FBE0F901F9018951F920F920FB60D
:100570000F9211242F933F934F935F936F937F9329
:100580008F939F93AF93BF93CF93DF93EF93FF939B
:100590002091470230E0F901E859FF4F8491F901B9
:1005A000E057FF4FD491F901E255FF4FC491CC239E
:1005B00079F081110E947301EC2FF0E0EE0FFF1F24
:1005C000E458FF4FA591B491EC91ED2381E009F43B
:1005D00080E020914B0230914C022F5F3F4F3093CF
:1005E0004C0220934B0290914A02953618F096E007
:1005F00090934602909146029430C9F128F49230CB
:1006000069F09330D1F05EC0953009F451C0963056
:1006100009F058C091E09093170351C0811152C066
:1006200020914B0230914C022436310508F442C02F
:100630001092170310924A021CC0813009F042C088
:10064000E0914A0291E09E0F90934A02F0E02091DF
:100650004B0230914C02EE0FFF1FEA5BFD4F3087DB
:10066000278310924C0210924B0294E029C0811112
:1006700017C0E0914A0291E09E0F90934A02F0E089
:1006800020914B0230914C02EE0FFF1FEA5BFD4FB1
:100690003087278310924C0210924B0293E010C0D7
:1006A00020914B0230914C022536310558F007C09D
:1006B000811108C010924C0210924B0203C095E0C9
:1006C00090934602909149029923B9F081110AC092
:1006D00080914802882321F08091480261E009C09E
:1006E0002D9A0BC080914802882331F080914802F6
:1006F00060E00E94F40101C02D98FF91EF91DF911D
:10070000CF91BF91AF919F918F917F916F915F91A9
:100710004F913F912F910F900FBE0F901F90189502
:10072000CF92DF92EF92FF92CF93DF93EC01072EEF
:10073000000C880B990B0E9436126B017C0120E0A3
:1007400030E040E45FE30E94951220E030E048E4AE
:1007500052E40E940C140E947E14C617D707D4F0EE
:1007600020E030E040EA5FE3C701B6010E94951245
:1007700020E030E048E452E40E940C1420E030E035
:1007800040E85FE30E94A0130E947E1421E06C17F2
:100790007D070CF420E0822F90E0DF91CF91FF9055
:1007A000EF90DF90CF9008956F3C20E372072FEF1A
:1007B0008207910551F440E050E0BA0183E890E0EF
:1007C0000E94B80484E690E057C0653B2AE47207B3
:1007D0002FEF8207910509F444C0E4F4673E28E155
:1007E00072072FEF8207910509F441C034F46F3E80
:1007F00070418F4F910549F10895673C28E37207D6
:100800002FEF8207910521F16D3B72448F4F9105C7
:1008100029F10895653A2AE572072FEF82079105BD
:10082000D1F034F46D3A72458F4F9105E9F0089597
:10083000673928E672072FEF82079105A9F065381E
:100840007A478F4F9105B1F008958FEA90E014C078
:1008500084EC90E011C08CED90E00EC087EF90E04A
:100860000BC086E091E008C088E00C94000883E9A2
:1008700090E002C085EA90E04AEF50E060E070E06E
:100880000C94B804673528EA72072FEF82079105A8
:1008900049F480913A0190913B018F3F91059CF47E
:1008A00001960DC06F31704E8F4F910561F48091AC
:1008B0003A0190913B01181619062CF40197909378
:1008C0003B0180933A010895CF92DF92EF92FF921D
:1008D0000F931F93CF93DF936C017A018B01C0E0DC
:1008E000D0E0CE15DF0581F0D8016D918D01D601E4
:1008F000ED91FC910190F081E02DC6010995892BC5
:1009000011F02196EECF7E01C701DF91CF911F91AB
:100910000F91FF90EF90DF90CF9008950E941015F7
:10092000E1E6F1E0A089B18982E08C93A485B585E8
:100930001C92A685B7858FEC8C93108EA489B589FF
:1009400086E08C93A289B3898C9180618C93A28973
:10095000B3898C9188608C93A289B3898C918068CB
:100960008C930288F389E02D80818F7D80830895A8
:100970004F925F926F927F928F929F92AF92BF92AF
:10098000CF92DF92EF92FF920F931F93CF93DF935B
:1009900000D000D01F92CDB7DEB78C012A013B01F9
:1009A00080910001883021F08F3F09F03DC205C0E1
:1009B000E2ECF0E024912D8372C088E08093000186
:1009C000E2ECF0E084918D838F3F09F42DC28130F9
:1009D00009F441C038F1823009F061C01092B000D2
:1009E0001092B1008091B00082608093B00080913D
:1009F000B10081608093B100E6EBF0E0E491F0E0BB
:100A0000EE0FFF1FEC55FF4F8591949190931B03C0
:100A100080931A03E8E9F0E0E491E093190322E0FF
:100A20002D83FDC114BC15BC84B5826084BD85B521
:100A3000816085BDE6EBF0E0E491F0E0EE0FFF1F92
:100A4000EC55FF4F85919491E8E9F0E0E491E09353
:100A50001D031D82E4C110928000109281008091DC
:100A60008100886080938100809181008160809303
:100A70008100E6EBF0E0E491F0E0EE0FFF1FEC55B3
:100A8000FF4F85919491E8E9F0E0E491E0931C0335
:100A900061E088E00E94230291E09D838AC08D81FD
:100AA00087FDC2C161E088E00E9423028D818D7FB5
:100AB00009F07FC04801A12CB12C60E072E18AE707
:100AC00090E0A50194010E94B41429833A834B83DA
:100AD0005C8369017A0191E0C91AD108E108F10843
:100AE0002FEFC216D104E104F10409F008F44EC05E
:100AF00060E472E48FE090E0A50194010E94B414D8
:100B000069017A0181E0C81AD108E108F1089D81E4
:100B1000923009F52FEFC216D104E104F10409F077
:100B200008F444C160E970ED83E090E0A501940110
:100B30000E94B41469017A0181E0C81AD108E10861
:100B4000F1089FEFC916D104E104F10411F008F097
:100B5000BAC083E027C02FEFC216D104E104F1042C
:100B6000B9F0B0F068E478EE81E090E0A50194017E
:100B70000E94B41469017A0181E0C81AD108E10821
:100B8000F1089D81992309F413C1DCC081E001C003
:100B900082E09D81911106C095B5987F892B85BD16
:100BA00044C085E09091B100987F892B8093B1007B
:100BB0003CC04801A12CB12C60E072E18AE790E0D2
:100BC000A50194010E94B41469017A0181E0C81A58
:100BD000D108E108F108C114D10491E0E906F1045B
:100BE00088F068E478EE81E090E0A50194010E942D
:100BF000B41469017A0181E0C81AD108E108F1084A
:100C000083E001C081E09D81913079F49091810071
:100C1000987F892B809381004114510461047104F1
:100C200049F42FEF3FEFA9012CC041145104610496
:100C3000710471F0D801AA0FBB1FA30192010E9499
:100C4000851328EE33E040E050E00E94631303C0B8
:100C50002FEF3FEFA9018D81813099F0823019F19A
:100C60008111E2C0C7BC2093260330932703409331
:100C700028035093290380916E00826080936E0058
:100C8000D3C0D0928900C092880020932203309371
:100C90002303409324035093250380916F008260C7
:100CA00080936F00C1C0C092B30020931E033093A5
:100CB0001F034093200350932103809170008260B2
:100CC00080937000B1C068E478EE81E090E0A50107
:100CD00094010E94B41469017A0191E0C91AD10803
:100CE000E108F1082FEFC216D104E104F10441F14B
:100CF00038F164E274EF80E090E0A50194010E9475
:100D0000B41469017A0181E0C81AD108E108F10838
:100D10009FEFC916D104E104F10409F008F441CFB2
:100D200062E17AE780E090E0A50194010E94B414AA
:100D300069017A0181E0C81AD108E108F10819C0F7
:100D400084E030CF2FEFC216D104E104F10409F0A2
:100D500008F463C062E17AE780E090E0A5019401C5
:100D60000E94B41469017A0191E0C91AD108E1081E
:100D7000F1088FEFC816D104E104F104A9F0A0F046
:100D800089819A81AB81BC812AE0B595A795979519
:100D900087952A95D1F76C017D0121E0C21AD1080F
:100DA000E108F10887E0FECE86E0FCCE82E0FACED4
:100DB0008FEFC816D104E104F10469F160F162E13A
:100DC0007AE780E090E0A50194010E94B4146901E3
:100DD0007A0191E0C91AD108E108F1082FEFC21693
:100DE000D104E104F104A9F0A0F089819A81AB81DA
:100DF000BC813AE0B595A795979587953A95D1F737
:100E00006C017D0121E0C21AD108E108F10885E0FA
:100E1000C3CE84E0C1CE83E0BFCE84E0BACE61E031
:100E200088E00E94230246CE0F900F900F900F9003
:100E30000F90DF91CF911F910F91FF90EF90DF9076
:100E4000CF90BF90AF909F908F907F906F905F906A
:100E50004F9008956115710579F0FB010190002014
:100E6000E9F73197AF01461B570BDC01ED91FC917F
:100E70000280F381E02D099480E090E008958F9244
:100E80009F92AF92BF92EF92FF920F931F93CF93D7
:100E9000DF93CDB7DEB7A1970FB6F894DEBF0FBED4
:100EA000CDBF7C01FA01CB0119A2223008F42AE05F
:100EB0008E010F5D1F4F822E912CA12CB12CBF01F2
:100EC000A50194010E946313F901CA01015011099F
:100ED0006A3014F4605D01C0695CD8016C93232B07
:100EE000242B252B61F7B801C7010E942A07A19680
:100EF0000FB6F894DEBF0FBECDBFDF91CF911F912B
:100F00000F91FF90EF90BF90AF909F908F900895BA
:100F10008F929F92AF92BF92CF92DF92EF92FF9209
:100F20000F931F93CF93DF93FC0120813181E091D8
:100F30005D01F0915E012E173F070CF04FC0F901E3
:100F4000EE0FFF1FA0915B01B0915C01EA0FFB1F48
:100F5000A080B180217033276901F1E0CF26232BD7
:100F600019F42CE93FEF02C024E630E07A018B014E
:100F7000EC014901840E951EB401C5010E94900345
:100F8000892B99F48E0C9F1CB401C5010E9490031B
:100F9000892B71F4B701680D791DC5010E9490037A
:100FA000892BF9F023E030E005C021E030E002C0F9
:100FB00022E030E0F8018081918101968217930749
:100FC0001CF49183808308C0F8011182108288810B
:100FD0009981019699838883C60105C081E090E0DC
:100FE00002C08FEF9FEFDF91CF911F910F91FF9084
:100FF000EF90DF90CF90BF90AF909F908F9008952B
:1010000090910001891324C0E2ECF0E0E4919FEF9D
:1010100090930001E130B9F098F0E230C9F490917A
:1010200070009D7F9093700091E09093B00090913C
:10103000B100987F94609093B1001092B30008C003
:1010400010926E0005C090916F009D7F90936F008D
:1010500060E00C94F4011F920F920FB60F921124CE
:101060002F933F934F935F936F937F938F939F93B0
:10107000AF93BF93EF93FF9380911E0390911F0353
:10108000A0912003B0912103892B8A2B8B2B51F146
:1010900090911903E0911A03F0911B038081892735
:1010A000808380911E0390911F03A0912003B09133
:1010B0002103181619061A061B06C4F480911E0394
:1010C00090911F03A0912003B09121030197A109E2
:1010D000B10980931E0390931F03A0932003B09344
:1010E000210304C0809100010E940008FF91EF914C
:1010F000BF91AF919F918F917F916F915F914F9130
:101100003F912F910F900FBE0F901F901895CF9386
:10111000DF93CDB7DEB72C970FB6F894DEBF0FBEC6
:10112000CDBF789484B5826084BD84B5816084BD70
:1011300085B5826085BD85B5816085BD80916E0075
:10114000816080936E0010928100809181008260A6
:1011500080938100809181008160809381008091E3
:1011600080008160809380008091B10084608093D2
:10117000B1008091B00081608093B00080917A00CE
:10118000846080937A0080917A00826080937A00F4
:1011900080917A00816080937A0080917A008068E3
:1011A00080937A001092C100109242021092430282
:1011B0001092440210924502109200021092010215
:1011C00010920202109203020E945F026B017C01E6
:1011D0004B015C0128EB820E2BE0921EA11CB11C7E
:1011E0000E945F026C157D058E059F0528F086160E
:1011F0009706A806B906A0F781E691E09093410210
:10120000809340020E9490040E945F02609300025B
:1012100070930102809302029093030263E171E0F4
:1012200080914002909141020E942A070E945F0231
:101230006B017C014B015C013AE0830E911CA11C07
:10124000B11C0E945F026C157D058E059F0528F07C
:1012500086169706A806B906A0F711E010931402A7
:101260000E949004F8941092800089E0809381009D
:1012700080E293E09093890080938800109285002B
:101280001092840082E080936F00789480934602ED
:1012900010924A028091470260E00E94230210935C
:1012A000490261E08DE00E94230210E2212E312CE0
:1012B00044244A94542C32010E945F02672B682B0D
:1012C000692B41F40E945F0262307105810591052E
:1012D00008F413C10E945F0200914401109145017E
:1012E00020914601309147016017710782079307EB
:1012F00040F46093440170934501809346019093BC
:10130000470100914401109145012091460130911F
:1013100047016B017C01C01AD10AE20AF30A970166
:1013200086010A3F11052105310508F4E6C06093E6
:10133000440170934501809346019093470184EFE7
:1013400091E0A0E0B0E080930C0290930D02A09396
:101350000E02B0930F02109210021092110210921E
:101360001202109213028091040290910502A09142
:101370000602B09107028093080290930902A0939D
:101380000A02B0930B020E945F0260930402709302
:10139000050280930602909307020E945F02609309
:1013A00000027093010280930202909303020E9454
:1013B0005F026B017C0165E271E0809140029091D7
:1013C00041020E942A072AE041E050E060E070E01C
:1013D00080914002909141020E943F076CE271E0CF
:1013E00080914002909141020E942A072AE0B701B1
:1013F000A60180914002909141020E943F076EE257
:1014000071E080914002909141020E942A078091F0
:10141000040290910502A0910602B0910702B70163
:10142000A601481B590B6A0B7B0B2AE080914002F6
:10143000909141020E943F076EE271E0809140026C
:10144000909141020E942A074091040250910502A6
:101450006091060270910702809108029091090242
:10146000A0910A02B0910B02481B590B6A0B7B0B2F
:101470002AE080914002909141020E943F0760E380
:1014800071E080914002909141020E942A070E94DF
:101490005F02AB01BC012AE08091400290914102C1
:1014A0000E943F07009140021091410262E371E007
:1014B000C8010E942A0762E271E0C8010E942A075F
:1014C0000E945F024B015C016B017C0192E0C90E3E
:1014D000D11CE11CF11C0E945F02681579058A0588
:1014E0009B0508F0FAC10E945F02609304027093AA
:1014F00005028093060290930702ADE4B2E0B09338
:101500005C01A0935B0180914A0290E090935E01A0
:1015100080935D018091170390E090936001809328
:101520005F0180914602853009F0D4C180914F025D
:1015300090915002885891098D35910588F48091D9
:101540004A02843041F48091510290915202809776
:10155000479708F4E2C180914A02843408F0C4C17C
:1015600080914A028A3108F451C080914D029091D5
:101570004E02843F914078F410925A011092590122
:101580004092550150925601609257017092580155
:101590008BE090E0D5C080914F02909150028597EA
:1015A0004B97A0F5E3E5F2E082E090E0C12CD12C6E
:1015B0007601AC014F5F5F4F20914A0230E0421745
:1015C00053075CF4DF0112972D913C9127503109AC
:1015D0002730310508F425C2CA01019795958795F2
:1015E00090935A01809359010C972CF410925A0150
:1015F000109259010BC0C0925501D0925601E09251
:101600005701F092580184E090E0A9C080914A020D
:101610008A3180F080914D0290914E028032934049
:1016200008F4AACF80914F0290915002C6978697F6
:1016300008F414C280914A02823230F180914F0244
:101640009091500206970797F8F4E3E5F2E082E004
:1016500090E0C12CD12C76019C012F5F3F4F40912F
:101660004A0250E0241735070CF446C201979595BD
:10167000879590935A018093590140970CF047C287
:1016800010925A01109259011C821B82CC24C394DF
:10169000D12CDA82C98280914A028D3060F049E70C
:1016A00053E0BE016D5F7F4FCE0101960E94880717
:1016B000892B09F470C11C821B8281E090E09A831F
:1016C000898380915D0190915E01181619060CF4D2
:1016D00076C2E0915B01F0915C0182819381C697B3
:1016E000869708F48AC380914A02893308F076C24B
:1016F00080914A02823209F07AC2828193810A97EC
:10170000099708F074C220914A02CF01820F911DFF
:10171000820F911DDC0112978D919C910A97099778
:1017200008F065C210925A01109259014092550179
:1017300050925601609257017092580186E090E0F5
:1017400090935201809351013DC6C0925501D092B1
:101750005601E0925701F09258018BE090E090938F
:101760005201809351016091550170915601809111
:101770005701909158016F3F3FEF730783073FE098
:10178000930709F440C00E94D403809155019091C1
:101790005601A0915701B091580180934001909358
:1017A0004101A0934201B09343018735E8EA9E07C7
:1017B000EFEFAE07B105B9F467E578EA8FEF90E097
:1017C0000E9442048091550190915601A0915701C9
:1017D000B091580180933C0190933D01A0933E014C
:1017E000B0933F011AC08F31904EAF4FB105A9F4AD
:1017F00060913C0170913D0180913E0190913F01CB
:101800000E9442040AC060914001709141018091A0
:101810004201909143010E94D40300913A0110913A
:101820003B0161E089E00E9423020115110511F4DA
:1018300060E004C00F3F110529F461E089E00E94D7
:10184000F40143C0E1E7F0E084918330F9F048F41B
:101850008130B9F08230A1F584B5806284BD08BDC5
:1018600034C08730E9F0883019F1843049F580912F
:10187000800080628093800010938B0000938A0028
:1018800024C084B5806884BD07BD1FC080918000DE
:10189000806880938000109389000093880015C0B1
:1018A0008091B00080688093B0000093B3000DC0B9
:1018B0008091B00080628093B0000093B40005C0B6
:1018C000003811050CF0B9CFB3CF82E08093460207
:1018D00010924A020E946901EFCCC616D706E806AC
:1018E000F90608F0F8CDFFCD809151029091520297
:1018F000825491098E9708F033CE80E090E040E06A
:1019000050E0BA01FC01ED5AFD4F20813181295090
:10191000310929303105E0F023CE809153029091B6
:1019200054020997099708F016CE10925A011092A6
:1019300059014092550150925601609257017092A0
:101940005801E3E0F0E0F0935201E09351013AC511
:10195000FC01EB5AFD4F20813181275131092231A1
:10196000310508F051C0440F551F661F771F4160B5
:1019700004968038910531F630925A01209259012F
:10198000409355015093560160935701709358014D
:10199000E3E0F0E034C049E753E0BE016D5F7F4F04
:1019A000CE0101960E948807019709F084CE49E78D
:1019B00053E0BE016D5F7F4FCE0101960E94880704
:1019C000892B09F078CE812C912C540100E010E095
:1019D00080914A0290E029813A81281739070CF456
:1019E000C0C010935A010093590180925501909202
:1019F0005601A0925701B0925801E1E0F0E0F09357
:101A00005201E0935101AFCE20813181265031093E
:101A10002730310508F0A4CD440F551F661F771FEE
:101A2000A7CF20813181235131092F30310548F46E
:101A3000CC0CDD1CEE1CFF1C6894C0F8029634969A
:101A4000B8CD208131812A5031092930310508F083
:101A5000DDCDCC0CDD1CEE1CFF1CF0CF80915102C3
:101A600090915202C697869708F0E4CDE5E5F2E042
:101A700083E090E0C12CD12C7601AC014F5F5F4F29
:101A800020914A0230E04217530754F4DF011297C5
:101A90002D913C912C5031092B30310580F0CA0139
:101AA00001979595879590935A01809359010C97CA
:101AB0000CF04BCE10925A0110925901BBCD2081EF
:101AC0003181255231092B31310548F4CC0CDD1C14
:101AD000EE1CFF1C6894C0F802963496CECF20818D
:101AE00031812C5031092A30310508F0A3CDCC0CBE
:101AF000DD1CEE1CFF1CF0CFDF0112974D915C91B5
:101B000011974E5151094731510510F10BC0C09248
:101B10005501D0925601E0925701F09258018CE0A5
:101B200090E01DCE4D915C914C5051094B305105C8
:101B300008F0AACDCC0CDD1CEE1CFF1C40815181AD
:101B40003496435051094530510548F0C9018ECDB6
:101B5000CC0CDD1CEE1CFF1C6894C0F8EFCF029685
:101B60007BCD49E753E0BE016D5F7F4FCE0101960B
:101B70000E9488077C0149E753E0BE016D5F7F4FFB
:101B8000CE0101960E948807A1E0EA16F10451F403
:101B9000892B09F090CD880C991CAA1CBB1C689459
:101BA00080F80AC0EF2809F086CD019709F083CDAF
:101BB000880C991CAA1CBB1C0F5F1F4F09CFE0911A
:101BC0005B01F0915C0182E090E09A8389838281DD
:101BD000938189974E9708F47EC07BCD8281938153
:101BE000895791098335910508F45FC181CD8281C0
:101BF00093818957910983359105D0F480914A02E8
:101C00008132B0F084819581CA97899788F49F01C9
:101C10002A5F3F4FC12CD12C760143E050E0D9011F
:101C20006D917C916A5071096930710508F49CC10D
:101C3000828193818C549109C59778F480914A02EE
:101C4000843031F4848195818097479708F4EEC100
:101C500080914A02843408F0D0C180914A028634CF
:101C600060F1828193810C970B9708F42CC225C0F8
:101C7000D90112966D917C9113976E51710967315C
:101C8000710508F056C2D701C601880F991FAA1F17
:101C9000BB1F6C017D016894C0F84E5F5F4F2C5FE5
:101CA0003F4F4534510509F429C2D9016D917C910A
:101CB0006C5071096B307105D8F280914A028835F9
:101CC00008F49FC282819381855891098B359105D3
:101CD00008F43FC296C203E0E02EF12CFA82E982BA
:101CE000848195810B970A9708F0F3CC4CEB51E077
:101CF000BE016D5F7F4FCE0101960E948807892B40
:101D000009F0E7CC4CEB51E0BE016D5F7F4FCE0197
:101D100001960E948807019709F0DBCC812C912C59
:101D2000540100E010E020915D0130915E01898155
:101D30009A81821793070CF051C04CEB51E0BE0121
:101D40006D5F7F4FCE0101960E9488077C010330B2
:101D5000110571F04CEB51E0BE016D5F7F4FCE017C
:101D600001960E9488076C0103301105D9F40DC05B
:101D70004CEB51E0BE016D5F7F4FCE0101960E949A
:101D80008807E816F90631F3A4CC4CEB51E0BE010C
:101D90006D5F7F4FCE0101960E948807C816D90655
:101DA00009F097CCE114F10459F4CA94CD2809F054
:101DB00090CC880C991CAA1CBB1C689480F80BC0A2
:101DC000EA94EF2809F085CCCD2809F082CC880C64
:101DD000991CAA1CBB1C0F5F1F4FA5CF10935A0163
:101DE000009359018092550190925601A09257019B
:101DF000B092580182E090E0B2CC848195814B97FB
:101E0000459708F070CCDF0116967F0126ECE20EB4
:101E1000F11C20E030E040E050E060E070E080E065
:101E200090E00D911C91119709501109083011058E
:101E300008F059CC12960D911C911397015111097C
:101E40000D30110520F501E00E94D3142160149695
:101E5000AE15BF0531F720935501309356014093DD
:101E600057015093580100E20E94EE142093530151
:101E70003093540185E090E090935201809351019A
:101E8000A0E3B0E0B0935A01A09359016CCC129634
:101E90000D911C911397045011090530110508F09C
:101EA00022CC01E00E94D314D2CF84819581CA97BD
:101EB000899708F01DCC9F012A5F3F4FC12CD12C80
:101EC000760143E050E0D9016D917C916A5071092F
:101ED0006930710508F00CCCD90112966D917C9196
:101EE0001397665171096131710570F5D701C6010B
:101EF000880F991FAA1FBB1F6C017D016894C0F851
:101F00004E5F5F4F2C5F3F4F4B335105E1F69F0112
:101F10002A583F4FD9012D913C912A50310929303F
:101F2000310508F0E5CB2CE130E030935A012093E5
:101F30005901C0925501D0925601E0925701F0929A
:101F400058018AE090E00BCCD90112966D917C91FA
:101F50001397665071096730710508F0C9CBCC0C36
:101F6000DD1CEE1CFF1CCCCFD90112966D917C912B
:101F70001397665171096131710578F5D701C60172
:101F8000880F991FAA1FBB1F6C017D016894C0F8C0
:101F90004E5F5F4F2C5F3F4F4332510509F03FCEFC
:101FA0009F012A5B3F4FD9012D913C912A50310965
:101FB0002930310508F03CCEE0E1F0E0F0935A0121
:101FC000E0935901C0925501D0925601E092570119
:101FD000F092580186E090E0C2CBD90112966D9143
:101FE0007C911397665071096730710508F020CE17
:101FF000CC0CDD1CEE1CFF1CCBCF84819581895459
:102000009109C39708F029CE9F012A5F3F4FBF0176
:102010006A577F4FC12CD12C7601D9014D915C912B
:102020004950510949305105B0F017CE868197814A
:102030000997099708F00CCE10925A011092590195
:10204000409255015092560160925701709258018A
:1020500087E090E075CBD90112964D915C91139772
:102060004651510941315105F0F4D701C601880F9D
:10207000991FAA1FBB1F6C017D016894C0F82C5FDB
:102080003F4F2617370749F630925A0120925901DF
:10209000C0925501D0925601E0925701F09258013A
:1020A00087E090E05CCBD90112964D915C9113973B
:1020B000465051094730510508F0CFCDCC0CDD1CFE
:1020C000EE1CFF1CDCCF848195810997099708F0ED
:1020D000F4CD868197818C974F9708F0EECD80855F
:1020E000918589974D9708F0E8CD9F01265F3F4F76
:1020F000C12CD12C760145E050E0D7CD9F01265769
:102100003F4FD9012D913C912C5031092B30310595
:1021100008F0D3CD30925A0120925901C092550156
:10212000D0925601E0925701F092580188E090E079
:1021300016CBD90112966D917C9113976950710954
:102140006930710508F0B9CDCC0CDD1CEE1CFF1C0C
:10215000A4CD84819581825491098E9708F051C055
:102160008F01045C1F4F8DE190E020E030E0409152
:102170004A0250E04450510984179507ACF4A80175
:1021800042505109DA014D915C9149505109483052
:10219000510510F136C0D8014D915C91485151095B
:1021A0004231510558F1CB01019795958795909350
:1021B0005A01809359018A9724F1C901330FAA0B60
:1021C000BB0B8093550190935601A0935701B09398
:1021D000580189E090E0C3CABC016F5F7F4FD8010E
:1021E0004D915C914750510947305105A0F6220F9F
:1021F000331F216002960C5F1F4FB9CF220F331F90
:10220000F9CF80914A028032E1F48281938106976E
:102210000697B8F4848195810997099790F49F01F6
:102220002A5F3F4FBF01625C7F4FC12CD12C7601EA
:10223000D9014D915C91465051094630510508F441
:1022400087C0C0905D01D0905E01D886CF82960194
:10225000263031050CF439CB8F010E5F1F4F95EC02
:10226000C92E9DE9D92E9CE1E92E91E8F92E83E053
:1022700090E09E838D83D80114966D917C91159783
:10228000AD90BC9080E090E00E94341269877A871C
:102290008B879C87B50180E090E00E9434124B014F
:1022A0005C012DEC3CEC4CE45FE30E9495129B0139
:1022B000AC0169857A858B859C850E942F1287FDEC
:1022C00019C02DEC3CEC4CE45FE369857A858B8585
:1022D0009C850E9495129B01AC01C501B4010E942E
:1022E0002F12E82F880FFF0BEE27FF0FEE1FFF279F
:1022F000319602C0E0E0F0E0A701960163E971E0E9
:1023000080E091E00E9453136F01FF0FEE08FF0879
:10231000C626D726E826F926ED81FE813196FE8372
:10232000ED830E5F1F4F2F813885E217F30709F009
:10233000A2CFC0925501D0925601E0925701F0927F
:10234000580130925A01209259018FEF9FEF07CA2E
:10235000D90112964D915C9113974951510943311E
:10236000510528F112964D915C91139749505109EE
:102370004930510508F065CFCC0CDD1CEE1CFF1C6C
:102380002C5F3F4F2617370709F052CF2EE030E081
:1023900030935A0120935901C0925501D0925601B1
:1023A000E0925701F09258018FE090E0D8C9D70130
:1023B000C601880F991FAA1FBB1F6C017D0168947D
:1023C000C0F8DECF609155017091560180915701A0
:1023D00090915801D8C9E1E6F1E01382128288EEAB
:1023E00093E0A0E0B0E084839583A683B78385E083
:1023F00091E09183808385EC90E09587848784ECDD
:1024000090E09787868780EC90E0918B808B81ECC1
:1024100090E0938B828B82EC90E0958B848B86ECA2
:1024200090E0978B868B118E128E138E148EEEEFAA
:10243000F1E01682178210861186128613861486A2
:10244000158616861786108A118A128A138A148AAC
:10245000158AE6E4F2E08BE08183138208950E94FE
:10246000711208F481E00895E89409C097FB3EF4E6
:1024700090958095709561957F4F8F4F9F4F9923D1
:10248000A9F0F92F96E9BB279395F695879577954F
:102490006795B795F111F8CFFAF4BB0F11F460FF0F
:1024A0001BC06F5F7F4F8F4F9F4F16C0882311F067
:1024B00096E911C0772321F09EE8872F762F05C07B
:1024C000662371F096E8862F70E060E02AF09A9516
:1024D000660F771F881FDAF7880F9695879597F90B
:1024E0000895990F0008550FAA0BE0E8FEEF1616A5
:1024F0001706E807F907C0F012161306E407F507F8
:1025000098F0621B730B840B950B39F40A2661F06B
:10251000232B242B252B21F408950A2609F4A1400E
:10252000A6958FEF811D811D08950E94A8120C941D
:1025300019130E940B1338F00E94121320F09523F8
:1025400011F00C9402130C94081311240C944D13E5
:102550000E942A1370F3959FC1F3950F50E0551F09
:10256000629FF001729FBB27F00DB11D639FAA27E8
:10257000F00DB11DAA1F649F6627B00DA11D661F37
:10258000829F2227B00DA11D621F739FB00DA11D58
:10259000621F839FA00D611D221F749F3327A00D12
:1025A000611D231F849F600D211D822F762F6A2FAE
:1025B00011249F5750409AF0F1F088234AF0EE0F13
:1025C000FF1FBB1F661F771F881F91505040A9F740
:1025D0009E3F510580F00C9402130C944D135F3F05
:1025E000E4F3983ED4F3869577956795B795F7957C
:1025F000E7959F5FC1F7FE2B880F911D96958795F4
:1026000097F9089597F99F6780E870E060E0089572
:102610009FEF80EC089500240A94161617061806FA
:102620000906089500240A941216130614060506D6
:102630000895092E0394000C11F4882352F0BB0F67
:1026400040F4BF2B11F460FF04C06F5F7F4F8F4FCA
:102650009F4F089557FD9058440F551F59F05F3F05
:1026600071F04795880F97FB991F61F09F3F79F0B4
:1026700087950895121613061406551FF2CF469536
:10268000F1DF08C0161617061806991FF1CF8695B8
:102690007105610508940895E894BB27662777279C
:1026A000CB0197F90895DB018F939F930E948513C7
:1026B000BF91AF91A29F800D911DA39F900DB29FDE
:1026C000900D11240895A1E21A2EAA1BBB1BFD0137
:1026D0000DC0AA1FBB1FEE1FFF1FA217B307E40701
:1026E000F50720F0A21BB30BE40BF50B661F771F59
:1026F000881F991F1A9469F7609570958095909539
:102700009B01AC01BD01CF0108950E949013A59FCC
:10271000900DB49F900DA49F800D911D11240895DC
:10272000A29FB001B39FC001A39F700D811D112412
:10273000911DB29F700D811D1124911D0895505857
:10274000BB27AA270E94B7130C9419130E940B13DE
:1027500038F00E94121320F039F49F3F19F426F448
:102760000C9408130EF4E095E7FB0C940213E92F88
:102770000E942A1358F3BA17620773078407950754
:1027800020F079F4A6F50C944C130EF4E0950B2E82
:10279000BA2FA02D0B01B90190010C01CA01A001B3
:1027A0001124FF27591B99F0593F50F4503E68F10E
:1027B0001A16F040A22F232F342F4427585FF3CF4F
:1027C000469537952795A795F0405395C9F77EF420
:1027D0001F16BA0B620B730B840BBAF09150A1F069
:1027E000FF0FBB1F661F771F881FC2F70EC0BA0FEF
:1027F000621F731F841F48F4879577956795B79577
:10280000F7959E3F08F0B0CF9395880F08F0992771
:10281000EE0F9795879508950E9420140C94191334
:102820000E94121358F00E940B1340F029F45F3FEE
:1028300029F00C94021351110C944D130C940813AD
:102840000E942A1368F39923B1F3552391F3951B42
:10285000550BBB27AA2762177307840738F09F5FC1
:102860005F4F220F331F441FAA1FA9F335D00E2E2E
:102870003AF0E0E832D091505040E695001CCAF79B
:102880002BD0FE2F29D0660F771F881FBB1F26175E
:1028900037074807AB07B0E809F0BB0B802DBF0135
:1028A000FF2793585F4F3AF09E3F510578F00C9404
:1028B00002130C944D135F3FE4F3983ED4F38695D6
:1028C00077956795B795F7959F5FC9F7880F911D25
:1028D0009695879597F90895E1E0660F771F881F11
:1028E000BB1F621773078407BA0720F0621B730BC4
:1028F000840BBA0BEE1F88F7E09508950E948514AB
:102900006894B1110C944D1308950E94321388F00D
:102910009F5798F0B92F9927B751B0F0E1F0660FA3
:10292000771F881F991F1AF0BA95C9F714C0B130E4
:1029300091F00E944C13B1E008950C944C13672F52
:10294000782F8827B85F39F0B93FCCF38695779513
:102950006795B395D9F73EF49095809570956195FC
:102960007F4F8F4F9F4F0895052E97FB1EF40094C5
:102970000E94CB1457FD07D00E94631307FC03D0BD
:102980004EF40C94CB1450954095309521953F4FC3
:102990004F4F5F4F089590958095709561957F4F4B
:1029A0008F4F9F4F08950F93083090F0982F872FE7
:1029B000762F652F542F432F322F22270850F4CF24
:1029C000220F331F441F551F661F771F881F991F33
:1029D0000A95B2F70F91089597FB10F81694000826
:1029E0000F93083098F00850232F342F452F562F7F
:1029F000672F782F892F902DF4CF05949795879581
:102A00007795679557954795379527950A95AAF72E
:102A10000F910895EE0FFF1F0590F491E02D09949A
:0E2A200081E090E0F8940C941515F894FFCF27
:102A2E00FF00000000FA00640491004701C200A0FC
:102A3E0000B400564D4450565F317C315F564D44C4
:102A4E0050560D0A00564D4450455F003A323A003A
:0A2A5E007C005F564D445045000017
:00000001FF
