:100000000C945D000C9485000C9485000C94850084
:100010000C9485000C9485000C9485000C9485004C
:100020000C9485000C9485000C9485000C9485003C
:100030000C9485000C9485000C9485000C9485002C
:100040000C9414030C9485000C94E2020C94BC02F2
:100050000C9485000C9485000C9485000C9485000C
:100060000C9485000C94850000000008000201003B
:100070000003040700000000000000000000000072
:10008000250028002B0000000000240027002A0083
:10009000040404040404040402020202020203032E
:1000A0000303030301020408102040800102040836
:1000B00010200102040810205E0311241FBECFEFA0
:1000C000D8E0DEBFCDBF11E0A0E0B1E0EEEDFCE096
:1000D00002C005900D92A833B107D9F722E0A8E33A
:1000E000B1E001C01D92AD32B207E1F710E0CDE5FD
:1000F000D0E004C02197FE010E946206CC35D107F2
:10010000C9F70E94AD030C946D060C94000090E0BA
:10011000FC01EC55FF4F2491FC01E057FF4F849107
:10012000882399F090E0880F991FFC01EA57FF4F50
:10013000A591B491FC01E458FF4F859194918FB73C
:10014000F894EC91E22BEC938FBF0895E5E4F1E095
:10015000A089B18982E08C93A485B5851C92A6857F
:10016000B7858FEC8C93108EA489B58986E08C932B
:10017000A289B3898C9180618C93A289B3898C9177
:1001800088608C93A289B3898C9180688C93028853
:10019000F389E02D80818F7D80830895CF92DF9257
:1001A000EF92FF920F931F93CF93DF936C017A012D
:1001B0008B01C0E0D0E0CE15DF0581F0D8016D9154
:1001C0008D01D601ED91FC910190F081E02DC601E9
:1001D0000995892B11F02196EECF7E01C701DF91A1
:1001E000CF911F910F91FF90EF90DF90CF900895E6
:1001F000089580E090E00895FC01538D448D252FF3
:1002000030E0842F90E0821B930B541710F0CF96B0
:10021000089501970895FC01918D828D981761F0E2
:10022000828DDF01A80FB11D5D968C91928D9F5F2D
:100230009F73928F90E008958FEF9FEF0895FC01D8
:10024000918D828D981731F0828DE80FF11D858D8B
:1002500090E008958FEF9FEF0895FC01918D228D1E
:10026000892F90E0805C9F4F821B91098F739927A3
:10027000089585E491E00E942D0121E0892B09F485
:1002800020E0822F0895FC01848DDF01A80FB11DAD
:10029000A35ABF4F2C91848D90E001968F739927BC
:1002A000848FA689B7892C93A089B1898C9183709A
:1002B00080648C93938D848D981306C00288F38993
:1002C000E02D80818F7D80830895EF92FF920F93C0
:1002D0001F93CF93DF93EC0181E0888F9B8D8C8DF2
:1002E000981305C0E889F989808185FD26C0F62E1E
:1002F0000B8D10E00F5F1F4F0F731127E02E8C8DB9
:10030000E8120CC00FB607FCFACFE889F9898081A2
:1003100085FFF5CFCE010E944301F1CF8B8DFE0109
:10032000E80FF11DE35AFF4FF0829FB7F8940B8F4F
:10033000EA89FB89808180620AC09FB7F894EE89C0
:10034000FF896083E889F989808183708064808374
:100350009FBF81E090E0DF91CF911F910F91FF90BF
:10036000EF900895CF93DF93EC01888D8823C9F037
:10037000EA89FB89808185FD05C0A889B9898C91AE
:1003800086FD0FC00FB607FCF5CF808185FFF2CF49
:10039000A889B9898C9185FFEDCFCE010E944301D8
:1003A000E7CFDF91CF91089580E090E0892B29F08D
:1003B0000E94390181110C940000089590E0FC0125
:1003C000E859FF4F2491FC01EC55FF4F3491FC019B
:1003D000E057FF4FE491EE2309F43CC0222339F1AA
:1003E000233091F038F42130A9F0223001F584B5A2
:1003F0008F7D12C0273091F02830A1F02430B9F45D
:10040000809180008F7D03C0809180008F778093E2
:1004100080000DC084B58F7784BD09C08091B00085
:100420008F7703C08091B0008F7D8093B000F0E0A3
:10043000EE0FFF1FE458FF4FA591B4919FB7F894BA
:10044000611104C08C913095382302C0EC913E2B91
:100450003C939FBF08953FB7F89480913D019091E0
:100460003E01A0913F01B091400126B5A89B05C077
:100470002F3F19F00196A11DB11D3FBFBA2FA92F23
:10048000982F8827820F911DA11DB11DBC01CD01A0
:1004900042E0660F771F881F991F4A95D1F708958C
:1004A0002FB7F8946091390170913A0180913B0126
:1004B00090913C012FBF08956115710579F0FB0102
:1004C00001900020E9F73197AF01461B570BDC0183
:1004D000ED91FC910280F381E02D099480E090E0A1
:1004E00008958F929F92AF92BF92EF92FF920F93D7
:1004F0001F93CF93DF93CDB7DEB7A1970FB6F894D4
:10050000DEBF0FBECDBF7C01FA01CB0119A22230A4
:1005100008F42AE08E010F5D1F4F822E912CA12C32
:10052000B12CBF01A50194010E940B06F901CA017B
:10053000015011096A3014F4605D01C0695CD80192
:100540006C93232B242B252B61F7B801C7010E9444
:100550005C02A1960FB6F894DEBF0FBECDBFDF914F
:10056000CF911F910F91FF90EF90BF90AF909F9010
:100570008F9008950E9468061F920F920FB60F92F7
:1005800011242F933F934F935F936F937F938F9398
:100590009F93AF93BF93EF93FF9385E491E00E9405
:1005A0004301FF91EF91BF91AF919F918F917F9107
:1005B0006F915F914F913F912F910F900FBE0F90D0
:1005C0001F9018951F920F920FB60F9211242F9320
:1005D0008F939F93EF93FF93E0915501F091560114
:1005E0008081E0915B01F0915C0182FD12C09081FD
:1005F00080915E018F5F8F7320915F01821751F0B0
:10060000E0915E01F0E0EB5BFE4F958F80935E0121
:1006100001C08081FF91EF919F918F912F910F9059
:100620000FBE0F901F9018951F920F920FB60F924A
:1006300011242F933F938F939F93AF93BF938091F8
:10064000390190913A01A0913B01B0913C01309168
:10065000380123E0230F2D3720F40196A11DB11D91
:1006600005C026E8230F0296A11DB11D2093380175
:100670008093390190933A01A0933B01B0933C01E0
:1006800080913D0190913E01A0913F01B0914001C8
:100690000196A11DB11D80933D0190933E01A09351
:1006A0003F01B0934001BF91AF919F918F913F91D6
:1006B0002F910F900FBE0F901F901895CF93DF933F
:1006C000E5E4F1E01382128288EE93E0A0E0B0E06E
:1006D00084839583A683B78384E091E091838083AC
:1006E00085EC90E09587848784EC90E097878687F7
:1006F00080EC90E0918B808B81EC90E0938B828BEF
:1007000082EC90E0958B848B86EC90E0978B868BC7
:10071000118E128E138E148EE2EEF1E01682178285
:1007200010861186128613861486158616861786FD
:10073000108A118A128A138A148A158ACAE2D2E0B0
:1007400085E090E0998388831A820E9487006A81FD
:100750008881DF91CF910C94DE01789484B582601A
:1007600084BD84B5816084BD85B5826085BD85B555
:10077000816085BD80916E00816080936E001092D3
:10078000810080918100826080938100809181004E
:1007900081608093810080918000816080938000DF
:1007A0008091B10084608093B1008091B00081603D
:1007B0008093B00080917A00846080937A00809169
:1007C0007A00826080937A0080917A0081608093C1
:1007D0007A0080917A00806880937A001092C1003C
:1007E00010922602109227021092280210922902DB
:1007F0001092E4011092E5011092E6011092E701D7
:100800000E9450026B017C014B015C0128EB820EBF
:100810002BE0921EA11CB11C0E9450026C157D059C
:100820008E059F0528F086169706A806B906A0F73C
:1008300085E491E090932502809324020E94A60013
:100840000E9450026093E4017093E5018093E601F9
:100850009093E70162E171E080912402909125027A
:100860000E945C020E9450026B017C014B015C0102
:100870008AE0880E911CA11CB11C0E9450026C15CC
:100880007D058E059F0528F086169706A806B906F1
:10089000A0F781E08093F8010E94A60080E4382E42
:1008A00088248A9493E0992EA12CB12C0E945002A6
:1008B000672B682B692B41F40E945002623071054E
:1008C0008105910508F413C10E9450020091410175
:1008D000109142012091430130914401601771074A
:1008E0008207930740F46093410170934201809323
:1008F00043019093440100914101109142012091E4
:100900004301309144016B017C01C01AD10AE20A13
:10091000F30A970186010A3F11052105310508F404
:10092000E6C060934101709342018093430190932C
:10093000440184EF91E0A0E0B0E08093F001909357
:10094000F101A093F201B093F3011092F40110921F
:10095000F5011092F6011092F7018091E801909153
:10096000E901A091EA01B091EB018093EC01909331
:10097000ED01A093EE01B093EF010E94500260934D
:10098000E8017093E9018093EA019093EB010E94E2
:1009900050026093E4017093E5018093E601909327
:1009A000E7010E9450026B017C0164E271E08091DA
:1009B0002402909125020E945C022AE041E050E06E
:1009C00060E070E080912402909125020E94710203
:1009D0006BE271E080912402909125020E945C02FA
:1009E0002AE0B701A60180912402909125020E947D
:1009F00071026DE271E080912402909125020E94C3
:100A00005C028091E8019091E901A091EA01B09126
:100A1000EB01B701A601481B590B6A0B7B0B2AE0BF
:100A200080912402909125020E9471026DE271E092
:100A300080912402909125020E945C024091E8017D
:100A40005091E9016091EA017091EB018091EC0114
:100A50009091ED01A091EE01B091EF01481B590B6F
:100A60006A0B7B0B2AE080912402909125020E9460
:100A700071026FE271E080912402909125020E9440
:100A80005C020E945002AB01BC012AE0809124026A
:100A9000909125020E947102C0912402D0912502FA
:100AA00061E371E0CE010E945C0261E271E0CE017F
:100AB0000E945C020E9450026B017C012B013C01F0
:100AC00092E0490E511C611C711C0E9450026C1571
:100AD0007D058E059F0508F097C00E945002609327
:100AE000E8017093E9018093EA019093EB01309261
:100AF0007C0080917A00806480937A0080917A00F3
:100B000086FDFCCFA091780080917900B0E0B82BF1
:100B10002FEF30E00E945B06A50194010E942D0694
:100B2000F22EE32E022F132FC0912A02D0912B0216
:100B30008C2F0E9487000115110509F44BC00F3F4F
:100B4000110509F449C0FE01FF27E859FF4FE49160
:100B5000E33009F148F4E130C9F0E230C1F584B581
:100B6000806284BDF8BC3CC0E73009F1E83039F15F
:100B7000E43069F5809180008062809380008F2D41
:100B80009E2D90938B0080938A002AC084B5806844
:100B900084BDF7BC25C08091800080688093800070
:100BA0008F2D9E2D909389008093880019C080918D
:100BB000B00080688093B000F092B30011C08091C3
:100BC000B00080628093B000F092B40009C0003899
:100BD000110514F460E001C061E08C2F0E94DE0179
:100BE0000E942B026B017C010E942B02DC01CB01D5
:100BF0008C199D09AE09BF09883E9340A105B10536
:100C000098F30E94D40152CE46165706680679061C
:100C100008F05BCF62CFA1E21A2EAA1BBB1BFD011D
:100C20000DC0AA1FBB1FEE1FFF1FA217B307E407CB
:100C3000F50720F0A21BB30BE40BF50B661F771F23
:100C4000881F991F1A9469F7609570958095909503
:100C50009B01AC01BD01CF010895052E97FB1EF449
:100C600000940E94440657FD07D00E940B0607FC23
:100C700003D04EF40C944406509540953095219540
:100C80003F4F4F4F5F4F08959095809570956195B8
:100C90007F4F8F4F9F4F0895A29FB001B39FC00118
:100CA000A39F700D811D1124911DB29F700D811D98
:100CB0001124911D08950E944C06B7FF0895821BD0
:100CC000930B0895EE0FFF1F0590F491E02D09940A
:0E0CD00081E090E0F8940C946D06F894FFCF4C
:100CDE00000000006501CE00FC00B2012D010B01E9
:100CEE001F01564D4450565F317C315F564D445076
:100CFE00560D0A00564D4450455F003A323A007C7C
:080D0E00005F564D4450450002
:00000001FF
