:100000000C94C2010C94EA010C94EA010C94D013F4
:100010000C94D0130C94D0130C94EA010C94EA01C4
:100020000C94EA010C94EA010C94EA010C94EA01A4
:100030000C94EA010C94EA010C94EA010C94EA0194
:100040000C9486130C94EA010C9455120C942F1204
:100050000C94EA010C94EA010C94EA010C94EA0174
:100060000C94EA010C94EA01BB09B409E409C5093E
:10007000C1097E098609440922002B43574A415091
:100080003A220041542B43574A41503F0022002B53
:1000900043495041503A69703A220041542B434938
:1000A0005041503F0022003A53544149502C220005
:1000B00041542B4349465352000D0A002C2D004158
:1000C000542B43574A41503F00436F6E6E65637433
:1000D000656420746F004661696C656420636F6EAF
:1000E0006E656374696E6720746F0041542B4357CB
:1000F0004A41505F4355523D222573222C222573DD
:1001000022000D0A005354415455533A0041542BD8
:10011000434950535441545553000D0A0053444B26
:100120002076657273696F6E3A0041542B474D52C9
:100130000041542B4357444843503D312C3100413A
:10014000542B43574155544F434F4E4E3D30004181
:10015000542B43495044494E464F3D310041542BA6
:100160004349504D55583D310041542B43574D4F55
:1001700044453D3100415445300041542B525354C5
:1001800000496E6974696C697A6174696F6E207375
:1001900075636365737366756C202D005761726EAD
:1001A000696E673A20556E737570706F727465640E
:1001B000206669726D776172650043616E6E6F745F
:1001C00020696E697469616C697A652045535020B5
:1001D0006D6F64756C6500415400496E69746961A6
:1001E0006C697A696E6720455350206D6F64756C39
:1001F000650025642E25642E25642E256400446147
:100200007461207061636B65742073656E64206532
:1002100072726F722028322900446174612070610B
:10022000636B65742073656E64206572726F7220F3
:100230002831290041542B43495053454E443D2514
:10024000642C2575004661696C656420746F2077A5
:100250007269746520746F20736F636B65740041FD
:10026000542B434950434C4F53453D25640044694A
:1002700073636F6E6E656374696E67200041542B03
:10028000434950535441545553002B434950535400
:10029000415455533A25642C00456E6420746167BF
:1002A000206E6F7420666F756E64004E6F207461EF
:1002B0006720666F756E64003E3E3E2054494D4592
:1002C0004F5554203E3E3E004E6F20736F636B656A
:1002D0007420617661696C61626C650041542B43E6
:1002E000495053544152543D25642C2254435022CA
:1002F0002C222573222C257500436F6E6E65637466
:10030000696E6720746F000000000023002600293A
:100310000000000000250028002B00040404040451
:1003200004040402020202020203030303030301A2
:100330000204081020408001020408102001020479
:1003400008102000000000240027002A0000000000
:100350000800020100000304070000000000000084
:100360000054494D454F55543A0054616720434C61
:100370004F534544206E6F7420666F756E640000A5
:10038000AE1B8C1B11241FBECFEFD8E0DEBFCDBF4C
:1003900026E0AAE5B3E001C01D92A433B207E1F75D
:1003A00013E0A0E0B1E0E2E6FBE402C005900D92AC
:1003B000AA35B107D9F711E0C1ECD1E004C021970B
:1003C000FE010E946F23C03CD107C9F70E94D016DE
:1003D0000C94A4250C94000021E0FC0184858F3F3F
:1003E00009F420E0822F0895CF93DF93EC01E88198
:1003F000F9810084F185E02DCE010995892B41F02A
:10040000E881F9810284F385E02DCE010995EFCFD3
:10041000DF91CF910895CF93DF931F92CDB7DEB7D1
:100420006983DC01ED91FC910280F381E02D41E0D4
:1004300050E0BE016F5F7F4F09950F90DF91CF9124
:100440000895089580E090E008958F929F92AF9272
:10045000BF92EF92FF920F931F93CF93DF93EC0124
:100460007B018A01E881F9810084F185E02D0995FD
:10047000892B19F48FEF9FEF55C09C858091290639
:10048000981338C080912A0690912B06A0912C06D3
:10049000B0912D06A80160E070E084179507A607CB
:1004A000B7070CF48C01E701E00EF11ECE15DF0555
:1004B000F9F00E947A134B015C018091B103909195
:1004C000B203DC01ED91FC910284F385E02D0995E6
:1004D00097FF13C00E947A13DC01CB018819990998
:1004E000AA09BB09883E9340A105B10530F3C2CFEC
:1004F000C80118C080E090E015C0899380912A0659
:1005000090912B06A0912C06B0912D060197A10980
:10051000B10980932A0690932B06A0932C06B093E2
:100520002D06C4CFDF91CF911F910F91FF90EF90D7
:10053000BF90AF909F908F9008958F929F92AF92AF
:10054000BF92CF92DF92EF92FF920F931F93CF93C0
:10055000DF9340912A0650912B0660912C067091F2
:100560002D06141615061606170644F49091290652
:10057000981711F0911102C0CA0121C1F82E809183
:10058000B1039091B203DC01ED91FC910084F185FF
:10059000E02D0995892B19F480E090E010C10091BD
:1005A000B1031091B203C0E0D0E00E947A13F801C9
:1005B0006087718782879387D801ED91FC910284CF
:1005C000F385E02DC801099597FF19C00E947A13A1
:1005D000F80180849184A284B384DC01CB01881962
:1005E0009909AA09BB0984809580A680B7808815DF
:1005F0009905AA05BB0500F38FEF9FEF11C0FE011F
:10060000E956FD4F2081022E000C330B28173907C5
:1006100009F0A0C02196C530D10539F680E090E000
:10062000892B09F0B9CF8091B1039091B2030E9458
:100630008F14609329068091B1039091B203DC017D
:10064000ED91FC910284F385E02D09958091B10331
:100650009091B2030E948F1460932A0670932B0628
:1006600080932C0690932D068091B1039091B20354
:10067000DC01ED91FC910284F385E02D09958091D8
:10068000B1039091B2030E948F148091B1039091B5
:10069000B203DC01ED91FC910284F385E02D099514
:1006A0008091B1039091B2030E948F148091B103A5
:1006B0009091B203DC01ED91FC910284F385E02D71
:1006C00009958091B1039091B2030E948F1480919B
:1006D000B1039091B203DC01ED91FC910284F385AA
:1006E000E02D09958091B1039091B2030E948F147F
:1006F0008091B1039091B203DC01ED91FC910284F1
:10070000F385E02D09958091B1039091B203DC014E
:10071000ED91FC910284F385E02D09958091B10360
:100720009091B2030E948F148091B1039091B20313
:10073000DC01ED91FC910284F385E02D0995809117
:100740002906F81611F0F11027CF80912A06909112
:100750002B0635C0209709F428CF4F0168E972E0D5
:100760009E0121503109D4014E914D01042E000CFF
:10077000550B84179507F9F42115310509F415CFA8
:1007800047E9C42E42E0D42EDB0140E050E0F60100
:10079000B1906F01ED90BE1441F04217530709F478
:1007A00004CF6F5F7F4FE901DBCF4F5F5F4F421791
:1007B000530768F3F2CF2115310599F7F4CEDF9195
:1007C000CF911F910F91FF90EF90DF90CF90BF904E
:1007D000AF909F908F900895FC0184858F3F21F00A
:1007E0000E949D0297FF02C080E090E008950F9361
:1007F0001F93CF93DF9300D0CDB7DEB78C01DC0120
:10080000ED91FC910084F185E02D0995892B29F16A
:100810001A82F801848590912906891309C09E01E6
:100820002E5F3F4F40E0BE016F5F7F4F0E94EB1590
:100830008A81882379F0D8011C96EC911C97F0E00E
:10084000EE0FFF1FEC5DFE4F8FEF9FEF91838083D4
:100850001C968C93898190E002C08FEF9FEF0F90E0
:100860000F90DF91CF911F910F9108950F931F93D8
:10087000CF93DF9300D0CDB7DEB78C01DC01ED91D3
:10088000FC910084F185E02D0995892B29F11A82CC
:10089000F801848590912906891309C09E012E5F75
:1008A0003F4F41E0BE016F5F7F4F0E94EB158A8191
:1008B000882379F0D8011C96EC911C97F0E0EE0F9C
:1008C000FF1FEC5DFE4F8FEF9FEF918380831C969F
:1008D0008C93898190E002C08FEF9FEF0F900F9073
:1008E000DF91CF911F910F910895CF92DF92EF92F8
:1008F000FF920F931F93CF93DF93CDB7DEB760972F
:100900000FB6F894DEBF0FBECDBF7C01FB016A01BC
:1009100085811F928F9384811F928F9383811F9271
:100920008F9382811F928F9382EF91E09F938F9399
:100930008E010F5F1F4F1F930F930E94D21DA601C0
:10094000B801C7010E94B80E0FB6F894DEBF0FBE03
:10095000CDBF60960FB6F894DEBF0FBECDBFDF915E
:10096000CF911F910F91FF90EF90DF90CF9008955E
:100970000C94B80E3F924F925F926F927F928F923B
:100980009F92AF92BF92CF92DF92EF92FF920F931E
:100990001F93CF93DF936C012B01342E8091AA0516
:1009A0009091AB059093AF058093AE050E947A13AA
:1009B0004B015C0166246A94762C0D2C000CEE0829
:1009C000FF080E947A13DC01CB0188199909AA0952
:1009D000BB098C159D05AE05BF0508F05BC08FEF08
:1009E0006816780609F056C08091B1039091B20361
:1009F000DC01ED91FC910084F185E02D0995892BB6
:100A000001F38091B1039091B203DC01ED91FC916F
:100A10000284F385E02D0995E091AE05F091AF05D4
:100A200080838091AE059091AF0501969093AF05BC
:100A30008093AE052091AC053091AD0582179307E8
:100A400040F08091AA059091AB059093AF058093FB
:100A5000AE054114510441F0C2010E946E0E88237C
:100A600019F085E0682E712C332009F4AACF02E337
:100A700011E0C0E0D0E0F801819191918F010E94D6
:100A80006E0E882311F03E019CCF2196C530D10512
:100A900091F797CF0E947A13DC01CB01881999094D
:100AA000AA09BB098C159D05AE05BF0560F060EF76
:100AB00071E083EB93E00E94E91568EB72E083EB51
:100AC00093E00E94D515C301DF91CF911F910F9143
:100AD000FF90EF90DF90CF90BF90AF909F908F905E
:100AE0007F906F905F904F903F900895AF92BF922C
:100AF000CF92DF92EF92FF920F931F93CF93DF93EA
:100B00005C016B017A01E901188281E00E944A14BC
:100B1000B5018091B1039091B2030E94D51541E0D7
:100B2000B60188EE93E00E94BA048530910509F081
:100B300049C08091AA059091AB059093AF05809331
:100B4000AE054091A8055091A9054F5F5F4F60E049
:100B500070E00E947E2541E0B70184EF91E00E94A1
:100B6000BA04059731F5A80141505109F7010190E8
:100B70000020E9F73197EE19FF096091AA057091FD
:100B8000AB058091AE059091AF05861B970B8E1B30
:100B90009F0B4817590708F0AC01CE010E9495251C
:100BA00041E060E070E080ED97E00E94BA0481E0EF
:100BB00018C060EF71E083EB93E00E94E91569E9EA
:100BC00072E00AC0059760F060EF71E083EB93E09C
:100BD0000E94E9156BEA72E083EB93E00E94D51561
:100BE00080E0DF91CF911F910F91FF90EF90DF9008
:100BF000CF90BF90AF900895CF92DF92EF92FF9287
:100C00000F931F93CF93DF93CDB7DEB76E970FB6D9
:100C1000F894DEBF0FBECDBFFC0184858F3FD1F1BC
:100C20007F010E949D02892B11F094E034C0D7010E
:100C30001C968C911F928F938AE892E09F938F93DA
:100C4000FE0131966F01FF93EF930E94D21D0AE0DF
:100C500010E09E012B5E3F4F4BE952E0B6018DE75D
:100C600092E00E9476050F900F900F900F900F90DA
:100C70000F908111DACFD7011C96EC911C97F0E010
:100C8000EE0FFF1FEC5DFE4F8FEF9FEF9183808390
:100C90001C968C9390E081E0943009F080E06E9691
:100CA0000FB6F894DEBF0FBECDBFDF91CF911F917D
:100CB0000F91FF90EF90DF90CF900895AF92BF9289
:100CC000CF92DF92EF92FF920F931F93CF93DF9318
:100CD000CDB7DEB764970FB6F894DEBF0FBECDBFB9
:100CE000DC011C962C91243018F44115510531F487
:100CF00021E030E0FC01338322838AC08A016B014A
:100D00007C011F934F931F922F9384E392E09F9354
:100D10008F939E012F5F3F4F59013F932F930E9466
:100D2000D21DB5018091B1039091B2030E94A41528
:100D300040E06DE972E088EE93E00E94BA040FB6DD
:100D4000F894DEBF0FBECDBF059749F060EF71E0AC
:100D500083EB93E00E94E91569E172E01FC0809186
:100D6000B1039091B203DC01ED91FC910280F3811B
:100D7000E02DA801B601099541E060E070E080ED4A
:100D800097E00E94BA04039709F445C060EF71E050
:100D900083EB93E00E94E9156EEF71E083EB93E043
:100DA0000E94D51581E090E0F7019383828360EF84
:100DB00071E083EB93E00E94E91565E472E083EB58
:100DC00093E00E94221565E372E083EB93E00E94BA
:100DD000E915D7011C964C9150E060E070E02AE0E4
:100DE00083EB93E00E945B1566E573E083EB93E091
:100DF0000E94461560EA7FE080E090E00E94401388
:100E0000D701ED91FC910488F589E02DC701099582
:100E100080E090E001C0C80164960FB6F894DEBF90
:100E20000FBECDBFDF91CF911F910F91FF90EF903B
:100E3000DF90CF90BF90AF900895CF93DF93CDB761
:100E4000DEB7C85CD1090FB6F894DEBF0FBECDBFC8
:100E50009E012F523F4FC353DF4F48815981CD5CD4
:100E6000D04068EC70E0CE0101960E94F41D81E054
:100E70000E944A14BE016F5F7F4F8091B103909131
:100E8000B2030E94A41541E060E070E0C153DF4F5F
:100E900088819981CF5CD0400E94BA04C853DF4F4B
:100EA0000FB6F894DEBF0FBECDBFDF91CF9108958E
:100EB000CF93DF93FC0124852F3F09F440C0EC0160
:100EC00060EF71E083EB93E00E94E9156EE672E05B
:100ED00083EB93E00E94221565E372E083EB93E0DD
:100EE0000E94E9154C8550E060E070E02AE083EB59
:100EF00093E00E945B1566E573E083EB93E00E944C
:100F000046158C851F928F938FE08F9380EA8F9385
:100F10008FE592E09F938F930E941D07EC85F0E090
:100F2000EE0FFF1FEC5DFE4F8FEF9FEF91838083ED
:100F30008C870F900F900F900F900F900F90DF9174
:100F4000CF9108954F925F926F927F928F929F926E
:100F5000AF92BF92CF92DF92EF92FF920F931F93C7
:100F6000CF93DF93CDB7DEB74C016B015A01390146
:100F70004DB65EB6CB010E94951D01962DB73EB7CA
:100F8000281B390B0FB6F8943EBF0FBE2DBF8DB78F
:100F90009EB701967C01B6010E948E1DC5010E947C
:100FA000951D01962DB73EB7281B390B0FB6F89447
:100FB0003EBF0FBE2DBF8DB79EB701966C01B50128
:100FC0000E948E1D9301A601B701C4010E947605FF
:100FD0000FB6F8945EBE0FBE4DBEDF91CF911F914C
:100FE0000F91FF90EF90DF90CF90BF90AF909F90C8
:100FF0008F907F906F905F904F9008958F929F9207
:10100000AF92BF92CF92DF92EF92FF920F931F9316
:10101000CF93DF937C014B01DC01AD90BC90F501D7
:1010200000811181D8011496CD90DC90159761153F
:101030007105F9F0EB0109900020E9F72197C61B33
:10104000D70BB9F0CC0DDD1DBE01C8010E94FB1409
:10105000882379F0F8012081318184819581B40160
:10106000820F931F0E948E25D8011596DC93CE9394
:101070001497D501ED91FC9124813581F70182818E
:101080009381820F931F8C199D0993838283DF9133
:10109000CF911F910F91FF90EF90DF90CF90BF9075
:1010A000AF909F908F9008950F931F93CF93DF93EE
:1010B000CDB7DEB766970FB6F894DEBF0FBECDBFD3
:1010C0009C01CB011E8AFE0176960AE010E0B80171
:1010D0000E945B23805D8293CB010097C1F7BF0123
:1010E000C9010E94FE0766960FB6F894DEBF0FBED8
:1010F000CDBFDF91CF911F910F910895CF92DF92D5
:10110000EF92FF920F931F93CF93DF9300D0CDB751
:10111000DEB76C01DC01ED91FC91008111816983E6
:101120001A82F801E480F580FFEFEF1AFF0AB70199
:10113000C8010E94FB14882391F0D8012D913C91A5
:10114000119714968D919C911597BE016F5F7F4FFB
:10115000820F931F0E948E25F801F582E482D6014A
:1011600012968D919C911397019613969C938E9352
:1011700012970F900F90DF91CF911F910F91FF90D9
:10118000EF90DF90CF900895FC0126813781620FA8
:10119000731F848195818617970738F08281938128
:1011A00077836683820F931F089580E090E008950F
:1011B000DB01109749F0ED91FC9111970190F081BE
:1011C000E02DBC01CD01099480E090E00895FF92EC
:1011D0000F931F93CF93DF936115710549F46FED62
:1011E00072E0DF91CF911F910F91FF900C94FE0759
:1011F0008B01EC0162E2CE010E947E08F801619150
:101200008F01662351F0E0EDF2E0F080FF2099F3CA
:101210008181681759F03296F8CF62E2CE01DF91F2
:10122000CF911F910F91FF900C947E086CE5CE0139
:101230000E947E086F2DDFCF2F923F924F925F92D8
:101240006F927F928F929F92AF92BF92CF92DF92D6
:10125000EF92FF920F931F93CF93DF93CDB7DEB73B
:101260006C970FB6F894DEBF0FBECDBFDC01ED91D9
:10127000FC913197E830F10508F042C21B018C0166
:10128000EC5CFF4F0C946F23FC0182809380A48060
:10129000B580A5019401C501B4010E94B120882345
:1012A00019F06FEE72E09EC020E030E0A901C501A8
:1012B000B4010E94B12087FF08C06DE2C1010E9405
:1012C0007E08B7FAB094B7F8B09420E030E0A901F6
:1012D000C501B4010E94B120882309F487C0A5018B
:1012E0009401C501B4010E944922A50194010E9404
:1012F000B12081117BC066EF72E074C0DC011296F0
:101300008D919C9113970E94990BFAC1FC01028167
:1013100013816BE7C1010E947E08D80112960D91DE
:101320001C91139701151105D1F0F80162817381A9
:10133000C1010E94E7086AE3C1010E947E08B10171
:10134000C80104960E941C09D8010D911C91011539
:10135000110529F06CE2C1010E947E08E3CF6DE720
:10136000C1010E947E08CCC1FC0162817381C10170
:101370000E94E708C5C1DC0112966D917C9113971C
:1013800031C06DE2C1010E947E08F8016281738163
:10139000848195811E8A8E010A5E1F4F2AE0C22E2B
:1013A000D12CE12CF12CA70196010E94D521605D82
:1013B000D8016E938D01B901CA01611571058105CE
:1013C000910589F7BD010EC0FC0182819381A48142
:1013D000B581892B8A2B8B2B19F469EE72E002C040
:1013E00064EE72E0C1010E94FE078AC120E836E97E
:1013F00048E15BE4C501B4010E94562387FF4AC15E
:1014000000E210E0E5E0DE2E188E1F8A20E030E0DA
:10141000A901C501B4010E9456231816B4F52CEA9F
:1014200035EC47E257E3C501B4010E94B12018161C
:1014300064F1BFEFDB1649F1ED2DF4E0EF0270012E
:101440001124F701EE5BFE4FA501940160817181CB
:10145000828193810E94562318169CF4F701EE585E
:10146000FE4F2081318142815381C501B4010E9428
:1014700017214B015C018F89988D801B910B988FF0
:101480008F8B15950795DA94D4CFC501B4010E94CE
:1014900027236B017C012B013C0106E080E492E4F0
:1014A000AFE0B0E0898F9A8FAB8FBC8F102F0150C7
:1014B0009AE04916510461047104C8F0698D7A8D6F
:1014C0008B8D9C8D2AE030E040E050E00E94D521D9
:1014D000298F3A8F4B8F5C8FC301B2012AE030E035
:1014E00040E050E00E94D52129013A01DFCFC70139
:1014F000B6010E94B6209B01AC01C501B4010E9457
:1015000048224B015C01698D7A8D8B8D9C8D0E94E8
:10151000B6209B01AC01C501B4010E9417212B012B
:101520003C010E9427234B015C010E94B6209B01D5
:10153000AC01C301B2010E9448229B01AC010E9490
:1015400049220E942723860E971EA81EB91E898D48
:101550009A8DAB8DBC8D88169906AA06BB06F8F04D
:101560009FEFC91AD90AE90AF90AAF89B88DAB2BDE
:1015700099F0BAE0CB16D104E104F10468F0EF89E8
:10158000F88D3196F88FEF8B812C912C5401C12C62
:10159000D12C7601C39403C0812C912C54015AE0C4
:1015A000452E512C612C712CC501B401A30192016F
:1015B0000E94D521672B682B692B31F4111624F476
:1015C00049015A011150F0CF1E8ACE0146969A8FDA
:1015D000898F4AE0442E512C612C712CC701B60131
:1015E000A30192010E94D521605DA98DBA8D6E93F1
:1015F000BA8FA98F69017A01C114D104E104F10401
:1016000069F7BD01C1010E94FE07112329F1188A63
:10161000012F7E01B0E1EB0EF11C67013AE0432E91
:10162000512C612C712C015068F0C501B401A3014B
:1016300092010E94D521605DF70162937F0149010B
:101640005A01F1CFB601611B71098EE2DB018E9365
:10165000BD01C1010E94FE07EF89F88DF7FF0BC0A5
:1016600063EF72E0C1010E94FE076F89788D71956A
:10167000619571090BC08F89988D892B09F440C041
:1016800065E6C1010E947E086F89788DC1010E94C4
:10169000540836C08AE8C82E81E0D82E9AE5E92E93
:1016A00091E0F92E00E210E0188E1F8AA501940146
:1016B000D6019E918E917E916E916D010E94B12016
:1016C00018168CF0F7012489358946895789C50198
:1016D000B4010E9417214B015C018F89988D800F06
:1016E000911F988F8F8B1595079594E0E91AF10853
:1016F000A2E7CA16A1E0DA06C9F6DD24DA9486CE9E
:101700006C960FB6F894DEBF0FBECDBFDF91CF91C0
:101710001F910F91FF90EF90DF90CF90BF90AF900F
:101720009F908F907F906F905F904F903F902F9001
:1017300008950F931F93CF93DF93EC018B016BE51B
:10174000C8010E947E080A80DB81C02D209779F0B5
:10175000B801CE0102960E941C090990D881C02DC3
:10176000209729F06CE2C8010E947E08EFCF6DE55A
:10177000C801DF91CF911F910F910C947E08CF93F8
:10178000DF93EC01688179818AE090E00E94D808BB
:10179000009729F0FC011182108215821482EA81DF
:1017A000FB81309751F0208131812115310511F0F5
:1017B000F901F9CF9183808302C09B838A83DF91F3
:1017C000CF9108950F931F93CF93DF938B01FC016B
:1017D000C281D3812097A9F06A817B81011511050F
:1017E00019F06115710521F46017710731F409C012
:1017F000C8010E948525892B21F00990D881C02D30
:10180000E9CFCE01DF91CF911F910F910895EF9213
:10181000FF920F931F93CF93DF936115710511F41E
:1018200080E017C07A01EB018C010E94E20B009767
:1018300041F4C8010E94BF0B009791F3FC01D383D0
:10184000C28322E030E0FC0135832483F782E68204
:1018500081E0DF91CF911F910F91FF90EF9008955C
:101860005F926F927F928F929F92AF92BF92CF9230
:10187000DF92EF92FF920F931F93CF93DF93CDB739
:10188000DEB72C970FB6F894DEBF0FBECDBF80E455
:1018900080937C0080917A00806480937A008091AC
:1018A0007A0086FDFCCF609178008091790070E02D
:1018B000782B072E000C880B990B0E94B8206093A0
:1018C000AD037093AE038093AF039093B0030E9477
:1018D0007A130091B5041091B6042091B7043091A9
:1018E000B804DC01CB01801B910BA20BB30B883E2B
:1018F0009340A105B10528F4012B022B032B09F01D
:1019000098C061E08091B3040E94DF1260E0809192
:10191000B3040E94B01262E170E080E090E00E94A7
:10192000401361E08091B3040E94B01260E08091A6
:10193000B3040E94DF1248E250E060E070E080E013
:101940000E94560F4AE550E060E070E081E00E949E
:10195000560F4AE550E060E070E080E00E94560FCC
:101960000E94260F182F0E94260F082F0E94260F74
:10197000F82E0E94260FE82E0E94260F202F30E01E
:10198000210F311D2F0D311D2E0D311D90E0281717
:10199000390709F04EC0602F70E080E090E00E94AF
:1019A000B62020E030E048EC52E40E94B5224B0122
:1019B0005C01612F70E080E090E00E94B6209B0106
:1019C000AC01C501B4010E9449226093A903709340
:1019D000AA038093AB039093AC036E2D70E080E07C
:1019E00090E00E94B62020E030E048EC52E40E94F3
:1019F000B5224B015C016F2D70E080E090E00E9409
:101A0000B6209B01AC01C501B4010E94492260933C
:101A1000A5037093A6038093A7039093A8030E9445
:101A20007A136093B5047093B6048093B7049093CF
:101A3000B8041092DF041092DE0468ED74E084E0D4
:101A400090E00E94D808009761F028ED34E0DC01B6
:101A500011963C932E9313961C921E9212977C0122
:101A600013C080919D0381110BC010929A031092B4
:101A7000990310929C0310929B0381E080939D0335
:101A800099E9E92E93E0F92E8CE3A82E81E0B82E97
:101A9000C12CD12C77247394F7018080918081141C
:101AA000910479F480919103811165C010928E03A5
:101AB00010928D031092900310928F0370929103F5
:101AC0005AC0B40184E090E00E94D808009751F019
:101AD000DC0111969C928E9213961C921E92129784
:101AE0008C0110C08091910381110AC010928E0365
:101AF00010928D031092900310928F0370929103B5
:101B00000DE813E0F7016081718188E090E00E94A8
:101B1000D808FC01892B21F01182108213821282D5
:101B2000D70112962D913C9113972115310559F04B
:101B3000D9018D919C911197009711F09C01F8CFDC
:101B4000ED93FC9305C0D7011396FC93EE93129787
:101B5000309799F0D8018D919C91892B19F480E0F0
:101B600090E004C0602E512E87E090E09383828342
:101B70006482558202C00DE813E0F5014191519154
:101B80005F016FEF72E0C8010E94070C4AE053E06A
:101B900062E173E0C8010E94070C48E153E063E290
:101BA00073E0C8010E94070CF1E0CF16D10439F0B0
:101BB00042E0C416D10431F065EA73E005C069EA79
:101BC00073E002C06DEA73E0C8010E94B70F8FEFA7
:101BD000C81AD80AA3E0CA16D10409F05DCF1A8248
:101BE00019821C821B821E821D8260E070E08E01C1
:101BF0000F5F1F4FC8010E94480E1C870B87CE0144
:101C00000B9698878F831A861986BE01695F7F4F6E
:101C1000C7010E94990B4AE253E266E171E084EA4F
:101C200094E00E94B804892B71F0B80184EA94E032
:101C30000E94B81584EA94E00E94F40184EA94E0DA
:101C40000E94580706C069E273E083EB93E00E94AC
:101C5000A415B80183EB93E00E94B81589819A819D
:101C60000E9421242C960FB6F894DEBF0FBECDBF84
:101C7000DF91CF911F910F91FF90EF90DF90CF9068
:101C8000BF90AF909F908F907F906F905F900895DE
:101C90000F931F93CF93DF93EC018B010E94FB14F2
:101CA0002881398181110DC02115310519F0C90133
:101CB0000E942124198218821D821C821B821A8292
:101CC00007C01D830C836EED72E0C9010E948E2552
:101CD000CE01DF91CF911F910F910895FC010190EA
:101CE0000020E9F731979F01281B390BE091AE05E1
:101CF000F091AF05E21BF30B4091AA055091AB05A3
:101D0000E417F50730F46091A8057091A905E60F76
:101D1000F71F280F391F6091AC057091AD05DC01EC
:101D20008217930758F40196BC91A081BA1308C09A
:101D30003196E617F70799F7FA01F1CF81E0089598
:101D400080E00895CF93DF93EC0181E00E944A1474
:101D5000BE018091B1039091B2030E94D51541E07C
:101D600060E070E088EE93E0DF91CF910C94BA04CC
:101D7000EF92FF920F931F93CF93DF93EC01162FF7
:101D8000072FF42EE52E60EF71E083EB93E00E94C5
:101D9000E91569EF72E083EB93E00E94221565E399
:101DA00072E083EB93E00E94E915612F702F83EBC3
:101DB00093E00E94A415ECE2F1E083E090E0329120
:101DC00022912F3F3F4F19F00197C8F78FEF8C8773
:101DD0008F3F39F1EF92FF920F931F931F928F93D2
:101DE00083E18F9388E88F938CED92E09F938F939C
:101DF0000E941D072DB73EB7265F3F4F0FB6F894E0
:101E00003EBF0FBE2DBF892BC1F48C8590E0FC0135
:101E1000EE0FFF1FEC5DFE4F9183808381E090E029
:101E20000EC060EF71E083EB93E00E94E91568EC6F
:101E300072E083EB93E00E94D51580E090E0DF91A3
:101E4000CF911F910F91FF90EF900895EF92FF9225
:101E50001F93CF93DF9310E0C7E0D0E083E7E82E35
:101E6000F12C8091B3040E9487120197D1F7C7012A
:101E70000197F1F78091B3040E9487128130910598
:101E800061F40C2E01C0880F0A94EAF7182B809198
:101E9000B3040E948712892BD1F7219710F7812F65
:101EA000DF91CF911F91FF90EF9008958F929F92B5
:101EB000AF92BF92CF92DF92EF92FF92CF93DF93D8
:101EC000C82F6A017B010E941B134B015C01C60EE7
:101ED000D71EE81EF91ED0E08091B3040E9487123D
:101EE0008C179D0759F00E941B13C616D706E806EB
:101EF000F90690F76FEF7FEFCB0106C00E941B132E
:101F0000681979098A099B09DF91CF91FF90EF90B9
:101F1000DF90CF90BF90AF909F908F900895E3EBAC
:101F2000F3E0A089B18982E08C93A485B5851C92E9
:101F3000A685B7858FEC8C93108EA489B58986E031
:101F40008C93A289B3898C9180618C93A289B38987
:101F50008C9188608C93A289B3898C9180688C93D2
:101F60000288F389E02D80818F7D808308950F930F
:101F70001F93CF93DF93EC018B0169E473E00E9420
:101F8000E20B009751F4CE010E94BF0B0097A9F01D
:101F900029E433E0FC0133832283F801408151813D
:101FA0006281738128E030E0FC013583248346831D
:101FB00057836087718781E001C080E0DF91CF9116
:101FC0001F910F910895CF92DF92EF92FF92CF93DE
:101FD000DF936B017C016DE283EB93E00E949F1025
:101FE000EC0144275527BA014C195D096E097F0998
:101FF0002AE083EB93E00E945B158C0F9D1FDF911D
:10200000CF91FF90EF90DF90CF9008950F931F93A3
:10201000CF93DF93EC010E947A13688779878A87D0
:102020009B87E881F9810484F585E02DCE0109952F
:1020300097FF17C00E947A13088519852A853B856A
:10204000DC01CB01801B910BA20BB30B0C811D811A
:102050002E813F8180179107A207B30710F38FEFFE
:102060009FEFDF91CF911F910F910895FC01538D48
:10207000448D252F30E0842F90E0821B930B541762
:1020800010F0CF96089501970895FC01918D828DEF
:10209000981761F0828DDF01A80FB11D5D968C91BC
:1020A000928D9F5F9F73928F90E008958FEF9FEFC7
:1020B0000895FC01918D828D981731F0828DE80F83
:1020C000F11D858D90E008958FEF9FEF0895FC013D
:1020D000918D228D892F90E0805C9F4F821B91090A
:1020E0008F739927089583EB93E00E94671021E096
:1020F000892B09F420E0822F0895FC01848DDF01F3
:10210000A80FB11DA35ABF4F2C91848D90E001966A
:102110008F739927848FA689B7892C93A089B18959
:102120008C91837080648C93938D848D981306C0FA
:102130000288F389E02D80818F7D80830895EF925E
:10214000FF920F931F93CF93DF93EC0181E0888F71
:102150009B8D8C8D981305C0E889F989808185FD58
:1021600026C0F62E0B8D10E00F5F1F4F0F73112747
:10217000E02E8C8DE8120CC00FB607FCFACFE88970
:10218000F989808185FFF5CFCE010E947D10F1CFC6
:102190008B8DFE01E80FF11DE35AFF4FF0829FB7D0
:1021A000F8940B8FEA89FB89808180620AC09FB70F
:1021B000F894EE89FF896083E889F98980818370CA
:1021C000806480839FBF81E090E0DF91CF911F9179
:1021D0000F91FF90EF900895CF93DF93EC01888DDE
:1021E0008823C9F0EA89FB89808185FD05C0A8891B
:1021F000B9898C9186FD0FC00FB607FCF5CF8081A1
:1022000085FFF2CFA889B9898C9185FFEDCFCE01EA
:102210000E947D10E7CFDF91CF91089580E090E09C
:10222000892B29F00E94731081110C9400000895ED
:10223000833081F028F4813099F08230A1F0089544
:102240008730A9F08830B9F08430D1F480918000D3
:102250008F7D03C0809180008F77809380000895E8
:1022600084B58F7702C084B58F7D84BD0895809139
:10227000B0008F7703C08091B0008F7D8093B00055
:1022800008952091B1043091B2042817390771F4F0
:1022900090915A0380915B03981741F0E0915A03A3
:1022A000F0E0E052FA4F808190E008958FEF9FEFC9
:1022B000089508951F93CF93DF93DC015C968D9171
:1022C0009C915D97009739F421E030E013963C93A0
:1022D0002E9312973BC05196ED91FC9152975096D8
:1022E0002C915097322F30951FB75E964C915E9788
:1022F000742F727041FD6095F8944081772311F03E
:10230000422B01C043234083EC012197F1F748E0C1
:10231000508160FF02C0522B01C053235083EC0157
:102320002197F1F76695415099F78081772319F04D
:102330008323808302C0282B20831FBF5C968D914E
:102340009C915D970197F1F781E090E0DF91CF914B
:102350001F9108952091B1043091B20428173907D4
:1023600071F480915B0320915A0390E0805C9F4F51
:10237000821B910960E470E00E945B23089580E075
:1023800090E008952091B1043091B20428173907E4
:10239000B9F490915A0380915B03981789F0E0910A
:1023A0005A03F0E0E052FA4F808120915A0330E066
:1023B0002F5F3F4F2F73332720935A0390E00895E8
:1023C0008FEF9FEF08958F929F92AF92BF92CF921F
:1023D000DF92EF92FF920F931F93CF93DF937C01D5
:1023E000EB016C0182E0C80ED11C4701E5E08E0EC6
:1023F000911C00E010E0F60141916F0150E060E0B7
:1024000070E02AE0CE010E945B155C01E881F98151
:102410000190F081E02D6EE2CE0109958A0D9B1DA1
:10242000080F191F8C149D0431F7F701458150E006
:1024300060E070E02AE0CE010E945B15800F911FE2
:10244000DF91CF911F910F91FF90EF90DF90CF9090
:10245000BF90AF909F908F9008950E9470251F921B
:102460000F920FB60F9211242F933F934F935F93C8
:102470006F937F938F939F93AF93BF93EF93FF934C
:1024800083EB93E00E947D10FF91EF91BF91AF919C
:102490009F918F917F916F915F914F913F912F917C
:1024A0000F900FBE0F901F9018951F920F920FB6AE
:1024B0000F9211242F938F939F93EF93FF93E091AB
:1024C000C303F091C4038081E091C903F091CA0372
:1024D00082FD12C090818091CC038F5F8F73209119
:1024E000CD03821751F0E091CC03F0E0ED54FC4FA6
:1024F000958F8093CC0301C08081FF91EF919F91D4
:102500008F912F910F900FBE0F901F901895CF9322
:10251000DF93282F30E0F901E35BFC4F8491F90150
:10252000E15DFC4FD491F901E55EFC4FC491CC23F1
:1025300091F081110E941811EC2FF0E0EE0FFF1FB7
:10254000E95FFC4FA591B491EC91ED2381E090E01F
:1025500021F480E002C080E090E0DF91CF91089507
:102560001F93CF93DF93282F30E0F901E35BFC4FFB
:102570008491F901E15DFC4FD491F901E55EFC4FD6
:10258000C491CC23C1F0162F81110E941811EC2F99
:10259000F0E0EE0FFF1FEF5EFC4FA591B4919FB7E7
:1025A000F894111104C08C91D095D82302C0EC91FD
:1025B000DE2BDC939FBFDF91CF911F910895CF93C6
:1025C000DF9390E0FC01E15DFC4F2491FC01E55EAE
:1025D000FC4F8491882361F190E0880F991FFC01E2
:1025E000ED5BFC4FC591D491FC01EF5EFC4FA591D2
:1025F000B491611109C09FB7F89488812095822316
:102600008883EC912E230BC0623061F49FB7F8945D
:102610008881322F309583238883EC912E2B2C9345
:102620009FBF06C08FB7F894E8812E2B28838FBFF9
:10263000DF91CF9108953FB7F8948091250690914E
:102640002606A0912706B091280626B5A89B05C0AE
:102650002F3F19F00196A11DB11D3FBFBA2FA92F21
:10266000982F8827820F911DA11DB11DBC01CD019E
:1026700042E0660F771F881F991F4A95D1F708958A
:102680008F929F92AF92BF92CF92DF92EF92FF9282
:102690006B017C010E941B134B015C01C114D1042E
:1026A000E104F104F1F00E941B13DC01CB01881955
:1026B0009909AA09BB09883E9340A105B10570F3A9
:1026C00021E0C21AD108E108F10888EE880E83E003
:1026D000981EA11CB11CC114D104E104F10419F726
:1026E000DDCFFF90EF90DF90CF90BF90AF909F90A5
:1026F0008F9008952FB7F89460912106709122066B
:1027000080912306909124062FBF08951F920F9267
:102710000FB60F9211242F933F938F939F93AF93F4
:10272000BF938091210690912206A0912306B0913B
:1027300024063091200623E0230F2D3720F4019644
:10274000A11DB11D05C026E8230F0296A11DB11DD4
:10275000209320068093210690932206A0932306BF
:10276000B09324068091250690912606A091270615
:10277000B09128060196A11DB11D80932506909366
:102780002606A0932706B0932806BF91AF919F918C
:102790008F913F912F910F900FBE0F901F90189522
:1027A0001F920F920FB60F9211242F933F934F93C6
:1027B0005F936F937F938F939F93AF93BF93EF93A9
:1027C000FF93E091B104F091B204309709F451C045
:1027D000968DA685B785858591FF04C09C91892338
:1027E00029F447C09C91892309F043C0A389B48987
:1027F0009C918589809589238C93868997890197F7
:10280000F1F7608D718DA685B785558538E020E09C
:10281000CB010197F1F7822F90E095958795282FAE
:102820004C91452309F02068315091F7868D81FD48
:10283000209580915B0390E001968F7399273091EA
:102840005A03381749F0A0915B03B0E0A052BA4F89
:102850002C9380935B0303C0868D8160868F828D6D
:10286000938D0197F1F7A389B4899C918589892B70
:102870008C93FF91EF91BF91AF919F918F917F9139
:102880006F915F914F913F912F910F900FBE0F90DD
:102890001F9018958091B1039091B203DC01ED91E6
:1028A000FC910084F185E02D09951816190664F451
:1028B0008091B1039091B203DC01ED91FC9102840F
:1028C000F385E02D0995E6CF0895CF92DF92EF9240
:1028D000FF920F931F93CF93DF936C017A018B01CB
:1028E000C0E0D0E0CE15DF0581F0D8016D918D01FB
:1028F000D601ED91FC910190F081E02DC601099582
:10290000892B11F02196EECF7E01C701DF91CF9187
:102910001F910F91FF90EF90DF90CF900895CF928D
:10292000DF92EF92FF921F93CF93DF93EC01CE01E2
:102930000E940610FC0197FD0EC08D32910579F0C2
:10294000C0970A9760F0E881F9810284F385E02D51
:10295000CE010995ECCF60E070E0CB0144C0C12C02
:10296000D12C760110E0E130F10501F1ED32F105F5
:10297000E1F0CF01C0970A97C8F4AAE0B0E0A70140
:1029800096010E94F7216F01FF0FEE08FF08DC019E
:10299000CB018C0D9D1DAE1DBF1D6C017D0120E383
:1029A000C21AD108E108F10801C011E0E881F981FB
:1029B0000284F385E02DCE010995CE010E94061018
:1029C000FC01C0970A9778F2E130F10561F211231A
:1029D00041F066277727CB016C197D098E099F0985
:1029E00002C0C701B601DF91CF911F91FF90EF9018
:1029F000DF90CF9008950F931F93CF93DF93EC0157
:102A000088819981009729F02A813B812617370711
:102A100088F48B016F5F7F4F0E94AA24009761F0BA
:102A2000998388831B830A832C813D81232B11F496
:102A3000FC01108281E001C080E0DF91CF911F9105
:102A40000F910895EF92FF920F931F93CF93DF930F
:102A50008C017B01C0E0D0E0F701EC0FFD1F649119
:102A6000662361F0D801ED91FC910190F081E02D99
:102A7000C8010995892B11F02196EECFCE01DF9187
:102A8000CF911F910F91FF90EF90089561157105FF
:102A900079F0FB0101900020E9F73197AF01461B67
:102AA000570BDC01ED91FC910280F381E02D09943C
:102AB00080E090E008958F929F92AF92BF92EF9244
:102AC000FF920F931F93CF93DF93CDB7DEB7A197FC
:102AD0000FB6F894DEBF0FBECDBF7C01FA01CB016B
:102AE00019A2223008F42AE08E010F5D1F4F822EBA
:102AF000912CA12CB12CBF01A50194010E94D521DC
:102B0000F901CA01015011096A3014F4605D01C075
:102B1000695CD8016C93232B242B252B61F7B8011A
:102B2000C7010E944615A1960FB6F894DEBF0FBEEE
:102B3000CDBFDF91CF911F910F91FF90EF90BF908C
:102B4000AF909F908F9008950F931F93CF93DF9333
:102B5000EC010E9446158C0166E573E0CE010E94EF
:102B60004615800F911FDF91CF911F910F9108950E
:102B70000F931F93CF93DF93EC01FB0144815581A9
:102B800060817181E881F9810280F381E02D0995EE
:102B90008C0166E573E0CE010E944615800F911FFF
:102BA000DF91CF911F910F9108950F931F93CF93B2
:102BB000DF93EC010E9422158C0166E573E0CE01E3
:102BC0000E944615800F911FDF91CF911F910F91A9
:102BD00008950C9446158F929F92AF92BF92EF92F8
:102BE000FF920F931F93CF93DF93C82F8B01D42FA6
:102BF00079010E947A134B015C018091B10390919D
:102C0000B203DC01ED91FC910084F185E02D099582
:102C1000892B09F473C08091B1039091B203DC0158
:102C2000ED91FC91DD2339F00484F585E02D0995C3
:102C3000F801808319C00284F385E02D0995F8011D
:102C4000808380912A0690912B06A0912C06B0914A
:102C50002D060197A109B10980932A0690932B06AE
:102C6000A0932C06B0932D0680912A0690912B06F6
:102C7000A0912C06B0912D06892B8A2B8B2B11F05D
:102C800081E083C065E070E080E090E00E94401346
:102C90008091B1039091B203DC01ED91FC9100842D
:102CA000F185E02D0995892B59F38091B10390911D
:102CB000B203DC01ED91FC910484F585E02D0995CA
:102CC000D0E0E0968C179D07D9F640E06FE473E002
:102CD00084EF91E00E94BA04059761F060EF71E023
:102CE00083EB93E00E94E9156AE673E083EB93E0DF
:102CF0000E94D51581E0F701808347C00E947A13B6
:102D0000DC01CB0188199909AA09BB09803D9740CC
:102D1000A105B10508F471CF60EF71E083EB93E09A
:102D20000E94E91561E673E083EB93E00E942215AF
:102D300065E372E083EB93E00E94E91540912A0677
:102D400050912B0660912C0670912D0677FF05C0DF
:102D5000CB01BA010E94E30F05C02AE083EB93E0A8
:102D60000E945B1566E573E083EB93E00E944615D5
:102D700010922A0610922B0610922C0610922D0605
:102D800010922906D8011C9280E0DF91CF911F910B
:102D90000F91FF90EF90BF90AF909F908F9008950C
:102DA000CF93DF93CDB7DEB76A970FB6F894DEBF47
:102DB0000FBECDBF789484B5826084BD84B5816038
:102DC00084BD85B5826085BD85B5816085BD8091F6
:102DD0006E00816080936E0010928100809181006E
:102DE0008260809381008091810081608093810066
:102DF000809180008160809380008091B100846028
:102E00008093B1008091B00081608093B000809188
:102E10007A00846080937A0080917A008260809347
:102E20007A0080917A00816080937A0080917A00A4
:102E3000806880937A001092C100109294041092DE
:102E400095041092960410929704109252041092D6
:102E5000530410925404109255040E947A136B018B
:102E60007C014B015C0128EB820E2BE0921EA11C21
:102E7000B11C0E947A136C157D058E059F0528F004
:102E800086169706A806B906A0F783EB93E0909301
:102E90009304809392040E948F0F0E947A13609390
:102EA00052047093530480935404909355046EED30
:102EB00071E080919204909193040E94E9150E9420
:102EC0007A136B017C014B015C013AE0830E911C8B
:102ED000A11CB11C0E947A136C157D058E059F05FF
:102EE00028F086169706A806B906A0F781E0809319
:102EF00066040E948F0F60E08EE00E94DF1281E086
:102F000090E09093A1048093A0040E947A136093B0
:102F10009C0470939D0480939E0490939F040E9450
:102F20008F0F1092D4041092D3041092D2041092F6
:102F3000D1041092D0041092CF048DE991E09093C7
:102F4000D6048093D5049091C504963108F058C0FA
:102F50002DEB30E03093D0042093CF042BE931E007
:102F60003093D2042093D1042CE231E03093D40486
:102F70002093D30440916800983058F031E09E309F
:102F800008F430E021E0822F01C0880F3A95EAF77B
:102F900001C084E0842B80936800983038F09E3024
:102FA00040F0963148F020E030E008C02DE630E0F7
:102FB00005C02BE630E002C02CE630E03093CD04B3
:102FC0002093CC04983030F481E001C0880F9A95AA
:102FD000EAF70EC0292F30E09E3018F4285031094E
:102FE00002C02E50310981E001C0880F2A95EAF70E
:102FF0008093CE048091D5049091D6040197F1F787
:103000008091D3049091D404892B49F1E091B104CB
:10301000F091B20484E0E93BF80709F1309739F008
:10302000A389B4899C918589809589238C9380910B
:10303000D7048E7F8093D70410925B0310925A03BB
:1030400089EB94E09093B2048093B104E091CC04B6
:10305000F091CD0490818091CE04892B808360EF24
:1030600071E083EB93E00E94E9156AED71E083EB78
:1030700093E00E94D51589EB94E09093B20380937E
:10308000B10305E010E087ED91E00E94A20E892BCC
:1030900009F4BDC268EE73E080E090E00E94401346
:1030A0000150110981F760EF71E083EB93E00E941A
:1030B000E9156AEB71E083EB93E00E94D51568E8AF
:1030C00073E180E090E00E9440130AE010E09E016E
:1030D0002F5F3F4F42E051E065E071E08DE091E00D
:1030E0000E94A207882369F0DD24D39400E011E058
:1030F0009EE4C92E20E2B22E3BEEE32E30E0F32E0A
:1031000046C06BEF71E083EB93E00E94A415FFCF04
:1031100063E172E083EB93E00E94E9156AE071E0FD
:1031200083EB93E00E94A415D09280031F930F932A
:103130008AE091E09F938F93CF92BF92FF92EF929C
:103140000E941D070FB6F894DEBF0FBECDBF60EF23
:1031500071E0892B21F583EB93E00E94E91569EC7E
:1031600070E083EB93E00E94221565E372E083EB4D
:1031700093E00E94E9156AE071E083EB93E00E941E
:10318000A41581E090E09093880380938703809159
:10319000870390918803019709F0BACF22C083EB8F
:1031A00093E00E94E91566ED70E083EB93E00E94E6
:1031B000221565E372E083EB93E00E94E9156AE073
:1031C00071E083EB93E00E94A41568EE73E080E069
:1031D00090E00E94401380E00E944A1482E090E058
:1031E000D2CF67E372E083EB93E00E94A41560E323
:1031F00072E083EB93E00E94E91510925C0300E219
:1032000010E02CE533E048E750E06AE770E083E83F
:1032100090E00E94A2076CE573E083EB93E00E94CC
:10322000A4158EEB91E09E8B8D8B1F8A188E198EC4
:103230001A8E8091800304E110E09E012F5F3F4FC2
:10324000813039F445EA50E067EA70E080EB90E0C5
:1032500006C04DE850E06FE870E08BE990E00E9416
:10326000A2078823A1F167E572E0CE0101960E94D2
:103270009E1D0E94701D80937C0367E572E080E0D4
:1032800090E00E949E1D0E94701D80937D0367E563
:1032900072E080E090E00E949E1D0E94701D80936D
:1032A0007E0367E572E080E090E00E949E1D0E9430
:1032B000701D80937F0380917C0390917D03A0918A
:1032C0007E03B0917F038F8B988FA98FBA8F69E5AA
:1032D00072E083EB93E00E94E91563EB73E0CE01AB
:1032E00045960E94E31166E573E083EB93E00E944C
:1032F00046150AE010E09E012F5F3F4F49EB50E07A
:103300006CEB70E08FEB90E00E94A2078981082EA1
:10331000000C990BC0970A9740F4CE0101960E94C9
:10332000701D91958195910902C080E090E06C013B
:10333000990FEE08FF0866E672E083EB93E00E94C7
:10334000E915F7FE05C0C701B6010E94E30F07C0EB
:103350002AE0B701A60183EB93E00E945B156EE7BC
:1033600072E083EB93E00E94A41584EF882E9924E9
:103370009394A12CB12C0E947A13672B682B692B94
:1033800041F40E947A13623071058105910508F4B9
:1033900009C10E947A130091890310918A03209138
:1033A0008B0330918C03601771078207930740F4F9
:1033B0006093890370938A0380938B0390938C03AB
:1033C0000091890310918A0320918B0330918C0323
:1033D0006B017C01C01AD10AE20AF30A9701860147
:1033E0000A3F11052105310508F4DCC0609389030B
:1033F00070938A0380938B0390938C0380925E0476
:1034000090925F04A0926004B092610410926204F2
:103410001092630410926404109265048091560423
:1034200090915704A0915804B091590480935A0484
:1034300090935B04A0935C04B0935D040E947A13A4
:1034400060935604709357048093580490935904E2
:103450000E947A136093520470935304809354042F
:10346000909355040E947A136B017C0163E872E02B
:1034700080919204909193040E94E9152AE041E022
:1034800050E060E070E080919204909193040E947B
:103490005B156AE872E080919204909193040E9417
:1034A000E9152AE0B701A601809192049091930456
:1034B0000E945B156CE772E08091920490919304F6
:1034C0000E94E9158091560490915704A0915804E8
:1034D000B0915904B701A601481B590B6A0B7B0B2D
:1034E0002AE080919204909193040E945B156CE70E
:1034F00072E080919204909193040E94E9154091AA
:103500005604509157046091580470915904809169
:103510005A0490915B04A0915C04B0915D04481B37
:10352000590B6A0B7B0B2AE08091920490919304D3
:103530000E945B156EE872E0809192049091930472
:103540000E94E9150E947A13AB01BC012AE0809128
:103550009204909193040E945B1560E972E080915F
:103560009204909193040E94A4150E947A136B0117
:103570007C012B013C0122E0420E511C611C711C9C
:103580000E947A136C157D058E059F0508F0BDC05D
:103590000E947A13609356047093570480935804E2
:1035A000909359048091A0049091A104892B61F11A
:1035B0000E947A1300919C0410919D0420919E0416
:1035C00030919F046B017C01C01AD10AE20AF30A10
:1035D000009198041091990420919A0430919B04D1
:1035E000C016D106E206F30678F060939C0470934F
:1035F0009D0480939E0490939F04E091A204F09117
:10360000A304309709F009950E940E11B4CE8AE701
:1036100091E00E94A20E68EB7BE080E090E00E94C7
:10362000401380E00E944A1485E791E00E94A20EB8
:1036300089E691E00E94A20E68EC70E080E090E0E4
:103640000E9440138DE591E00E94A20E8FE491E06C
:103650000E94A20E8FE391E00E94A20E81E391E00E
:103660000E94A20E68EC70E080E090E00E9440139F
:103670001092810306E010E021E833E04AE151E0D6
:103680006DE171E08AE291E00E94A20780918103DE
:103690008153823020F4809182038E32E9F060EF12
:1036A00071E083EB93E00E94E9156CE971E083EB34
:1036B00093E00E94221565E372E083EB93E00E94A1
:1036C000E91561E873E083EB93E00E94A41560EADA
:1036D0007FE080E090E0F7CC60EF71E083EB93E077
:1036E0000E94E91561E871E083EB93E00E942215E6
:1036F00065E372E083EB93E00E94E91561E873E013
:1037000083EB93E00E94A415E0CC461657066806AA
:10371000790608F035CF3CCF8091DA059091DB0532
:103720000E94212484EC91E09093BA048093B90420
:103730008091B1049091B204895B944071F4E0915E
:10374000CC04F091CD0490818091CE0480958923A2
:1037500080831092B2041092B1040895CF92DF9248
:10376000EF92FF92CF93DF931092B6031092B503BE
:1037700098EEC92E93E0D92EE12CF12CC092B7031C
:10378000D092B803E092B903F092BA038EE891E0C8
:103790009093B4038093B30385EC90E09093C003BF
:1037A0008093BF0384EC90E09093C2038093C103A5
:1037B00080EC90E09093C4038093C30381EC90E08D
:1037C0009093C6038093C50382EC90E09093C80366
:1037D0008093C70386EC90E09093CA038093C9035B
:1037E0001092CC031092CD031092CE031092CF030F
:1037F00010925604109257041092580410925904D3
:1038000010925A0410925B0410925C0410925D04B2
:1038100010925E0410925F04109260041092610492
:103820001092620410926304109264041092650472
:10383000CEEBD1E0D093B105C093B0051092B205A4
:103840001092B3051092B4051092B50580E290E095
:103850009093A9058093A80581E290E00E948923B6
:103860009093AB058093AA059C01205E3F4F309357
:10387000AD052093AC059093AF058093AE0521E292
:10388000FC0111922A95E9F7D093B705C093B605CC
:103890001092B8051092B9051092BA051092BB05A6
:1038A000D093BD05C093BC051092BE051092BF0514
:1038B0001092C0051092C105D093C305C093C205F4
:1038C0001092C4051092C5051092C6051092C70546
:1038D000D093C905C093C8051092CA051092CB05B4
:1038E0001092CC051092CD05D093CF05C093CE0594
:1038F0001092D0051092D1051092D2051092D305E6
:1039000080EE94E09093DB048093DA0488EC90E0FE
:103910009093DD048093DC041092DF041092DE04A7
:103920008CED91E09093D9048093D804D093D50581
:10393000C093D4051092D6051092D7051092D805E1
:103940001092D9058CE090E09093B4048093B30476
:103950001092B5041092B6041092B7041092B804F5
:1039600060E00E94DF1261E08091B3040E94B01217
:103970001092BC041092BB04C092BD04D092BE044D
:10398000E092BF04F092C00484EC91E09093BA04FA
:103990008093B9041092D0041092CF041092D204F4
:1039A0001092D1041092D4041092D3041092D60431
:1039B0001092D5046091D7046E7F6D7F6093D70419
:1039C0006695617081E0682783E00E94B01261E033
:1039D00083E00E94DF12E2E3F3E0E491E093C904A4
:1039E000EEE1F3E0E491F0E0EE0FFF1FEF5EFC4F3D
:1039F000859194919093CB048093CA0460E082E017
:103A00000E94DF128091D70481FD04C061E082E052
:103A10000E94B01282E08093C504E1E3F3E0E491F8
:103A2000E093C604EDE1F3E0E491F0E0EE0FFF1F58
:103A3000E95FFC4F859194919093C8048093C704EB
:103A40001092A7041092A60488EE93E0A0E0B0E0E4
:103A50008093A8049093A904A093AA04B093AB0404
:103A600080EA91E09093A5048093A4048FEF809363
:103A7000B0041092DB051092DA051092DD05109269
:103A8000DC051092DF051092DE0560E070E08AED43
:103A900095E00E94480E88E893E1A0E0B0E08093B2
:103AA000980490939904A0939A04B0939B0480E3A4
:103AB0009CE09093A3048093A20410929C04109223
:103AC0009D0410929E0410929F041092A1041092E3
:103AD000A004DF91CF91FF90EF90DF90CF900895F9
:103AE000FC0188279927E89421912032E9F32930B5
:103AF00010F02E30C8F32B3241F02D3239F4689497
:103B000004C00E94CA1D820F911D219120532A30AA
:103B1000C0F31EF4909581959F4F0895FB01DC0141
:103B200005900D920020E1F70895FC01059000201A
:103B3000E9F7809590958E0F9F1F08954EE256E00D
:103B40000E94A31D0895FA01A191B081009719F474
:103B50001097E1F0CD01DC01CD010D90002011F4B2
:103B6000C00113C0FB012191222319F02015D9F7C0
:103B7000F3CFFB012191201519F41E92119606C076
:103B80002223C1F70D900020A1F7D001FA01A193E3
:103B9000B08308957AE0979F902D879F802D910D97
:103BA00011240895AEE0B0E0E8EDFDE10C941022A0
:103BB0000D891E898EE08C831A8309838FEF9FE71E
:103BC0009E838D83AE01475E5F4F6F89788DCE01F6
:103BD00001960E94201EEF81F885E00FF11F1082F0
:103BE0002E96E4E00C942C22AEE0B0E0EAEFFDE18A
:103BF0000C9410228C01FA018EE08C831A830983C5
:103C000077FF02C060E070E8CB0101979E838D834F
:103C1000A901BF01CE0101960E94201E4D815E8147
:103C200057FD0AC02F813885421753070CF49A01BB
:103C3000F801E20FF31F10822E96E4E00C942C2280
:103C4000ABE0B0E0E6E2FEE10C9402226C017B0105
:103C50008A01FC0117821682838181FFCCC1CE01CB
:103C600001963C01F6019381F70193FD859193FF45
:103C700081917F01882309F4BAC1853239F493FD1B
:103C8000859193FF81917F01853229F4B60190E0FF
:103C90000E941720E7CF912C212C312CFFE1F31546
:103CA000D8F08B3279F038F4803279F08332A1F495
:103CB000232D20611DC08D3261F0803369F4232DE6
:103CC000216016C0832D8260382EE32DE4603E2EE5
:103CD0002AC0F32DF8601DC037FC2DC020ED280F41
:103CE0002A3040F08E32B9F436FC81C1232D206495
:103CF000322E19C036FE06C08AE0989E200D11248F
:103D0000922E11C0EAE02E9E200D1124222EF32DBA
:103D1000F0623F2E08C08C3621F4832D8068382E47
:103D200002C0883641F4F70193FD859193FF81919C
:103D30007F018111B3CF982F9F7D9554933028F444
:103D40000C5F1F4F9FE399830DC0833631F083379B
:103D500071F0833509F059C021C0F8018081898351
:103D60000E5F1F4F88248394912C530113C02801A8
:103D7000F2E04F0E511CF801A080B18036FE03C066
:103D8000692D70E002C06FEF7FEFC5010E940C202B
:103D90004C018201F32DFF773F2E16C0280122E04F
:103DA000420E511CF801A080B18036FE03C0692D7F
:103DB00070E002C06FEF7FEFC5010E9401204C014F
:103DC000F32DF0683F2E820133FC1BC0822D90E062
:103DD00088169906B0F4B60180E290E00E941720A0
:103DE0002A94F4CFF50137FC859137FE81915F016C
:103DF000B60190E00E94172021102A9421E0821A37
:103E000091088114910471F7E8C0843611F0893665
:103E100041F5F80137FE07C060817181828193818D
:103E20000C5F1F4F08C060817181072E000C880B4A
:103E3000990B0E5F1F4FF32DFF763F2E97FF09C0A2
:103E400090958095709561957F4F8F4F9F4FF0684B
:103E50003F2E2AE030E0A3010E945320882E8618CE
:103E600045C0853731F4232D2F7EB22E2AE030E075
:103E700025C0932D997FB92E8F36C1F018F488355F
:103E800079F0B5C0803719F0883721F0B0C0E92F3C
:103E9000E061BE2EB4FE0DC0FB2DF460BF2E09C044
:103EA00034FE0AC0292F2660B22E06C028E030E07A
:103EB00005C020E130E002C020E132E0F801B7FEA9
:103EC00007C060817181828193810C5F1F4F06C0A2
:103ED0006081718180E090E00E5F1F4FA3010E941E
:103EE0005320882E8618FB2DFF773F2E36FE0DC0FF
:103EF000232D2E7FA22E891458F434FE0BC032FCE1
:103F000009C0832D8E7EA82E05C0B82CA32C03C01B
:103F1000B82C01C0B92CA4FE0FC0FE01E80DF11DA4
:103F20008081803321F49A2D997EA92E09C0A2FEAA
:103F300006C0B394B39404C08A2D867809F0B39474
:103F4000A3FC11C0A0FE06C0B21488F4280C922C69
:103F50009B180EC0B21460F4B60180E290E00E949B
:103F60001720B394F7CFB21418F42B1802C0982C72
:103F7000212CA4FE10C0B60180E390E00E9417201F
:103F8000A2FE17C0A1FC03C088E790E002C088E54C
:103F900090E0B6010CC08A2D867859F0A1FE02C0CF
:103FA0008BE201C080E2A7FC8DE2B60190E00E94A6
:103FB0001720891438F4B60180E390E00E9417209E
:103FC0009A94F7CF8A94F301E80DF11D8081B60130
:103FD00090E00E9417208110F5CF222009F442CEF4
:103FE000B60180E290E00E9417202A94F6CFF601F5
:103FF0008681978102C08FEF9FEF2B96E2E10C94B0
:104000001E22FC010590615070400110D8F7809588
:1040100090958E0F9F1F0895FC0161507040019094
:104020000110D8F7809590958E0F9F1F08950F93DC
:104030001F93CF93DF93FB01238121FD03C08FEFFB
:104040009FEF2CC022FF16C0468157812481358105
:104050004217530744F4A081B1819D012F5F3F4F68
:10406000318320838C93268137812F5F3F4F3783A5
:10407000268314C08B01EC01FB010084F185E02D47
:104080000995892BE1F6D80116968D919C91179789
:10409000019617969C938E931697CE01DF91CF9140
:1040A0001F910F910895FA01AA27283051F120316C
:1040B00081F1E8946F936E7F6E5F7F4F8F4F9F4FBC
:1040C000AF4FB1E03ED0B4E03CD0670F781F891FFE
:1040D0009A1FA11D680F791F8A1F911DA11D6A0FCC
:1040E000711D811D911DA11D20D009F468943F917F
:1040F0002AE0269F11243019305D3193DEF6CF017E
:104100000895462F4770405D4193B3E00FD0C9F743
:10411000F6CF462F4F70405D4A3318F0495D31FDB0
:104120004052419302D0A9F7EACFB4E0A695979503
:10413000879577956795BA95C9F7009761057105D9
:1041400008959B01AC010A2E069457954795379523
:104150002795BA95C9F7620F731F841F951FA01D7D
:1041600008950E94F32008F481E00895E89409C0BE
:1041700097FB3EF490958095709561957F4F8F4F9A
:104180009F4F9923A9F0F92F96E9BB279395F695B0
:10419000879577956795B795F111F8CFFAF4BB0F2E
:1041A00011F460FF1BC06F5F7F4F8F4F9F4F16C092
:1041B000882311F096E911C0772321F09EE8872F1C
:1041C000762F05C0662371F096E8862F70E060E0D8
:1041D0002AF09A95660F771F881FDAF7880F969551
:1041E000879597F90895990F0008550FAA0BE0E8F5
:1041F000FEEF16161706E807F907C0F012161306A9
:10420000E407F50798F0621B730B840B950B39F4E8
:104210000A2661F0232B242B252B21F408950A264E
:1042200009F4A140A6958FEF811D811D08950E947C
:104230002A210C949B210E948D2138F00E94942108
:1042400020F0952311F00C9484210C948A211124E0
:104250000C94CF210E94AC2170F3959FC1F3950F70
:1042600050E0551F629FF001729FBB27F00DB11DFA
:10427000639FAA27F00DB11DAA1F649F6627B00D8A
:10428000A11D661F829F2227B00DA11D621F739F73
:10429000B00DA11D621F839FA00D611D221F749F81
:1042A0003327A00D611D231F849F600D211D822FC8
:1042B000762F6A2F11249F5750409AF0F1F08823EF
:1042C0004AF0EE0FFF1FBB1F661F771F881F91501C
:1042D0005040A9F79E3F510580F00C9484210C9426
:1042E000CF215F3FE4F3983ED4F3869577956795A9
:1042F000B795F795E7959F5FC1F7FE2B880F911D46
:104300009695879597F9089597F99F6780E870E0EB
:1043100060E008959FEF80EC089500240A9416163B
:10432000170618060906089500240A9412161306A3
:10433000140605060895092E0394000C11F4882331
:1043400052F0BB0F40F4BF2B11F460FF04C06F5F4D
:104350007F4F8F4F9F4F089557FD9058440F551F23
:1043600059F05F3F71F04795880F97FB991F61F0F7
:104370009F3F79F087950895121613061406551F6E
:10438000F2CF4695F1DF08C0161617061806991FDA
:10439000F1CF86957105610508940895E894BB27CF
:1043A00066277727CB0197F90895A1E21A2EAA1B59
:1043B000BB1BFD010DC0AA1FBB1FEE1FFF1FA217D5
:1043C000B307E407F50720F0A21BB30BE40BF50BD2
:1043D000661F771F881F991F1A9469F7609570955B
:1043E000809590959B01AC01BD01CF0108950E947D
:1043F0003922A59F900DB49F900DA49F800D911D13
:10440000112408952F923F924F925F926F927F9264
:104410008F929F92AF92BF92CF92DF92EF92FF92D4
:104420000F931F93CF93DF93CDB7DEB7CA1BDB0B80
:104430000FB6F894DEBF0FBECDBF09942A88398825
:1044400048885F846E847D848C849B84AA84B9842C
:10445000C884DF80EE80FD800C811B81AA81B98138
:10446000CE0FD11D0FB6F894DEBF0FBECDBFED014C
:104470000895A29FB001B39FC001A39F700D811D3D
:104480001124911DB29F700D811D1124911D08955D
:104490005058BB27AA270E9460220C949B210E949F
:1044A0008D2138F00E94942120F039F49F3F19F4B7
:1044B00026F40C948A210EF4E095E7FB0C948421F9
:1044C000E92F0E94AC2158F3BA17620773078407DB
:1044D000950720F079F4A6F50C94CE210EF4E09522
:1044E0000B2EBA2FA02D0B01B90190010C01CA01AE
:1044F000A0011124FF27591B99F0593F50F4503E59
:1045000068F11A16F040A22F232F342F4427585F4A
:10451000F3CF469537952795A795F0405395C9F762
:104520007EF41F16BA0B620B730B840BBAF091501A
:10453000A1F0FF0FBB1F661F771F881FC2F70EC0B9
:10454000BA0F621F731F841F48F48795779567958C
:10455000B795F7959E3F08F0B0CF9395880F08F078
:104560009927EE0F9795879508950E94C9220C947C
:104570009B210E94942158F00E948D2140F029F443
:104580005F3F29F00C94842151110C94CF210C949D
:104590008A210E94AC2168F39923B1F3552391F34A
:1045A000951B550BBB27AA2762177307840738F0A2
:1045B0009F5F5F4F220F331F441FAA1FA9F335D0FF
:1045C0000E2E3AF0E0E832D091505040E695001CB3
:1045D000CAF72BD0FE2F29D0660F771F881FBB1F6D
:1045E000261737074807AB07B0E809F0BB0B802D4B
:1045F000BF01FF2793585F4F3AF09E3F510578F077
:104600000C9484210C94CF215F3FE4F3983ED4F3C3
:10461000869577956795B795F7959F5FC9F7880F4A
:10462000911D9695879597F90895E1E0660F771F9C
:10463000881FBB1F621773078407BA0720F0621B2D
:10464000730B840BBA0BEE1F88F7E09508950E9458
:10465000B42188F09F5798F0B92F9927B751B0F03F
:10466000E1F0660F771F881F991F1AF0BA95C9F7F6
:1046700014C0B13091F00E94CE21B1E008950C94A5
:10468000CE21672F782F8827B85F39F0B93FCCF358
:10469000869577956795B395D9F73EF49095809573
:1046A000709561957F4F8F4F9F4F08950E94F32023
:1046B00008F48FEF089597FB072E16F4009407D0A7
:1046C00077FD09D00E94752307FC05D03EF4909534
:1046D00081959F4F0895709561957F4F0895EE0FD6
:1046E000FF1F0590F491E02D0994AA1BBB1B51E11B
:1046F00007C0AA1FBB1FA617B70710F0A61BB70B52
:10470000881F991F5A95A9F780959095BC01CD01F6
:1047100008950F931F93CF93DF938230910510F488
:1047200082E090E0E0913206F091330620E030E044
:10473000A0E0B0E0309719F14081518102811381EE
:1047400048175907C8F08417950769F4109731F096
:1047500012960C93129713961C9327C0009332065F
:104760001093330622C02115310519F04217530763
:1047700018F49A01BD01EF01DF01F801DBCF21152B
:104780003105F9F0281B390B2430310580F48A817A
:104790009B816115710521F0FB019383828304C025
:1047A0009093330680933206FE01329644C0FE0198
:1047B000E20FF31F819391932250310939832883AB
:1047C0003AC02091300630913106232B41F42091DC
:1047D0002E0130912F013093310620933006209125
:1047E0002C0130912D012115310541F42DB73EB733
:1047F0004091300150913101241B350BE09130067E
:10480000F0913106E217F307A0F42E1B3F0B281797
:10481000390778F0AC014E5F5F4F2417350748F039
:104820004E0F5F1F50933106409330068193919352
:1048300002C0E0E0F0E0CF01DF91CF911F910F9136
:104840000895CF93DF93009709F481C0FC0132975C
:1048500013821282A0913206B0913306109781F430
:1048600020813181820F931F2091300630913106D3
:104870002817390751F5F0933106E093300667C0E9
:10488000ED0120E030E0CE17DF0740F44A815B8184
:104890009E0141155105F1F0EA01F5CFD383C283A2
:1048A00040815181840F951FC817D90759F4888119
:1048B0009981840F951F0296918380838A819B81C1
:1048C000938382832115310529F4F0933306E09315
:1048D00032063DC0E901FB83EA8349915991C40F37
:1048E000D51FEC17FD0761F480819181840F951F1E
:1048F0000296E90199838883828193819B838A83CD
:10490000E0E0F0E012968D919C911397009719F0DA
:10491000FD01DC01F7CF8D919C9111979D012E5FD8
:104920003F4F820F931F2091300630913106281798
:10493000390769F4309729F4109233061092320641
:1049400002C013821282B0933106A0933006DF9129
:10495000CF910895A0E0B0E0E0EBF4E20C940622E1
:10496000EC01009721F4CB010E948923B4C0FC0123
:10497000E60FF71F9C0122503109E217F30708F4F4
:10498000A8C0D9010D911C91119706171707B0F017
:104990000530110508F49BC0C801049786179707D6
:1049A00008F495C002501109061B170B01931193CF
:1049B0006D937C93CF010E94212489C05B01A01AD2
:1049C000B10A4C01800E911EA0913206B0913306BF
:1049D000612C712CE12CF12C109709F446C08D91BB
:1049E0009C911197A815B905B1F56C0142E0C40E70
:1049F000D11CCA14DB0478F14C018A189B086401AD
:104A000042E0C40ED11C1296BC9012971396AC9142
:104A1000B5E0CB16D10440F0B282A38391828082AC
:104A2000D9016D937C9309C00E5F1F4F800F911FBA
:104A3000F90191838083EB2DFA2FE114F10431F019
:104A4000D7011396FC93EE93129741C0F09333066F
:104A5000E09332063CC06816790608F43C017D01FB
:104A600012960D90BC91A02DB7CF809130069091F9
:104A7000310688169906E1F466167706C8F4809127
:104A80002C0190912D01009741F48DB79EB7409174
:104A9000300150913101841B950BE817F907C8F4D8
:104AA000F0933106E0933006F901718360830FC003
:104AB000CB010E9489237C01009759F0A801BE0117
:104AC0000E947525CE010E942124C70104C0CE0199
:104AD00002C080E090E0CDB7DEB7EEE00C94222279
:104AE00081E090E0F8940C94A425FB01DC0102C065
:104AF00001900D9241505040D8F70895DC0101C05B
:104B00006D9341505040E0F70895FB01DC018D9119
:104B1000019080190110D9F3990B0895FB01DC0174
:104B200001900D920020E1F70895FB01DC01415056
:104B3000504048F001900D920020C9F701C01D922D
:104B400041505040E0F7089511E0C1ECD1E004C0BD
:104B5000FE010E946F232196C23CD107C9F7F89449
:024B6000FFCF85
:104B6200677565737431333537004D554C54495F61
:104B720047554553540037302E31322E3131322EC3
:104B820031333700FFFFFFFFFFFFFFFF0000340656
:104B920080009F02A602B002B902C50239033E0399
:104BA20043030000803FCDCCCC3D6F12833A95BFCA
:104BB200D6337D1D9026B3CE010CCDCCCC3D0AD789
:104BC200233C17B7D13877CC2B329595E6241FB109
:104BD2004F0A000020410000C84200401C4620BC91
:104BE200BE4CCA1B0E5AAEC59D74000000009F1039
:104BF20065143610EC1067104510591000000000C3
:104C02000B025E062202F401EC03F703360475047C
:104C1200B80425025807FC05EC0100000000E3116E
:104C2200000000005A11651422025911AA11C21182
:104C32004111000000002D1200000000C408564D72
:104C42004450565F317C315F564D4450560D0A0038
:104C52005B576946694573705D2000576946692054
:104C6200736869656C64206E6F7420707265736519
:104C72006E7400417474656D7074696E6720746F30
:104C820020636F6E6E65637420746F2057504120ED
:104C9200535349443A2000596F7527726520636F58
:104CA2006E6E656374656420746F20746865206E2F
:104CB2006574776F726B002E0049502041646472F4
:104CC2006573733A20005369676E616C2073747266
:104CD200656E677468202852535349293A0020644C
:104CE200426D00564D4450455F003A323A007C0016
:104CF2005F564D445045002B4950442C003E000D58
:104D02000A4F4B0D0A000D0A4552524F520D0A002E
:104D12000D0A4641494C0D0A000D0A53454E4420E6
:104D22004F4B0D0A0020434F4E4E4543540D0A008F
:104D320022225C5C6208660C6E0A720D7409006EB7
:104D4200756C6C00747275650066616C7365004EFB
:104D5200614E00652D00496E66696E697479007353
:104D6200656E736F7254797065006175746F6361FB
:104D720072006F776E6572006C6976696E67726F2A
:104D82006F6D00706C61636500436F6E6E65637476
:104D9200696F6E204661696C0074656D700068759C
:104DA2006D6900696C6C756D0076616C7565002CBF
:0A4DB200434C4F5345440D0A000026
:00000001FF
