:100000000C9437020C945F020C945F020C94B10DB7
:100010000C94B10D0C94B10D0C945F020C945F0222
:100020000C945F020C945F020C945F020C945F02CC
:100030000C945F020C945F020C945F020C945F02BC
:100040000C94080A0C945F020C9490050C946A05B9
:100050000C945F020C945F020C945F020C945F029C
:100060000C945F020C945F0200407A10F35A00A0D7
:10007000724E18090010A5D4E80000E87648170071
:1000800000E40B54020000CA9A3B000000E1F505B1
:10009000000080969800000040420F000000A086FB
:1000A00001000000102700000000E803000000002D
:1000B0006400000000000A000000000001000000D1
:1000C00000002C76D888DC674F0823DFC1DFAE59EB
:1000D000E1B1B796E5E3E453C63AE651997696E87E
:1000E000E6C28426EB898C9B62ED407C6FFCEFBC02
:1000F0009C9F40F2BAA56FA5F490055A2AF75C932D
:100100006B6CF9676DC11BFCE0E40D47FEF520E662
:10011000B500D0ED902E0300943577050080841E45
:10012000080000204E0A000000C80C333333330FA0
:10013000986E12831141EF8D2114893BE65516CF3D
:10014000FEE6DB18D1844B381BF77C1D901DA4BB49
:10015000E424203284725E228100C9F124ECA1E5FE
:100160003D2725642E25642E25642E2564004461D8
:100170007461207061636B65742073656E642065C3
:1001800072726F722028322900446174612070619C
:10019000636B65742073656E64206572726F722084
:1001A0002831290041542B43495053454E443D25A5
:1001B000642C2575004661696C656420746F207736
:1001C0007269746520746F20736F636B657400418E
:1001D000542B434950434C4F53453D2564004469DB
:1001E00073636F6E6E656374696E67200041542B94
:1001F000434950535441545553002B434950535491
:10020000415455533A25642C00456E64207461674F
:10021000206E6F7420666F756E64004E6F2074617F
:100220006720666F756E64003E3E3E2054494D4522
:100230004F5554203E3E3E000000000024002700A1
:100240002A0000000008000201000003040700006B
:1002500000000000000022002B43574A41503A2280
:100260000041542B43574A41503F0022002B434941
:100270005041503A69703A220041542B4349504151
:10028000503F0022003A53544149502C220041541F
:100290002B4349465352000D0A002C2D0041542B8C
:1002A00043574A41503F00436F6E6E656374656407
:1002B00020746F004661696C656420636F6E6E65C3
:1002C0006374696E6720746F0041542B43574A4131
:1002D000505F4355523D222573222C222573220064
:1002E0000D0A005354415455533A0041542B43498D
:1002F00050535441545553000D0A0053444B20763B
:10030000657273696F6E3A0041542B474D5200413C
:10031000542B4357444843503D312C310041542B1A
:1003200043574155544F434F4E4E3D300041542B9F
:1003300043495044494E464F3D310041542B4349B7
:10034000504D55583D310041542B43574D4F444576
:100350003D3100415445300041542B525354004923
:100360006E6974696C697A6174696F6E2073756304
:100370006365737366756C202D005761726E696ECC
:10038000673A20556E737570706F7274656420667D
:1003900069726D776172650043616E6E6F7420697A
:1003A0006E697469616C697A6520455350206D6F80
:1003B00064756C6500415400496E697469616C69CB
:1003C0007A696E6720455350206D6F64756C6500C7
:1003D0004E6F20736F636B657420617661696C6129
:1003E000626C650041542B43495053544152543D73
:1003F00025642C22544350222C222573222C25754F
:1004000000436F6E6E656374696E6720746F00548D
:10041000494D454F55543A0054616720434C4F5362
:100420004544206E6F7420666F756E640000000096
:100430000023002600290000000000250028002BD2
:10044000000404040404040404020202020202037D
:100450000303030303010204081020408001020487
:1004600008102001020408102000E21BC61B112402
:100470001FBECFEFD8E0DEBFCDBF26E0A4E5B3E0DE
:1004800001C01D92A73BB207E1F713E0A0E0B1E085
:10049000E0E3FFE402C005900D92A435B107D9F75F
:1004A00012E0C6E3D2E004C02197FE010E9461255C
:1004B000C533D107C9F70E94A1140C948B270C9463
:1004C0000000FC01538D448D252F30E0842F90E0F7
:1004D000821B930B541710F0CF960895019708953F
:1004E000FC01918D828D981761F0828DDF01A80F3C
:1004F000B11D5D968C91928D9F5F9F73928F90E05E
:1005000008958FEF9FEF0895FC01918D828D9817CC
:1005100031F0828DE80FF11D858D90E008958FEF09
:100520009FEF0895FC01918D228D892F90E0805CD2
:100530009F4F821B91098F739927089583EE93E053
:100540000E94920221E0892B09F420E0822F089575
:10055000FC01848DDF01A80FB11DA35ABF4F2C9160
:10056000848D90E001968F739927848FA689B7892F
:100570002C93A089B1898C91837080648C93938D26
:10058000848D981306C00288F389E02D80818F7DC9
:1005900080830895EF92FF920F931F93CF93DF9381
:1005A000EC0181E0888F9B8D8C8D981305C0E889C4
:1005B000F989808185FD26C0F62E0B8D10E00F5F36
:1005C0001F4F0F731127E02E8C8DE8120CC00FB651
:1005D00007FCFACFE889F989808185FFF5CFCE0144
:1005E0000E94A802F1CF8B8DFE01E80FF11DE35AA6
:1005F000FF4FF0829FB7F8940B8FEA89FB898081C7
:1006000080620AC09FB7F894EE89FF896083E88909
:10061000F98980818370806480839FBF81E090E04E
:10062000DF91CF911F910F91FF90EF900895CF939D
:10063000DF93EC01888D8823C9F0EA89FB898081EA
:1006400085FD05C0A889B9898C9186FD0FC00FB6BC
:1006500007FCF5CF808185FFF2CFA889B9898C91FD
:1006600085FFEDCFCE010E94A802E7CFDF91CF91A9
:10067000089580E090E0892B29F00E949E0281116C
:100680000C9400000895833081F028F4813099F0B3
:100690008230A1F008958730A9F08830B9F0843015
:1006A000D1F4809180008F7D03C0809180008F778E
:1006B00080938000089584B58F7702C084B58F7DC4
:1006C00084BD08958091B0008F7703C08091B00001
:1006D0008F7D8093B0000895FC0126813781620FE1
:1006E000731F848195818617970738F082819381E3
:1006F00077836683820F931F089580E090E00895CA
:1007000021E0FC0184858F3F09F420E0822F0895C9
:10071000CF93DF93EC01E881F9810084F185E02D2E
:10072000CE010995892B41F0E881F9810284F38596
:10073000E02DCE010995EFCFDF91CF910895CF93B2
:10074000DF931F92CDB7DEB76983DC01ED91FC9199
:100750000280F381E02D41E050E0BE016F5F7F4FEA
:1007600009950F90DF91CF910895209175053091F3
:1007700076052817390771F49091A9038091AA038F
:10078000981741F0E091A903F0E0E05AFC4F808116
:1007900090E008958FEF9FEF089508951F93CF93F2
:1007A000DF93DC015C968D919C915D97009739F405
:1007B00021E030E013963C932E9312973BC0519664
:1007C000ED91FC91529750962C915097322F309585
:1007D0001FB75E964C915E97742F727041FD6095C5
:1007E000F8944081772311F0422B01C043234083CA
:1007F000EC012197F1F748E0508160FF02C0522BD5
:1008000001C053235083EC012197F1F766954150C5
:1008100099F78081772319F08323808302C0282BE6
:1008200020831FBF5C968D919C915D970197F1F796
:1008300081E090E0DF91CF911F910895209175059F
:10084000309176052817390771F48091AA03209119
:10085000A90390E0805C9F4F821B910960E470E0E7
:100860000E943925089580E090E008952091750553
:100870003091760528173907B9F49091A903809132
:10088000AA03981789F0E091A903F0E0E05AFC4F21
:1008900080812091A90330E02F5F3F4F2F733327D2
:1008A0002093A90390E008958FEF9FEF0895089596
:1008B00080E090E008958F929F92AF92BF92CF9286
:1008C000DF92EF92FF920F931F93CF93DF937C0100
:1008D000EB016C0182E0C80ED11C4701E5E08E0EF1
:1008E000911C00E010E0F60141916F0150E060E0E2
:1008F00070E02AE0CE010E94A2115C01E881F9813A
:100900000190F081E02D6EE2CE0109958A0D9B1DCC
:10091000080F191F8C149D0431F7F701458150E031
:1009200060E070E02AE0CE010E94A211800F911FCA
:10093000DF91CF911F910F91FF90EF90DF90CF90BB
:10094000BF90AF909F908F9008950E944E270F9375
:100950001F93CF93DF9300D0CDB7DEB78C01DC01BE
:10096000ED91FC910084F185E02D0995892B29F109
:100970001A82F80184859091DC03891309C09E01D5
:100980002E5F3F4F41E0BE016F5F7F4F0E9481129B
:100990008A81882379F0D8011C96EC911C97F0E0AD
:1009A000EE0FFF1FEA5EFE4F8FEF9FEF9183808374
:1009B0001C968C93898190E002C08FEF9FEF0F907F
:1009C0000F90DF91CF911F910F9108950F931F9377
:1009D000CF93DF9300D0CDB7DEB78C01DC01ED9172
:1009E000FC910084F185E02D0995892B29F11A826B
:1009F000F80184859091DC03891309C09E012E5F64
:100A00003F4F40E0BE016F5F7F4F0E9481128A819D
:100A1000882379F0D8011C96EC911C97F0E0EE0F3A
:100A2000FF1FEA5EFE4F8FEF9FEF918380831C963E
:100A30008C93898190E002C08FEF9FEF0F900F9011
:100A4000DF91CF911F910F910895CF92DF92EF9296
:100A5000FF920F931F93CF93DF93CDB7DEB76097CD
:100A60000FB6F894DEBF0FBECDBF7C01FB016A015B
:100A700085811F928F9384811F928F9383811F9210
:100A80008F9382811F928F9382E691E09F938F9341
:100A90008E010F5F1F4F1F930F930E94481EA601E8
:100AA000B801C7010E945C130FB6F894DEBF0FBEF9
:100AB000CDBF60960FB6F894DEBF0FBECDBFDF91FD
:100AC000CF911F910F91FF90EF90DF90CF900895FD
:100AD0000C945C131F920F920FB60F9211242F9358
:100AE0003F934F935F936F937F938F939F93AF93B6
:100AF000BF93EF93FF9383EE93E00E94A802FF91D0
:100B0000EF91BF91AF919F918F917F916F915F9185
:100B10004F913F912F910F900FBE0F901F901895FE
:100B20001F920F920FB60F9211242F938F939F93C2
:100B3000EF93FF93E091F303F091F4038081E09150
:100B4000F903F091FA0382FD12C090818091FC03B9
:100B50008F5F8F732091FD03821751F0E091FC03AA
:100B6000F0E0ED51FC4F958F8093FC0301C0808134
:100B7000FF91EF919F918F912F910F900FBE0F904A
:100B80001F901895CF93DF93282F30E0F901EE5B8B
:100B9000FD4F8491F901EB5AFB4FD491F901EF5BC2
:100BA000FB4FC491CC2391F081110E944303EC2FA1
:100BB000F0E0EE0FFF1FE35DFB4FA591B491EC91C8
:100BC000ED2381E090E021F480E002C080E090E03D
:100BD000DF91CF9108951F93CF93DF93282F30E0BB
:100BE000F901EE5BFD4F8491F901EB5AFB4FD49173
:100BF000F901EF5BFB4FC491CC23C1F0162F81119B
:100C00000E944303EC2FF0E0EE0FFF1FE95CFB4F67
:100C1000A591B4919FB7F894111104C08C91D0950F
:100C2000D82302C0EC91DE2BDC939FBFDF91CF91E4
:100C30001F910895CF93DF9390E0FC01EB5AFB4F97
:100C40002491FC01EF5BFB4F8491882361F190E0DC
:100C5000880F991FFC01E85CFD4FC591D491FC0100
:100C6000E95CFB4FA591B491611109C09FB7F8945D
:100C70008881209582238883EC912E230BC06230DB
:100C800061F49FB7F8948881322F3095832388834D
:100C9000EC912E2B2C939FBF06C08FB7F894E88160
:100CA0002E2B28838FBFDF91CF9108953FB7F89403
:100CB0008091A5039091A603A091A703B091A803EA
:100CC00026B5A89B05C02F3F19F00196A11DB11DA7
:100CD0003FBFBA2FA92F982F8827820F911DA11DE2
:100CE000B11DBC01CD0142E0660F771F881F991F1F
:100CF0004A95D1F708958F929F92AF92BF92CF926B
:100D0000DF92EF92FF926B017C010E9456064B012D
:100D10005C01C114D104E104F104F1F00E94560613
:100D2000DC01CB0188199909AA09BB09883E9340C7
:100D3000A105B10570F321E0C21AD108E108F1085C
:100D400088EE880E83E0981EA11CB11CC114D1044A
:100D5000E104F10419F7DDCFFF90EF90DF90CF9021
:100D6000BF90AF909F908F9008952FB7F8946091A7
:100D7000A1037091A2038091A3039091A4032FBFBC
:100D80000895EF92FF920F931F93CF93DF93EC019F
:100D90008B017A010E94B506FE01E857FF4F608380
:100DA0007183828393838C819D81DC01ED91FC9121
:100DB0000280F381E02DA701B801DF91CF911F914F
:100DC0000F91FF90EF9009941F93CF93DF93EC0165
:100DD000162F0E94B506FE01E857FF4F608371830E
:100DE000828393838C819D81DC01ED91FC91019044
:100DF000F081E02D612FDF91CF911F9109948F92A7
:100E00009F92AF92BF92CF92DF92EF92FF920F9399
:100E10001F93CF93DF934091DD035091DE036091E8
:100E2000DF037091E003141615061606170644F446
:100E30009091DC03981711F0911102C0CA0121C1F1
:100E4000F82E8091E1039091E203DC01ED91FC9199
:100E50000084F185E02D0995892B19F480E090E05C
:100E600010C10091E1031091E203C0E0D0E00E94C4
:100E7000B506F8016087718782879387D801ED9165
:100E8000FC910284F385E02DC801099597FF19C0F4
:100E90000E94B506F80180849184A284B384DC01A9
:100EA000CB0188199909AA09BB0984809580A6807D
:100EB000B78088159905AA05BB0500F38FEF9FEF52
:100EC00011C0FE01ED55FE4F2081022E000C330BA8
:100ED0002817390709F0A0C02196C530D10539F689
:100EE00080E090E0892B09F0B9CF8091E1039091E7
:100EF000E2030E9436116093DC038091E10390913C
:100F0000E203DC01ED91FC910284F385E02D09956B
:100F10008091E1039091E2030E9436116093DD031A
:100F20007093DE038093DF039093E0038091E103ED
:100F30009091E203DC01ED91FC910284F385E02DB8
:100F400009958091E1039091E2030E94361180910E
:100F5000E1039091E203DC01ED91FC910284F385C1
:100F6000E02D09958091E1039091E2030E943611F2
:100F70008091E1039091E203DC01ED91FC91028408
:100F8000F385E02D09958091E1039091E2030E94A1
:100F900036118091E1039091E203DC01ED91FC9127
:100FA0000284F385E02D09958091E1039091E2039D
:100FB0000E9436118091E1039091E203DC01ED91F2
:100FC000FC910284F385E02D09958091E1039091D5
:100FD000E203DC01ED91FC910284F385E02D09959B
:100FE0008091E1039091E2030E9436118091E10328
:100FF0009091E203DC01ED91FC910284F385E02DF8
:1010000009958091DC03F81611F0F11027CF80913B
:10101000DD039091DE0335C0209709F428CF4F01FE
:1010200064EA71E09E0121503109D4014E914D01D5
:10103000042E000C550B84179507F9F42115310582
:1010400009F415CF43EAC42E41E0D42EDB0140E081
:1010500050E0F601B1906F01ED90BE1441F04217DF
:10106000530709F404CF6F5F7F4FE901DBCF4F5F78
:101070005F4F4217530768F3F2CF2115310599F7F7
:10108000F4CEDF91CF911F910F91FF90EF90DF9001
:10109000CF90BF90AF909F908F900895FC01848572
:1010A0008F3F21F00E94FF0697FF02C080E090E092
:1010B00008958F929F92AF92BF92EF92FF920F93FB
:1010C0001F93CF93DF93EC017B018A01E881F981C3
:1010D0000084F185E02D0995892B19F48FEF9FEF9E
:1010E00055C09C858091DC03981338C08091DD0346
:1010F0009091DE03A091DF03B091E003A80160E0CE
:1011000070E084179507A607B7070CF48C01E70178
:10111000E00EF11ECE15DF05F9F00E94B5064B0179
:101120005C018091E1039091E203DC01ED91FC917F
:101130000284F385E02D099597FF13C00E94B50640
:10114000DC01CB0188199909AA09BB09883E9340A3
:10115000A105B10530F3C2CFC80118C080E090E00E
:1011600015C089938091DD039091DE03A091DF0388
:10117000B091E0030197A109B1098093DD03909339
:10118000DE03A093DF03B093E003C4CFDF91CF91E0
:101190001F910F91FF90EF90BF90AF909F908F9015
:1011A00008958F929F92AF92BF92EF92FF920F930A
:1011B0001F93CF93DF93CDB7DEB762970FB6F89446
:1011C000DEBF0FBECDBF80E480937C0080917A00AB
:1011D000806480937A0080917A0086FDFCCF6091D4
:1011E00078008091790070E0782B072E000C880B36
:1011F000990B0E945B2360935C0370935D03809363
:101200005E0390935F030E94B506009198051091CC
:10121000990520919A0530919B05DC01CB01801B3B
:10122000910BA20BB30B883E9340A105B10528F4A6
:10123000012B022B032B09F098C061E080919605E9
:101240000E941A0660E0809196050E94EB0562E11B
:1012500070E080E090E00E947B0661E0809196055E
:101260000E94EB0560E0809196050E941A0648E214
:1012700050E060E070E080E00E94AC0F4AE550E092
:1012800060E070E081E00E94AC0F4AE550E060E071
:1012900070E080E00E94AC0F0E947C0F182F0E942B
:1012A0007C0F082F0E947C0FF82E0E947C0FE82EE6
:1012B0000E947C0F202F30E0210F311D2F0D311D9A
:1012C0002E0D311D90E02817390709F04EC0602F10
:1012D00070E080E090E00E94592320E030E048EC8C
:1012E00052E40E94C7244B015C01612F70E080E052
:1012F00090E00E9459239B01AC01C501B4010E94FA
:101300005B24609358037093590380935A0390931E
:101310005B036E2D70E080E090E00E94592320E096
:1013200030E048EC52E40E94C7244B015C016F2D71
:1013300070E080E090E00E9459239B01AC01C50160
:10134000B4010E945B24609354037093550380930F
:101350005603909357030E94B506609398057093C7
:10136000990580939A0590939B0540915403509161
:1013700055036091560370915703CE0101960E9468
:101380000C0F409158035091590360915A0370918A
:101390005B03CE0107960E940C0F40915C035091B5
:1013A0005D0360915E0370915F03CE010D960E9414
:1013B0000C0F69817A8189EA91E00E94C00E6F81E9
:1013C000788581EC91E00E94C00E6D857E8589ED67
:1013D00091E00E94C00E8D859E850E94FF258F8121
:1013E00098850E94FF2589819A810E94FF25629637
:1013F0000FB6F894DEBF0FBECDBFDF91CF911F9126
:101400000F91FF90EF90BF90AF909F908F900895B5
:101410001F920F920FB60F9211242F933F938F9329
:101420009F93AF93BF938091A1039091A203A0914A
:10143000A303B091A4033091A00323E0230F2D3721
:1014400020F40196A11DB11D05C026E8230F0296C8
:10145000A11DB11D2093A0038093A1039093A2032B
:10146000A093A303B093A4038091A5039091A60336
:10147000A091A703B091A8030196A11DB11D80936F
:10148000A5039093A603A093A703B093A803BF91CD
:10149000AF919F918F913F912F910F900FBE0F9021
:1014A0001F9018958091E1039091E203DC01ED918A
:1014B000FC910084F185E02D09951816190664F455
:1014C0008091E1039091E203DC01ED91FC910284B3
:1014D000F385E02D0995E6CF08953F924F925F92F4
:1014E0006F927F928F929F92AF92BF92CF92DF9234
:1014F000EF92FF920F931F93CF93DF936C012B0119
:10150000342E80919E0590919F059093A305809322
:10151000A2050E94B5064B015C0166246A94762CF4
:101520000D2C000CEE08FF080E94B506DC01CB0173
:1015300088199909AA09BB098C159D05AE05BF0537
:1015400008F05BC08FEF6816780609F056C08091EE
:10155000E1039091E203DC01ED91FC910084F185BF
:10156000E02D0995892B01F38091E1039091E2032D
:10157000DC01ED91FC910284F385E02D0995E09169
:10158000A205F091A30580838091A2059091A30507
:1015900001969093A3058093A2052091A005309118
:1015A000A1058217930740F080919E0590919F05B9
:1015B0009093A3058093A2054114510441F0C20108
:1015C0000E940211882319F085E0682E712C3320C7
:1015D00009F4AACF04E211E0C0E0D0E0F801819163
:1015E00091918F010E940211882311F03E019CCF3E
:1015F0002196C530D10591F797CF0E94B506DC0141
:10160000CB0188199909AA09BB098C159D05AE055E
:10161000BF0560F062EF71E083EE93E00E9431124B
:1016200068E272E083EE93E00E945712C301DF91FB
:10163000CF911F910F91FF90EF90DF90CF90BF90CF
:10164000AF909F908F907F906F905F904F903F9062
:101650000895AF92BF92CF92DF92EF92FF920F93D5
:101660001F93CF93DF935C016B017A01E90118822C
:1016700081E00E94520AB5018091E1039091E2035A
:101680000E94571241E0B60188EE93E00E946D0A75
:101690008530910509F049C080919E0590919F0584
:1016A0009093A3058093A20540919C0550919D05C0
:1016B0004F5F5F4F60E070E00E946E2741E0B7012E
:1016C00084EF91E00E946D0A059731F5A801415021
:1016D0005109F70101900020E9F73197EE19FF0950
:1016E00060919E0570919F058091A2059091A30540
:1016F000861B970B8E1B9F0B4817590708F0AC01F0
:10170000CE010E947C2741E060E070E080ED97E030
:101710000E946D0A81E018C062EF71E083EE93E0F1
:101720000E94311269E072E00AC0059760F062EF32
:1017300071E083EE93E00E9431126BE172E083EE80
:1017400093E00E94571280E0DF91CF911F910F919B
:10175000FF90EF90DF90CF90BF90AF900895CF9221
:10176000DF92EF92FF920F931F93CF93DF93CDB74A
:10177000DEB76E970FB6F894DEBF0FBECDBFFC018B
:1017800084858F3FD1F17F010E94FF06892B11F0E4
:1017900094E034C0D7011C968C911F928F938AEFEE
:1017A00091E09F938F93FE0131966F01FF93EF932A
:1017B0000E94481E0AE010E09E012B5E3F4F47EA60
:1017C00051E0B6018DEE91E00E94290B0F900F9031
:1017D0000F900F900F900F908111DACFD7011C96C8
:1017E000EC911C97F0E0EE0FFF1FEA5EFE4F8FEFCB
:1017F0009FEF918380831C968C9390E081E09430DE
:1018000009F080E06E960FB6F894DEBF0FBECDBF34
:10181000DF91CF911F910F91FF90EF90DF90CF90CC
:101820000895AF92BF92CF92DF92EF92FF920F9303
:101830001F93CF93DF93CDB7DEB764970FB6F894BD
:10184000DEBF0FBECDBFDC011C962C91243018F4F6
:101850004115510531F421E030E0FC01338322834E
:101860008AC08A016B017C011F934F931F922F93B3
:1018700084EA91E09F938F939E012F5F3F4F590120
:101880003F932F930E94481EB5018091E1039091F0
:10189000E2030E941D1240E06DEF71E088EE93E0DC
:1018A0000E946D0A0FB6F894DEBF0FBECDBF05973C
:1018B00049F062EF71E083EE93E00E94311269E833
:1018C00071E01FC08091E1039091E203DC01ED9192
:1018D000FC910280F381E02DA801B601099541E059
:1018E00060E070E080ED97E00E946D0A039709F4D4
:1018F00045C062EF71E083EE93E00E9431126EE624
:1019000071E083EE93E00E94571281E090E0F701CE
:101910009383828362EF71E083EE93E00E94311241
:1019200065EB71E083EE93E00E9433126CE772E0A6
:1019300083EE93E00E943112D7011C964C9150E047
:1019400060E070E02AE083EE93E00E94A21161E57E
:1019500073E083EE93E00E948C1460EA7FE080E005
:1019600090E00E947B06D701ED91FC910488F589F7
:10197000E02DC701099580E090E001C0C8016496A0
:101980000FB6F894DEBF0FBECDBFDF91CF911F9190
:101990000F91FF90EF90DF90CF90BF90AF900895A0
:1019A000CF93DF93CDB7DEB7C85CD1090FB6F894FB
:1019B000DEBF0FBECDBF9E012F523F4FC353DF4F3F
:1019C00048815981CD5CD04068EC70E0CE01019631
:1019D0000E946A1E81E00E94520ABE016F5F7F4F23
:1019E0008091E1039091E2030E941D1241E060E0CA
:1019F00070E0C153DF4F88819981CF5CD0400E9455
:101A00006D0AC853DF4F0FB6F894DEBF0FBECDBFCF
:101A1000DF91CF910895CF93DF93FC0124852F3F71
:101A200009F440C0EC0162EF71E083EE93E00E94A4
:101A300031126EED71E083EE93E00E9433126CE799
:101A400072E083EE93E00E9431124C8550E060E03A
:101A500070E02AE083EE93E00E94A21161E573E05A
:101A600083EE93E00E948C148C851F928F938FE0FD
:101A70008F9380EA8F938FEC91E09F938F930E94D6
:101A8000D00CEC85F0E0EE0FFF1FEA5EFE4F8FEF0B
:101A90009FEF918380838C870F900F900F900F9012
:101AA0000F900F90DF91CF9108954F925F926F92B8
:101AB0007F928F929F92AF92BF92CF92DF92EF92DE
:101AC000FF920F931F93CF93DF93CDB7DEB74C01F7
:101AD0006B015A0139014DB65EB6CB010E940B1E57
:101AE00001962DB73EB7281B390B0FB6F8943EBFB1
:101AF0000FBE2DBF8DB79EB701967C01B6010E9427
:101B0000041EC5010E940B1E01962DB73EB7281B6F
:101B1000390B0FB6F8943EBF0FBE2DBF8DB79EB7E1
:101B200001966C01B5010E94041E9301A601B70144
:101B3000C4010E94290B0FB6F8945EBE0FBE4DBEC5
:101B4000DF91CF911F910F91FF90EF90DF90CF9099
:101B5000BF90AF909F908F907F906F905F904F90CD
:101B600008951F920F920FB60F9211242F933F9357
:101B70004F935F936F937F938F939F93AF93BF9395
:101B8000EF93FF93E0917505F0917605309709F496
:101B900051C0968DA685B785858591FF04C09C911F
:101BA000892329F447C09C91892309F043C0A38964
:101BB000B4899C918589809589238C93868997899E
:101BC0000197F1F7608D718DA685B785558538E051
:101BD00020E0CB010197F1F7822F90E09595879552
:101BE000282F4C91452309F02068315091F7868DBC
:101BF00081FD20958091AA0390E001968F7399272B
:101C00003091A903381749F0A091AA03B0E0A05A77
:101C1000BC4F2C938093AA0303C0868D8160868F6E
:101C2000828D938D0197F1F7A389B4899C91858961
:101C3000892B8C93FF91EF91BF91AF919F918F91E1
:101C40007F916F915F914F913F912F910F900FBEB8
:101C50000F901F901895CF92DF92EF92FF920F9303
:101C60001F93CF93DF936C017A018B01C0E0D0E02A
:101C7000CE15DF0581F0D8016D918D01D601ED9172
:101C8000FC910190F081E02DC6010995892B11F09E
:101C90002196EECF7E01C701DF91CF911F910F9169
:101CA000FF90EF90DF90CF900895CF92DF92EF9268
:101CB000FF92CF93DF93EC010E94B5066B017C018C
:101CC0008091D8049091D904DC01ED91FC910084BD
:101CD000F185E02D0995892B79F40E94B506DC0188
:101CE000CB018C199D09AE09BF0988399A43A1051A
:101CF000B10530F380E00DC08091D8049091D904F3
:101D0000DC01ED91FC910284F385E02D0995888337
:101D100081E0DF91CF91FF90EF90DF90CF90089519
:101D20000F931F93CF93DF93EC010E94B506688752
:101D300079878A879B87E881F9810484F585E02D7E
:101D4000CE01099597FF17C00E94B5060885198531
:101D50002A853B85DC01CB01801B910BA20BB30BC9
:101D60000C811D812E813F8180179107A207B30747
:101D700010F38FEF9FEFDF91CF911F910F91089597
:101D8000EF92FF920F931F93CF93DF937C018B0110
:101D9000EB0109900020E9F72197C61BD70B0E94A1
:101DA0005314882389F1F70101900020E9F7319756
:101DB000EE19FF09CE010796E80FF91FE138F1058A
:101DC00018F545E050E06AED74E0C7010E94CA13BF
:101DD000F801DC01A652BB4FA8014C0F5D1FE417B0
:101DE000F50719F021912D93FACF2597AE01480FF1
:101DF000591F6AED74E080E3DF91CF911F910F913D
:101E0000FF90EF900C94EA1380E0DF91CF911F9147
:101E10000F91FF90EF900895CF92DF92EF92FF9293
:101E20000F931F93CF93DF93CDB7DEB7A1970FB674
:101E3000F894DEBF0FBECDBF7C01CB01BA01F70124
:101E40001182108213821282158214828E010F5F1A
:101E50001F4F22E044E00E94C61D6C01F701808103
:101E60009181C114D10429F1F60101900020E9F714
:101E700031978F010C191D09009731F0F70122816C
:101E800033812017310708F5B8016F5F7F4F0E943B
:101E90008826F701009759F091838083138302838A
:101EA00024813581232B89F4FC0110820EC08081AE
:101EB0009181009711F00E94FF25F7011182108295
:101EC000158214821382128208C0F70115830483DD
:101ED000B601808191810E947527A1960FB6F89472
:101EE000DEBF0FBECDBFDF91CF911F910F91FF904D
:101EF000EF90DF90CF900895EF92FF921F93CF93D2
:101F0000DF9310E0C7E0D0E083E7E82EF12C80916A
:101F100096050E94C2050197D1F7C7010197F1F715
:101F2000809196050E94C2058130910561F40C2EC6
:101F300001C0880F0A94EAF7182B809196050E9439
:101F4000C205892BD1F7219710F7812FDF91CF910F
:101F50001F91FF90EF9008958F929F92AF92BF9242
:101F6000CF92DF92EF92FF92CF93DF93C82F6A0157
:101F70007B010E9456064B015C01C60ED71EE81E6F
:101F8000F91ED0E0809196050E94C2058C179D072E
:101F900059F00E945606C616D706E806F90690F7CD
:101FA0006FEF7FEFCB0106C00E94560668197909D2
:101FB0008A099B09DF91CF91FF90EF90DF90CF903E
:101FC000BF90AF909F908F900895E3EEF3E0A089CB
:101FD000B18982E08C93A485B5851C92A685B785CE
:101FE0008FEC8C93108EA489B58986E08C93A2899E
:101FF000B3898C9180618C93A289B3898C9188601C
:102000008C93A289B3898C9180688C930288F38920
:10201000E02D80818F7D808308954F925F926F9233
:102020007F928F929F92AF92BF92CF92DF92EF9268
:10203000FF920F931F93CF93DF9300D0CDB7DEB7FE
:102040005C018AED94E00E94550E81113AC036C0C1
:102050008C01CE0101960E94550E882379F1C801AA
:1020600001962981F70121937F01422F4F7750E09C
:10207000449DB001459D700D549D700D1124C60EF8
:10208000D71E47E0440C551C661C771C4A95D1F7B7
:1020900027FF27C085309105D9F68FEF9FEF9093EA
:1020A0007405809373058091D8049091D904DC0164
:1020B000ED91FC910488F589E02D099580E090E090
:1020C0008EC09090DA0419828BEDE82E84E0F82E11
:1020D00001E010E0C12CD12C412C512C3201439451
:1020E000B8CFF92DF07FFA832FEF280FD5012C936D
:1020F000F03319F586529B4F0E94550E8823F1F25A
:10210000C80184529B4F0E94550E8823B9F2C80122
:102110000396D501EC91F0E0EC52FB4FE780F12CF7
:10212000FE2CEE242085E20EF11C2091DA0421FF22
:1021300008C0B2E0EB0EF11C04C020E0E12CF12C51
:1021400001C022E0422E512CFC01EC52FB4F4F010A
:102150008C01481A590A2EEF622E77247A94C8010E
:10216000840D951D8C159D0578F5CE0101960E9474
:10217000550E882309F4A2CF8091710590917205C4
:102180000097B1F0FA81F03399F4D5012C91F30165
:10219000E21BF1099F01200F311FE216F30640F404
:1021A000DC01ED91FC910190F081E02D69810995B0
:1021B0000038110518F48981F40186830F5F1F4FE1
:1021C000FFEF8F1A9F0ACBCF809171059091720516
:1021D000892B21F40138110508F070CFC8010F9048
:1021E0000F90DF91CF911F910F91FF90EF90DF90B3
:1021F000CF90BF90AF909F908F907F906F905F90A7
:102200004F900895FC0101900020E9F731979F015C
:10221000281B390BE091A205F091A305E21BF30BFB
:1022200040919E0550919F05E417F50730F46091A9
:102230009C0570919D05E60FF71F280F391F6091CF
:10224000A0057091A105DC018217930758F401964F
:10225000BC91A081BA1308C03196E617F70799F729
:10226000FA01F1CF81E0089580E00895CF92DF92E6
:10227000EF92FF921F93CF93DF93EC01CE010E9468
:10228000900EFC0197FD0EC08D32910579F0C0973C
:102290000A9760F0E881F9810284F385E02DCE0190
:1022A0000995ECCF60E070E0CB0144C0C12CD12C8B
:1022B000760110E0E130F10501F1ED32F105E1F0D8
:1022C000CF01C0970A97C8F4AAE0B0E0A701960131
:1022D0000E9409246F01FF0FEE08FF08DC01CB010B
:1022E0008C0D9D1DAE1DBF1D6C017D0120E3C21A2A
:1022F000D108E108F10801C011E0E881F981028408
:10230000F385E02DCE010995CE010E94900EFC01CF
:10231000C0970A9778F2E130F10561F2112341F09C
:1023200066277727CB016C197D098E099F0902C0AA
:10233000C701B601DF91CF911F91FF90EF90DF9021
:10234000CF9008958F929F92AF92BF92EF92FF929B
:102350000F931F93CF93DF93CDB7DEB7A1970FB63F
:10236000F894DEBF0FBECDBF7C01FA01CB0119A2EC
:10237000223008F42AE08E010F5D1F4F822E912C2F
:10238000A12CB12CBF01A50194010E94E723F90102
:10239000CA01015011096A3014F4605D01C0695C22
:1023A000D8016C93232B242B252B61F7B801C7018F
:1023B0000E948C14A1960FB6F894DEBF0FBECDBF5D
:1023C000DF91CF911F910F91FF90EF90BF90AF9051
:1023D0009F908F900895CF92DF92EF92FF92CF93CC
:1023E000DF93AB01BC0177FF1DC06A017B016DE289
:1023F00083EE93E00E94CA02EC0144275527BA01FC
:102400004C195D096E097F092AE083EE93E00E9472
:10241000A2118C0F9D1FDF91CF91FF90EF90DF9065
:10242000CF9008952AE083EE93E0DF91CF91FF9063
:10243000EF90DF90CF900C94A2110F931F93CF9346
:10244000DF93EC010E948C148C0161E573E0CE01F6
:102450000E948C14800F911FDF91CF911F910F91DB
:1024600008950C948C14EF92FF920F931F93CF93C7
:10247000DF938C017B01C0E0D0E0F701EC0FFD1F82
:102480006491662361F0D801ED91FC910190F08197
:10249000E02DC8010995892B11F02196EECFCE01D0
:1024A000DF91CF911F910F91FF90EF9008950F93BF
:1024B0001F93CF93DF93EC010E9433128C0161E5EF
:1024C00073E0CE010E948C14800F911FDF91CF9199
:1024D0001F910F910895CF93DF93EC0181E00E944B
:1024E000520ABE018091E1039091E2030E945712CB
:1024F00041E060E070E088EE93E0DF91CF910C94D2
:102500006D0A8F929F92AF92BF92EF92FF920F93BC
:102510001F93CF93DF93C82F8B01D42F79010E9493
:10252000B5064B015C018091E1039091E203DC016F
:10253000ED91FC910084F185E02D0995892B09F43A
:1025400073C08091E1039091E203DC01ED91FC9175
:10255000DD2339F00484F585E02D0995F8018083A9
:1025600019C00284F385E02D0995F80180838091DC
:10257000DD039091DE03A091DF03B091E0030197AA
:10258000A109B1098093DD039093DE03A093DF03DB
:10259000B093E0038091DD039091DE03A091DF030F
:1025A000B091E003892B8A2B8B2B11F081E079C04D
:1025B00065E070E080E090E00E947B068091E1039E
:1025C0009091E203DC01ED91FC910084F185E02D16
:1025D0000995892B59F38091E1039091E203DC0185
:1025E000ED91FC910484F585E02D0995D0E0E0960D
:1025F0008C179D07D9F640E06AE473E084EF91E020
:102600000E946D0A059761F062EF71E083EE93E03E
:102610000E94311268E174E083EE93E00E94571249
:1026200081E0F70180833DC00E94B506DC01CB014B
:1026300088199909AA09BB09803D9740A105B105F0
:1026400008F471CF62EF71E083EE93E00E943112E3
:102650006FE074E083EE93E00E9433126CE772E067
:1026600083EE93E00E9431126091DD037091DE03EE
:102670008091DF039091E0030E94EB1161E573E02C
:1026800083EE93E00E948C141092DD031092DE031F
:102690001092DF031092E0031092DC03D8011C9229
:1026A00080E0DF91CF911F910F91FF90EF90BF904D
:1026B000AF909F908F900895EF92FF920F931F938A
:1026C000CF93DF93EC01162F072FF42EE52E62EF48
:1026D00071E083EE93E00E94311261E074E083EEDA
:1026E00093E00E9433126CE772E083EE93E00E9465
:1026F0003112612F702F83EE93E00E941D12EEE1E4
:10270000F1E083E090E0329122912F3F3F4F19F0AA
:102710000197C8F78FEF8C878F3F39F1EF92FF92C7
:102720000F931F931F928F9383E18F9388E88F936A
:1027300084EE93E09F938F930E94D00C2DB73EB709
:10274000265F3F4F0FB6F8943EBF0FBE2DBF892BBB
:10275000C1F48C8590E0FC01EE0FFF1FEA5EFE4F96
:102760009183808381E090E00EC062EF71E083EEA0
:1027700093E00E94311260ED73E083EE93E00E94DB
:10278000571280E090E0DF91CF911F910F91FF9061
:10279000EF900895CF93DF93EC01FA013296E60FA4
:1027A000F71FDC01AD014C1B5D0BCF01861B970BA6
:1027B0002D91222311F02193F5CF9C01241B350B81
:1027C000620F731FFB013297508331964083DF9174
:1027D000CF910895EF92FF920F931F93CF93DF93C2
:1027E00000D000D0CDB7DEB77B01BA0130E0962F24
:1027F0009F77660F672F661F770B719561157105BF
:1028000009F0906821E0230FE1E0F0E0EC0FFD1FFC
:10281000E30FF11D90836115710511F0322FE7CFA1
:1028200030E0B701621B730B6C5F7F4FDB018C9351
:10283000DE011196F701E21BF30B359685E0E80EF9
:10284000F11CEE16FF0619F08D918193FACF80915D
:10285000D8049091D9042F5F3F4F8901040F151FB1
:10286000DC01ED91FC910280F381E02DA801099536
:102870007C010E94B50660935C0570935D058093B2
:102880005E0590935F0581E00E151F0509F080E05D
:102890000F900F900F900F90DF91CF911F910F919C
:1028A000FF90EF900895CF938091D8049091D90430
:1028B000009771F1DC01ED91FC910688F789E02D1C
:1028C0000995C1E0811125C0C0E080917305909108
:1028D0007405892BF1F48DEF9FEF9093740580932D
:1028E00073058091D8049091D904DC01ED91FC919D
:1028F0000680F781E02D09958091D8049091D90444
:10290000DC01ED91FC910488F589E02D099501C069
:10291000C0E08C2FCF9108956115710579F0FB010E
:1029200001900020E9F73197AF01461B570BDC01FE
:10293000ED91FC910280F381E02D099480E090E01C
:102940000895CF93DF93CDB7DEB76D970FB6F894A8
:10295000DEBF0FBECDBF789484B5826084BD84B5E0
:10296000816084BD85B5826085BD85B5816085BD8A
:1029700080916E00816080936E0010928100809142
:1029800081008260809381008091810081608093CA
:102990008100809180008160809380008091B100EF
:1029A00084608093B1008091B00081608093B0001A
:1029B00080917A00846080937A0080917A008260AE
:1029C00080937A0080917A00816080937A00809170
:1029D0007A00806880937A001092C1001092C4043B
:1029E0001092C5041092C6041092C704109282047B
:1029F0001092830410928404109285040E94B506FC
:102A00006B017C014B015C0128EB820E2BE0921ED6
:102A1000A11CB11C0E94B5066C157D058E059F0595
:102A200028F086169706A806B906A0F783EE93E06D
:102A30009093C3048093C2040E94E50F0E94B506E0
:102A4000609382047093830480938404909385043C
:102A500060E372E08091C2049091C3040E9431123D
:102A60000E94B5066B017C014B015C013AE0830ECC
:102A7000911CA11CB11C0E94B5066C157D058E052C
:102A80009F0528F086169706A806B906A0F781E0EC
:102A9000809396040E94E50F109292051092910582
:102AA0001092900510928F0510928E0510928D0550
:102AB0008DE991E09093940580939305909183051F
:102AC000963108F058C02DEB30E030938E052093FE
:102AD0008D052BE931E03093900520938F052CE292
:102AE00031E0309392052093910540916800983031
:102AF00058F031E09E3008F430E021E0822F01C030
:102B0000880F3A95EAF701C084E0842B809368002F
:102B1000983038F09E3040F0963148F020E030E0B8
:102B200008C02DE630E005C02BE630E002C02CE600
:102B300030E030938B0520938A05983030F481E0A3
:102B400001C0880F9A95EAF70EC0292F30E09E3019
:102B500018F42850310902C02E50310981E001C01B
:102B6000880F2A95EAF780938C05809193059091C0
:102B700094050197F1F78091910590919205892B29
:102B800049F1E0917505F091760545E0E737F407E6
:102B900009F1309739F0A389B4899C918589809592
:102BA00089238C93809195058E7F80939505109253
:102BB000AA031092A90387E795E090937605809386
:102BC0007505E0918A05F0918B05908180918C05C7
:102BD000892B808362EF71E083EE93E00E943112D3
:102BE00068EB73E083EE93E00E94571287E795E06D
:102BF0009093E2038093E10305E010E085EB93E01E
:102C00000E946B12892B09F41FC568EE73E080E007
:102C100090E00E947B060150110981F762EF71E09C
:102C200083EE93E00E94311268E973E083EE93E053
:102C30000E94571268E873E180E090E00E947B06F2
:102C40000AE010E09E012F5F3F4F40EE52E063EE3E
:102C500072E08BEE92E00E94550D882369F0DD242E
:102C6000D39400E011E0EEE4CE2EF0E2BF2EA9EC0A
:102C7000EA2EA2E0FA2E46C062E472E083EE93E010
:102C80000E941D12FFCF6AE572E083EE93E00E947E
:102C900031126AE071E083EE93E00E941D12D0923F
:102CA000CF031F930F938AE091E09F938F93CF926E
:102CB000BF92FF92EF920E94D00C0FB6F894DEBF45
:102CC0000FBECDBF62EF71E0892B21F583EE93E05B
:102CD0000E94311267EA72E083EE93E00E943312A1
:102CE0006CE772E083EE93E00E9431126AE071E0DB
:102CF00083EE93E00E941D1281E090E09093D70351
:102D00008093D6038091D6039091D703019709F061
:102D1000BACF22C083EE93E00E94311264EB72E0DE
:102D200083EE93E00E9433126CE772E083EE93E04F
:102D30000E9431126AE071E083EE93E00E941D125E
:102D400068EE73E080E090E00E947B0680E00E94E5
:102D5000520A82E090E0D2CF6EE772E083EE93E019
:102D60000E941D1267E772E083EE93E00E94311229
:102D70001092AB0300E210E02BEA33E046E552E0AC
:102D800068E572E081E692E00E94550D6BEA73E01F
:102D900083EE93E00E941D1283E891E09E8B8D8B61
:102DA0001F8A188E198E1A8E8091CF0304E110E0CD
:102DB0009E012F5F3F4F813039F443E852E065E8D0
:102DC00072E08EE892E006C04BE652E06DE672E0FB
:102DD00089E792E00E94550D8823A1F168EF72E027
:102DE000CE0101960E94141E0E94E61D8093CB0323
:102DF00068EF72E080E090E00E94141E0E94E61DE1
:102E00008093CC0368EF72E080E090E00E94141E93
:102E10000E94E61D8093CD0368EF72E080E090E0B1
:102E20000E94141E0E94E61D8093CE038091CB0366
:102E30009091CC03A091CD03B091CE038F8B988F4E
:102E4000A98FBA8F6EE972E083EE93E00E9431128F
:102E500063EE73E0CE0145960E945B0461E573E08A
:102E600083EE93E00E948C140AE010E09E012F5F35
:102E70003F4F47E952E06AE972E08DE992E00E9433
:102E8000550D8981082E000C990BC0970A9748F4BC
:102E9000CE0101960E94E61D00271127081B190B81
:102EA00002C000E010E06BEA72E083EE93E00E9463
:102EB0003112B801110F880B990B0E94EB1163ECD2
:102EC00072E083EE93E00E941D120E94E50F85E3FD
:102ED00091E090936E0580936D058BE597E090935C
:102EE000700580936F0561E08DE00E941A0660E036
:102EF0008DE00E94EB0581E090E09093D1048093F7
:102F0000D0040E94B5066093CC047093CD048093E6
:102F1000CE049093CF049E01285F3F4F3C8F2B8FB0
:102F20007CEF272E33243A940E94B506672B682B3A
:102F3000692B41F40E94B506623071058105910547
:102F400008F40DC10E94B5060091D8031091D90371
:102F50002091DA033091DB03601771078207930732
:102F600040F46093D8037093D9038093DA0390936D
:102F7000DB030091D8031091D9032091DA0330913B
:102F8000DB036B017C01C01AD10AE20AF30A970144
:102F900086010A3F11052105310508F4E0C0609360
:102FA000D8037093D9038093DA039093DB0324EF63
:102FB00031E040E050E020938E0430938F04409342
:102FC00090045093910410929204109293041092E2
:102FD0009404109295048091860490918704A091A6
:102FE0008804B091890480938A0490938B04A09301
:102FF0008C04B0938D040E94B50660938604709390
:10300000870480938804909389040E94B506609396
:1030100082047093830480938404909385040E94B7
:10302000B5066B017C0168EC72E08091C20490915E
:10303000C3040E9431122AE041E050E060E070E0F9
:103040008091C2049091C3040E94A2116FEC72E0BF
:103050008091C2049091C3040E9431122AE0B7010A
:10306000A6018091C2049091C3040E94A21161EC58
:1030700072E08091C2049091C3040E943112809149
:10308000860490918704A0918804B0918904B701C7
:10309000A601481B590B6A0B7B0B2AE08091C204E6
:1030A0009091C3040E94A21161EC72E08091C2046D
:1030B0009091C3040E94311240918604509187047C
:1030C000609188047091890480918A0490918B04A6
:1030D000A0918C04B0918D04481B590B6A0B7B0B9B
:1030E0002AE08091C2049091C3040E94A21163ED72
:1030F00072E08091C2049091C3040E9431120E9438
:10310000B506AB01BC012AE08091C2049091C304D2
:103110000E94A21165ED72E08091C2049091C304F7
:103120000E941D120E94B5064B015C016B017C01DF
:1031300032E0C30ED11CE11CF11C0E94B5066815DB
:1031400079058A059B0508F0FDC20E94B5066093CB
:1031500086047093870480938804909389040E9466
:10316000531481111AC11FE00E945314811115C11B
:103170006CED72E083EE93E00E9431120E945314D2
:103180008111D1C060916D0570916E058091D80458
:103190009091D90440916F0550917005DC01ED913B
:1031A000FC916115710521F00088F189E02D18C0AE
:1031B0000684F785E02D63E8C62E61E0D62EDA821C
:1031C000C982C0906905D0906A05E0906B05F090C7
:1031D0006C05CB82DC82ED82FE82BE016F5F7F4F89
:1031E00009958130910509F095C090935B05809316
:1031F0005A0587E0EEE2F1E0DE01119601900D92B2
:103200008A95E1F7FE013196AFEDB4E081918D939F
:10321000EB8CFC8CEE16FF06C9F742E0F42EF09220
:10322000E6041092E7041093E8044FE050E06AEDE2
:1032300074E08AEF92E00E94CA13AC014550510934
:103240006AED74E080E10E94EA130E94B506609383
:103250005C0570935D0580935E0590935F056093B8
:10326000600570936105809362059093630580917A
:10327000D8049091D904DC01ED91FC910084F18592
:10328000E02D0995892BD1F40E94B506C090600508
:10329000D0906105E0906205F0906305DC01CB0100
:1032A0008C199D09AE09BF0988399A43A105B1055A
:1032B000F0F2309274052092730520C0CE0145963D
:1032C0000E940D100497D1F48091DD04811111C08A
:1032D0000E94B50660936005709361058093620556
:1032E0009093630510926405109274051092730513
:1032F0001AC090E090937405809373058091D80470
:103300009091D904DC01ED91FC910488F589E02DC0
:1033100009951FC23EEFC32EDD24DA94D0927405C6
:10332000C092730516C268E073E083EE93E00E94DA
:103330001D120E945314882309F416CF80915A0558
:1033400090915B05019629F090935B0580935A0557
:1033500007C0EE24E394F12CF0925B05E0925A054D
:1033600080915A0590915B059093DF048093E0046F
:1033700047E050E06AED74E082E193E00E94CA13F6
:10338000FC01EC52FB4F1682AC01445051096AED2E
:1033900074E082E80E94EA13E7CE0E945314882367
:1033A00009F41DC10E94B5062B013C018091600506
:1033B00090916105A0916205B0916305A30192010E
:1033C000281B390B4A0B5B0BDA01C90189399A4377
:1033D000A105B105A8F480915C0590915D05A091CF
:1033E0005E05B0915F0573016201C81AD90AEA0A45
:1033F000FB0A29E9C2162AE3D206E104F104B8F176
:10340000209164058091D8049091D904222361F021
:103410003092740520927305DC01ED91FC910488D3
:10342000F589E02D0995DBC020EC2093DA04109299
:10343000DB04DC01ED91FC910280F381E02D42E0A0
:1034400050E06AED74E0099540925C0550925D058C
:1034500060925E0570925F05409260055092610532
:10346000609262057092630581E0809364058091AB
:10347000D8049091D904DC01ED91FC910084F18590
:10348000E02D0995892B09F4AAC0CE0101960E946E
:103490000D105C01892B09F4A0C040926005509288
:1034A000610560926205709263058091DA04807F05
:1034B000803309F076C08091650590916605892B6F
:1034C00009F48DC0E980F12CF701EC52FB4F078124
:1034D00010E0102F00278085080F111D970124523E
:1034E0003B4F4901B70163527B4FA801C9010E94BC
:1034F0005C27B8016E0D7F1DDB01AC52BB4F1896E7
:103500001C9218978091DA0486708D8FE091650582
:10351000F09166058230C1F51996CC901997D12C9F
:10352000DC2CCC241A968C91C80ED11C4BEF5FEF8B
:103530004E195F09401B510B4A0D5B1D61527B4FB9
:10354000C401099580E48093DA04ED8CE092DB04F9
:10355000D092DC04C092DD048091D8049091D9040B
:10356000DC01ED91FC910280F381E02D44E050E01C
:103570006AED74E0099540925C0550925D05609299
:103580005E0570925F052BC04DEF5FEF4E195F092E
:10359000401B510B4A0D5B1D63527B4FC4010995C3
:1035A0001EC0803CA9F480ED8093DA041092DB0405
:1035B0008091D8049091D904DC01ED91FC910280B6
:1035C000F381E02D42E050E06AED74E0099507C018
:1035D000803D29F41092640502C00E94531480912A
:1035E000D0049091D104892B61F10E94B50600911D
:1035F000CC041091CD042091CE043091CF046B0106
:103600007C01C01AD10AE20AF30A0091C8041091A1
:10361000C9042091CA043091CB04C016D106E20639
:10362000F30678F06093CC047093CD048093CE04BD
:103630009093CF04E091D204F091D304309709F035
:1036400009950E94390370CC88E593E00E946B12C3
:1036500068EB7BE080E090E00E947B0680E00E94C7
:10366000520A83E593E00E946B1287E493E00E9484
:103670006B1268EC70E080E090E00E947B068BE3C8
:1036800093E00E946B128DE293E00E946B128DE139
:1036900093E00E946B128FE093E00E946B1268EC43
:1036A00070E080E090E00E947B061092D00306E07C
:1036B00010E020ED33E048EF52E06BEF72E088E07D
:1036C00093E00E94550D8091D0038153823020F405
:1036D0008091D1038E32E9F062EF71E083EE93E0E6
:1036E0000E9431126AE773E083EE93E00E94331286
:1036F0006CE772E083EE93E00E94311260ED73E0BC
:1037000083EE93E00E941D1260EA7FE080E090E08B
:1037100095CA62EF71E083EE93E00E9431126FE58B
:1037200073E083EE93E00E9433126CE772E083EE65
:1037300093E00E94311260ED73E083EE93E00E940B
:103740001D127ECAC616D706E806F90608F0F5CCA3
:10375000FCCC66E273E083EE93E00E94311260914C
:10376000730570917405072E000C880B990B0E944D
:10377000EB1162E373E083EE93E00E941D1268E8B0
:1037800073E180E090E00E947B06EECC8FE891E050
:1037900090937805809377058091750590917605D3
:1037A0008757954071F4E0918A05F0918B059081DF
:1037B00080918C05809589238083109276051092E4
:1037C00075050895CF92DF92EF92FF92CF93DF932A
:1037D0001092E6031092E50398EEC92E93E0D92EDD
:1037E000E12CF12CC092E703D092E803E092E903C8
:1037F000F092EA0387E491E09093E4038093E3037B
:1038000085EC90E09093F0038093EF0384EC90E0DC
:103810009093F2038093F10380EC90E09093F40393
:103820008093F30381EC90E09093F6038093F5038B
:1038300082EC90E09093F8038093F70386EC90E09D
:103840009093FA038093F9031092FC031092FD0306
:103850001092FE031092FF031092860410928704C8
:10386000109288041092890410928A0410928B049A
:1038700010928C0410928D0410928E0410928F047A
:10388000109290041092910410929204109293045A
:10389000109294041092950489EE95E09093E405BB
:1038A0008093E30588EC90E09093E6058093E5052E
:1038B0001092E8051092E70581EA91E09093E20505
:1038C0008093E105C3E8D1E0D093A505C093A4059A
:1038D0001092A6051092A7051092A8051092A905AE
:1038E000D093AB05C093AA051092AC051092AD051C
:1038F0001092AE051092AF0580E290E090939D0586
:1039000080939C0581E290E00E94672590939F053B
:1039100080939E059C01205E3F4F3093A10520932C
:10392000A0059093A3058093A20521E2FC011192CA
:103930002A95E9F7D093B105C093B0051092B2056E
:103940001092B3051092B4051092B505D093B70547
:10395000C093B6051092B8051092B9051092BA0539
:103960001092BB05D093BD05C093BC051092BE0557
:103970001092BF051092C0051092C105D093C305E7
:10398000C093C2051092C4051092C5051092C605D9
:103990001092C705D093C905C093C8051092CA05F7
:1039A0001092CB051092CC051092CD05D093DC057A
:1039B000C093DB051092DD051092DE051092DF0545
:1039C0001092E00510927A0510927905C0927B055D
:1039D000D0927C05E0927D05F0927E058FE891E023
:1039E000909378058093770510928E0510928D053F
:1039F0001092900510928F051092920510929105E9
:103A00001092940510929305609195056E7F6D7FDD
:103A1000609395056695617081E0682783E00E9458
:103A2000EB0561E083E00E941A06E8E5F4E0E4912A
:103A3000E0938705E4E4F4E0E491F0E0EE0FFF1F8B
:103A4000E95CFB4F8591949190938905809388055B
:103A500060E082E00E941A068091950581FD04C015
:103A600061E082E00E94EB0582E080938305E7E558
:103A7000F4E0E491E0938405E3E4F4E0E491F0E021
:103A8000EE0FFF1FE35DFB4F8591949190938605A8
:103A9000809385058CE090E0909397058093960540
:103AA000109298051092990510929A0510929B0514
:103AB00060E00E941A0661E0809196050E94EB0585
:103AC0001092D1051092D00588EE93E0A0E0B0E00E
:103AD0008093D2059093D305A093D405B093D505D8
:103AE00085E691E09093CF058093CE058FEF80938C
:103AF000DA051092D7041092D60489E591E09093EC
:103B0000D5048093D40483E891E090936805809372
:103B100067051092690510926A0510926B05109264
:103B20006C058FEF9FEF90937405809373058EEC77
:103B300095E09093D9048093D80410927205109266
:103B4000710580ED97E0A0E0B0E08093C804909309
:103B5000C904A093CA04B093CB0481ED98E090937C
:103B6000D3048093D2041092CC041092CD0410920E
:103B7000CE041092CF041092D1041092D004DF91A1
:103B8000CF91FF90EF90DF90CF900895EF920F9339
:103B90001F93CF93DF93E80147FD02C034E001C0DB
:103BA00034E1042E000C550B57FF03C0519541958D
:103BB0005109E32E022F242FAE010E947720CE015F
:103BC000DF91CF911F910F91EF900895FC0188270D
:103BD0009927E89421912032E9F3293010F02E3012
:103BE000C8F32B3241F02D3239F4689404C00E949E
:103BF000401E820F911D219120532A30C0F31EF4E4
:103C0000909581959F4F0895FB01DC0105900D92E1
:103C10000020E1F70895FC0105900020E9F7809568
:103C200090958E0F9F1F089541EB56E00E94191E3C
:103C30000895FA01A191B081009719F41097E1F06D
:103C4000CD01DC01CD010D90002011F4C00113C0A5
:103C5000FB012191222319F02015D9F7F3CFFB01A5
:103C60002191201519F41E92119606C02223C1F746
:103C70000D900020A1F7D001FA01A193B08308951F
:103C80007AE0979F902D879F802D910D11240895A4
:103C9000AEE0B0E0EEE4FEE10C9422240D891E8932
:103CA0008EE08C831A8309838FEF9FE79E838D8339
:103CB000AE01475E5F4F6F89788DCE0101960E94FD
:103CC000961EEF81F885E00FF11F10822E96E4E03A
:103CD0000C943E24AEE0B0E0E0E7FEE10C94222438
:103CE0008C01FA018EE08C831A83098377FF02C06E
:103CF00060E070E8CB0101979E838D83A901BF012D
:103D0000CE0101960E94961E4D815E8157FD0AC02C
:103D10002F813885421753070CF49A01F801E20FFE
:103D2000F31F10822E96E4E00C943E24ABE0B0E04A
:103D3000ECE9FEE10C9414246C017B018A01FC0186
:103D400017821682838181FFCCC1CE0101963C018E
:103D5000F6019381F70193FD859193FF81917F0196
:103D6000882309F4BAC1853239F493FD859193FF14
:103D700081917F01853229F4B60190E00E94BF2233
:103D8000E7CF912C212C312CFFE1F315D8F08B32A9
:103D900079F038F4803279F08332A1F4232D206158
:103DA0001DC08D3261F0803369F4232D216016C06F
:103DB000832D8260382EE32DE4603E2E2AC0F32D41
:103DC000F8601DC037FC2DC020ED280F2A3040F0D0
:103DD0008E32B9F436FC81C1232D2064322E19C0F5
:103DE00036FE06C08AE0989E200D1124922E11C046
:103DF000EAE02E9E200D1124222EF32DF0623F2E9C
:103E000008C08C3621F4832D8068382E02C0883695
:103E100041F4F70193FD859193FF81917F01811119
:103E2000B3CF982F9F7D9554933028F40C5F1F4F8C
:103E30009FE399830DC0833631F0833771F083356A
:103E400009F059C021C0F801808189830E5F1F4F9E
:103E500088248394912C530113C02801F2E04F0E63
:103E6000511CF801A080B18036FE03C0692D70E0BE
:103E700002C06FEF7FEFC5010E94B4224C018201A6
:103E8000F32DFF773F2E16C0280122E0420E511C71
:103E9000F801A080B18036FE03C0692D70E002C039
:103EA0006FEF7FEFC5010E94A9224C01F32DF0684E
:103EB0003F2E820133FC1BC0822D90E088169906AC
:103EC000B0F4B60180E290E00E94BF222A94F4CFC1
:103ED000F50137FC859137FE81915F01B60190E0D5
:103EE0000E94BF2221102A9421E0821A9108811495
:103EF000910471F7E8C0843611F0893641F5F80174
:103F000037FE07C060817181828193810C5F1F4FF2
:103F100008C060817181072E000C880B990B0E5F21
:103F20001F4FF32DFF763F2E97FF09C09095809588
:103F3000709561957F4F8F4F9F4FF0683F2E2AE01D
:103F400030E0A3010E94FB22882E861845C08537E9
:103F500031F4232D2F7EB22E2AE030E025C0932DA0
:103F6000997FB92E8F36C1F018F4883579F0B5C035
:103F7000803719F0883721F0B0C0E92FE061BE2EFC
:103F8000B4FE0DC0FB2DF460BF2E09C034FE0AC084
:103F9000292F2660B22E06C028E030E005C020E1BF
:103FA00030E002C020E132E0F801B7FE07C06081D6
:103FB0007181828193810C5F1F4F06C06081718186
:103FC00080E090E00E5F1F4FA3010E94FB22882E2D
:103FD0008618FB2DFF773F2E36FE0DC0232D2E7F3A
:103FE000A22E891458F434FE0BC032FC09C0832D74
:103FF0008E7EA82E05C0B82CA32C03C0B82C01C0FF
:10400000B92CA4FE0FC0FE01E80DF11D80818033A4
:1040100021F49A2D997EA92E09C0A2FE06C0B39460
:10402000B39404C08A2D867809F0B394A3FC11C020
:10403000A0FE06C0B21488F4280C922C9B180EC067
:10404000B21460F4B60180E290E00E94BF22B39403
:10405000F7CFB21418F42B1802C0982C212CA4FE10
:1040600010C0B60180E390E00E94BF22A2FE17C0FC
:10407000A1FC03C088E790E002C088E590E0B601AB
:104080000CC08A2D867859F0A1FE02C08BE201C0D7
:1040900080E2A7FC8DE2B60190E00E94BF22891465
:1040A00038F4B60180E390E00E94BF229A94F7CFE3
:1040B0008A94F301E80DF11D8081B60190E00E9421
:1040C000BF228110F5CF222009F442CEB60180E252
:1040D00090E00E94BF222A94F6CFF6018681978154
:1040E00002C08FEF9FEF2B96E2E10C943024A9E001
:1040F000B0E0EDE7F0E20C941A246A01122FB02E22
:104100002BE3201720F0FF24F394F00E02C02CE3E1
:10411000F22E0F2D27E0AE014F5F5F4F0E94D1219D
:10412000BC014981842F8970813031F0E1FC06C0E7
:10413000E0FE06C090E205C09DE203C09BE201C024
:1041400090E05E2D507143FF3CC0911102C083E0AE
:1041500001C084E0811718F4212F281B01C020E042
:1041600051110BC0F601822F30E2882319F03193F0
:104170008150FBCFC20ED11C20E0992329F0D6013B
:104180009C93F60131966F01C6010396E2FE0AC0C8
:104190003EE4D6013C9341E411964C93119712965C
:1041A0003C9306C03EE6F601308341E6418332830C
:1041B000FC01322F40E2332309F442C041933150D5
:1041C000FACF42FF44C0911102C083E001C084E0F5
:1041D000811718F4212F281B01C020E051110BC0BA
:1041E000F601822F30E2882319F031938150FBCF02
:1041F000C20ED11C20E0992329F0D6019C93F60130
:1042000031966F01C6010396E2FE0BC039E4D60178
:104210003C933EE411963C93119736E412963C93FE
:1042200007C039E6F60130833EE6318336E6328355
:10423000FC01322F40E2332319F041933150FBCF80
:10424000FC01E20FF11D10828EEF9FEFA6C021E06E
:1042500030E0911102C020E030E0161617061CF481
:10426000FB01319602C0E1E0F0E02E0F3F1FBB20C2
:1042700021F0EB2DF0E0319602C0E0E0F0E02E0FEF
:104280003F1FE12FF0E02E173F071CF4121B212FD8
:1042900001C020E08E2D887159F4F601822F30E2A2
:1042A000882319F031938150FBCFC20ED11C20E03E
:1042B000992329F0D6019C93F60131966F01511193
:1042C0000BC0F601822F90E3882319F0919381505F
:1042D000FBCFC20ED11C20E00F2D060F9A81342F88
:1042E000307144FF03C0913309F40150101624F4D7
:1042F000093018F008E001C001E0AB0177FF02C00F
:1043000040E050E0FB01E41BF50BA1E0B0E0AC0F96
:10431000BD1FEA0FFB1F8EE2A82E4B01801A9108E9
:104320000B2D10E01195019511094F3FBFEF5B0771
:1043300021F4D601AC9211966D01641775072CF02B
:104340008416950614F4818101C080E3415051091F
:104350003196D60111967D014017510724F0D60100
:104360008C936701E2CF6417750739F4963320F414
:10437000953319F4311101C081E3F6018083F7010F
:10438000822F90E2882319F091938150FBCFF7019F
:10439000E20FF11D108280E090E02996ECE00C9491
:1043A0003624283008F027E03327DA01990F311D31
:1043B00087FD916000966105710539F432602E5FCA
:1043C0003D9330E32A95E1F708959F3F30F0803820
:1043D0007105610509F03C5F3C5F3D93913008F049
:1043E0008068911DDF93CF931F930F93FF92EF92FD
:1043F000192F987F9695E92F96959695E90FFF27A7
:10440000EE53FF4F99273327EE24FF24A701E7013E
:1044100005900894079428F4360FE71EF81E491FEC
:10442000511D660F771F881F991F0694A1F70590ED
:10443000079428F4E70EF81E491F561FC11D770F79
:10444000881F991F661F0694A1F70590079428F40A
:10445000F80E491F561FC71FD11D880F991F661FD1
:10446000771F0694A1F70590079420F4490F561F73
:10447000C71FD81F990F661F771F881F0694A9F7BB
:1044800084911095177041F0D695C795579547952B
:10449000F794E7941A95C1F7E8E6F0E06894159070
:1044A000159135916591959105907FE27395E1188D
:1044B000F10A430B560BC90BD009C0F7E10CF11EF2
:1044C000431F561FC91FD01D7EF4703311F48A9507
:1044D000E6CFE894015030F0080F0AF400270217E5
:1044E00008F4202F2395022F7A3328F079E37D9367
:1044F0002A95E9F710C07D932A9589F60694979539
:104500006795379517951794E118F10A430B560BE9
:10451000C90BD00998F023957E9173957A3308F0F2
:1045200070E37C932013B8F77E9170617D9330F037
:10453000839571E37D9370E32A95E1F71124EF9061
:10454000FF900F911F91CF91DF91992787FD909553
:104550000895FC010590615070400110D8F78095D6
:1045600090958E0F9F1F0895FC016150704001903F
:104570000110D8F7809590958E0F9F1F08950F9387
:104580001F93CF93DF93FB01238121FD03C08FEFA6
:104590009FEF2CC022FF16C04681578124813581B0
:1045A0004217530744F4A081B1819D012F5F3F4F13
:1045B000318320838C93268137812F5F3F4F378350
:1045C000268314C08B01EC01FB010084F185E02DF2
:1045D0000995892BE1F6D80116968D919C91179734
:1045E000019617969C938E931697CE01DF91CF91EB
:1045F0001F910F910895FA01AA27283051F1203117
:1046000081F1E8946F936E7F6E5F7F4F8F4F9F4F66
:10461000AF4FB1E03ED0B4E03CD0670F781F891FA8
:104620009A1FA11D680F791F8A1F911DA11D6A0F76
:10463000711D811D911DA11D20D009F468943F9129
:104640002AE0269F11243019305D3193DEF6CF0128
:104650000895462F4770405D4193B3E00FD0C9F7EE
:10466000F6CF462F4F70405D4A3318F0495D31FD5B
:104670004052419302D0A9F7EACFB4E0A6959795AE
:10468000879577956795BA95C9F700976105710584
:1046900008959B01AC010A2E0694579547953795CE
:1046A0002795BA95C9F7620F731F841F951FA01D28
:1046B0000895E89409C097FB3EF490958095709515
:1046C00061957F4F8F4F9F4F9923A9F0F92F96E95E
:1046D000BB279395F695879577956795B795F111D3
:1046E000F8CFFAF4BB0F11F460FF1BC06F5F7F4F70
:1046F0008F4F9F4F16C0882311F096E911C0772382
:1047000021F09EE8872F762F05C0662371F096E88A
:10471000862F70E060E02AF09A95660F771F881F59
:10472000DAF7880F9695879597F9089597F99F6717
:1047300080E870E060E008959FEF80EC0895002429
:104740000A941616170618060906089500240A94F6
:1047500012161306140605060895092E0394000C7C
:1047600011F4882352F0BB0F40F4BF2B11F460FF0B
:1047700004C06F5F7F4F8F4F9F4F089557FD905834
:10478000440F551F59F05F3F71F04795880F97FB15
:10479000991F61F09F3F79F08795089512161306CF
:1047A0001406551FF2CF4695F1DF08C016161706FE
:1047B0001806991FF1CF8695710561050894089533
:1047C000E894BB2766277727CB0197F90895A1E2E4
:1047D0001A2EAA1BBB1BFD010DC0AA1FBB1FEE1F7B
:1047E000FF1FA217B307E407F50720F0A21BB30BC6
:1047F000E40BF50B661F771F881F991F1A9469F742
:1048000060957095809590959B01AC01BD01CF019D
:1048100008950E944B24A59F900DB49F900DA49FD6
:10482000800D911D112408952F923F924F925F9217
:104830006F927F928F929F92AF92BF92CF92DF92B0
:10484000EF92FF920F931F93CF93DF93CDB7DEB715
:10485000CA1BDB0B0FB6F894DEBF0FBECDBF0994A9
:104860002A88398848885F846E847D848C849B8400
:10487000AA84B984C884DF80EE80FD800C811B810E
:10488000AA81B981CE0FD11D0FB6F894DEBF0FBE3D
:10489000CDBFED010895A29FB001B39FC001A39FBA
:1048A000700D811D1124911DB29F700D811D112469
:1048B000911D08955058BB27AA270E9472240C947A
:1048C000AD230E949F2338F00E94A62320F039F4E4
:1048D0009F3F19F426F40C949C230EF4E095E7FB1B
:1048E0000C949623E92F0E94BE2358F3BA1762074F
:1048F00073078407950720F079F4A6F50C94E0235C
:104900000EF4E0950B2EBA2FA02D0B01B9019001EA
:104910000C01CA01A0011124FF27591B99F0593F2E
:1049200050F4503E68F11A16F040A22F232F342F76
:104930004427585FF3CF469537952795A795F040C4
:104940005395C9F77EF41F16BA0B620B730B840BD9
:10495000BAF09150A1F0FF0FBB1F661F771F881F91
:10496000C2F70EC0BA0F621F731F841F48F48795E9
:1049700077956795B795F7959E3F08F0B0CF9395DB
:10498000880F08F09927EE0F9795879508950E9454
:10499000DB240C94AD230E94A62358F00E949F2391
:1049A00040F029F45F3F29F00C94962351110C94A8
:1049B000E1230C949C230E94BE2368F39923B1F356
:1049C000552391F3951B550BBB27AA276217730735
:1049D000840738F09F5F5F4F220F331F441FAA1FC9
:1049E000A9F335D00E2E3AF0E0E832D09150504085
:1049F000E695001CCAF72BD0FE2F29D0660F771F33
:104A0000881FBB1F261737074807AB07B0E809F018
:104A1000BB0B802DBF01FF2793585F4F3AF09E3F9D
:104A2000510578F00C9496230C94E1235F3FE4F356
:104A3000983ED4F3869577956795B795F7959F5FE0
:104A4000C9F7880F911D9695879597F90895E1E02C
:104A5000660F771F881FBB1F621773078407BA078B
:104A600020F0621B730B840BBA0BEE1F88F7E095E6
:104A7000089597FB072E16F4009407D077FD09D010
:104A80000E944D2507FC05D03EF4909581959F4FDF
:104A90000895709561957F4F0895AA1BBB1B51E146
:104AA00007C0AA1FBB1FA617B70710F0A61BB70B9E
:104AB000881F991F5A95A9F780959095BC01CD0143
:104AC0000895EE0FFF1F0590F491E02D09940F93C8
:104AD0001F93CF93DF938230910510F482E090E032
:104AE000E091B506F091B60620E030E0A0E0B0E03D
:104AF000309719F14081518102811381481759077C
:104B0000C8F08417950769F4109731F012960C934A
:104B1000129713961C9327C00093B5061093B60600
:104B200022C02115310519F04217530718F49A01D4
:104B3000BD01EF01DF01F801DBCF21153105F9F0EF
:104B4000281B390B2430310580F48A819B81611543
:104B5000710521F0FB019383828304C09093B60614
:104B60008093B506FE01329644C0FE01E20FF31FAA
:104B70008193919322503109398328833AC020913F
:104B8000B3063091B406232B41F4209120013091DB
:104B900021013093B4062093B30620911E01309179
:104BA0001F012115310541F42DB73EB74091220177
:104BB00050912301241B350BE091B306F091B4060C
:104BC000E217F307A0F42E1B3F0B2817390778F0E4
:104BD000AC014E5F5F4F2417350748F04E0F5F1F43
:104BE0005093B4064093B3068193919302C0E0E0E2
:104BF000F0E0CF01DF91CF911F910F910895CF93F6
:104C0000DF93009709F481C0FC013297138212826E
:104C1000A091B506B091B606109781F4208131813C
:104C2000820F931F2091B3063091B40628173907DD
:104C300051F5F093B406E093B30667C0ED0120E0B0
:104C400030E0CE17DF0740F44A815B819E014115B9
:104C50005105F1F0EA01F5CFD383C2834081518140
:104C6000840F951FC817D90759F488819981840F3B
:104C7000951F0296918380838A819B81938382838F
:104C80002115310529F4F093B606E093B5063DC031
:104C9000E901FB83EA8349915991C40FD51FEC17B1
:104CA000FD0761F480819181840F951F0296E901CF
:104CB00099838883828193819B838A83E0E0F0E0FB
:104CC00012968D919C911397009719F0FD01DC01CC
:104CD000F7CF8D919C9111979D012E5F3F4F820FD1
:104CE000931F2091B3063091B4062817390769F451
:104CF000309729F41092B6061092B50602C01382BE
:104D00001282B093B406A093B306DF91CF910895B9
:104D1000A0E0B0E0EEE8F6E20C941824EC01009775
:104D200021F4CB010E946725B4C0FC01E60FF71FF8
:104D30009C0122503109E217F30708F4A8C0D901F9
:104D40000D911C91119706171707B0F0053011054A
:104D500008F49BC0C80104978617970708F495C00C
:104D600002501109061B170B019311936D937C934D
:104D7000CF010E94FF2589C05B01A01AB10A4C0136
:104D8000800E911EA091B506B091B606612C712CD3
:104D9000E12CF12C109709F446C08D919C9111974C
:104DA000A815B905B1F56C0142E0C40ED11CCA14B6
:104DB000DB0478F14C018A189B08640142E0C40EC0
:104DC000D11C1296BC9012971396AC91B5E0CB16FD
:104DD000D10440F0B282A38391828082D9016D9385
:104DE0007C9309C00E5F1F4F800F911FF9019183C3
:104DF0008083EB2DFA2FE114F10431F0D7011396E3
:104E0000FC93EE93129741C0F093B606E093B5067B
:104E10003CC06816790608F43C017D0112960D909D
:104E2000BC91A02DB7CF8091B3069091B40688169F
:104E30009906E1F466167706C8F480911E019091F8
:104E40001F01009741F48DB79EB740912201509108
:104E50002301841B950BE817F907C8F4F093B406F7
:104E6000E093B306F901718360830FC0CB010E9408
:104E700067257C01009759F0A801BE010E945327C5
:104E8000CE010E94FF25C70104C0CE0102C080E010
:104E900090E0CDB7DEB7EEE00C94342481E090E0F2
:104EA000F8940C948B27FB01DC0102C001900D9259
:104EB00041505040D8F708956817790768F4FB010E
:104EC000DC01E40FF51FA40FB51F02C002900E9283
:104ED00041505040D8F708950C945327DC0101C08D
:104EE0006D9341505040E0F70895FB01DC010190C3
:104EF0000D920020E1F70895FB01DC014150504084
:104F000048F001900D920020C9F701C01D92415058
:104F10005040E0F7089512E0C6E3D2E004C0FE017D
:104F20000E9461252196C733D107C9F7F894FFCFB6
:104F3000677565737431333537004D554C54495F8F
:104F4000475545535400FFFFFFFFFFFFFFFF0000E1
:104F5000B7068000FF0106021002190225020004B4
:104F60004D5154540437302E31322E3131322E31DE
:104F700033370000000000CA022B0E6102170392B3
:104F8000027002840200000000E406C106580457C3
:104F900004000000009F03110C580488034E08E62B
:104FA00004A7042505680559080B0DAF0B80030005
:104FB0000000005B0400000000A50400000000CE1B
:104FC000032B0E5804CD031E043604B50300000065
:104FD000006C032B4950442C006175746F6361723F
:104FE0002F6C6976696E67726F6F6D2F74656D7067
:104FF000006175746F6361722F6C6976696E677298
:105000006F6F6D2F68756D69006175746F63617284
:105010002F6C6976696E67726F6F6D2F696C6C7536
:105020006D005B576946694573705D20003E000D59
:105030000A4F4B0D0A000D0A4552524F520D0A00FD
:105040000D0A4641494C0D0A000D0A53454E4420B5
:105050004F4B0D0A0020434F4E4E4543540D0A005E
:10506000564D4450565F317C315F564D4450560D7D
:105070000A005769466920736869656C64206E6F21
:10508000742070726573656E7400417474656D7020
:1050900074696E6720746F20636F6E6E6563742031
:1050A000746F2057504120535349443A2000596FA0
:1050B0007527726520636F6E6E6563746564207416
:1050C0006F20746865206E6574776F726B0049504D
:1050D00020416464726573733A20005369676E619E
:1050E0006C20737472656E6774682028525353493C
:1050F000293A002064426D00564D4450455F003A05
:10510000323A007C005F564D44504500417474654E
:105110006D7074696E67204D51545420636F6E6ECC
:10512000656374696F6E2E2E2E00455350383236EB
:1051300036436C69656E7400636F6E6E656374658B
:105140006400686F6D652F6C6976696E67726F6F4A
:105150006D2F6C6564006661696C65642C207263F8
:105160003D002074727920616761696E20696E204C
:1051700035207365636F6E6473002C434C4F534549
:04518000440D0A00D0
:107E0000112484B714BE81FFF0D085E080938100F7
:107E100082E08093C00088E18093C10086E0809377
:107E2000C20080E18093C4008EE0C9D0259A86E02C
:107E300020E33CEF91E0309385002093840096BBD3
:107E4000B09BFECF1D9AA8958150A9F7CC24DD24C4
:107E500088248394B5E0AB2EA1E19A2EF3E0BF2EE7
:107E6000A2D0813461F49FD0082FAFD0023811F036
:107E7000013811F484E001C083E08DD089C08234E0
:107E800011F484E103C0853419F485E0A6D080C0E4
:107E9000853579F488D0E82EFF2485D0082F10E0AE
:107EA000102F00270E291F29000F111F8ED06801E7
:107EB0006FC0863521F484E090D080E0DECF843638
:107EC00009F040C070D06FD0082F6DD080E0C81688
:107ED00080E7D80618F4F601B7BEE895C0E0D1E017
:107EE00062D089930C17E1F7F0E0CF16F0E7DF06D8
:107EF00018F0F601B7BEE89568D007B600FCFDCFD4
:107F0000A601A0E0B1E02C9130E011968C91119780
:107F100090E0982F8827822B932B1296FA010C0160
:107F200087BEE89511244E5F5F4FF1E0A038BF0790
:107F300051F7F601A7BEE89507B600FCFDCF97BE46
:107F4000E89526C08437B1F42ED02DD0F82E2BD052
:107F50003CD0F601EF2C8F010F5F1F4F84911BD097
:107F6000EA94F801C1F70894C11CD11CFA94CF0C13
:107F7000D11C0EC0853739F428D08EE10CD085E9AC
:107F80000AD08FE07ACF813511F488E018D01DD067
:107F900080E101D065CF982F8091C00085FFFCCF94
:107FA0009093C60008958091C00087FFFCCF809118
:107FB000C00084FD01C0A8958091C6000895E0E648
:107FC000F0E098E1908380830895EDDF803219F02E
:107FD00088E0F5DFFFCF84E1DECF1F93182FE3DFCA
:107FE0001150E9F7F2DF1F91089580E0E8DFEE27F6
:047FF000FF270994CA
:027FFE00040479
:0400000300007E007B
:00000001FF