:100000000C9462000C948A000C948A000C948A0070
:100010000C948A000C948A000C948A000C948A0038
:100020000C948A000C948A000C948A000C94560458
:100030000C948A000C948A000C948A000C948A0018
:100040000C940C040C948A000C94DA030C94B40302
:100050000C948A000C948A000C948A000C948A00F8
:100060000C948A000C948A000000000023002600F3
:10007000290000000000240027002A0000000000E2
:10008000250028002B0004040404040404040202D4
:100090000202020203030303030301020408102007
:1000A0004080010204081020010204081020000012
:1000B0000008000201000003040700000000000027
:1000C0000000170511241FBECFEFD8E0DEBFCDBF63
:1000D00011E0A0E0B1E0EAECF1E102C005900D9280
:1000E000A833B107D9F722E0A8E3B1E001C01D921F
:1000F000AF36B207E1F710E0C2E6D0E004C02197C6
:10010000FE010E94D808C136D107C9F70E94E30555
:100110000C94E3080C940000CF92DF92EF92FF92D0
:10012000DC01A03282E0B8070CF03EC0B7FD06C08B
:10013000A53BB1052CF0A4EBB0E002C0A0E0B0E01C
:1001400080916D0228E830E06901C81AD10887FD66
:10015000D394CC0CDD1CCC0CDD1C0D2C000CEE085B
:10016000FF0880916E0228E532E0281B310987FDE7
:100170003395220F331F220F331FA901330F660B54
:10018000770B9A01AB012C193D094E095F090E94BA
:10019000B50824EB30E040E050E00E948B08C20E2E
:1001A000D31EE41EF51ED60190916C029C3098F58A
:1001B00080916D0248E850E0481B510987FD539536
:1001C000440F551F440F551FA417B5078CF080919D
:1001D0006E0228E532E0281B310987FD3395220F96
:1001E000331F220F331FAD012A173B070CF4A9015F
:1001F00042505109440F551F2FB7F894892F90E0B2
:10020000FC01EE0FFF1F8E0F9F1FFC01E55DFD4FF0
:10021000528341832FBFFF90EF90DF90CF900895DE
:10022000CF92DF92EF92FF920F931F93CF93DF93C2
:100230006C017A018B01C0E0D0E0CE15DF0581F0C2
:10024000D8016D918D01D601ED91FC910190F08165
:10025000E02DC6010995892B11F02196EECF7E0184
:10026000C701DF91CF911F910F91FF90EF90DF9029
:10027000CF900895089580E090E00895FC01538D9B
:10028000448D252F30E0842F90E0821B930B541770
:1002900010F0CF96089501970895FC01918D828DFD
:1002A000981761F0828DDF01A80FB11D5D968C91CA
:1002B000928D9F5F9F73928F90E008958FEF9FEFD5
:1002C0000895FC01918D828D981731F0828DE80F91
:1002D000F11D858D90E008958FEF9FEF0895FC014B
:1002E000918D228D892F90E0805C9F4F821B910918
:1002F0008F739927089586E491E00E946F0121E0B1
:10030000892B09F420E0822F0895FC01848DDF0100
:10031000A80FB11DA35ABF4F2C91848D90E0019678
:100320008F739927848FA689B7892C93A089B18967
:100330008C91837080648C93938D848D981306C008
:100340000288F389E02D80818F7D80830895EF926C
:10035000FF920F931F93CF93DF93EC0181E0888F7F
:100360009B8D8C8D981305C0E889F989808185FD66
:1003700026C0F62E0B8D10E00F5F1F4F0F73112755
:10038000E02E8C8DE8120CC00FB607FCFACFE8897E
:10039000F989808185FFF5CFCE010E948501F1CFDB
:1003A0008B8DFE01E80FF11DE35AFF4FF0829FB7DE
:1003B000F8940B8FEA89FB89808180620AC09FB71D
:1003C000F894EE89FF896083E889F98980818370D8
:1003D000806480839FBF81E090E0DF91CF911F9187
:1003E0000F91FF90EF900895CF93DF93EC01888DEC
:1003F0008823C9F0EA89FB89808185FD05C0A88929
:10040000B9898C9186FD0FC00FB607FCF5CF8081AE
:1004100085FFF2CFA889B9898C9185FFEDCFCE01F8
:100420000E948501E7CFDF91CF91089580E090E0B1
:10043000892B29F00E947B0181110C940000089502
:10044000833081F028F4813099F08230A1F0089552
:100450008730A9F08830B9F08430D1F480918000E1
:100460008F7D03C0809180008F77809380000895F6
:1004700084B58F7702C084B58F7D84BD0895809147
:10048000B0008F7703C08091B0008F7D8093B00063
:1004900008951F93CF93DF93282F30E0F901E255A1
:1004A000FF4F8491F901E656FF4FD491F901EA57C5
:1004B000FF4FC491CC23C1F0162F81110E9420025E
:1004C000EC2FF0E0EE0FFF1FE458FF4FA591B49121
:1004D0009FB7F894111104C08C91D095D82302C015
:1004E000EC91DE2BDC939FBFDF91CF911F9108959C
:1004F000CF93DF9390E0FC01E656FF4F2491FC017F
:10050000EA57FF4F8491882361F190E0880F991F8B
:10051000FC01EE58FF4FC591D491FC01E458FF4F08
:10052000A591B491611109C09FB7F8948881209575
:1005300082238883EC912E230BC0623061F49FB735
:10054000F8948881322F309583238883EC912E2B69
:100550002C939FBF06C08FB7F894E8812E2B288379
:100560008FBFDF91CF9108953FB7F89480913E01FE
:1005700090913F01A0914001B091410126B5A89B07
:1005800005C02F3F19F00196A11DB11D3FBFBA2F25
:10059000A92F982F8827820F911DA11DB11DBC0185
:1005A000CD0142E0660F771F881F991F4A95D1F74A
:1005B00008952FB7F89460913A0170913B018091B2
:1005C0003C0190913D012FBF0895CF92DF92EF92B1
:1005D000FF920F931F93CF93DF93EC012881398112
:1005E0003327F901E255FF4F8491F901E656FF4F99
:1005F0000491F901EA57FF4F14911123A1F08111E1
:100600000E942002E12FF0E0EE0FFF1FE859FF4F9C
:10061000A591B491EC91E02391E080E009F490E0A1
:10062000092F182F02C000E010E08E819F818017F3
:10063000910731F00E94D902688779878A879B8762
:100640000E94D902C884D984EA84FB84DC01CB01EE
:100650008C199D09AE09BF09C397A105B10588F0A2
:100660008C819D818017910761F01D830C838A81A5
:100670009B818017910729F4EC85FD85309709F05F
:1006800009951F830E83DF91CF911F910F91FF90EA
:10069000EF90DF90CF90089583EB90E00C948C0066
:1006A00080E090E00C948C006115710579F0FB01FD
:1006B00001900020E9F73197AF01461B570BDC0191
:1006C000ED91FC910280F381E02D099480E090E0AF
:1006D00008958F929F92AF92BF92EF92FF920F93E5
:1006E0001F93CF93DF93CDB7DEB7A1970FB6F894E2
:1006F000DEBF0FBECDBF7C01FA01CB0119A22230B3
:1007000008F42AE08E010F5D1F4F822E912CA12C40
:10071000B12CBF01A50194010E946908F901CA0129
:10072000015011096A3014F4605D01C0695CD801A0
:100730006C93232B242B252B61F7B801C7010E9452
:100740005403A1960FB6F894DEBF0FBECDBFDF9164
:10075000CF911F910F91FF90EF90BF90AF909F901E
:100760008F9008950E94DE081F920F920FB60F928D
:1007700011242F933F934F935F936F937F938F93A6
:100780009F93AF93BF93EF93FF9386E491E00E9412
:100790008501FF91EF91BF91AF919F918F917F91D3
:1007A0006F915F914F913F912F910F900FBE0F90DE
:1007B0001F9018951F920F920FB60F9211242F932E
:1007C0008F939F93EF93FF93E0915601F091570120
:1007D0008081E0915C01F0915D0182FD12C0908109
:1007E00080915F018F5F8F7320916001821751F0BC
:1007F000E0915F01F0E0EA5BFE4F958F80935F012F
:1008000001C08081FF91EF919F918F912F910F9067
:100810000FBE0F901F9018951F920F920FB60F9258
:1008200011242F933F938F939F93AF93BF93809106
:100830003A0190913B01A0913C01B0913D01309172
:10084000390123E0230F2D3720F40196A11DB11D9E
:1008500005C026E8230F0296A11DB11D2093390182
:1008600080933A0190933B01A0933C01B0933D01EA
:1008700080913E0190913F01A0914001B0914101D2
:100880000196A11DB11D80933E0190933F01A0935D
:100890004001B0934101BF91AF919F918F913F91E2
:1008A0002F910F900FBE0F901F9018951F920F92CF
:1008B0000FB60F9211242F933F934F935F936F9333
:1008C0007F938F939F93AF93BF93EF93FF93809109
:1008D000380187FF05C010928500109284001BC06C
:1008E00020913801022E000C330B80914F0290E0D2
:1008F0002817390784F480913801082E000C990BD1
:10090000FC01EE0FFF1F8E0F9F1FFC01E55DFD4FE9
:10091000808186FD15C0809138018F5F80933801FA
:1009200020913801022E000C330B80914F0290E091
:1009300028173907C4F4809138018C3064F113C052
:1009400080913801082E000C990BFC01EE0FFF1F5F
:100950008E0F9F1FFC01E55DFD4F808160E08F736E
:100960000E944902D8CF809184009091850004961E
:1009700080349C4918F480E49CE905C0809184008F
:1009800090918500049690938900809388008FEF62
:10099000809338013BC02091840030918500809184
:1009A0003801082E000C990BFC01EE0FFF1F8E0F73
:1009B0009F1FFC01E55DFD4F81819281820F931F96
:1009C000909389008093880080913801082E000C54
:1009D000990BFC01EE0FFF1F8E0F9F1FFC01E55DC1
:1009E000FD4F808186FF12C080913801082E000CD7
:1009F000990BFC01EE0FFF1F8E0F9F1FFC01E55DA1
:100A0000FD4F808161E08F730E944902FF91EF9159
:100A1000BF91AF919F918F917F916F915F914F9116
:100A20003F912F910F900FBE0F901F901895CF936D
:100A3000DF93109249011092480188EE93E0A0E004
:100A4000B0E080934A0190934B01A0934C01B09386
:100A50004D0184E091E0909347018093460185EC3D
:100A600090E0909353018093520184EC90E0909336
:100A700055018093540180EC90E09093570180934E
:100A8000560181EC90E0909359018093580182ECDB
:100A900090E090935B0180935A0186EC90E09093F4
:100AA0005D0180935C0110925F01109260011092D1
:100AB0006101109262011092E9011092EA01109214
:100AC000EB011092EC011092ED011092EE011092E8
:100AD000EF011092F0011092F1011092F2011092C8
:100AE000F3011092F4011092F5011092F6011092A8
:100AF000F7011092F80180914F028C30A0F491E040
:100B0000980F90934F0280936C0290E0FC01EE0FDF
:100B1000FF1F8E0F9F1FFC01E55DFD4F88EB9BE0E3
:100B20009283818303C08FEF80936C0285E090E015
:100B300090935F0280935E021092650210926402AD
:100B40001092660210926702109268021092690277
:100B500080E593E090936B0280936A02C1E0D0E05D
:100B6000D0936102C093600260E085E00E94780249
:100B7000109263021092620286E090E0909351021C
:100B8000809350021092570210925602109258020F
:100B90001092590210925A0210925B028CE493E078
:100BA00090935D0280935C02D0935302C0935202F3
:100BB00060E086E00E947802109255021092540282
:100BC000DF91CF910895789484B5826084BD84B517
:100BD000816084BD85B5826085BD85B5816085BD38
:100BE00080916E00816080936E00109281008091F0
:100BF0008100826080938100809181008160809378
:100C00008100809180008160809380008091B1009C
:100C100084608093B1008091B00081608093B000C7
:100C200080917A00846080937A0080917A0082605B
:100C300080937A0080917A00816080937A0080911D
:100C40007A00806880937A001092C1001092270287
:100C5000109228021092290210922A021092E501A5
:100C60001092E6011092E7011092E8010E94D90269
:100C70006B017C014B015C0128EB820E2BE0921E84
:100C8000A11CB11C0E94D9026C157D058E059F0523
:100C900028F086169706A806B906A0F786E491E024
:100CA0009093260280932502E0915601F09157011E
:100CB00082E08083E0915201F09153011082E09133
:100CC0005401F091550180E1808310925E01E09122
:100CD0005A01F0915B0186E08083E0915801F09128
:100CE0005901808180618083E0915801F091590120
:100CF000808188608083E0915801F0915901808162
:100D000080688083E0915801F091590180818F7D46
:100D100080830E94D9026093E5017093E60180937D
:100D2000E7019093E80162E171E0809125029091E2
:100D300026020E9454030E94D9026B017C014B01E0
:100D40005C013AE0830E911CA11CB11C0E94D902E7
:100D50006C157D058E059F0528F086169706A8065A
:100D6000B906A0F781E08093F90180916C028C3084
:100D700008F051C061E083E00E94780280916C022B
:100D8000E82FF0E09F01220F331FE20FF31FE55D14
:100D9000FD4F9081907C9360908310926D02109231
:100DA0006E026CE00E94CC084CE0849FB0011124DC
:100DB00040E050E09B01240F351FF901EE0FFF1FAB
:100DC0002E0F3F1FF901E55DFD4F908196FD16C086
:100DD0004F5F5F4F4C30510569F781110FC0109282
:100DE000800082E080938100109285001092840040
:100DF000B19A80916F00826080936F00E0916C02E5
:100E0000F0E0CF01880F991FE80FF91FE55DFD4F56
:100E100080818064808380E090E00E948C000E944A
:100E2000B4024B015C019FE0C92ED12CE12CF12CC6
:100E30000E94B402DC01CB0188199909AA09BB09F7
:100E4000883E9340A105B10598F351E0C51AD10839
:100E5000E108F10888EE880E83E0981EA11CB11C01
:100E6000C114D104E104F10419F784EF882E992408
:100E70009394A12CB12C0E94D902672B682B692B6B
:100E800041F40E94D902623071058105910508F490
:100E90000FC10E94D902C0904201D0904301E0905E
:100EA0004401F09045016C157D058E059F0540F4C9
:100EB00060934201709343018093440190934501F4
:100EC000C0904201D0904301E0904401F090450170
:100ED0009B01AC012C193D094E095F0969017A019A
:100EE0003AEFC316D104E104F10408F4E1C06093C1
:100EF0004201709343018093440190934501809295
:100F0000F1019092F201A092F301B092F4011092DB
:100F1000F5011092F6011092F7011092F8018091FC
:100F2000E9019091EA01A091EB01B091EC0180936D
:100F3000ED019093EE01A093EF01B093F0010E94B8
:100F4000D9026093E9017093EA018093EB019093D9
:100F5000EC010E94D9026093E5017093E601809351
:100F6000E7019093E8010E94D9026B017C0164E2E1
:100F700071E080912502909126020E9454032AE09C
:100F800041E050E060E070E08091250290912602FF
:100F90000E9469036BE271E0809125029091260224
:100FA0000E9454032AE0B701A60180912502909186
:100FB00026020E9469036DE271E080912502909102
:100FC00026020E9454038091E9019091EA01A091C8
:100FD000EB01B091EC01B701A601481B590B6A0B5C
:100FE0007B0B2AE080912502909126020E946903E2
:100FF0006DE271E080912502909126020E945403D7
:101000004091E9015091EA016091EB017091EC018E
:101010008091ED019091EE01A091EF01B091F0016E
:10102000481B590B6A0B7B0B2AE08091250290919B
:1010300026020E9469036FE271E08091250290917F
:1010400026020E9454030E94D902AB01BC012AE08F
:1010500080912502909126020E946903E09025026A
:10106000F090260261E371E0C7010E94540361E23F
:1010700071E0C7010E9454030E94D9026B017C01F8
:101080002B013C0142E0440E511C611C711C0E946A
:10109000D9026C157D058E059F05A8F40E94D90222
:1010A0006093E9017093EA018093EB019093EC0166
:1010B0008EE592E00E94E50280E592E00E94E50262
:1010C0000E941602D8CE4616570668067906F8F62C
:1010D000E5CFA1E21A2EAA1BBB1BFD010DC0AA1F62
:1010E000BB1FEE1FFF1FA217B307E407F50720F091
:1010F000A21BB30BE40BF50B661F771F881F991F0C
:101100001A9469F760957095809590959B01AC0154
:10111000BD01CF010895052E97FB1EF400940E9497
:10112000A20857FD07D00E94690807FC03D04EF4BF
:101130000C94A20850954095309521953F4F4F4F04
:101140005F4F089590958095709561957F4F8F4F73
:101150009F4F08950E94BD08A59F900DB49F900DCC
:10116000A49F800D911D11240895B7FF0C94AA0827
:101170000E94AA08821B930B0895A29FB001B39FFF
:10118000C001A39F700D811D1124911DB29F700D90
:10119000811D1124911D0895991B79E004C0991FA8
:1011A000961708F0961B881F7A95C9F780950895C1
:1011B000EE0FFF1F0590F491E02D099481E090E07F
:0A11C000F8940C94E308F894FFCFB4
:1011CA0000000000A70110013E01F4016F014D016A
:1011DA006101564D4450565F317C315F564D445043
:1011EA00560D0A00564D4450455F003A323A007C8B
:0811FA00005F564D4450450012
:107E0000112484B714BE81FFF0D085E080938100F7
:107E100082E08093C00088E18093C10086E0809377
:107E2000C20080E18093C4008EE0C9D0259A86E02C
:107E300020E33CEF91E0309385002093840096BBD3
:107E4000B09BFECF1D9AA8958150A9F7CC24DD24C4
:107E500088248394B5E0AB2EA1E19A2EF3E0BF2EE7
:107E6000A2D0813461F49FD0082FAFD0023811F036
:107E7000013811F484E001C083E08DD089C08234E0
:107E800011F484E103C0853419F485E0A6D080C0E4
:107E9000853579F488D0E82EFF2485D0082F10E0AE
:107EA000102F00270E291F29000F111F8ED06801E7
:107EB0006FC0863521F484E090D080E0DECF843638
:107EC00009F040C070D06FD0082F6DD080E0C81688
:107ED00080E7D80618F4F601B7BEE895C0E0D1E017
:107EE00062D089930C17E1F7F0E0CF16F0E7DF06D8
:107EF00018F0F601B7BEE89568D007B600FCFDCFD4
:107F0000A601A0E0B1E02C9130E011968C91119780
:107F100090E0982F8827822B932B1296FA010C0160
:107F200087BEE89511244E5F5F4FF1E0A038BF0790
:107F300051F7F601A7BEE89507B600FCFDCF97BE46
:107F4000E89526C08437B1F42ED02DD0F82E2BD052
:107F50003CD0F601EF2C8F010F5F1F4F84911BD097
:107F6000EA94F801C1F70894C11CD11CFA94CF0C13
:107F7000D11C0EC0853739F428D08EE10CD085E9AC
:107F80000AD08FE07ACF813511F488E018D01DD067
:107F900080E101D065CF982F8091C00085FFFCCF94
:107FA0009093C60008958091C00087FFFCCF809118
:107FB000C00084FD01C0A8958091C6000895E0E648
:107FC000F0E098E1908380830895EDDF803219F02E
:107FD00088E0F5DFFFCF84E1DECF1F93182FE3DFCA
:107FE0001150E9F7F2DF1F91089580E0E8DFEE27F6
:047FF000FF270994CA
:027FFE00040479
:0400000300007E007B
:00000001FF