:100000000C9463000C948B000C948B000C948B006C
:100010000C948B000C948B000C948B000C949D051D
:100020000C948B000C948B000C948B000C948B0024
:100030000C948B000C948B000C948B000C948B0014
:100040000C9451060C948B000C941F060C94F9052B
:100050000C948B000C948B000C948B000C948B00F4
:100060000C948B000C948B000000000023002600F1
:10007000290000000008000201000003040700003E
:100080000000000000000200000000250028002BF6
:100090000000000000240027002A000404040404D7
:1000A0000404040202020202020303030303030125
:1000B00002040810204080010204081020010204FC
:1000C000081020009B0611241FBECFEFD8E0DEBF32
:1000D000CDBF22E0AEE5B1E001C01D92A139B2076B
:1000E000E1F711E0A0E0B1E0E0E0F8E102C0059046
:1000F0000D92AE35B107D9F710E0C3E6D0E004C0E9
:100100002197FE010E94F30BC236D107C9F70E9466
:1001100090070C94FE0B0C9400002F923F924F928C
:100120005F926F927F928F929F92AF92BF92CF9287
:10013000DF92EF92FF920F931F93CF93DF9300D044
:1001400000D01F92CDB7DEB7209185023091860294
:10015000220F331FE0917F02F0918002E20FF31F24
:100160006081718188EE93E00E94A50B8B012B01C9
:10017000770F660877084092890250928A0260924F
:100180008B0270928C0280917D0290917E02FC0124
:10019000E20FF31F2080318080917B0290917C02DE
:1001A00020910001281721F02F3F09F0A5C105C0BB
:1001B000E6E8F0E024912D8378C080930001E6E822
:1001C000F0E024912D832F3F09F496C1213009F4EA
:1001D00048C050F1223009F068C01092B00010926F
:1001E000B1002091B00022602093B0002091B100B6
:1001F00021602093B1009C013327F901E556FF4FA0
:10020000E491F0E0EE0FFF1FE957FF4F4591549145
:1002100050936D0140936C01F901E155FF4FE4915A
:10022000E0936B0122E03FC014BC15BC24B52260F2
:1002300024BD25B5216025BD9C013327F901E55674
:10024000FF4FE491F0E0EE0FFF1FE957FF4F45919C
:100250005491F901E155FF4FE491E0936F011D8244
:1002600027C01092800010928100209181002860A8
:1002700020938100209181002160209381009C01C6
:100280003327F901E556FF4FE491F0E0EE0FFF1F31
:10029000E957FF4F45915491F901E155FF4FE49122
:1002A000E0936E0121E02D8303C02D8127FD24C141
:1002B0009927FC01E155FF4F2491FC01E556FF4FC2
:1002C0008491882399F090E0880F991FFC01EF56E4
:1002D000FF4FA591B49189579F4FFC01859194914F
:1002E0008FB7F894EC912E2B2C938FBF4101A12C4A
:1002F000B12C8D818D7F09F07CC060E072E18AE7CE
:1003000090E0A50194010E94B90B29833A834B83A5
:100310005C8369017A0181E0C81AD108E108F1081B
:100320009FEFC916D104E104F10409F008F44EC0AE
:1003300060E472E48FE090E0A50194010E94B90BA3
:1003400069017A0181E0C81AD108E108F1089D81AC
:10035000923009F52FEFC216D104E104F10409F03F
:1003600008F47DC160E970ED83E090E0A50194019F
:100370000E94B90B69017A0181E0C81AD108E1082D
:10038000F1089FEFC916D104E104F10411F008F05F
:10039000F4C083E027C02FEFC216D104E104F104BA
:1003A000B9F0B0F068E478EE81E090E0A501940146
:1003B0000E94B90B69017A0181E0C81AD108E108ED
:1003C000F1089D81992309F44EC116C181E001C055
:1003D00082E09D81911106C095B5987F892B85BDDE
:1003E00040C085E09091B100987F892B8093B10047
:1003F00038C060E072E18AE790E0A50194010E94B4
:10040000B90B69017A0181E0C81AD108E108F10845
:10041000C114D10491E0E906F10488F068E478EEB3
:1004200081E090E0A50194010E94B90B69017A0175
:1004300081E0C81AD108E108F10883E001C081E039
:100440009D81913071F490918100987F892B8093E8
:10045000810045284628472841F42FEF3FEFA901A6
:100460002AC045284628472869F09101220F331FEA
:10047000D8010E94D80B28EE33E040E050E00E9403
:10048000450B03C02FEF3FEFA9018D81813099F01B
:10049000823019F1811130C0C7BC209378013093AC
:1004A000790140937A0150937B0180916E008260C4
:1004B00080936E0021C0D0928900C0928800209362
:1004C00074013093750140937601509377018091C8
:1004D0006F00826080936F000FC0C092B3002093C2
:1004E00070013093710140937201509373018091B8
:1004F00070008260809370008091850290918602E6
:10050000019690938602809385022091810230911A
:10051000820282179307A9F4809187029091880242
:10052000019759F48FEF9FEF909386028093850295
:10053000109284021092830204C0109286021092DC
:1005400085028091890290918A020F900F900F90FE
:100550000F900F90DF91CF911F910F91FF90EF902F
:10056000DF90CF90BF90AF909F908F907F906F90D3
:100570005F904F903F902F90089568E478EE81E06F
:1005800090E0A50194010E94B90B69017A0191E004
:10059000C91AD108E108F1082FEFC216D104E1040D
:1005A000F10441F138F164E274EF80E090E0A501DC
:1005B00094010E94B90B69017A0181E0C81AD1083F
:1005C000E108F1089FEFC916D104E104F10409F034
:1005D00008F407CF62E17AE780E090E0A50194019A
:1005E0000E94B90B69017A0181E0C81AD108E108BB
:1005F000F10818C084E0F6CE2FEFC216D104E10452
:10060000F10479F170F162E17AE780E090E0A50110
:1006100094010E94B90B69017A0191E0C91AD108CD
:10062000E108F1088FEFC816D104E104F104A9F044
:10063000A0F089819A81AB81BC812AE0B595A7950C
:10064000979587952A95D1F76C017D0121E0C21A13
:10065000D108E108F10887E0C5CE86E0C3CE82E08C
:10066000C1CE84E0B6CE2FEFC216D104E104F1046E
:1006700069F160F162E17AE780E090E0A501940120
:100680000E94B90B69017A0181E0C81AD108E1081A
:10069000F1089FEFC916D104E104F104A9F0A0F01C
:1006A00089819A81AB81BC813AE0B595A7959795F0
:1006B00087953A95D1F76C017D0121E0C21AD108E6
:1006C000E108F10885E088CE84E086CE83E084CE20
:1006D000CF92DF92EF92FF920F931F93CF93DF930E
:1006E0006C017A018B01C0E0D0E0CE15DF0581F00E
:1006F000D8016D918D01D601ED91FC910190F081B1
:10070000E02DC6010995892B11F02196EECF7E01CF
:10071000C701DF91CF911F910F91FF90EF90DF9074
:10072000CF900895089580E090E00895FC01538DE6
:10073000448D252F30E0842F90E0821B930B5417BB
:1007400010F0CF96089501970895FC01918D828D48
:10075000981761F0828DDF01A80FB11D5D968C9115
:10076000928D9F5F9F73928F90E008958FEF9FEF20
:100770000895FC01918D828D981731F0828DE80FDC
:10078000F11D858D90E008958FEF9FEF0895FC0196
:10079000918D228D892F90E0805C9F4F821B910963
:1007A0008F73992708958CE791E00E94C70321E099
:1007B000892B09F420E0822F0895FC01848DDF014C
:1007C000A80FB11DA35ABF4F2C91848D90E00196C4
:1007D0008F739927848FA689B7892C93A089B189B3
:1007E0008C91837080648C93938D848D981306C054
:1007F0000288F389E02D80818F7D80830895EF92B8
:10080000FF920F931F93CF93DF93EC0181E0888FCA
:100810009B8D8C8D981305C0E889F989808185FDB1
:1008200026C0F62E0B8D10E00F5F1F4F0F731127A0
:10083000E02E8C8DE8120CC00FB607FCFACFE889C9
:10084000F989808185FFF5CFCE010E94DD03F1CFCC
:100850008B8DFE01E80FF11DE35AFF4FF0829FB729
:10086000F8940B8FEA89FB89808180620AC09FB768
:10087000F894EE89FF896083E889F9898081837023
:10088000806480839FBF81E090E0DF91CF911F91D2
:100890000F91FF90EF900895CF93DF93EC01888D37
:1008A0008823C9F0EA89FB89808185FD05C0A88974
:1008B000B9898C9186FD0FC00FB607FCF5CF8081FA
:1008C00085FFF2CFA889B9898C9185FFEDCFCE0144
:1008D0000E94DD03E7CFDF91CF91089580E090E0A3
:1008E000892B29F00E94D30381110C9400000895F4
:1008F000833081F028F4813099F08230A1F008959E
:100900008730A9F08830B9F08430D1F4809180002C
:100910008F7D03C0809180008F7780938000089541
:1009200084B58F7702C084B58F7D84BD0895809192
:10093000B0008F7703C08091B0008F7D8093B000AE
:100940000895CF93DF9390910001891324C0E6E8C6
:10095000F0E0E4919FEF90930001E130B9F098F05E
:10096000E230C9F4909170009D7F9093700091E007
:100970009093B0009091B100987F94609093B100F3
:100980001092B30008C010926E0005C090916F00E5
:100990009D7F90936F00282F30E0F901EE58FF4FB4
:1009A0008491F901E155FF4FD491F901E556FF4FCC
:1009B000C491CC2391F081110E947804EC2FF0E0D7
:1009C000EE0FFF1FE957FF4FA591B4919FB7F89421
:1009D0008C91D095D823DC939FBFDF91CF91089560
:1009E0002FB7F89460916301709164018091650163
:1009F000909166012FBF08958091830290918402A7
:100A0000892B61F080917B020E94A10410928402E4
:100A10001092830280917B020C94A10481E090E00B
:100A200090938402809383020895CF93DF93809103
:100A30007B020E94A1048091830290918402892B01
:100A400019F00E948D00EC01BE01DD0F880B990B9F
:100A50000E944C0A26E636E646EA5FE30E94870AD1
:100A60000E94760B60936F02709370028093710204
:100A700090937202DF91CF9108956115710579F01D
:100A8000FB0101900020E9F73197AF01461B570B9E
:100A9000DC01ED91FC910280F381E02D099480E06E
:100AA00090E008958F929F92AF92BF92EF92FF9243
:100AB0000F931F93CF93DF93CDB7DEB7A1970FB6F8
:100AC000F894DEBF0FBECDBF7C01FA01CB0119A2A5
:100AD000223008F42AE08E010F5D1F4F822E912CE8
:100AE000A12CB12CBF01A50194010E94450BF90175
:100AF000CA01015011096A3014F4605D01C0695CDB
:100B0000D8016C93232B242B252B61F7B801C70147
:100B10000E943D05A1960FB6F894DEBF0FBECDBF73
:100B2000DF91CF911F910F91FF90EF90BF90AF9009
:100B30009F908F9008950E94F90B1F920F920FB60D
:100B40000F9211242F933F934F935F936F937F9353
:100B50008F939F93AF93BF93EF93FF938091700117
:100B600090917101A0917201B0917301892B8A2B30
:100B70008B2B51F190916B01E0916C01F0916D0123
:100B80008081892780838091700190917101A0916B
:100B90007201B0917301181619061A061B06C4F4E7
:100BA0008091700190917101A0917201B0917301D7
:100BB0000197A109B1098093700190937101A093ED
:100BC0007201B093730104C0809100010E94A104DE
:100BD000FF91EF91BF91AF919F918F917F916F9115
:100BE0005F914F913F912F910F900FBE0F901F90EB
:100BF00018951F920F920FB60F9211242F933F93C7
:100C00004F935F936F937F938F939F93AF93BF9314
:100C1000EF93FF938CE791E00E94DD03FF91EF914A
:100C2000BF91AF919F918F917F916F915F914F9104
:100C30003F912F910F900FBE0F901F9018951F920C
:100C40000F920FB60F9211242F938F939F93EF93D0
:100C5000FF93E0918C01F0918D018081E0919201F0
:100C6000F091930182FD12C09081809195018F5F78
:100C70008F7320919601821751F0E0919501F0E079
:100C8000E458FE4F958F8093950101C08081FF91BC
:100C9000EF919F918F912F910F900FBE0F901F900A
:100CA00018951F920F920FB60F9211242F933F9316
:100CB0008F939F93AF93BF93809163019091640151
:100CC000A0916501B09166013091620123E0230F8C
:100CD0002D3720F40196A11DB11D05C026E8230F74
:100CE0000296A11DB11D2093620180936301909330
:100CF0006401A0936501B093660180915E019091BB
:100D00005F01A0916001B09161010196A11DB11D2B
:100D100080935E0190935F01A0936001B0936101A5
:100D2000BF91AF919F918F913F912F910F900FBEE7
:100D30000F901F901895CF93DF9310927F01109220
:100D40007E0188EE93E0A0E0B0E080938001909374
:100D50008101A0938201B093830189E291E0909395
:100D60007D0180937C0185EC90E0909389018093D4
:100D7000880184EC90E090938B0180938A0180EC51
:100D800090E090938D0180938C0181EC90E09093A2
:100D90008F0180938E0182EC90E09093910180937B
:100DA000900186EC90E090939301809392011092D1
:100DB000950110929601109297011092980110924D
:100DC0001F02109220021092210210922202109211
:100DD00023021092240210922502109226021092F1
:100DE0002702109228021092290210922A021092D1
:100DF0002B0210922C0210922D0210922E0288E0EB
:100E000090E090937C0280937B0223E131E0309369
:100E10007E0220937D0221E031E030938002209316
:100E20007F0290938202809381021092840210923A
:100E3000830210928602109285021092880210920C
:100E4000870210928D0210928E0210928F021092E1
:100E500090021092890210928A0210928B021092D4
:100E60008C0210926F021092700210927102109216
:100E7000720285E195E090937A0280937902109254
:100E80007302109274021092750210927602109200
:100E90007802109277028AE090E090936202809349
:100EA0006102109268021092670210926902109219
:100EB0006A0210926B0210926C028CEF94E0909395
:100EC0006E0280936D0281E090E0909364028093C3
:100ED0006302E9EBF0E02491E5EAF0E084918823F5
:100EE000C1F090E0880F991FFC01EF56FF4FC591AC
:100EF000D491FC01E957FF4FA591B4919FB7F894A5
:100F00008881E22FE0958E2388838C91E823EC93EF
:100F10009FBF1092660210926502DF91CF910895F3
:100F2000789484B5826084BD84B5816084BD85B5C4
:100F3000826085BD85B5816085BD80916E008160D0
:100F400080936E0010928100809181008260809376
:100F50008100809181008160809381008091800078
:100F60008160809380008091B10084608093B100A3
:100F70008091B00081608093B00080917A0084609D
:100F800080937A0080917A00826080937A008091C9
:100F90007A00816080937A0080917A0080688093E3
:100FA0007A001092C10010925D0210925E021092BF
:100FB0005F021092600210921B0210921C021092AB
:100FC0001D0210921E020E94F0044B015C016B0195
:100FD0007C0188EBC80E8BE0D81EE11CF11C0E943E
:100FE000F004681579058A059B0528F0C616D70612
:100FF000E806F906A0F78CE791E090935C028093F5
:101000005B02E0918C01F0918D0182E08083E091A0
:101010008801F09189011082E0918A01F0918B01A1
:1010200080E1808310929401E0919001F091910110
:1010300086E08083E0918E01F0918F018081806154
:101040008083E0918E01F0918F01808188608083A0
:10105000E0918E01F0918F01808180688083E09122
:101060008E01F0918F0180818F7D80830E94F0043A
:1010700060931B0270931C0280931D0290931E02CA
:1010800067E371E080915B0290915C020E943D05F4
:101090000E94F0044B015C016B017C018AE0C80EE8
:1010A000D11CE11CF11C0E94F004681579058A0529
:1010B0009B0528F0C616D706E806F906A0F781E0DA
:1010C00080932F0294EFC92EDD24D394E12CF12CD0
:1010D0000E94F004672B682B692B41F40E94F004F6
:1010E000623071058105910508F40FC10E94F0047A
:1010F00000916701109168012091690130916A01A6
:10110000601771078207930740F46093670170933B
:1011100068018093690190936A01009167011091C1
:1011200068012091690130916A014B015C01801ACC
:10113000910AA20AB30A950184010A3F110521050B
:10114000310508F4E2C060936701709368018093F1
:10115000690190936A01C0922702D0922802E0921E
:101160002902F0922A0210922B0210922C02109265
:101170002D0210922E0280911F0290912002A091C8
:101180002102B09122028093230290932402A09323
:101190002502B09326020E94F00460931F02709310
:1011A000200280932102909322020E94F004609317
:1011B0001B0270931C0280931D0290931E020E94DA
:1011C000F0044B015C0169E471E080915B02909155
:1011D0005C020E943D052AE041E050E060E070E0E2
:1011E00080915B0290915C020E94520560E571E083
:1011F00080915B0290915C020E943D052AE0B5015E
:10120000A40180915B0290915C020E94520562E50C
:1012100071E080915B0290915C020E943D0580919B
:101220001F0290912002A0912102B0912202B501EB
:10123000A401481B590B6A0B7B0B2AE080915B02CF
:1012400090915C020E94520562E571E080915B0220
:1012500090915C020E943D0540911F025091200236
:1012600060912102709122028091230290912402C8
:10127000A0912502B0912602481B590B6A0B7B0BEB
:101280002AE080915B0290915C020E94520564E525
:1012900071E080915B0290915C020E943D050E948A
:1012A000F004AB01BC012AE080915B0290915C02EA
:1012B0000E94520500915B0210915C0266E571E0AC
:1012C000C8010E943D0566E471E0C8010E943D0529
:1012D0000E94F0042B013C014B015C0182E0880E6E
:1012E000911CA11CB11C0E94F004641575058605B3
:1012F000970508F0C8C00E94F00460931F02709325
:101300002002809321029093220220916102309169
:1013100062023327F901EE58FF4F8491F901E1553C
:10132000FF4F1491F901E556FF4F04910023A1F0FE
:1013300081110E947804E02FF0E0EE0FFF1FE859C2
:10134000FF4FA591B491EC911E2391E080E009F448
:1013500090E0092F182F02C000E010E08091670292
:10136000909168028017910751F00E94F0046093F9
:10137000690270936A0280936B0290936C020E94E0
:10138000F0048090690290906A02A0906B02B09085
:101390006C02DC01CB0188199909AA09BB09C39722
:1013A000A105B105C8F08091650290916602801791
:1013B000910791F010936602009365028091630299
:1013C000909164028017910739F4E0916D02F091D9
:1013D0006E02309709F00995109368020093670236
:1013E0008091830290918402892B09F449C00E9464
:1013F000F004DC01CB01AA27BB2700918D021091DC
:101400008E0220918F02309190024C015D01801A72
:10141000910AA20AB30A0091890210918A022091CE
:101420008B0230918C0280169106A206B30640F121
:1014300080938D0290938E02A0938F02B0939002BE
:101440008091830290918402892B19F00E948D0073
:10145000EC01BE010D2E000C880B990B0E944C0A6A
:1014600026E636E646EA5FE30E94870A0E94760B8C
:101470006093890270938A0280938B0290938C020E
:101480000E946E0425CE86169706A806B90608F0B7
:101490002ACF31CFE89409C097FB3EF49095809510
:1014A000709561957F4F8F4F9F4F9923A9F0F92F2A
:1014B00096E9BB279395F695879577956795B795A8
:1014C000F111F8CFFAF4BB0F11F460FF1BC06F5F8E
:1014D0007F4F8F4F9F4F16C0882311F096E911C0A0
:1014E000772321F09EE8872F762F05C0662371F0C1
:1014F00096E8862F70E060E02AF09A95660F771FD5
:10150000881FDAF7880F9695879597F908950E94B6
:101510009A0A0C940B0B0E94FD0A38F00E94040BEF
:1015200020F0952311F00C94F40A0C94FA0A11247B
:101530000C943F0B0E941C0B70F3959FC1F3950F09
:1015400050E0551F629FF001729FBB27F00DB11D47
:10155000639FAA27F00DB11DAA1F649F6627B00DD7
:10156000A11D661F829F2227B00DA11D621F739FC0
:10157000B00DA11D621F839FA00D611D221F749FCE
:101580003327A00D611D231F849F600D211D822F15
:10159000762F6A2F11249F5750409AF0F1F088233C
:1015A0004AF0EE0FFF1FBB1F661F771F881F915069
:1015B0005040A9F79E3F510580F00C94F40A0C941A
:1015C0003F0B5F3FE4F3983ED4F38695779567959C
:1015D000B795F795E7959F5FC1F7FE2B880F911D93
:1015E0009695879597F9089597F99F6780E870E039
:1015F00060E008959FEF80EC089500240A94161689
:10160000170618060906089500240A9412161306F0
:10161000140605060895092E0394000C11F488237E
:1016200052F0BB0F40F4BF2B11F460FF04C06F5F9A
:101630007F4F8F4F9F4F089557FD9058440F551F70
:1016400059F05F3F71F04795880F97FB991F61F044
:101650009F3F79F087950895121613061406551FBB
:10166000F2CF4695F1DF08C0161617061806991F27
:10167000F1CF86957105610508940895E894BB271C
:1016800066277727CB0197F90895A1E21A2EAA1BA6
:10169000BB1BFD010DC0AA1FBB1FEE1FFF1FA21722
:1016A000B307E407F50720F0A21BB30BE40BF50B1F
:1016B000661F771F881F991F1A9469F760957095A8
:1016C000809590959B01AC01BD01CF010895A29F2B
:1016D000B001B39FC001A39F700D811D1124911D06
:1016E000B29F700D811D1124911D08950E94240B3D
:1016F00088F09F5798F0B92F9927B751B0F0E1F0D3
:10170000660F771F881F991F1AF0BA95C9F714C082
:10171000B13091F00E943E0BB1E008950C943E0B65
:10172000672F782F8827B85F39F0B93FCCF38695BB
:1017300077956795B395D9F73EF490958095709518
:1017400061957F4F8F4F9F4F089597FB072E16F49B
:10175000009407D077FD09D00E94DF0B07FC05D06D
:101760003EF4909581959F4F0895709561957F4FB8
:101770000895052E97FB1EF400940E94D00B57FD90
:1017800007D00E94450B07FC03D04EF40C94D00BFD
:1017900050954095309521953F4F4F4F5F4F08959D
:1017A00090958095709561957F4F8F4F9F4F0895CD
:1017B0000E94670BB7FF0895821B930B0895AA1B25
:1017C000BB1B51E107C0AA1FBB1FA617B70710F02C
:1017D000A61BB70B881F991F5A95A9F7809590955E
:1017E000BC01CD010895EE0FFF1F0590F491E02D8F
:1017F000099481E090E0F8940C94FE0BF894FFCFEC
:10180000FF040004000800080008000400040004AD
:10181000000400C400C400A500AF00C4000000DC48
:1018200000DC00C40000000000FF03680396034CC6
:1018300004C703A503B903564D4450565F317C31AC
:101840005F564D4450560D0A00564D4450455F00BA
:0E1850003A323A007C005F564D44504500008D
:00000001FF
