:100000000C945D000C9485000C9485000C94850084
:100010000C9485000C9485000C9485000C9485004C
:100020000C9485000C9485000C9485000C9485003C
:100030000C9485000C9485000C9485000C9485002C
:100040000C94D0020C9485000C949E020C947802BF
:100050000C9485000C9485000C9485000C9485000C
:100060000C9485000C94850000000008000201003B
:100070000003040700000000000000000000000072
:10008000250028002B0000000000240027002A0083
:10009000040404040404040402020202020203032E
:1000A0000303030301020408102040800102040836
:1000B00010200102040810201A0311241FBECFEFE4
:1000C000D8E0DEBFCDBF11E0A0E0B1E0E0EAFCE0A7
:1000D00002C005900D92A833B107D9F722E0A8E33A
:1000E000B1E001C01D92AB34B207E1F710E0CDE5FD
:1000F000D0E004C02197FE010E944306CC35D10711
:10010000C9F70E94BE030C944E060C940000E5E46F
:10011000F1E0A089B18982E08C93A485B5851C9219
:10012000A685B7858FEC8C93108EA489B58986E05F
:100130008C93A289B3898C9180618C93A289B389B5
:100140008C9188608C93A289B3898C9180688C9300
:100150000288F389E02D80818F7D80830895CF927E
:10016000DF92EF92FF920F931F93CF93DF936C0177
:100170007A018B01C0E0D0E0CE15DF0581F0D80117
:100180006D918D01D601ED91FC910190F081E02DF2
:10019000C6010995892B11F02196EECF7E01C7018A
:1001A000DF91CF911F910F91FF90EF90DF90CF9053
:1001B0000895089580E090E00895FC01538D448DEA
:1001C000252F30E0842F90E0821B930B541710F002
:1001D000CF96089501970895FC01918D828D98170F
:1001E00061F0828DDF01A80FB11D5D968C91928D1B
:1001F0009F5F9F73928F90E008958FEF9FEF089518
:10020000FC01918D828D981731F0828DE80FF11DE0
:10021000858D90E008958FEF9FEF0895FC01918DFB
:10022000228D892F90E0805C9F4F821B91098F73F4
:100230009927089585E491E00E940E0121E0892B21
:1002400009F420E0822F0895FC01848DDF01A80FBE
:10025000B11DA35ABF4F2C91848D90E001968F73EE
:100260009927848FA689B7892C93A089B1898C910D
:10027000837080648C93938D848D981306C002885C
:10028000F389E02D80818F7D80830895EF92FF9226
:100290000F931F93CF93DF93EC0181E0888F9B8DA9
:1002A0008C8D981305C0E889F989808185FD26C069
:1002B000F62E0B8D10E00F5F1F4F0F731127E02EEE
:1002C0008C8DE8120CC00FB607FCFACFE889F989CB
:1002D000808185FFF5CFCE010E942401F1CF8B8D67
:1002E000FE01E80FF11DE35AFF4FF0829FB7F8942B
:1002F0000B8FEA89FB89808180620AC09FB7F894DE
:10030000EE89FF896083E889F98980818370806440
:1003100080839FBF81E090E0DF91CF911F910F918B
:10032000FF90EF900895CF93DF93EC01888D8823A1
:10033000C9F0EA89FB89808185FD05C0A889B98952
:100340008C9186FD0FC00FB607FCF5CF808185FF2D
:10035000F2CFA889B9898C9185FFEDCFCE010E949B
:100360002401E7CFDF91CF91089580E090E0892BC1
:1003700029F00E941A0181110C940000089590E068
:10038000FC01E859FF4F2491FC01EC55FF4F3491DB
:10039000FC01E057FF4FE491EE2309F43CC0222317
:1003A00039F1233091F038F42130A9F0223001F5F1
:1003B00084B58F7D12C0273091F02830A1F0243011
:1003C000B9F4809180008F7D03C0809180008F7789
:1003D000809380000DC084B58F7784BD09C0809163
:1003E000B0008F7703C08091B0008F7D8093B00004
:1003F000F0E0EE0FFF1FE458FF4FA591B4919FB7B7
:10040000F894611104C08C913095382302C0EC91AE
:100410003E2B3C939FBF08952FB7F89460913D0108
:1004200070913E0180913F01909140012FBF08954E
:100430006115710579F0FB0101900020E9F7319712
:10044000AF01461B570BDC01ED91FC910280F3815B
:10045000E02D099480E090E008958F929F92AF92F2
:10046000BF92EF92FF920F931F93CF93DF93CDB77D
:10047000DEB7A1970FB6F894DEBF0FBECDBF7C01EB
:10048000FA01CB0119A2223008F42AE08E010F5D97
:100490001F4F822E912CA12CB12CBF01A5019401DC
:1004A0000E94F905F901CA01015011096A3014F4DA
:1004B000605D01C0695CD8016C93232B242B252B34
:1004C00061F7B801C7010E941802A1960FB6F8940F
:1004D000DEBF0FBECDBFDF91CF911F910F91FF9077
:1004E000EF90BF90AF909F908F9008950E94490623
:1004F0001F920F920FB60F9211242F933F934F9399
:100500005F936F937F938F939F93AF93BF93EF937B
:10051000FF9385E491E00E942401FF91EF91BF9148
:10052000AF919F918F917F916F915F914F913F918B
:100530002F910F900FBE0F901F9018951F920F9242
:100540000FB60F9211242F938F939F93EF93FF93E6
:10055000E0915501F09156018081E0915B01F091AD
:100560005C0182FD12C0908180915E018F5F8F736C
:1005700020915F01821751F0E0915E01F0E0EB5BAA
:10058000FE4F958F80935E0101C08081FF91EF91B6
:100590009F918F912F910F900FBE0F901F901895E4
:1005A0001F920F920FB60F9211242F933F938F93A8
:1005B0009F93AF93BF9380913D0190913E01A09195
:1005C0003F01B091400130913C0123E0230F2D37D2
:1005D00020F40196A11DB11D05C026E8230F029647
:1005E000A11DB11D20933C0180933D0190933E01DC
:1005F000A0933F01B093400180913801909139015F
:10060000A0913A01B0913B010196A11DB11D8093CB
:10061000380190933901A0933A01B0933B01BF9107
:10062000AF919F918F913F912F910F900FBE0F909F
:100630001F901895109248011092470188EE93E0A0
:10064000A0E0B0E08093490190934A01A0934B0150
:10065000B0934C0184E091E0909346018093450172
:1006600085EC90E0909352018093510184EC90E0EE
:10067000909354018093530180EC90E09093560145
:100680008093550181EC90E090935801809357013D
:1006900082EC90E090935A018093590186EC90E0AF
:1006A00090935C0180935B0110925E0110925F0158
:1006B00010926001109261011092E8011092E9011C
:1006C0001092EA011092EB011092EC011092ED01F0
:1006D0001092EE011092EF011092F0011092F101D0
:1006E0001092F2011092F3011092F4011092F501B0
:1006F0001092F6011092F70185E090E090932D02A0
:1007000080932C0210922E02E9EAF0E02491E5E9B0
:10071000F0E08491882399F090E0880F991FFC0104
:10072000EA57FF4FA591B491FC01E458FF4F859122
:1007300094918FB7F894EC91E22BEC938FBF60917A
:100740002E0280912C020E94BF011092460210924C
:100750004502109248021092470210924A021092EB
:1007600049028FE090E090932B0280932A028EEE54
:1007700092E09093300280932F020895789484B58C
:10078000826084BD84B5816084BD85B5826085BD8D
:1007900085B5816085BD80916E00816080936E001B
:1007A000109281008091810082608093810080910D
:1007B00081008160809381008091800081608093BE
:1007C00080008091B10084608093B1008091B0007E
:1007D00081608093B00080917A00846080937A0079
:1007E00080917A00826080937A0080917A008160A3
:1007F00080937A0080917A00806880937A001092CA
:10080000C100109226021092270210922802109224
:1008100029021092E4011092E5011092E601109273
:10082000E7010E940C026B017C014B015C0128EB8B
:10083000820E2BE0921EA11CB11C0E940C026C15B2
:100840007D058E059F0528F086169706A806B90631
:10085000A0F785E491E090932502809324020E9402
:1008600087000E940C026093E4017093E50180937D
:10087000E6019093E70162E171E08091240290919A
:1008800025020E9418020E940C026B017C014B01A0
:100890005C013AE0830E911CA11CB11C0E940C0269
:1008A0006C157D058E059F0528F086169706A8060F
:1008B000B906A0F781E08093F8010E94870024EF39
:1008C000C22EDD24D394E12CF12CCAE0D0E011E05B
:1008D0000E940C02672B682B692B41F40E940C02CA
:1008E000623071058105910508F410C10E940C0267
:1008F0008090410190904201A0904301B09044014A
:10090000681579058A059B0540F460934101709351
:100910004201809343019093440180904101909063
:100920004201A0904301B09044019B01AC01281901
:1009300039094A095B0949015A013AEF83169104C2
:10094000A104B10408F4E2C0609341017093420134
:100950008093430190934401C092F001D092F10141
:10096000E092F201F092F3011092F4011092F5017D
:100970001092F6011092F7018091E8019091E9013F
:10098000A091EA01B091EB018093EC019093ED010D
:10099000A093EE01B093EF010E940C026093E80176
:1009A0007093E9018093EA019093EB010E940C029D
:1009B0006093E4017093E5018093E6019093E70171
:1009C0000E940C024B015C0164E271E08091240200
:1009D000909125020E9418022AE041E050E060E078
:1009E00070E080912402909125020E942D026BE21A
:1009F00071E080912402909125020E9418022AE061
:100A0000B501A40180912402909125020E942D023B
:100A10006DE271E080912402909125020E941802FB
:100A20008091E8019091E901A091EA01B091EB0178
:100A3000B501A401481B590B6A0B7B0B2AE080917E
:100A40002402909125020E942D026DE271E08091B6
:100A50002402909125020E9418024091E8015091D1
:100A6000E9016091EA017091EB018091EC019091B4
:100A7000ED01A091EE01B091EF01481B590B6A0BFB
:100A80007B0B2AE080912402909125020E942D0286
:100A90006FE271E080912402909125020E94180279
:100AA0000E940C02AB01BC012AE0809124029091CB
:100AB00025020E942D02A0902402B090250261E33D
:100AC00071E0C5010E94180261E271E0C5010E9457
:100AD00018020E940C022B013C014B015C0142E018
:100AE000840E911CA11CB11C0E940C02641575059A
:100AF0008605970508F076C00E940C026093E80115
:100B00007093E9018093EA019093EB0120914902EF
:100B100030914A02A901440F551FFA01E65DFD4FCD
:100B2000809145029091460267817085861B970BE4
:100B3000909346028093450290912A029E3008F0DD
:100B40009E509770906490937C0080917A008064AE
:100B500080937A0080917A0086FDFCCF80917800A6
:100B600060917900FA01E65DFD4F90E0962B908749
:100B70008783D901AA0FBB1FA65DBD4FE091450237
:100B8000F091460217968D919C911897E80FF91FE6
:100B9000F0934602E0934502C9010196BE010E940E
:100BA0001B0690934A0280934902CF01BE010E9426
:100BB0001B06709348026093470280912F02909128
:100BC00030026817790724F410932E0261E003C005
:100BD00010922E0260E080912C020E94BF010E94C0
:100BE000B50176CE86169706A806B90608F07CCF22
:100BF00083CFA1E21A2EAA1BBB1BFD010DC0AA1FA9
:100C0000BB1FEE1FFF1FA217B307E407F50720F075
:100C1000A21BB30BE40BF50B661F771F881F991FF0
:100C20001A9469F760957095809590959B01AC0139
:100C3000BD01CF01089597FB072E16F4009407D04D
:100C400077FD09D00E942F0607FC05D03EF4909551
:100C500081959F4F0895709561957F4F0895AA1BC8
:100C6000BB1B51E107C0AA1FBB1FA617B70710F097
:100C7000A61BB70B881F991F5A95A9F780959095C9
:100C8000BC01CD010895EE0FFF1F0590F491E02DFA
:100C9000099481E090E0F8940C944E06F894FFCF0C
:100CA000000000004601AF00DD0093010E01EC00E2
:100CB0000001564D4450565F317C315F564D4450D3
:100CC000560D0A00564D4450455F003A323A007CBA
:080CD000005F564D4450450041
:00000001FF
