:100000000C9462000C948A000C948A000C948A0070
:100010000C948A000C948A000C948A000C94C803F7
:100020000C948A000C948A000C948A000C940703A8
:100030000C948A000C948A000C948A000C948A0018
:100040000C94BD020C948A000C94E6010C94C0013F
:100050000C948A000C948A000C948A000C948A00F8
:100060000C948A000C948A000000000023002600F3
:10007000290000000000240027002A0000000000E2
:10008000250028002B0004040404040404040202D4
:100090000202020203030303030301020408102007
:1000A0004080010204081020010204081020000012
:1000B0000008000201000003040700000000000027
:1000C00000003B0F11241FBECFEFD8E0DEBFCDBF35
:1000D00012E0A0E0B1E0E8EBF5E202C005900D927D
:1000E000A631B107D9F724E0A6E1B2E001C01D9224
:1000F000A032B207E1F710E0C2E6D0E004C02197D9
:10010000FE010E94CF12C136D107C9F70E949206A4
:100110000C94DA120C940000089580E090E00895A9
:10012000FC01538D448D252F30E0842F90E0821BFD
:10013000930B541710F0CF96089501970895FC0182
:10014000918D828D981761F0828DDF01A80FB11D0E
:100150005D968C91928D9F5F9F73928F90E0089532
:100160008FEF9FEF0895FC01918D828D981731F0EC
:10017000828DE80FF11D858D90E008958FEF9FEF40
:100180000895FC01918D228D892F90E0805C9F4F16
:10019000821B91098F73992708958AE392E00E9448
:1001A000C10021E0892B09F420E0822F0895FC0191
:1001B000848DDF01A80FB11DA35ABF4F2C91848DF0
:1001C00090E001968F739927848FA689B7892C9325
:1001D000A089B1898C91837080648C93938D848D78
:1001E000981306C00288F389E02D80818F7D80837B
:1001F0000895EF92FF920F931F93CF93DF93EC013B
:1002000081E0888F9B8D8C8D981305C0E889F989D2
:10021000808185FD26C0F62E0B8D10E00F5F1F4FED
:100220000F731127E02E8C8DE8120CC00FB607FC5F
:10023000FACFE889F989808185FFF5CFCE010E9448
:10024000D700F1CF8B8DFE01E80FF11DE35AFF4F70
:10025000F0829FB7F8940B8FEA89FB8980818062D6
:100260000AC09FB7F894EE89FF896083E889F9890D
:1002700080818370806480839FBF81E090E0DF9104
:10028000CF911F910F91FF90EF900895CF93DF933F
:10029000EC01888D8823C9F0EA89FB89808185FD7E
:1002A00005C0A889B9898C9186FD0FC00FB607FCDF
:1002B000F5CF808185FFF2CFA889B9898C9185FF20
:1002C000EDCFCE010E94D700E7CFDF91CF91089507
:1002D00080E090E0892B29F00E94CD0081110C94E0
:1002E00000000895833081F028F4813099F0823045
:1002F000A1F008958730A9F08830B9F08430D1F4A6
:10030000809180008F7D03C0809180008F778093E3
:100310008000089584B58F7702C084B58F7D84BD39
:1003200008958091B0008F7703C08091B0008F7DD9
:100330008093B00008953FB7F89480912202909185
:100340002302A0912402B091250226B5A89B05C0E6
:100350002F3F19F00196A11DB11D3FBFBA2FA92F44
:10036000982F8827820F911DA11DB11DBC01CD01C1
:1003700042E0660F771F881F991F4A95D1F70895AD
:100380001F920F920FB60F9211242F933F934F930A
:100390005F936F937F938F939F93AF93BF93EF93ED
:1003A000FF938AE392E00E94D700FF91EF91BF9103
:1003B000AF919F918F917F916F915F914F913F91FD
:1003C0002F910F900FBE0F901F9018951F920F92B4
:1003D0000FB60F9211242F938F939F93EF93FF9358
:1003E000E0914A02F0914B028081E0915002F0913D
:1003F000510282FD12C09081809153028F5F8F73F2
:1004000020915402821751F0E0915302F0E0E65C33
:10041000FD4F958F8093530201C08081FF91EF9132
:100420009F918F912F910F900FBE0F901F90189555
:100430001F93CF93DF93282F30E0F901E255FF4F50
:100440008491F901E656FF4FD491F901EA57FF4F25
:10045000C491CC23C1F0162F81110E947201EC2FA0
:10046000F0E0EE0FFF1FE458FF4FA591B4919FB746
:10047000F894111104C08C91D095D82302C0EC914E
:10048000DE2BDC939FBFDF91CF911F910895CF9317
:10049000DF9390E0FC01E656FF4F2491FC01EA5700
:1004A000FF4F8491882361F190E0880F991FFC0130
:1004B000EE58FF4FC591D491FC01E458FF4FA59130
:1004C000B491611109C09FB7F89488812095822367
:1004D0008883EC912E230BC0623061F49FB7F894AF
:1004E0008881322F309583238883EC912E2B2C9397
:1004F0009FBF06C08FB7F894E8812E2B28838FBF4B
:10050000DF91CF9108958F929F92AF92BF92CF9239
:10051000DF92EF92FF926B017C010E949B014B01E5
:100520005C01C114D104E104F104F1F00E949B01CB
:10053000DC01CB0188199909AA09BB09883E9340BF
:10054000A105B10570F321E0C21AD108E108F10854
:1005500088EE880E83E0981EA11CB11CC114D10442
:10056000E104F10419F7DDCFFF90EF90DF90CF9019
:10057000BF90AF909F908F9008951F920F920FB6EB
:100580000F9211242F933F938F939F93AF93BF9319
:100590008091360290913702A0913802B0913902D1
:1005A0003091210223E0230F2D3720F40196A11D65
:1005B000B11D05C026E8230F0296A11DB11D209391
:1005C00021028093360290933702A0933802B093B1
:1005D00039028091220290912302A0912402B091CD
:1005E00025020196A11DB11D809322029093230242
:1005F000A0932402B0932502BF91AF919F918F9158
:100600003F912F910F900FBE0F901F9018951F9242
:100610000F920FB60F9211242F933F934F935F9336
:100620006F937F938F939F93AF93BF93EF93FF93BA
:100630008091200287FF05C01092850010928400EF
:100640001BC020912002022E000C330B809143032B
:1006500090E02817390784F480912002082E000CBE
:10066000990BFC01EE0FFF1F8E0F9F1FFC01E15E37
:10067000FC4F808186FD15C0809120028F5F8093A2
:10068000200220912002022E000C330B80914303A4
:1006900090E028173907C4F4809120028C3064F16F
:1006A00013C080912002082E000C990BFC01EE0F64
:1006B000FF1F8E0F9F1FFC01E15EFC4F808160E0F9
:1006C0008F730E941802D8CF80918400909185008A
:1006D000049680349C4918F480E49CE905C080911C
:1006E00084009091850004969093890080938800FF
:1006F0008FEF809320023BC02091840030918500D1
:1007000080912002082E000C990BFC01EE0FFF1FB8
:100710008E0F9F1FFC01E15EFC4F81819281820F51
:10072000931F909389008093880080912002082E67
:10073000000C990BFC01EE0FFF1F8E0F9F1FFC0199
:10074000E15EFC4F808186FF12C080912002082E5E
:10075000000C990BFC01EE0FFF1F8E0F9F1FFC0179
:10076000E15EFC4F808161E08F730E941802FF916F
:10077000EF91BF91AF919F918F917F916F915F9119
:100780004F913F912F910F900FBE0F901F90189592
:100790001F920F920FB60F9211242F933F934F93F6
:1007A0005F936F937F938F939F93AF93BF93CF93F9
:1007B000DF93EF93FF932091450330E0F901E25579
:1007C000FF4F8491F901E656FF4FD491F901EA57A2
:1007D000FF4FC491CC2379F081110E947201EC2F5C
:1007E000F0E0EE0FFF1FE859FF4FA591B491EC9197
:1007F000ED2381E009F480E02091490330914A0320
:100800002F5F3F4F30934A03209349039091480351
:10081000953618F096E090934403909144039430F9
:10082000C9F128F4923069F09330D1F05EC0953070
:1008300009F451C0963009F058C091E09093150426
:1008400051C0811152C02091490330914A0324368E
:10085000310508F442C010921504109248031CC0E0
:10086000813009F042C0E091480391E09E0F9093DF
:100870004803F0E02091490330914A03EE0FFF1F37
:10088000EC5BFC4F3087278310924A031092490398
:1008900094E029C0811117C0E091480391E09E0FB8
:1008A00090934803F0E02091490330914A03EE0F02
:1008B000FF1FEC5BFC4F3087278310924A03109296
:1008C000490393E010C02091490330914A03253633
:1008D000310558F007C0811108C010924A031092E8
:1008E000490303C095E090934403909147039923F3
:1008F000B9F081110AC080914603882321F08091CC
:10090000460361E009C02D9A0BC0809146038823FD
:1009100031F08091460360E00E94180201C02D98DA
:10092000FF91EF91DF91CF91BF91AF919F918F9107
:100930007F916F915F914F913F912F910F900FBEDB
:100940000F901F901895CF92DF92EF92FF92CF9366
:10095000DF93EC01072E000C880B990B0E94E70F28
:100960006B017C0120E030E040E45FE30E94461030
:1009700020E030E048E452E40E94E4110E94561264
:10098000C617D707D4F020E030E040EA5FE3C701A4
:10099000B6010E94461020E030E048E452E40E9494
:1009A000E41120E030E040E85FE30E9478110E940B
:1009B000561221E06C177D070CF420E0822F90E0A6
:1009C000DF91CF91FF90EF90DF90CF900895CF927D
:1009D000DF92EF92FF920F931F93CF93DF936C01FF
:1009E0007A018B01C0E0D0E0CE15DF0581F0D8019F
:1009F0006D918D01D601ED91FC910190F081E02D7A
:100A0000C6010995892B11F02196EECF7E01C70111
:100A1000DF91CF911F910F91FF90EF90DF90CF90DA
:100A200008950E94D512EAE3F2E0A089B18982E03C
:100A30008C93A485B5851C92A685B7858FEC8C9385
:100A4000108EA489B58986E08C93A289B3898C9194
:100A500080618C93A289B3898C9188608C93A289E0
:100A6000B3898C9180688C930288F389E02D808112
:100A70008F7D80830895CF92DF92EF92FF92DC0109
:100A8000A03282E0B8070CF03EC0B7FD06C0A53B1F
:100A9000B1052CF0A4EBB0E002C0A0E0B0E0809182
:100AA000170428E830E06901C81AD10887FDD394FB
:100AB000CC0CDD1CCC0CDD1C0D2C000CEE08FF0852
:100AC0008091180428E532E0281B310987FD339511
:100AD000220F331F220F331FA901330F660B770B31
:100AE0009A01AB012C193D094E095F090E94601162
:100AF00024EB30E040E050E00E943611C20ED31EDD
:100B0000E41EF51ED601909116049C3098F5809154
:100B1000170448E850E0481B510987FD5395440FDE
:100B2000551F440F551FA417B5078CF0809118046A
:100B300028E532E0281B310987FD3395220F331F4A
:100B4000220F331FAD012A173B070CF4A9014250B5
:100B50005109440F551F2FB7F894892F90E0FC01DD
:100B6000EE0FFF1F8E0F9F1FFC01E15EFC4F5283B3
:100B700041832FBFFF90EF90DF90CF900895CF92E9
:100B8000DF92EF92FF920F931F932FB7F894C090CC
:100B90003602D0903702E0903802F09039022FBF31
:100BA000DC01CB018C0D9D1DAE1DBF1D4FB7F89410
:100BB00000913602109137022091380230913902AB
:100BC0004FBF0C151D052E053F0528F08017910716
:100BD000A207B30758F71F910F91FF90EF90DF9096
:100BE000CF9008958F929F92AF92BF92CF92DF9253
:100BF000EF92FF920F931F93CF93DF93FC0120811D
:100C00003181E0913202F09133022E173F070CF050
:100C10004FC0F901EE0FFF1FA0913002B0913102D9
:100C2000EA0FFB1FA080B180217033276901F1E03A
:100C3000CF26232B19F42CE93FEF02C024E630E045
:100C40007A018B01EC014901840E951EB401C501A6
:100C50000E94A304892B99F48E0C9F1CB401C5013A
:100C60000E94A304892B71F4B701680D791DC50199
:100C70000E94A304892BF9F023E030E005C021E0B5
:100C800030E002C022E030E0F801808191810196DD
:100C9000821793071CF49183808308C0F8011182A6
:100CA000108288819981019699838883C60105C045
:100CB00081E090E002C08FEF9FEFDF91CF911F9115
:100CC0000F91FF90EF90DF90CF90BF90AF909F90EB
:100CD0008F9008956115710579F0FB010190002056
:100CE000E9F73197AF01461B570BDC01ED91FC9101
:100CF0000280F381E02D099480E090E00895CF9385
:100D0000DF93BC018AE392E00E946A06EC0169E489
:100D100071E08AE392E00E946A068C0F9D1FDF91CA
:100D2000CF910895CF93DF93CDB7DEB7AB970FB6D2
:100D3000F894DEBF0FBECDBF789484B5826084BDC9
:100D400084B5816084BD85B5826085BD85B58160CF
:100D500085BD80916E00816080936E00109281004D
:100D60008091810082608093810080918100816008
:100D700080938100809180008160809380008091C9
:100D8000B10084608093B1008091B0008160809355
:100D9000B00080917A00846080937A0080917A001C
:100DA000826080937A0080917A00816080937A00DB
:100DB00080917A00806880937A001092C10010922E
:100DC0001B0310921C0310921D0310921E0310921D
:100DD000D9021092DA021092DB021092DC0268EB68
:100DE0007BE080E090E00E94BF058AE392E0909370
:100DF0001A03809319030E9413052FB7F89480916A
:100E0000360290913702A0913802B09139022FBF7B
:100E10008093D9029093DA02A093DB02B093DC02B4
:100E20006AE371E08091190390911A030E946A06A7
:100E30006AE070E080E090E00E94BF0581E080936E
:100E4000ED020E941305F89482E08093B000809335
:100E5000B10094E69093B3001092B20080937000BA
:100E6000789480934403109248038091450360E096
:100E70000E944702809116048C3008F051C061E056
:100E800083E00E94470280911604E82FF0E09F0162
:100E9000220F331FE20FF31FE15EFC4F9081907C25
:100EA0009360908310921704109218046CE00E94D3
:100EB0008C122CE0829FB001112440E050E09B0195
:100EC000240F351FF901EE0FFF1F2E0F3F1FF901F1
:100ED000E15EFC4F908196FD16C04F5F5F4F4C3036
:100EE000510569F781110FC01092800082E0809354
:100EF00081001092850010928400B19A80916F0059
:100F0000826080936F00E0911604F0E0CF01880FBB
:100F1000991FE80FF91FE15EFC4F80818064808398
:100F200080E090E00E943B0568EE73E080E090E096
:100F30000E94830210E2212E312C44244A94542C26
:100F400032018BE493E090933102809330028091E0
:100F5000480390E09093330280933202809115040D
:100F600090E0909335028093340280914403853061
:100F700009F05BC180914D0390914E03885891090F
:100F80008D35910588F480914803843041F4809137
:100F90004F03909150038097479708F462C1809166
:100FA0004803843408F044C1809148038A3108F42E
:100FB000C2C180914B0390914C03843F914078F4DF
:100FC00010922F0210922E0240922A0250922B026F
:100FD00060922C0270922D028BE090E03BC78091D2
:100FE0004D0390914E0385974B9708F0A4C1E1E51E
:100FF000F3E082E090E0C12CD12C7601AC014F5F90
:101000005F4F2091480330E0421753075CF4DF0143
:1010100012972D913C91275031092730310508F462
:101020006EC1CA0101979595879590932F02809381
:101030002E020C972CF410922F0210922E027BC1DC
:10104000C0922A02D0922B02E0922C02F0922D0242
:1010500084E090E00AC0C0922A02D0922B02E09273
:101060002C02F0922D028BE090E090932702809367
:10107000260280912A0290912B02A0912C02B0911D
:101080002D028F3F3FEF9307A307B30709F4C8C0B2
:101090008F31904EAF4FB10541F480E090E00E9457
:1010A0003B058CE491E00E947F0640912A0250911A
:1010B0002B0260912C0270912D024735F8EA5F07F0
:1010C000FFEF6F07710529F481E791E00E947F0629
:1010D0004EC080911E0290911F024F3620E95207A8
:1010E0002FEF6207710509F054C0049709F044C05E
:1010F0008091160290911702029709F091C6809193
:10110000180290911902039709F08AC680911A0279
:1011100090911B02049709F083C680911C02909164
:101120001D02059709F07CC68CED91E00E947F06B8
:1011300081E080931F0461E080911D040E941802E9
:1011400068EB7BE080E090E00E94830210921F0435
:1011500060E080911D040E94180283EB90E00E94E1
:101160003B0568EB7BE080E090E00E9483021092F8
:101170001F0210921E0254C08CEA91E00E947F066A
:1011800081E080931C0461E080911A040E9418029F
:1011900047C08430910508F062C6E0E0F1E020E04D
:1011A00030E0C190D190E190F1904C155D056E0555
:1011B0007F0531F02F5F3F4F2A30310591F74FC641
:1011C000FC01EE0FFF1FEA5EFD4F31832083019685
:1011D00090931F0280931E02032E000C440B550BAC
:1011E00019A28E010F5D1F4FCA01B9012AE030E03C
:1011F00040E050E00E941411605DD8016E938D01B3
:10120000211531054105510579F7BD018AE392E0C9
:101210000E946A0669E471E08AE392E00E946A062D
:1012200082E080934403109248030E94680189CEB3
:1012300080914F0390915003825491098E9708F04A
:10124000B3CE80E090E040E050E0BA01FC01EF5AFC
:10125000FC4F208131812950310929303105E0F0DE
:10126000A3CE80915103909152030997099708F0FA
:1012700096CE10922F0210922E0240922A02509285
:101280002B0260922C0270922D02E3E0F0E0F093CA
:101290002702E0932602C4CFFC01ED5AFC4F2081C7
:1012A00031812751310922313105E0F4440F551FB6
:1012B000661F771F416004968038910539F6309299
:1012C0002F0220922E0240932A0250932B02609309
:1012D0002C0270932D02A3E0B0E0B0932702A093FC
:1012E0002602C7CE208131812650310927303105B1
:1012F00008F05ACE440F551F661F771FDCCF2081A0
:101300003181235131092F30310548F4CC0CDD1CDB
:10131000EE1CFF1C6894C0F8029634966FCE2081B4
:1013200031812A5031092930310528F4CC0CDD1CDB
:10133000EE1CFF1CF1CF809148038A3108F45AC09B
:1013400080914B0390914C038032934008F438CE47
:1013500080914D0390914E03C697869708F04AC03E
:1013600080914F0390915003C697869708F042C032
:10137000E3E5F3E023E030E0C12CD12C7601C90194
:1013800001964091480350E08417950754F4DF011B
:1013900012974D915C914C5051094B30510588F09A
:1013A00001C0C90101979595879590932F0280936D
:1013B0002E020C970CF04FCE10922F0210922E029C
:1013C00019C08081918185974B9750F4CC0CDD1C1E
:1013D000EE1CFF1C6894C0F82E5F3F4F3496CFCFB1
:1013E000808191810C970A9728F4CC0CDD1CEE1CAF
:1013F000FF1CF2CF80914803823208F458C08091DC
:101400004D0390914E030697079708F050C0E1E511
:10141000F3E082E090E0C12CD12C76019C012F5F9B
:101420003F4F4091480350E024173507CCF4DF01CB
:1014300012974D915C9111974E51510947315105C9
:1014400040F5CC0CDD1CEE1CFF1C6894C0F84081FC
:1014500051813496435051094530510530F1C9014D
:1014600001979595879590932F0280932E02409730
:101470002CF410922F0210922E0219C0C0922A0250
:10148000D0922B02E0922C02F0922D028CE090E0A0
:10149000ECCD4D915C914C5051094B30510538F4D5
:1014A000CC0CDD1CEE1CFF1CD2CF0296B7CF1BA2CA
:1014B0001AA2E1E0F0E0FA83E983809148038D30DD
:1014C00078F41BA21AA221E030E03A8329838091AC
:1014D000320290913302181619060CF46CC0C3C086
:1014E00049E753E0BE016E5D7F4FCE0101960E9439
:1014F000F205892B31F749E753E0BE016E5D7F4F5E
:10150000CE0101960E94F2050197D9F649E753E012
:10151000BE016E5D7F4FCE0101960E94F205892BC0
:1015200081F6812C912C540100E010E08091480359
:1015300090E029813A812817390774F549E753E08B
:10154000BE016E5D7F4FCE0101960E94F2057C01C7
:1015500049E753E0BE016E5D7F4FCE0101960E94C8
:10156000F20531E0E316F10451F4892B09F0A9CF1B
:10157000880C991CAA1CBB1C689480F80AC0EF2830
:1015800009F09FCF019709F09CCF880C991CAA1CE9
:10159000BB1C0F5F1F4FCACF10932F0200932E0268
:1015A00080922A0290922B02A0922C02B0922D02DD
:1015B00081E090E05ACDE0913002F091310282E07A
:1015C00090E09A8389838281938189974E9708F06E
:1015D0004AC023E030E03A832983848195810B97C8
:1015E0000A9708F040C04CEB51E0BE016E5D7F4FA2
:1015F000CE0101960E94F205892BA9F54CEB51E032
:10160000BE016E5D7F4FCE0101960E94F2050197EB
:1016100051F5812C912C540100E010E02091320210
:101620003091330289819A81821793070CF026C189
:101630004CEB51E0BE016E5D7F4FCE0101960E94E2
:10164000F2057C010330110509F0E2C04CEB51E0DA
:10165000BE016E5D7F4FCE0101960E94F205E81635
:10166000F90609F4D5C0E0913002F091310282818F
:101670009381C6978697E0F4848195814B9745972F
:10168000B8F4DF0116967F0136ECE30EF11C20E082
:1016900030E040E050E060E070E080E090E00D91EC
:1016A0001C911197095011090830110508F4F5C073
:1016B00080914803893370F1828193818957910920
:1016C0008335910508F425C125C0D90112966D9185
:1016D0007C911397665171096131710508F045C11C
:1016E000D701C601880F991FAA1FBB1F6C017D017E
:1016F0006894C0F84E5F5F4F2C5F3F4F4B335105EE
:1017000009F416C1D9016D917C916A507109693053
:101710007105D8F280914803823231F4828193813D
:101720000A97099708F431C18281938189579109F9
:1017300083359105D0F4809148038132B0F08481E3
:101740009581CA97899788F49F012A5F3F4FC12CE2
:10175000D12C760143E050E0D9016D917C916A5023
:1017600071096930710508F42EC1828193818C540E
:101770009109C59778F480914803843031F48481CD
:1017800095818097479708F480C1809148038434FD
:1017900008F062C180914803863460F182819381B0
:1017A0000C970B9708F4BDC125C0D90112966D9115
:1017B0007C9113976E5171096731710508F0E7C18B
:1017C000D701C601880F991FAA1FBB1F6C017D019D
:1017D0006894C0F84E5F5F4F2C5F3F4F4534510512
:1017E00009F4BAC1D9016D917C916C5071096B30CB
:1017F0007105D8F280914803883508F430C282819F
:101800009381855891098B35910508F4D0C127C281
:101810004CEB51E0BE016E5D7F4FCE0101960E9400
:10182000F2056C010330110569F44CEB51E0BE0187
:101830006E5D7F4FCE0101960E94F205C816D90653
:1018400009F011CFE114F10459F4CA94CD2809F03C
:101850000ACF880C991CAA1CBB1C689480F80BC08A
:10186000EA94EF2809F0FFCECD2809F0FCCE880CD1
:10187000991CAA1CBB1C0F5F1F4FD0CE10932F02C8
:1018800000932E0280922A0290922B02A0922C02A8
:10189000B0922D0282E090E0E8CB12960D911C915F
:1018A0001397015111090D30110528F501E00E942F
:1018B000981221601496AE15BF0509F0F0CE209362
:1018C0002A0230932B0240932C0250932D0200E207
:1018D0000E94B3122093280230932902E5E0F0E041
:1018E000F0932702E093260220E330E030932F02AA
:1018F00020932E02BECB12960D911C91139704508B
:1019000011090530110508F0D3CE01E00E949812AC
:10191000D1CF84819581CA97899708F0FBCE9F012A
:101920002A5F3F4FC12CD12C760143E050E0EACE34
:101930009F012A583F4FD9012D913C912A503109DE
:101940002930310508F0E6CE2CE130E030932F024B
:1019500020932E02C0922A02D0922B02E0922C02F7
:10196000F0922D028AE090E080CBD90112966D9121
:101970007C911397665071096730710508F0CACEE3
:10198000CC0CDD1CEE1CFF1CB5CE20914803CF0112
:10199000820F911D820F911DDC0112978D919C91F8
:1019A0000A97099708F0C0CE10922F0210922E02CB
:1019B00040922A0250922B0260922C0270922D02C9
:1019C00086E090E047C2D90112966D917C91139701
:1019D000665171096131710578F5D701C601880F2B
:1019E000991FAA1FBB1F6C017D016894C0F84E5F50
:1019F0005F4F2C5F3F4F4332510509F0ADCE9F0141
:101A00002A5B3F4FD9012D913C912A503109293051
:101A1000310508F0AACE20E130E030932F02209368
:101A20002E02C0922A02D0922B02E0922C02F09257
:101A30002D0286E090E019CBD90112966D917C9130
:101A40001397665071096730710508F08ECECC0C83
:101A5000DD1CEE1CFF1CCBCF84819581895491093C
:101A6000C39708F097CE9F012A5F3F4FBF016A5787
:101A70007F4FC12CD12C7601D9014D915C914950F9
:101A8000510949305105B0F085CE8681978109977B
:101A9000099708F07ACE10922F0210922E024092EF
:101AA0002A0250922B0260922C0270922D0287E043
:101AB00090E0D0C1D90112964D915C911397465197
:101AC00051094131510510F112964D915C911397D6
:101AD000465051094730510508F05CCECC0CDD1C56
:101AE000EE1CFF1C2C5F3F4F6217730729F63092E4
:101AF0002F0220922E02C0922A02D0922B02E09254
:101B00002C02F0922D0287E090E0AFCAD701C60107
:101B1000880F991FAA1FBB1F6C017D016894C0F834
:101B2000E1CF848195810997099708F063CE86817A
:101B300097818C974F9708F05DCE80859185899726
:101B40004D9708F057CE9F01265F3F4FC12CD12CF7
:101B5000760145E050E046CE9F0126573F4FD90120
:101B60002D913C912C5031092B30310508F042CE9B
:101B700030922F0220922E02C0922A02D0922B0283
:101B8000E0922C02F0922D0288E090E06ECAD9011A
:101B900012966D917C9113976950710969307105A6
:101BA00008F028CECC0CDD1CEE1CFF1C13CE84816B
:101BB0009581825491098E9708F051C08F01045C81
:101BC0001F4F8DE190E020E030E04091480350E06D
:101BD0004450510984179507ACF4A80142505109AB
:101BE000DA014D915C91495051094830510510F18D
:101BF00036C0D8014D915C9148515109423151058F
:101C000058F1CB0101979595879590932F0280937A
:101C10002E028A9724F1C901330FAA0BBB0B8093C4
:101C20002A0290932B02A0932C02B0932D0289E0FC
:101C300090E01BCABC016F5F7F4FD8014D915C9152
:101C40004750510947305105A0F6220F331F21603C
:101C500002960C5F1F4FB9CF220F331FF9CF80912F
:101C600048038032E1F48281938106970697B8F4A5
:101C7000848195810997099790F49F012A5F3F4FCE
:101C8000BF01625C7F4FC12CD12C7601D9014D91EF
:101C90005C91465051094630510508F486C02091A8
:101CA0003202309133023FA32EA3263031050CF4CB
:101CB000B7CA8F010E5F1F4F95ECC92E9DE9D92E33
:101CC0009CE1E92E91E8F92E83E090E09DA38CA39E
:101CD000D80114966D917C911597AD90BC9080E0E1
:101CE00090E00E94E50F68A779A78AA79BA7B50196
:101CF00080E090E00E94E50F4B015C012DEC3CEC94
:101D00004CE45FE30E9446109B01AC0168A579A5F5
:101D10008AA59BA50E94E00F87FD19C02DEC3CEC25
:101D20004CE45FE368A579A58AA59BA50E944610AF
:101D30009B01AC01C501B4010E94E00FE82F880FA0
:101D4000FF0BEE27FF0FEE1FFF27319602C0E0E0EA
:101D5000F0E0A701960163E971E080E091E00E9464
:101D600004116F01FF0FEE08FF08C626D726E826EC
:101D7000F926ECA1FDA13196FDA3ECA30E5F1F4F48
:101D80002EA13FA1E217F30709F0A2CFC0922A02C9
:101D9000D0922B02E0922C02F0922D0230922F0270
:101DA00020922E028FEF9FEF60C9D90112964D91BC
:101DB0005C911397495151094331510508F5D701F9
:101DC000C601880F991FAA1FBB1F6C017D01689473
:101DD000C0F82C5F3F4F2617370709F057CF2EE08A
:101DE00030E030932F0220932E02C0922A02D0922C
:101DF0002B02E0922C02F0922D028FE090E035C988
:101E0000D90112964D915C9113974950510949306F
:101E1000510508F044CFCC0CDD1CEE1CFF1CD9CFC3
:101E200087EF91E00E947F0681E080931C0461E0CF
:101E300080911A040E94180268EB7BE080E090E039
:101E40000E94830210921C0460E080911A040E9498
:101E500018028DC99093270280932602E1C96DE292
:101E60008AE392E00E94F90019A281E388A3BE01EF
:101E7000605E7F4FCBC910923D0210923C0288EE0B
:101E800093E0A0E0B0E080933E0290933F02A093E5
:101E90004002B09341028CE291E090933B02809328
:101EA0003A0285EC90E0909347028093460284ECDE
:101EB00090E0909349028093480280EC90E09093E8
:101EC0004B0280934A0281EC90E090934D02809304
:101ED0004C0282EC90E090934F0280934E0286EC8D
:101EE00090E090935102809350021092530210920E
:101EF000540210925502109256021092DD02109276
:101F0000DE021092DF021092E0021092E1021092C3
:101F1000E2021092E3021092E4021092E5021092A3
:101F2000E6021092E7021092E8021092E902109283
:101F3000EA021092EB021092EC0289E090E090939A
:101F40001E0480931D0410921F0461E00E9447024A
:101F500060911F0480911D040E94180287E090E0A8
:101F600090931B0480931A0410921C0461E00E9459
:101F7000470260911C0480911A040E9418028BE0B1
:101F80008093450310924703809143038C30A0F463
:101F900091E0980F909343038093160490E0FC0126
:101FA000EE0FFF1F8E0F9F1FFC01E15EFC4F88EBC1
:101FB0009BE09283818308958FEF809316040895A8
:101FC0000E94221008F481E00895E89409C097FB6C
:101FD0003EF490958095709561957F4F8F4F9F4F00
:101FE0009923A9F0F92F96E9BB279395F695879544
:101FF00077956795B795F111F8CFFAF4BB0F11F407
:1020000060FF1BC06F5F7F4F8F4F9F4F16C08823AD
:1020100011F096E911C0772321F09EE8872F762FE3
:1020200005C0662371F096E8862F70E060E02AF024
:102030009A95660F771F881FDAF7880F9695879510
:1020400097F90895990F0008550FAA0BE0E8FEEFE5
:1020500016161706E807F907C0F012161306E4076C
:10206000F50798F0621B730B840B950B39F40A2665
:1020700061F0232B242B252B21F408950A2609F443
:10208000A140A6958FEF811D811D08950E945910D2
:102090000C94CA100E94BC1038F00E94C31020F0AB
:1020A000952311F00C94B3100C94B91011240C94D6
:1020B000FE100E94DB1070F3959FC1F3950F50E066
:1020C000551F629FF001729FBB27F00DB11D639FEA
:1020D000AA27F00DB11DAA1F649F6627B00DA11D90
:1020E000661F829F2227B00DA11D621F739FB00D36
:1020F000A11D621F839FA00D611D221F749F3327A6
:10210000A00D611D231F849F600D211D822F762F3E
:102110006A2F11249F5750409AF0F1F088234AF01B
:10212000EE0FFF1FBB1F661F771F881F9150504087
:10213000A9F79E3F510580F00C94B3100C94FE104B
:102140005F3FE4F3983ED4F3869577956795B7950E
:10215000F795E7959F5FC1F7FE2B880F911D969528
:10216000879597F9089597F99F6780E870E060E098
:1021700008959FEF80EC089500240A941616170620
:1021800018060906089500240A9412161306140668
:1021900005060895092E0394000C11F4882352F0CB
:1021A000BB0F40F4BF2B11F460FF04C06F5F7F4F83
:1021B0008F4F9F4F089557FD9058440F551F59F06A
:1021C0005F3F71F04795880F97FB991F61F09F3F24
:1021D00079F087950895121613061406551FF2CF4D
:1021E0004695F1DF08C0161617061806991FF1CF9D
:1021F00086957105610508940895E894BB276627C4
:102200007727CB0197F90895DB018F939F930E9465
:102210005511BF91AF91A29F800D911DA39F900D6D
:10222000B29F900D11240895A1E21A2EAA1BBB1B88
:10223000FD010DC0AA1FBB1FEE1FFF1FA217B30792
:10224000E407F50720F0A21BB30BE40BF50B661FA8
:10225000771F881F991F1A9469F76095709580956C
:1022600090959B01AC01BD01CF010895052E97FB10
:102270001EF400940E944D1157FD07D00E941411C6
:1022800007FC03D04EF40C944D11509540953095B9
:1022900021953F4F4F4F5F4F0895909580957095D2
:1022A00061957F4F8F4F9F4F08950E946811A59FA2
:1022B000900DB49F900DA49F800D911D1124089541
:1022C000B7FF0C9455110E945511821B930B089572
:1022D000A29FB001B39FC001A39F700D811D112467
:1022E000911DB29F700D811D1124911D08955058AC
:1022F000BB27AA270E948F110C94CA100E94BC1001
:1023000038F00E94C31020F039F49F3F19F426F4EE
:102310000C94B9100EF4E095E7FB0C94B310E92F80
:102320000E94DB1058F3BA176207730784079507FA
:1023300020F079F4A6F50C94FD100EF4E0950B2E28
:10234000BA2FA02D0B01B90190010C01CA01A00107
:102350001124FF27591B99F0593F50F4503E68F162
:102360001A16F040A22F232F342F4427585FF3CFA3
:10237000469537952795A795F0405395C9F77EF474
:102380001F16BA0B620B730B840BBAF09150A1F0BD
:10239000FF0FBB1F661F771F881FC2F70EC0BA0F43
:1023A000621F731F841F48F4879577956795B795CB
:1023B000F7959E3F08F0B0CF9395880F08F09927C6
:1023C000EE0F9795879508950E94F8110C94CA1006
:1023D0000E94C31058F00E94BC1040F029F45F3FE7
:1023E00029F00C94B31051110C94FE100C94B910F8
:1023F0000E94DB1068F39923B1F3552391F3951BE9
:10240000550BBB27AA2762177307840738F09F5F15
:102410005F4F220F331F441FAA1FA9F335D00E2E82
:102420003AF0E0E832D091505040E695001CCAF7EF
:102430002BD0FE2F29D0660F771F881FBB1F2617B2
:1024400037074807AB07B0E809F0BB0B802DBF0189
:10245000FF2793585F4F3AF09E3F510578F00C9458
:10246000B3100C94FE105F3FE4F3983ED4F38695CE
:1024700077956795B795F7959F5FC9F7880F911D79
:102480009695879597F90895E1E0660F771F881F65
:10249000BB1F621773078407BA0720F0621B730B18
:1024A000840BBA0BEE1F88F7E09508950E945D1229
:1024B0006894B1110C94FE1008950E94E31088F006
:1024C0009F5798F0B92F9927B751B0F0E1F0660FF8
:1024D000771F881F991F1AF0BA95C9F714C0B13039
:1024E00091F00E94FD10B1E008950C94FD10672F4B
:1024F000782F8827B85F39F0B93FCCF38695779568
:102500006795B395D9F73EF4909580957095619550
:102510007F4F8F4F9F4F0895991B79E004C0991FFB
:10252000961708F0961B881F7A95C9F7809508952D
:102530000F93083090F0982F872F762F652F542F08
:10254000432F322F22270850F4CF220F331F441F6E
:10255000551F661F771F881F991F0A95B2F70F91A5
:10256000089597FB10F8169400080F93083098F020
:102570000850232F342F452F562F672F782F892F60
:10258000902DF4CF059497958795779567955795F6
:102590004795379527950A95AAF70F910895EE0F5D
:1025A000FF1F0590F491E02D099481E090E0F894EC
:0825B0000C94DA12F894FFCF3D
:1025B8009768FF00CF30FF00E718FF00857AFF001B
:1025C800EF10FF00C738FF00A55AFF00BD42FF000B
:1025D800B54AFF00AD52FF0000000000F900E70413
:1025E80090004601C1009F00B300564D4450565F0D
:1025F800317C315F564D4450560D0A00EB8F84EC08
:1026080096B4EB9DBDEC9DB420ECB488EAB8B0ED6F
:10261800999420EB9090EC8AB5EB8B88EB8BA42EE9
:10262800002D2D2D2D2D2D2D2DEBB984EBB080EB0C
:10263800B288ED98B82034EC9E90EBA6ACEBA5BC24
:1026480020EC9E85EBA0A5ED9598EC8B9CEC98A4CE
:102658002E2D2D2D2D2D2D2D2D2D2D0020EC95944D
:10266800ED98B820EC9E90EBA6ACEC8898EAB08088
:1026780020EC9DBCECB998ED9598ECA78020EC95E2
:102688008AEC8AB5EB8B88EB8BA42E00EC9594ED45
:1026980098B8EAB08020EC9DBCECB998ED95A9EB10
:1026A8008B88EB8BA42E00EC9594ED98B8EAB0805B
:1026B80020EBB688EC9DBCECB998ED95A9EB8B881E
:0626C800EB8BA42E0000C4
:00000001FF
