:100000000C9463000C948B000C948B000C94D20322
:100010000C94D2030C94D2030C948B000C948B00A0
:100020000C948B000C948B000C948B000C948B0024
:100030000C948B000C948B000C948B000C948B0014
:100040000C9488030C948B000C946E020C94480260
:100050000C948B000C948B000C948B000C948B00F4
:100060000C948B000C948B000000000024002700EF
:100070002A0000000008000201000003040700003D
:1000800000000000000000000000230026002900FE
:1000900000000000250028002B00040404040404D0
:1000A0000404020202020202030303030303010227
:1000B00004081020408001020408102001020408F6
:1000C00010203409130911241FBECFEFD8E0DEBF82
:1000D000CDBF22E0AEE7B1E001C01D92A93EB2075C
:1000E000E1F711E0A0E0B1E0E2EFF9E102C0059034
:1000F0000D92AE37B107D9F710E0C2E6D0E004C0E8
:100100002197FE010E94E10AC136D107C9F70E947A
:10011000DE050C94EC0C0C9400000895FC01538D4A
:10012000448D252F30E0842F90E0821B930B5417D1
:1001300010F0CF96089501970895FC01918D828D5E
:10014000981761F0828DDF01A80FB11D5D968C912B
:10015000928D9F5F9F73928F90E008958FEF9FEF36
:100160000895FC01918D828D981731F0828DE80FF2
:10017000F11D858D90E008958FEF9FEF0895FC01AC
:10018000918D228D892F90E0805C9F4F821B910979
:100190008F73992708958FEC91E00E94BF0021E0B2
:1001A000892B09F420E0822F0895FC01848DDF0162
:1001B000A80FB11DA35ABF4F2C91848D90E00196DA
:1001C0008F739927848FA689B7892C93A089B189C9
:1001D0008C91837080648C93938D848D981306C06A
:1001E0000288F389E02D80818F7D80830895EF92CE
:1001F000FF920F931F93CF93DF93EC0181E0888FE1
:100200009B8D8C8D981305C0E889F989808185FDC7
:1002100026C0F62E0B8D10E00F5F1F4F0F731127B6
:10022000E02E8C8DE8120CC00FB607FCFACFE889DF
:10023000F989808185FFF5CFCE010E94D500F1CFED
:100240008B8DFE01E80FF11DE35AFF4FF0829FB73F
:10025000F8940B8FEA89FB89808180620AC09FB77E
:10026000F894EE89FF896083E889F9898081837039
:10027000806480839FBF81E090E0DF91CF911F91E8
:100280000F91FF90EF900895CF93DF93EC01888D4D
:100290008823C9F0EA89FB89808185FD05C0A8898A
:1002A000B9898C9186FD0FC00FB607FCF5CF808110
:1002B00085FFF2CFA889B9898C9185FFEDCFCE015A
:1002C0000E94D500E7CFDF91CF91089580E090E0C4
:1002D000892B29F00E94CB0081110C940000089515
:1002E0003FB7F8948091C3019091C401A091C501DA
:1002F000B091C60126B5A89B05C02F3F19F0019605
:10030000A11DB11D3FBFBA2FA92F982F8827820F9B
:10031000911DA11DB11DBC01CD0142E0660F771FEB
:10032000881F991F4A95D1F708952FB7F8946091C7
:10033000BF017091C0018091C1019091C2012FBF96
:1003400008952091CD013091CE012817390771F41D
:100350009091CB018091CC01981741F0E091CB01B5
:10036000F0E0E258FE4F808190E008958FEF9FEF1C
:1003700008951F93CF93DF93DC015C968D919C9140
:100380005D97009739F421E030E013963C932E936B
:1003900012973BC05196ED91FC91529750962C913B
:1003A0005097322F30951FB75E964C915E97742F01
:1003B000727041FD6095F8944081772311F0422BD3
:1003C00001C043234083EC012197F1F748E05081BD
:1003D00060FF02C0522B01C053235083EC012197D0
:1003E000F1F76695415099F78081772319F08323BF
:1003F000808302C0282B20831FBF5C968D919C9127
:100400005D970197F1F781E090E0DF91CF911F9127
:1004100008952091CD013091CE012817390771F44C
:100420008091CC012091CB0190E0805C9F4F821B9A
:10043000910960E470E00E94B90A089580E090E0BC
:1004400008952091CD013091CE0128173907B9F4D4
:100450009091CB018091CC01981789F0E091CB016C
:10046000F0E0E258FE4F80812091CB0130E02F5F19
:100470003F4F2F7333272093CB0190E008958FEFE8
:100480009FEF0895089580E090E008950E94CE0CBB
:100490001F920F920FB60F9211242F933F934F93F9
:1004A0005F936F937F938F939F93AF93BF93EF93DC
:1004B000FF938FEC91E00E94D500FF91EF91BF91E7
:1004C000AF919F918F917F916F915F914F913F91EC
:1004D0002F910F900FBE0F901F9018951F920F92A3
:1004E0000FB60F9211242F938F939F93EF93FF9347
:1004F000E091DF01F091E0018081E091E501F09170
:10050000E60182FD12C090818091E8018F5F8F73B8
:100510002091E901821751F0E091E801F0E0E15308
:10052000FE4F958F8093E80101C08081FF91EF918C
:100530009F918F912F910F900FBE0F901F90189544
:1005400090E0FC01EE58FF4F2491FC01E255FF4F73
:100550003491FC01E656FF4FE491EE2309F43CC0D0
:10056000222339F1233091F038F42130A9F02230E0
:1005700001F584B58F7D12C0273091F02830A1F0AD
:100580002430B9F4809180008F7D03C08091800079
:100590008F77809380000DC084B58F7784BD09C0AC
:1005A0008091B0008F7703C08091B0008F7D8093E1
:1005B000B000F0E0EE0FFF1FE057FF4FA591B491A0
:1005C0009FB7F894611104C08C913095382302C014
:1005D000EC913E2B3C939FBF0895CF93DF9390E027
:1005E000FC01E255FF4F2491FC01E656FF4F849138
:1005F000882361F190E0880F991FFC01E859FF4FB3
:10060000C591D491FC01E057FF4FA591B4916111C0
:1006100009C09FB7F8948881209582238883EC9144
:100620002E230BC0623061F49FB7F8948881322F7B
:10063000309583238883EC912E2B2C939FBF06C08B
:100640008FB7F894E8812E2B28838FBFDF91CF914D
:1006500008951F93CF93DF93182FEB0161E00E9461
:10066000ED02209711F460E004C0CF3FD10539F4CA
:1006700061E0812FDF91CF911F910C94A002E12FB7
:10068000F0E0EE58FF4FE491E330F9F048F4E13048
:10069000B9F0E230A1F584B5806284BDC8BD34C034
:1006A000E730E9F0E83019F1E43049F58091800055
:1006B000806280938000D0938B00C0938A0024C016
:1006C00084B5806884BDC7BD1FC0809180008068EC
:1006D00080938000D0938900C093880015C08091DA
:1006E000B00080688093B000C093B3000DC08091CB
:1006F000B00080628093B000C093B40005C0C038E1
:10070000D1050CF0B5CFAFCFDF91CF911F910895F8
:100710001F920F920FB60F9211242F933F938F9336
:100720009F93AF93BF938091BF019091C001A0911F
:10073000C101B091C2013091BE0123E0230F2D37DA
:1007400020F40196A11DB11D05C026E8230F0296D5
:10075000A11DB11D2093BE018093BF019093C001E4
:10076000A093C101B093C2018091C3019091C401D3
:10077000A091C501B091C6010196A11DB11D809344
:10078000C3019093C401A093C501B093C601BF916A
:10079000AF919F918F913F912F910F900FBE0F902E
:1007A0001F9018951F920F920FB60F9211242F933E
:1007B0003F934F935F936F937F938F939F93AF93E9
:1007C000BF93EF93FF93E091CD01F091CE0130976D
:1007D00009F451C0968DA685B785858591FF04C023
:1007E0009C91892329F447C09C91892309F043C037
:1007F000A389B4899C918589809589238C93868966
:1008000097890197F1F7608D718DA685B78555851C
:1008100038E020E0CB010197F1F7822F90E0959529
:100820008795282F4C91452309F02068315091F786
:10083000868D81FD20958091CC0190E001968F738B
:1008400099273091CB01381749F0A091CC01B0E045
:10085000A258BE4F2C938093CC0103C0868D81603B
:10086000868F828D938D0197F1F7A389B4899C912E
:100870008589892B8C93FF91EF91BF91AF919F91C7
:100880008F917F916F915F914F913F912F910F9039
:100890000FBE0F901F901895CF92DF92EF92FF92AC
:1008A0000F931F93CF93DF936C017A018B01C0E00C
:1008B000D0E0CE15DF0581F0D8016D918D01D60114
:1008C000ED91FC910190F081E02DC6010995892BF5
:1008D00011F02196EECF7E01C701DF91CF911F91DC
:1008E0000F91FF90EF90DF90CF900895CF93DF931B
:1008F000FC01138E128E118E108E178A168A8DE9C6
:1009000091E0958F848F9485963108F04EC02DEB41
:1009100030E0378B268B2BE931E0318F208F2CE2B2
:1009200031E0338F228F30916800983058F021E009
:100930009E3008F420E091E0892F01C0880F2A95AD
:10094000EAF701C084E0832B809368009485983097
:1009500038F09E3040F0963148F020E030E008C09A
:100960002DE630E005C02BE630E002C02CE630E09A
:10097000348B238B983030F481E001C0880F9A9536
:10098000EAF70EC0292F30E09E3018F428503109C4
:1009900002C02E50310981E001C0880F2A95EAF784
:1009A000858B848D958D0197F1F7828D938D892BA1
:1009B00021F1A091CD01B091CE01EA17FB07E9F03A
:1009C000109751F05396CD91DC915497988155969C
:1009D0008C91809589238883868D8E7F868F109257
:1009E000CC011092CB01F093CE01E093CD01A3890D
:1009F000B4899C918589892B8C93DF91CF9108953F
:100A0000FC0124813581232B31F421E0611571052E
:100A1000A1F0FB0108C0FC01808191816115710585
:100A200031F421E0FC018081882339F005C00E9467
:100A3000DC0C21E0892B09F020E0822F08950F9330
:100A40001F93CF93DF93EC0188819981009729F060
:100A50002A813B812617370788F48B016F5F7F4F10
:100A60000E94080C009761F0998388831B830A8396
:100A70002C813D81232B11F4FC01108281E001C007
:100A800080E0DF91CF911F910F9108950F931F93F5
:100A9000CF93DF93EC018B010E941F0528813981E0
:100AA00081110DC02115310519F0C9010E947F0B7C
:100AB000198218821D821C821B821A8207C01D8324
:100AC0000C836BE371E0C9010E94E50CCE01DF915C
:100AD000CF911F910F9108956115710579F0FB0178
:100AE00001900020E9F73197AF01461B570BDC015D
:100AF000ED91FC910280F381E02D099480E090E07B
:100B000008958F929F92AF92BF92EF92FF920F93B0
:100B10001F93CF93DF93CDB7DEB7A1970FB6F894AD
:100B2000DEBF0FBECDBF7C01FA01CB0119A222307E
:100B300008F42AE08E010F5D1F4F822E912CA12C0C
:100B4000B12CBF01A50194010E94600AF901CA01FC
:100B5000015011096A3014F4605D01C0695CD8016C
:100B60006C93232B242B252B61F7B801C7010E941E
:100B70006C05A1960FB6F894DEBF0FBECDBFDF9116
:100B8000CF911F910F91FF90EF90BF90AF909F90EA
:100B90008F9008950F931F93CF93DF93EC010E94E2
:100BA0006C058C0169E371E0CE010E946C05800F39
:100BB000911FDF91CF911F910F910895CF93DF93F4
:100BC000CDB7DEB728970FB6F894DEBF0FBECDBF06
:100BD000789484B5826084BD84B5816084BD85B518
:100BE000826085BD85B5816085BD80916E00816024
:100BF00080936E00109281008091810082608093CA
:100C000081008091810081608093810080918000CB
:100C10008160809380008091B10084608093B100F6
:100C20008091B00081608093B00080917A008460F0
:100C300080937A0080917A00826080937A0080911C
:100C40007A00816080937A0080917A008068809336
:100C50007A001092C1001092B0021092B10210926C
:100C6000B2021092B30210926E0210926F021092B2
:100C70007002109271020E9495016B017C014B0180
:100C80005C0128EB820E2BE0921EA11CB11C0E947D
:100C900095016C157D058E059F0528F08616970633
:100CA000A806B906A0F78FEC91E09093AF0280936D
:100CB000AE02E091DF01F091E00182E08083E091FB
:100CC000DB01F091DC011082E091DD01F091DE01A9
:100CD00080E180831092E701E091E301F091E4016B
:100CE00086E08083E091E101F091E2018081806102
:100CF0008083E091E101F091E2018081886080834E
:100D0000E091E101F091E201808180688083E091CF
:100D1000E101F091E20180818F7D80830E94950145
:100D200060936E0270936F028093700290937102D1
:100D30006AE271E08091AE029091AF020E946C0570
:100D40000E9495016B017C014B015C018AE0880ED9
:100D5000911CA11CB11C0E9495016C157D058E058E
:100D60009F0528F086169706A806B906A0F781E029
:100D70008093820284EB92E00E94760494EF892EA5
:100D800099249394A12CB12C0E949501672B682B78
:100D9000692B41F40E94950162307105810591052E
:100DA00008F409C10E9495010091C7011091C80182
:100DB0002091C9013091CA0160177107820793071A
:100DC00040F46093C7017093C8018093C901909368
:100DD000CA010091C7011091C8012091C901309149
:100DE000CA016B017C01C01AD10AE20AF30A970119
:100DF00086010A3F11052105310508F4DCC0609326
:100E0000C7017093C8018093C9019093CA01809271
:100E10007A0290927B02A0927C02B0927D021092A4
:100E20007E0210927F0210928002109281028091C5
:100E3000720290917302A0917402B0917502809336
:100E4000760290937702A0937802B09379020E9481
:100E50009501609372027093730280937402909371
:100E600075020E94950160936E0270936F028093E9
:100E70007002909371020E9495016B017C016CE3FA
:100E800071E08091AE029091AF020E946C052AE061
:100E900041E050E060E070E08091AE029091AF02DE
:100EA0000E94810563E471E08091AE029091AF02EF
:100EB0000E946C052AE0B701A6018091AE029091D4
:100EC000AF020E94810565E471E08091AE029091CD
:100ED000AF020E946C058091720290917302A09102
:100EE0007402B0917502B701A601481B590B6A0B39
:100EF0007B0B2AE08091AE029091AF020E948105A7
:100F000065E471E08091AE029091AF020E946C05A1
:100F10004091720250917302609174027091750257
:100F20008091760290917702A0917802B091790237
:100F3000481B590B6A0B7B0B2AE08091AE02909103
:100F4000AF020E94810567E471E08091AE0290914A
:100F5000AF020E946C050E949501AB01BC012AE022
:100F60008091AE029091AF020E94810569E471E028
:100F70008091AE029091AF020E94CA050E94950135
:100F80006B017C012B013C0122E0420E511C611CD3
:100F9000711C0E9495016C157D058E059F0508F05A
:100FA0003BC10E949501609372027093730280931B
:100FB0007402909375021A8219821C821B821E820F
:100FC0001D8260E070E0CE0101960E94460584EB30
:100FD00092E00E940902892B09F448C084EB92E058
:100FE0000E9421028D3009F441C08F8318860D8143
:100FF0001E810F5F1F4FB801CE0101960E941F0591
:10100000882369F029813A818D819E81BE01695FC3
:101010007F4F820F931F0E94E50C1E830D830E9459
:1010200070012B013C0185E0C82ED12CE12CF12C64
:101030000E947001DC01CB0184199509A609B7094A
:10104000883E9340A105B10598F381E0C81AD10804
:10105000E108F10828EE420E23E0521E611C711CCB
:10106000C114D104E104F10419F7B1CF6BE371E0CD
:10107000CE0101960E94000581112FC060E571E04C
:10108000CE0101960E940005882339F061E08DE0D1
:101090000E94A00263E571E00EC06AE571E0CE0136
:1010A00001960E940005882351F060E08DE00E94C7
:1010B000A0026EE571E084EB92E00E94CA054D81CA
:1010C0005E8169817A818FEC91E00E944C0469E332
:1010D00071E08FEC91E00E946C056BE371E0CE0152
:1010E00001960E940005811190C066E671E0CE0174
:1010F00001960E940005882369F060E08091D30288
:101100000E94A00261E08091D5020E94A0026FEFD0
:1011100070E023C069E671E0CE0101960E940005EF
:10112000882339F061E08091D3020E94A00260E040
:101130002DC06EE671E0CE0101960E940005882365
:10114000B9F061E08091D3020E94A00260E080913A
:10115000D5020E94A00262E370E08091D7020E9453
:10116000290360E08091D9020E94A00261E01EC0C4
:1011700063E771E0CE0101960E9400058823E9F043
:1011800060E08091D3020E94A00261E08091D502CC
:101190000E94A0026FEF70E08091D7020E942903A5
:1011A00061E08091D9020E94A00260E08091DB02A0
:1011B0000E94A0026FEF70E024C069E771E0CE01E9
:1011C00001960E940005882301F160E08091D3021E
:1011D0000E94A00260E08091D5020E94A00260E01F
:1011E00070E08091D7020E94290360E08091D902CB
:1011F0000E94A00260E08091DB020E94A00260E0F9
:1012000070E08091DD020E94290389819A810E9409
:101210007F0B0E946601B8CD461657066806790610
:1012200008F0B7CEBECE8CE191E09093B5028093EA
:10123000B4028091CD019091CE01845B924071F413
:10124000E091C702F091C80290818091C902809517
:10125000892380831092CE011092CD018091DF020C
:101260009091E0020C947F0BCF92DF92EF92FF926D
:101270001092D2011092D10198EEC92E93E0D92E8E
:10128000E12CF12CC092D301D092D401E092D5018F
:10129000F092D6018AE091E09093D0018093CF0143
:1012A00085EC90E09093DC018093DB0184EC90E08E
:1012B0009093DE018093DD0180EC90E09093E0015B
:1012C0008093DF0181EC90E09093E2018093E10153
:1012D00082EC90E09093E4018093E30186EC90E04F
:1012E0009093E6018093E5011092E8011092E901E4
:1012F0001092EA011092EB011092720210927302A6
:101300001092740210927502109276021092770277
:10131000109278021092790210927A0210927B0257
:1013200010927C0210927D0210927E0210927F0237
:1013300010928002109281021092E0021092DF025D
:101340001092E2021092E1021092E4021092E30283
:1013500060E070E08FED92E00E94460589E090E049
:101360009093D4028093D30288E090E09093D602C9
:101370008093D5028AE090E09093D8028093D702C0
:1013800087E090E09093DA028093D90286E090E0C3
:101390009093DC028093DB0285E090E09093DE0284
:1013A0008093DD0261E089E00E94ED0261E088E067
:1013B0000E94ED0261E08AE00E94ED0261E087E0B8
:1013C0000E94ED0261E086E00E94ED0261E085E0AE
:1013D0000E94ED021092B7021092B602C092B802BB
:1013E000D092B902E092BA02F092BB028CE191E095
:1013F0009093B5028093B4021092CB021092CA026D
:101400001092CD021092CC021092CF021092CE0216
:101410001092D1021092D0026091D2026E7F6D7F45
:101420006093D2026695617081E0682783E00E9434
:10143000A00261E083E00E94ED02E1EBF0E0E491C4
:10144000E093C402EDE9F0E0E491F0E0EE0FFF1F5D
:10145000E057FF4F859194919093C6028093C50207
:1014600060E082E00E94ED028091D20281FD04C022
:1014700061E082E00E94A00282E08093C002E0EB83
:10148000F0E0E491E093C102ECE9F0E0E491F0E0F7
:10149000EE0FFF1FEA57FF4F859194919093C3027F
:1014A0008093C2028CE191E09093B5028093B402E4
:1014B00084EB92E0FF90EF90DF90CF900C94760455
:1014C000A1E21A2EAA1BBB1BFD010DC0AA1FBB1F48
:1014D000EE1FFF1FA217B307E407F50720F0A21BBA
:1014E000B30BE40BF50B661F771F881F991F1A9427
:1014F00069F760957095809590959B01AC01BD0151
:10150000CF0108952F923F924F925F926F927F92F8
:101510008F929F92AF92BF92CF92DF92EF92FF9203
:101520000F931F93CF93DF93CDB7DEB7CA1BDB0BAF
:101530000FB6F894DEBF0FBECDBF09942A88398854
:1015400048885F846E847D848C849B84AA84B9845B
:10155000C884DF80EE80FD800C811B81AA81B98167
:10156000CE0FD11D0FB6F894DEBF0FBECDBFED017B
:10157000089597FB072E16F4009407D077FD09D045
:101580000E94CD0A07FC05D03EF4909581959F4FAF
:101590000895709561957F4F0895AA1BBB1B51E17B
:1015A00007C0AA1FBB1FA617B70710F0A61BB70BD3
:1015B000881F991F5A95A9F780959095BC01CD0178
:1015C0000895EE0FFF1F0590F491E02D09940F93FD
:1015D0001F93CF93DF938230910510F482E090E067
:1015E000E091E702F091E80220E030E0A0E0B0E016
:1015F000309719F1408151810281138148175907B1
:10160000C8F08417950769F4109731F012960C937F
:10161000129713961C9327C00093E7021093E802D9
:1016200022C02115310519F04217530718F49A0109
:10163000BD01EF01DF01F801DBCF21153105F9F024
:10164000281B390B2430310580F48A819B81611578
:10165000710521F0FB019383828304C09093E8021B
:101660008093E702FE01329644C0FE01E20FF31FB1
:101670008193919322503109398328833AC0209174
:10168000E5023091E602232B41F4209102013091D2
:1016900003013093E6022093E5022091000130918E
:1016A00001012115310541F42DB73EB740910401E8
:1016B00050910501241B350BE091E502F091E60203
:1016C000E217F307A0F42E1B3F0B2817390778F019
:1016D000AC014E5F5F4F2417350748F04E0F5F1F78
:1016E0005093E6024093E5028193919302C0E0E0BB
:1016F000F0E0CF01DF91CF911F910F910895CF932B
:10170000DF93009709F481C0FC01329713821282A3
:10171000A091E702B091E802109781F42081318115
:10172000820F931F2091E5023091E60228173907B6
:1017300051F5F093E602E093E50267C0ED0120E089
:1017400030E0CE17DF0740F44A815B819E014115EE
:101750005105F1F0EA01F5CFD383C2834081518175
:10176000840F951FC817D90759F488819981840F70
:10177000951F0296918380838A819B8193838283C4
:101780002115310529F4F093E802E093E7023DC00A
:10179000E901FB83EA8349915991C40FD51FEC17E6
:1017A000FD0761F480819181840F951F0296E90104
:1017B00099838883828193819B838A83E0E0F0E030
:1017C00012968D919C911397009719F0FD01DC0101
:1017D000F7CF8D919C9111979D012E5F3F4F820F06
:1017E000931F2091E5023091E6022817390769F42A
:1017F000309729F41092E8021092E70202C0138297
:101800001282B093E602A093E502DF91CF91089592
:10181000A0E0B0E0EEE0FCE00C94860AEC0100975A
:1018200021F4CB010E94E70AB4C0FC01E60FF71FC8
:101830009C0122503109E217F30708F4A8C0D9012E
:101840000D911C91119706171707B0F0053011057F
:1018500008F49BC0C80104978617970708F495C041
:1018600002501109061B170B019311936D937C9382
:10187000CF010E947F0B89C05B01A01AB10A4C0105
:10188000800E911EA091E702B091E802612C712CAC
:10189000E12CF12C109709F446C08D919C91119781
:1018A000A815B905B1F56C0142E0C40ED11CCA14EB
:1018B000DB0478F14C018A189B08640142E0C40EF5
:1018C000D11C1296BC9012971396AC91B5E0CB1632
:1018D000D10440F0B282A38391828082D9016D93BA
:1018E0007C9309C00E5F1F4F800F911FF9019183F8
:1018F0008083EB2DFA2FE114F10431F0D701139618
:10190000FC93EE93129741C0F093E802E093E70254
:101910003CC06816790608F43C017D0112960D90D2
:10192000BC91A02DB7CF8091E5029091E602881678
:101930009906E1F466167706C8F48091000190914B
:101940000101009741F48DB79EB740910401509179
:101950000501841B950BE817F907C8F4F093E6021C
:10196000E093E502F901718360830FC0CB010E940F
:10197000E70A7C01009759F0A801BE010E94D30C30
:10198000CE010E947F0BC70104C0CE0102C080E0DF
:1019900090E0CDB7DEB7EEE00C94A20A81E090E0D3
:1019A000F8940C94EC0CFB01DC0102C001900D9248
:1019B00041505040D8F70895FB01DC018D91019012
:1019C00080190110D9F3990B0895FB01DC010190F6
:1019D0000D920020E1F7089510E0C2E6D0E004C0C7
:1019E000FE010E94E10A2196C336D107C9F7F89497
:0219F000FFCF27
:1019F2000000E902800000000000F7004C048E00A5
:101A02004401BF009D00B10000000000B9014C0478
:101A120043028D0009022102A101564D4450565F36
:101A2200317C315F564D4450560D0A00564D44509C
:101A3200455F003A323A007C005F564D4450450003
:101A42006F6E004C4544204F4E006F6666004C4559
:101A520044204F464600676F006261636B006C650D
:0E1A620066740072696768740073746F7000B8
:00000001FF
