:100000000C94BA010C94E2010C94E2010C946B0C78
:100010000C946B0C0C946B0C0C94E2010C94E201AC
:100020000C94E2010C94E2010C94E2010C94E201C4
:100030000C94E2010C94E2010C94E2010C94E201B4
:100040000C94C2080C94E2010C94A5050C947F0555
:100050000C94E2010C94E2010C94E2010C94E20194
:100060000C94E2010C94E20125642E25642E256493
:100070002E25640044617461207061636B65742097
:1000800073656E64206572726F7220283229004495
:10009000617461207061636B65742073656E6420A8
:1000A0006572726F72202831290041542B434950E8
:1000B00053454E443D25642C2575004661696C65A9
:1000C0006420746F20777269746520746F20736F79
:1000D000636B65740041542B434950434C4F534567
:1000E0003D256400446973636F6E6E656374696E69
:1000F00067200041542B43495053544154555300F9
:100100002B4349505354415455533A25642C0045D0
:100110006E6420746167206E6F7420666F756E6404
:10012000004E6F2074616720666F756E64003E3EFE
:100130003E2054494D454F5554203E3E3E00000060
:100140000000240027002A0000000008000201002F
:1001500000030407000000000000000022002B4301
:10016000574A41503A220041542B43574A41503F8D
:100170000022002B43495041503A69703A22004115
:10018000542B43495041503F0022003A53544149B7
:10019000502C220041542B4349465352000D0A0073
:1001A0002C2D0041542B43574A41503F00436F6E62
:1001B0006E656374656420746F004661696C656484
:1001C00020636F6E6E656374696E6720746F0041A3
:1001D000542B43574A41505F4355523D22257322C9
:1001E0002C22257322000D0A005354415455533AD2
:1001F0000041542B434950535441545553000D0A68
:100200000053444B2076657273696F6E3A00415417
:100210002B474D520041542B4357444843503D31E6
:100220002C310041542B43574155544F434F4E4EB0
:100230003D300041542B43495044494E464F3D31D7
:100240000041542B4349504D55583D310041542BEA
:1002500043574D4F44453D310041544530004154D2
:100260002B52535400496E6974696C697A617469E0
:100270006F6E207375636365737366756C202D00F4
:100280005761726E696E673A20556E737570706F44
:1002900072746564206669726D776172650043618E
:1002A0006E6E6F7420696E697469616C697A65201D
:1002B000455350206D6F64756C6500415400496E64
:1002C000697469616C697A696E6720455350206D65
:1002D0006F64756C65000000000023002600290093
:1002E00000000000250028002B000404040404047E
:1002F00004040202020202020303030303030102D5
:1003000004081020408001020408102001020408A3
:1003100010204E6F20736F636B6574206176616986
:100320006C61626C650041542B43495053544152F7
:10033000543D25642C22544350222C222573222C18
:10034000257500436F6E6E656374696E6720746F08
:100350000054494D454F55543A0054616720434C71
:100360004F534544206E6F7420666F756E640000B5
:100370007D19611911241FBECFEFD8E0DEBFCDBFBC
:1003800025E0AEE0B3E001C01D92AF38B207E1F75F
:1003900013E0A0E0B1E0ECE4F1E402C005900D92BE
:1003A000AE30B107D9F711E0C9EBD1E004C0219715
:1003B000FE010E94111FC83BD107C9F70E943612E7
:1003C0000C9499200C940000FC01538D448D252F32
:1003D00030E0842F90E0821B930B541710F0CF96DF
:1003E000089501970895FC01918D828D981761F011
:1003F000828DDF01A80FB11D5D968C91928D9F5F5C
:100400009F73928F90E008958FEF9FEF0895FC0106
:10041000918D828D981731F0828DE80FF11D858DB9
:1004200090E008958FEF9FEF0895FC01918D228D4C
:10043000892F90E0805C9F4F821B91098F739927D1
:1004400008958AE893E00E94150221E0892B09F4BF
:1004500020E0822F0895FC01848DDF01A80FB11DDB
:10046000A35ABF4F2C91848D90E001968F739927EA
:10047000848FA689B7892C93A089B1898C918370C8
:1004800080648C93938D848D981306C00288F389C1
:10049000E02D80818F7D80830895EF92FF920F93EE
:1004A0001F93CF93DF93EC0181E0888F9B8D8C8D20
:1004B000981305C0E889F989808185FD26C0F62E4C
:1004C0000B8D10E00F5F1F4F0F731127E02E8C8DE7
:1004D000E8120CC00FB607FCFACFE889F9898081D1
:1004E00085FFF5CFCE010E942B02F1CF8B8DFE014F
:1004F000E80FF11DE35AFF4FF0829FB7F8940B8F7E
:10050000EA89FB89808180620AC09FB7F894EE89EE
:10051000FF896083E889F9898081837080648083A2
:100520009FBF81E090E0DF91CF911F910F91FF90ED
:10053000EF900895CF93DF93EC01888D8823C9F065
:10054000EA89FB89808185FD05C0A889B9898C91DC
:1005500086FD0FC00FB607FCF5CF808185FFF2CF77
:10056000A889B9898C9185FFEDCFCE010E942B021D
:10057000E7CFDF91CF91089580E090E0892B29F0BB
:100580000E94210281110C9400000895833081F0B3
:1005900028F4813099F08230A1F008958730A9F0D5
:1005A0008830B9F08430D1F4809180008F7D03C011
:1005B000809180008F7780938000089584B58F7735
:1005C00002C084B58F7D84BD08958091B0008F777F
:1005D00003C08091B0008F7D8093B00008953FB735
:1005E000F8948091530390915403A0915503B091D6
:1005F000560326B5A89B05C02F3F19F00196A11DF3
:10060000B11D3FBFBA2FA92F982F8827820F911DA8
:10061000A11DB11DBC01CD0142E0660F771F881FEF
:10062000991F4A95D1F7089521E0FC0184858F3FF9
:1006300009F420E0822F0895CF93DF93EC01E88145
:10064000F9810084F185E02DCE010995892B41F0D7
:10065000E881F9810284F385E02DCE010995EFCF81
:10066000DF91CF910895CF93DF931F92CDB7DEB77F
:100670006983DC01ED91FC910280F381E02D41E082
:1006800050E0BE016F5F7F4F09950F90DF91CF91D2
:10069000089520911C0530911D052817390771F424
:1006A0009091570380915803981741F0E0915703B8
:1006B000F0E0E25FFC4F808190E008958FEF9FEFC4
:1006C000089508951F93CF93DF93DC015C968D917D
:1006D0009C915D97009739F421E030E013963C93AC
:1006E0002E9312973BC05196ED91FC9152975096E4
:1006F0002C915097322F30951FB75E964C915E9794
:10070000742F727041FD6095F8944081772311F049
:10071000422B01C043234083EC012197F1F748E0CD
:10072000508160FF02C0522B01C053235083EC0163
:100730002197F1F76695415099F78081772319F059
:100740008323808302C0282B20831FBF5C968D915A
:100750009C915D970197F1F781E090E0DF91CF9157
:100760001F91089520911C0530911D052817390708
:1007700071F4809158032091570390E0805C9F4F63
:10078000821B910960E470E00E94E91E089580E0F8
:1007900090E0089520911C0530911D052817390718
:1007A000B9F49091570380915803981789F0E0911C
:1007B0005703F0E0E25FFC4F80812091570330E067
:1007C0002F5F3F4F2F7333272093570390E00895F7
:1007D0008FEF9FEF0895089580E090E008958F9245
:1007E0009F92AF92BF92CF92DF92EF92FF920F93C0
:1007F0001F93CF93DF937C01EB016C0182E0C80E65
:10080000D11C4701E5E08E0E911C00E010E0F601DE
:1008100041916F0150E060E070E02AE0CE010E945B
:1008200064105C01E881F9810190F081E02D6EE2B5
:10083000CE0109958A0D9B1D080F191F8C149D046C
:1008400031F7F701458150E060E070E02AE0CE0129
:100850000E946410800F911FDF91CF911F910F9123
:10086000FF90EF90DF90CF90BF90AF909F908F90D0
:1008700008950E9438200F931F93CF93DF9300D0E9
:10088000CDB7DEB78C01DC01ED91FC910084F185E0
:10089000E02D0995892B29F11A82F8018485909120
:1008A0008205891309C09E012E5F3F4F41E0BE01C2
:1008B0006F5F7F4F0E94ED108A81882379F0D80105
:1008C0001C96EC911C97F0E0EE0FFF1FEA5EFE4FC6
:1008D0008FEF9FEF918380831C968C93898190E0AA
:1008E00002C08FEF9FEF0F900F90DF91CF911F917C
:1008F0000F9108950F931F93CF93DF9300D0CDB73F
:10090000DEB78C01DC01ED91FC910084F185E02DD6
:100910000995892B29F11A82F80184859091820525
:10092000891309C09E012E5F3F4F40E0BE016F5FFB
:100930007F4F0E94ED108A81882379F0D8011C96A0
:10094000EC911C97F0E0EE0FFF1FEA5EFE4F8FEF79
:100950009FEF918380831C968C93898190E002C0E5
:100960008FEF9FEF0F900F90DF91CF911F910F911D
:100970000895CF92DF92EF92FF920F931F93CF9340
:10098000DF93CDB7DEB760970FB6F894DEBF0FBE2A
:10099000CDBF7C01FB016A0185811F928F93848109
:1009A0001F928F9383811F928F9382811F928F93C7
:1009B00088E690E09F938F938E010F5F1F4F1F93E8
:1009C0000F930E94971BA601B801C7010E94C8118E
:1009D0000FB6F894DEBF0FBECDBF60960FB6F89489
:1009E000DEBF0FBECDBFDF91CF911F910F91FF9062
:1009F000EF90DF90CF9008950C94C811EF92FF9282
:100A00000F931F93CF93DF93CDB7DEB72A970FB61F
:100A1000F894DEBF0FBECDBFE5E5F1E08491EBE0D9
:100A2000F3E00491E7EFF2E014911123A1F08111BA
:100A30000E94C602E12FF0E0EE0FFF1FEA52FD4FC9
:100A4000A591B491EC91E02331E020E009F430E08D
:100A5000832F922F02C080E090E021E082279F93B5
:100A60008F938DE991E09F938F93CE0101967C0146
:100A70009F938F930E946E20F70101900020E9F769
:100A800031978F010E191F090E946E0D0F900F9064
:100A90000F900F900F900F90882321F1C8014A9674
:100AA00081389105F8F445E050E061E874E080EAAF
:100AB00091E00E94E50CDC01AF57BB4FF7019F01AD
:100AC0002E193F092017310718F421912D93F7CFE4
:100AD00005501109A801480F591F61E874E080E32F
:100AE0000E94050D2A960FB6F894DEBF0FBECDBF4B
:100AF000DF91CF911F910F91FF90EF9008951F927A
:100B00000F920FB60F9211242F933F934F935F9341
:100B10006F937F938F939F93AF93BF93EF93FF93C5
:100B20008AE893E00E942B02FF91EF91BF91AF9171
:100B30009F918F917F916F915F914F913F912F91F5
:100B40000F900FBE0F901F9018951F920F920FB627
:100B50000F9211242F938F939F93EF93FF93E09124
:100B60009A03F0919B038081E091A003F091A1038F
:100B700082FD12C090818091A3038F5F8F732091BB
:100B8000A403821751F0E091A303F0E0E657FC4F75
:100B9000958F8093A30301C08081FF91EF919F9176
:100BA0008F912F910F900FBE0F901F9018951F934C
:100BB000CF93DF93282F30E0F901E85BFE4F84915B
:100BC000F901E250FD4FD491F901E651FD4FC49176
:100BD000CC23C1F0162F81110E94C602EC2FF0E049
:100BE000EE0FFF1FE052FD4FA591B4919FB7F8940F
:100BF000111104C08C91D095D82302C0EC91DE2B4A
:100C0000DC939FBFDF91CF911F9108950F931F93A6
:100C1000CF93DF938C01EB01FB01E40FF51F1082F2
:100C200084EB91E00E945620892B11F461E001C011
:100C300060E08DE00E94D705B8018AE893E00E9449
:100C4000EB1066EB71E08AE893E00E94EB10BE01C6
:100C50008AE893E0DF91CF911F910F910C94AD1032
:100C6000CF93DF9390E0FC01E250FD4F2491FC0113
:100C7000E651FD4F8491882361F190E0880F991F20
:100C8000FC01E25CFE4FC591D491FC01E052FD4FA6
:100C9000A591B491611109C09FB7F89488812095FE
:100CA00082238883EC912E230BC0623061F49FB7BE
:100CB000F8948881322F309583238883EC912E2BF2
:100CC0002C939FBF06C08FB7F894E8812E2B288302
:100CD0008FBFDF91CF9108958F929F92AF92BF9275
:100CE000CF92DF92EF92FF926B017C010E94EF02A4
:100CF0004B015C01C114D104E104F104F1F00E9444
:100D0000EF02DC01CB0188199909AA09BB09883EC9
:100D10009340A105B10570F321E0C21AD108E108A2
:100D2000F10888EE880E83E0981EA11CB11CC11446
:100D3000D104E104F10419F7DDCFFF90EF90DF90CB
:100D4000CF90BF90AF909F908F9008952FB7F89459
:100D500060914F0370915003809151039091520321
:100D60002FBF0895EF92FF920F931F93CF93DF93BE
:100D7000EC018B017A010E94A606FE01E857FF4FA5
:100D800060837183828393838C819D81DC01ED91EB
:100D9000FC910280F381E02DA701B801DF91CF9192
:100DA0001F910F91FF90EF9009941F93CF93DF93C2
:100DB000EC01162F0E94A606FE01E857FF4F608344
:100DC0007183828393838C819D81DC01ED91FC9101
:100DD0000190F081E02D612FDF91CF911F91099457
:100DE0008F929F92AF92BF92CF92DF92EF92FF923B
:100DF0000F931F93CF93DF93409183055091840508
:100E0000609185057091860514161506160617065D
:100E100044F490918205981711F0911102C0CA0113
:100E200021C1F82E8091870590918805DC01ED9114
:100E3000FC910084F185E02D0995892B19F480E05F
:100E400090E010C10091870510918805C0E0D0E0C6
:100E50000E94A606F8016087718782879387D80170
:100E6000ED91FC910284F385E02DC801099597FF6F
:100E700019C00E94A606F80180849184A284B384DC
:100E8000DC01CB0188199909AA09BB0984809580E6
:100E9000A680B78088159905AA05BB0500F38FEFDA
:100EA0009FEF11C0FE01E654FE4F2081022E000C80
:100EB000330B2817390709F0A0C02196C530D1059A
:100EC00039F680E090E0892B09F0B9CF8091870551
:100ED000909188050E94BF0F6093820580918705DD
:100EE00090918805DC01ED91FC910284F385E02D61
:100EF000099580918705909188050E94BF0F6093A6
:100F00008305709384058093850590938605809171
:100F1000870590918805DC01ED91FC910284F385B1
:100F2000E02D099580918705909188050E94BF0F5B
:100F30008091870590918805DC01ED91FC910284F8
:100F4000F385E02D099580918705909188050E9491
:100F5000BF0F8091870590918805DC01ED91FC9190
:100F60000284F385E02D099580918705909188058D
:100F70000E94BF0F8091870590918805DC01ED915B
:100F8000FC910284F385E02D09958091870590916D
:100F900088050E94BF0F8091870590918805DC012C
:100FA000ED91FC910284F385E02D099580918705F0
:100FB00090918805DC01ED91FC910284F385E02D90
:100FC000099580918705909188050E94BF0F8091B7
:100FD000870590918805DC01ED91FC910284F385F1
:100FE000E02D099580918205F81611F0F11027CFB8
:100FF000809183059091840535C0209709F428CF0E
:101000004F016BEB71E09E0121503109D4014E91EB
:101010004D01042E000C550B84179507F9F421158A
:10102000310509F415CF4AEBC42E41E0D42EDB0183
:1010300040E050E0F601B1906F01ED90BE1441F038
:101040004217530709F404CF6F5F7F4FE901DBCFED
:101050004F5F5F4F4217530768F3F2CF21153105F9
:1010600099F7F4CEDF91CF911F910F91FF90EF9000
:10107000DF90CF90BF90AF909F908F900895FC012C
:1010800084858F3F21F00E94F00697FF02C080E028
:1010900090E008958F929F92AF92BF92EF92FF924D
:1010A0000F931F93CF93DF93EC017B018A01E881BB
:1010B000F9810084F185E02D0995892B19F48FEFD2
:1010C0009FEF55C09C8580918205981338C0809110
:1010D000830590918405A0918505B0918605A801AE
:1010E00060E070E084179507A607B7070CF48C0141
:1010F000E701E00EF11ECE15DF05F9F00E94A6060D
:101100004B015C018091870590918805DC01ED9190
:10111000FC910284F385E02D099597FF13C00E948E
:10112000A606DC01CB0188199909AA09BB09883EEA
:101130009340A105B10530F3C2CFC80118C080E0CB
:1011400090E015C089938091830590918405A091CA
:101150008505B09186050197A109B10980938305A2
:1011600090938405A0938505B0938605C4CFDF9145
:10117000CF911F910F91FF90EF90BF90AF909F90F4
:101180008F9008951F920F920FB60F9211242F93F4
:101190003F938F939F93AF93BF9380914F03909111
:1011A0005003A0915103B091520330914E0323E0BC
:1011B000230F2D3720F40196A11DB11D05C026E88F
:1011C000230F0296A11DB11D20934E0380934F0360
:1011D00090935003A0935103B09352038091530313
:1011E00090915403A0915503B09156030196A11D0F
:1011F000B11D8093530390935403A0935503B09370
:101200005603BF91AF919F918F913F912F910F9076
:101210000FBE0F901F9018958091870590918805BB
:10122000DC01ED91FC910084F185E02D0995181603
:10123000190664F48091870590918805DC01ED9191
:10124000FC910284F385E02D0995E6CF08953F9245
:101250004F925F926F927F928F929F92AF92BF92C6
:10126000CF92DF92EF92FF920F931F93CF93DF9372
:101270006C012B01342E80913F0590914005909395
:101280004405809343050E94A6064B015C01662439
:101290006A94762C0D2C000CEE08FF080E94A6061E
:1012A000DC01CB0188199909AA09BB098C159D0598
:1012B000AE05BF0508F05BC08FEF6816780609F031
:1012C00056C08091870590918805DC01ED91FC91D5
:1012D0000084F185E02D0995892B01F38091870524
:1012E00090918805DC01ED91FC910284F385E02D5D
:1012F0000995E0914305F091440580838091430571
:101300009091440501969093440580934305209164
:101310004105309142058217930740F080913F05C7
:1013200090914005909344058093430541145104E6
:1013300041F0C2010E948B0F882319F085E0682ECE
:10134000712C332009F4AACF04E211E0C0E0D0E010
:10135000F801819191918F010E948B0F882311F0E8
:101360003E019CCF2196C530D10591F797CF0E94C1
:10137000A606DC01CB0188199909AA09BB098C15BD
:101380009D05AE05BF0560F060EC71E08AE893E072
:101390000E94EB106EE271E08AE893E00E94C110B7
:1013A000C301DF91CF911F910F91FF90EF90DF90DC
:1013B000CF90BF90AF909F908F907F906F905F90F5
:1013C0004F903F900895AF92BF92CF92DF92EF92ED
:1013D000FF920F931F93CF93DF935C016B017A0110
:1013E000E901188281E00E940C09B501809187050E
:1013F000909188050E94C11041E0B60188EE93E00B
:101400000E9427098530910509F049C080913F0568
:1014100090914005909344058093430540913D058C
:1014200050913E054F5F5F4F60E070E00E944F209B
:1014300041E0B70184EF91E00E942709059731F55B
:10144000A80141505109F70101900020E9F73197B7
:10145000EE19FF0960913F057091400580914305A9
:1014600090914405861B970B8E1B9F0B48175907BD
:1014700008F0AC01CE010E945F2041E060E070E026
:1014800080ED97E00E94270981E018C060EC71E0D0
:101490008AE893E00E94EB106FE071E00AC00597C4
:1014A00060F060EC71E08AE893E00E94EB1061E28A
:1014B00071E08AE893E00E94C11080E0DF91CF9153
:1014C0001F910F91FF90EF90DF90CF90BF90AF9062
:1014D0000895CF92DF92EF92FF920F931F93CF93D5
:1014E000DF93CDB7DEB76E970FB6F894DEBF0FBEB1
:1014F000CDBFFC0184858F3FD1F17F010E94F006B2
:10150000892B11F094E034C0D7011C968C911F9266
:101510008F9380E091E09F938F93FE0131966F014E
:10152000FF93EF930E94971B0AE010E09E012B5E51
:101530003F4F4EEB51E0B60183EF90E00E94E3098C
:101540000F900F900F900F900F900F908111DACFA6
:10155000D7011C96EC911C97F0E0EE0FFF1FEA5E9E
:10156000FE4F8FEF9FEF918380831C968C9390E0CA
:1015700081E0943009F080E06E960FB6F894DEBFFB
:101580000FBECDBFDF91CF911F910F91FF90EF90D4
:10159000DF90CF900895AF92BF92CF92DF92EF92FB
:1015A000FF920F931F93CF93DF93CDB7DEB764976E
:1015B0000FB6F894DEBF0FBECDBFDC011C962C9198
:1015C000243018F44115510531F421E030E0FC01DC
:1015D000338322838AC08A016B017C011F934F935E
:1015E0001F922F938AEA90E09F938F939E012F5F23
:1015F0003F4F59013F932F930E94971BB501809154
:101600008705909188050E94AD1040E06BEC71E079
:1016100088EE93E00E9427090FB6F894DEBF0FBE54
:10162000CDBF059749F060EC71E08AE893E00E9435
:10163000EB106FE870E01FC08091870590918805DE
:10164000DC01ED91FC910280F381E02DA801B6014F
:10165000099541E060E070E080ED97E00E94270985
:10166000039709F445C060EC71E08AE893E00E94BA
:10167000EB1064E770E08AE893E00E94C11081E01B
:1016800090E0F7019383828360EC71E08AE893E055
:101690000E94EB106BEB70E08AE893E00E942B1045
:1016A00068EB71E08AE893E00E94EB10D7011C968A
:1016B0004C9150E060E070E02AE08AE893E00E94FC
:1016C00064106BE073E08AE893E00E944F1060EAD8
:1016D0007FE080E090E00E946C06D701ED91FC91E4
:1016E0000488F589E02DC701099580E090E001C0EC
:1016F000C80164960FB6F894DEBF0FBECDBFDF9170
:10170000CF911F910F91FF90EF90DF90CF90BF90FE
:10171000AF900895CF93DF93CDB7DEB7C85CD10902
:101720000FB6F894DEBF0FBECDBF9E012F523F4FC4
:10173000C353DF4F48815981CD5CD04068EC70E0E5
:10174000CE0101960E94B91B81E00E940C09BE01E6
:101750006F5F7F4F80918705909188050E94AD1043
:1017600041E060E070E0C153DF4F88819981CF5C38
:10177000D0400E942709C853DF4F0FB6F894DEBF50
:101780000FBECDBFDF91CF910895CF93DF93FC01C2
:1017900024852F3F09F440C0EC0160EC71E08AE839
:1017A00093E00E94EB1064EE70E08AE893E00E9400
:1017B0002B1068EB71E08AE893E00E94EB104C85F7
:1017C00050E060E070E02AE08AE893E00E94641054
:1017D0006BE073E08AE893E00E944F108C851F92C3
:1017E0008F938FE08F9380EA8F9385ED90E09F93A6
:1017F0008F930E948A0BEC85F0E0EE0FFF1FEA5EEC
:10180000FE4F8FEF9FEF918380838C870F900F9017
:101810000F900F900F900F90DF91CF9108954F92FE
:101820005F926F927F928F929F92AF92BF92CF9270
:10183000DF92EF92FF920F931F93CF93DF93CDB779
:10184000DEB74C016B015A0139014DB65EB6CB01D2
:101850000E945A1B01962DB73EB7281B390B0FB6B5
:10186000F8943EBF0FBE2DBF8DB79EB701967C0189
:10187000B6010E94531BC5010E945A1B01962DB749
:101880003EB7281B390B0FB6F8943EBF0FBE2DBFD5
:101890008DB79EB701966C01B5010E94531B930151
:1018A000A601B701C4010E94E3090FB6F8945EBE19
:1018B0000FBE4DBEDF91CF911F910F91FF90EF9022
:1018C000DF90CF90BF90AF909F908F907F906F9060
:1018D0005F904F9008951F920F920FB60F921124B0
:1018E0002F933F934F935F936F937F938F939F9328
:1018F000AF93BF93EF93FF93E0911C05F0911D050B
:10190000309709F451C0968DA685B785858591FFDE
:1019100004C09C91892329F447C09C91892309F034
:1019200043C0A389B4899C918589809589238C9330
:10193000868997890197F1F7608D718DA685B785A6
:10194000558538E020E0CB010197F1F7822F90E038
:1019500095958795282F4C91452309F020683150A3
:1019600091F7868D81FD20958091580390E0019636
:101970008F73992730915703381749F0A091580376
:10198000B0E0A25FBC4F2C938093580303C0868DB8
:101990008160868F828D938D0197F1F7A389B48939
:1019A0009C918589892B8C93FF91EF91BF91AF9189
:1019B0009F918F917F916F915F914F913F912F9167
:1019C0000F900FBE0F901F901895CF93DF93EC01EF
:1019D000FA013296E60FF71FDC01AD014C1B5D0BDF
:1019E000CF01861B970B2D91222311F02193F5CF68
:1019F0009C01241B350B620F731FFB013297508330
:101A000031964083DF91CF910895EF92FF920F932B
:101A10001F93CF93DF9300D000D0CDB7DEB77B010B
:101A2000BA0130E0962F9F77660F672F661F770BFE
:101A300071956115710509F0906821E0230FE1E0CF
:101A4000F0E0EC0FFD1FE30FF11D908361157105B0
:101A500011F0322FE7CF30E0B701621B730B6C5FE0
:101A60007F4FDB018C93DE011196F701E21BF30B34
:101A7000359685E0E80EF11CEE16FF0619F08D9103
:101A80008193FACF80917F04909180042F5F3F4F24
:101A90008901040F151FDC01ED91FC910280F38197
:101AA000E02DA80109957C010E94A606609303051C
:101AB00070930405809305059093060581E00E154B
:101AC0001F0509F080E00F900F900F900F90DF91AD
:101AD000CF911F910F91FF90EF900895CF93809138
:101AE0007F0490918004009771F1DC01ED91FC91ED
:101AF0000688F789E02D0995C1E0811125C0C0E075
:101B000080911A0590911B05892BF1F48DEF9FEFC1
:101B100090931B0580931A0580917F049091800417
:101B2000DC01ED91FC910680F781E02D0995809113
:101B30007F0490918004DC01ED91FC910488F5898B
:101B4000E02D099501C0C0E08C2FCF910895EAE8FF
:101B5000F3E0A089B18982E08C93A485B5851C92BD
:101B6000A685B7858FEC8C93108EA489B58986E005
:101B70008C93A289B3898C9180618C93A289B3895B
:101B80008C9188608C93A289B3898C9180688C93A6
:101B90000288F389E02D80818F7D80830895CF9224
:101BA000DF92EF92FF92CF93DF93AB01BC0177FFFF
:101BB0001DC06A017B016DE28AE893E00E944D023C
:101BC000EC0144275527BA014C195D096E097F09BC
:101BD0002AE08AE893E00E9464108C0F9D1FDF9139
:101BE000CF91FF90EF90DF90CF9008952AE08AE8A0
:101BF00093E0DF91CF91FF90EF90DF90CF900C9426
:101C00006410CF92DF92EF92FF920F931F93CF93C6
:101C1000DF936C017A018B01C0E0D0E0CE15DF05C7
:101C200081F0D8016D918D01D601ED91FC9101906B
:101C3000F081E02DC6010995892B11F02196EECF98
:101C40007E01C701DF91CF911F910F91FF90EF901F
:101C5000DF90CF900895CF92DF92EF92FF92CF93D3
:101C6000DF93EC010E94A6066B017C0180917F044A
:101C700090918004DC01ED91FC910084F185E02DD0
:101C80000995892B79F40E94A606DC01CB018C19F9
:101C90009D09AE09BF0988399A43A105B10530F302
:101CA00080E00DC080917F0490918004DC01ED9173
:101CB000FC910284F385E02D0995888381E0DF9112
:101CC000CF91FF90EF90DF90CF9008950F931F93E7
:101CD000CF93DF93EC010E94A606688779878A87F5
:101CE0009B87E881F9810484F585E02DCE01099573
:101CF00097FF17C00E94A606088519852A853B858F
:101D0000DC01CB01801B910BA20BB30B0C811D815D
:101D10002E813F8180179107A207B30710F38FEF41
:101D20009FEFDF91CF911F910F9108954F925F9296
:101D30006F927F928F929F92AF92BF92CF92DF92DB
:101D4000EF92FF920F931F93CF93DF9300D0CDB705
:101D5000DEB75C0181E894E00E942B0E81113AC04D
:101D600036C08C01CE0101960E942B0E882379F19A
:101D7000C80101962981F70121937F01422F4F77F6
:101D800050E0449DB001459D700D549D700D11248F
:101D9000C60ED71E47E0440C551C661C771C4A959E
:101DA000D1F727FF27C085309105D9F68FEF9FEF38
:101DB00090931B0580931A0580917F049091800475
:101DC000DC01ED91FC910488F589E02D099580E016
:101DD00090E08EC090908104198282E8E82E84E021
:101DE000F82E01E010E0C12CD12C412C512C3201F5
:101DF0004394B8CFF92DF07FFA832FEF280FD50148
:101E00002C93F03319F58F579B4F0E942B0E88238C
:101E1000F1F2C8018D579B4F0E942B0E8823B9F217
:101E2000C8010396D501EC91F0E0E558FB4FE7803F
:101E3000F12CFE2CEE242085E20EF11C2091810471
:101E400021FF08C0B2E0EB0EF11C04C020E0E12C41
:101E5000F12C01C022E0422E512CFC01E558FB4F31
:101E60004F018C01481A590A2EEF622E77247A947A
:101E7000C801840D951D8C159D0578F5CE01019640
:101E80000E942B0E882309F4A2CF8091180590910F
:101E900019050097B1F0FA81F03399F4D5012C912E
:101EA000F301E21BF1099F01200F311FE216F30637
:101EB00040F4DC01ED91FC910190F081E02D69810D
:101EC00009950038110518F48981F40186830F5FA4
:101ED0001F4FFFEF8F1A9F0ACBCF8091180590916B
:101EE0001905892B21F40138110508F070CFC801BC
:101EF0000F900F90DF91CF911F910F91FF90EF9076
:101F0000DF90CF90BF90AF909F908F907F906F9019
:101F10005F904F900895FC0101900020E9F7319700
:101F20009F01281B390BE0914305F0914405E21B0A
:101F3000F30B40913F0550914005E417F50730F44D
:101F400060913D0570913E05E60FF71F280F391F80
:101F50006091410570914205DC018217930758F4A6
:101F60000196BC91A081BA1308C03196E617F70715
:101F700099F7FA01F1CF81E0089580E00895CF92BA
:101F8000DF92EF92FF921F93CF93DF93EC01CE018C
:101F90000E94660EFC0197FD0EC08D32910579F00E
:101FA000C0970A9760F0E881F9810284F385E02DFB
:101FB000CE010995ECCF60E070E0CB0144C0C12CAC
:101FC000D12C760110E0E130F10501F1ED32F1059F
:101FD000E1F0CF01C0970A97C8F4AAE0B0E0A701EA
:101FE00096010E94981E6F01FF0FEE08FF08DC01AA
:101FF000CB018C0D9D1DAE1DBF1D6C017D0120E32D
:10200000C21AD108E108F10801C011E0E881F981A4
:102010000284F385E02DCE010995CE010E94660E63
:10202000FC01C0970A9778F2E130F10561F21123C3
:1020300041F066277727CB016C197D098E099F092E
:1020400002C0C701B601DF91CF911F91FF90EF90C1
:10205000DF90CF900895EF92FF920F931F93CF934D
:10206000DF938C017B01C0E0D0E0F701EC0FFD1F96
:102070006491662361F0D801ED91FC910190F081AB
:10208000E02DC8010995892B11F02196EECFCE01E4
:10209000DF91CF911F910F91FF90EF9008956115FF
:1020A000710579F0FB0101900020E9F73197AF014C
:1020B000461B570BDC01ED91FC910280F381E02D72
:1020C000099480E090E008958F929F92AF92BF9222
:1020D000EF92FF920F931F93CF93DF93CDB7DEB7AD
:1020E000A1970FB6F894DEBF0FBECDBF7C01FA01F9
:1020F000CB0119A2223008F42AE08E010F5D1F4F98
:10210000822E912CA12CB12CBF01A50194010E941B
:10211000761EF901CA01015011096A3014F4605D9C
:1021200001C0695CD8016C93232B242B252B61F70C
:10213000B801C7010E944F10A1960FB6F894DEBFF8
:102140000FBECDBFDF91CF911F910F91FF90EF9008
:10215000BF90AF909F908F9008950F931F93CF9350
:10216000DF93EC010E944F108C016BE073E0CE0115
:102170000E944F10800F911FDF91CF911F910F91FF
:1021800008950F931F93CF93DF93EC010E942B10C0
:102190008C016BE073E0CE010E944F10800F911F05
:1021A000DF91CF911F910F910895CF93DF93EC01B1
:1021B00081E00E940C09BE018091870590918805FD
:1021C0000E94C11041E060E070E088EE93E0DF9192
:1021D000CF910C9427090C944F108F929F92AF923D
:1021E000BF92EF92FF920F931F93CF93DF93C82F6D
:1021F0008B01D42F79010E94A6064B015C018091CE
:10220000870590918805DC01ED91FC910084F185B2
:10221000E02D0995892B09F473C080918705909171
:102220008805DC01ED91FC91DD2339F00484F5850E
:10223000E02D0995F801808319C00284F385E02D13
:102240000995F80180838091830590918405A09180
:102250008505B09186050197A109B1098093830591
:1022600090938405A0938505B0938605809183059E
:1022700090918405A0918505B0918605892B8A2BC4
:102280008B2B11F081E079C065E070E080E090E098
:102290000E946C068091870590918805DC01ED9184
:1022A000FC910084F185E02D0995892B59F38091EB
:1022B000870590918805DC01ED91FC910484F585FA
:1022C000E02D0995D0E0E0968C179D07D9F640E007
:1022D00064E073E084EF91E00E942709059761F0C4
:1022E00060EC71E08AE893E00E94EB106AE573E02D
:1022F0008AE893E00E94C11081E0F70180833DC02D
:102300000E94A606DC01CB0188199909AA09BB091C
:10231000803D9740A105B10508F471CF60EC71E0F4
:102320008AE893E00E94EB1061E573E08AE893E0AD
:102330000E942B1068EB71E08AE893E00E94EB109A
:102340006091830570918405809185059091860543
:102350000E94CF0D6BE073E08AE893E00E944F107B
:1023600010928305109284051092850510928605BF
:1023700010928205D8011C9280E0DF91CF911F91CD
:102380000F91FF90EF90BF90AF909F908F90089526
:10239000EF92FF920F931F93CF93DF93EC01162FD1
:1023A000072FF42EE52E60EC71E08AE893E00E949E
:1023B000EB1063E473E08AE893E00E942B1068EB73
:1023C00071E08AE893E00E94EB10612F702F8AE899
:1023D00093E00E94AD10EEE1F1E083E090E03291F5
:1023E00022912F3F3F4F19F00197C8F78FEF8C874D
:1023F0008F3F39F1EF92FF920F931F931F928F93AC
:1024000083E18F9388E88F9386E293E09F938F9385
:102410000E948A0B2DB73EB7265F3F4F0FB6F89448
:102420003EBF0FBE2DBF892BC1F48C8590E0FC010F
:10243000EE0FFF1FEA5EFE4F9183808381E090E004
:102440000EC060EC71E08AE893E00E94EB1062E15C
:1024500073E08AE893E00E94C11080E090E0DF9191
:10246000CF911F910F91FF90EF900895CF93DF933D
:10247000CDB7DEB76D970FB6F894DEBF0FBECDBFF8
:10248000789484B5826084BD84B5816084BD85B54F
:10249000826085BD85B5816085BD80916E0081605B
:1024A00080936E0010928100809181008260809301
:1024B0008100809181008160809381008091800003
:1024C0008160809380008091B10084608093B1002E
:1024D0008091B00081608093B00080917A00846028
:1024E00080937A0080917A00826080937A00809154
:1024F0007A00816080937A0080917A00806880936E
:102500007A001092C10010926B0410926C04109229
:102510006D0410926E041092290410922A041092F5
:102520002B0410922C040E94A6066B017C014B0127
:102530005C0128EB820E2BE0921EA11CB11C0E94B4
:10254000A6066C157D058E059F0528F08616970654
:10255000A806B906A0F78AE893E090936A048093EE
:1025600069040E94A70D0E94A60660932904709337
:102570002A0480932B0490932C046EEF71E08091D9
:10258000690490916A040E94EB100E94A6066B01F8
:102590007C014B015C013AE0830E911CA11CB11C33
:1025A0000E94A6066C157D058E059F0528F08616EF
:1025B0009706A806B906A0F781E080933D040E9423
:1025C000A70D109239051092380510923705109218
:1025D000360510923505109234058DE991E09093FF
:1025E0003B0580933A0590912A05963108F058C032
:1025F0002DEB30E030933505209334052BE931E0A5
:1026000030933705209336052CE231E030933905BD
:102610002093380540916800983058F031E09E30A2
:1026200008F430E021E0822F01C0880F3A95EAF7E4
:1026300001C084E0842B80936800983038F09E308D
:1026400040F0963148F020E030E008C02DE630E060
:1026500005C02BE630E002C02CE630E030933205B6
:1026600020933105983030F481E001C0880F9A95AD
:10267000EAF70EC0292F30E09E3018F428503109B7
:1026800002C02E50310981E001C0880F2A95EAF777
:102690008093330580913A0590913B050197F1F7BE
:1026A0008091380590913905892B49F1E0911C05FD
:1026B000F0911D0545E0EE31F40709F1309739F04E
:1026C000A389B4899C918589809589238C93809175
:1026D0003C058E7F80933C0510925803109257035F
:1026E0008EE195E090931D0580931C05E0913105E6
:1026F000F0913205908180913305892B808360ECC5
:1027000071E08AE893E00E94EB106EEB72E08AE8D9
:1027100093E00E94C1108EE195E09093880580932C
:10272000870505E010E08BEB92E00E94D510892B25
:1027300009F425C568EE73E080E090E00E946C0625
:102740000150110981F760EC71E08AE893E00E9482
:10275000EB106EE972E08AE893E00E94C11068E82D
:1027600073E180E090E00E946C060AE010E09E01B8
:102770002F5F3F4F46EE51E069EE71E081EF91E04F
:102780000E940F0C882369F0DD24D39400E011E04F
:10279000EEE4CE2EF0E2BF2EAFECEA2EA1E0FA2E50
:1027A00046C060E172E08AE893E00E94AD10FFCF7E
:1027B00068E272E08AE893E00E94EB106AE071E060
:1027C0008AE893E00E94AD10D0927D031F930F938F
:1027D0008AE091E09F938F93CF92BF92FF92EF9206
:1027E0000E948A0B0FB6F894DEBF0FBECDBF60EC1F
:1027F00071E0892B21F58AE893E00E94EB106DEAE5
:1028000071E08AE893E00E942B1068EB71E08AE89F
:1028100093E00E94EB106AE071E08AE893E00E9486
:10282000AD1081E090E090938503809384038091C4
:10283000840390918503019709F0BACF22C08AE8FA
:1028400093E00E94EB106AEB71E08AE893E00E944B
:102850002B1068EB71E08AE893E00E94EB106AE0CD
:1028600071E08AE893E00E94AD1068EE73E080E0CA
:1028700090E00E946C0680E00E940C0982E090E0EB
:10288000D2CF6CE472E08AE893E00E94AD1065E478
:1028900072E08AE893E00E94EB101092590300E284
:1028A00010E029E533E04CE551E06EE571E087E6A4
:1028B00091E00E940F0C69E573E08AE893E00E94C2
:1028C000AD1083E891E09E8B8D8B1F8A188E198E38
:1028D0001A8E80917D0304E110E09E012F5F3F4F2F
:1028E000813039F449E851E06BE871E084E991E026
:1028F00006C041E751E063E771E08FE791E00E9495
:102900000F0C8823A1F166EC72E0CE0101960E94C3
:10291000631B0E94351B8093790366EC72E080E0B4
:1029200090E00E94631B0E94351B80937A0366EC43
:1029300072E080E090E00E94631B0E94351B809350
:102940007B0366EC72E080E090E00E94631B0E94D3
:10295000351B80937C038091790390917A03A09139
:102960007B03B0917C038F8B988FA98FBA8F6CE615
:1029700072E08AE893E00E94EB106AE873E0CE010F
:1029800045960E94EF036BE073E08AE893E00E94B3
:102990004F100AE010E09E012F5F3F4F4DE951E0DC
:1029A00060EA71E083EA91E00E940F0C8981082EB1
:1029B000000C990BC0970A9748F4CE0101960E942B
:1029C000351B00271127081B190B02C000E010E07F
:1029D00069E772E08AE893E00E94EB10B801110FFA
:1029E000880B990B0E94CF0D61E972E08AE893E0B1
:1029F0000E94AD1085E391E0909315058093140536
:102A00008BE597E0909317058093160586E096E096
:102A100090930D0580930C050E94A70D61E08DE059
:102A20000E94300660E08DE00E94D70581E090E0D2
:102A300090937804809377040E94A60660937304B1
:102A40007093740480937504909376049E01285FBC
:102A50003F4F3C8F2B8F7CEF272E33243A940E94DC
:102A6000A606672B682B692B41F40E94A6066230EC
:102A700071058105910508F40DC10E94A60600911B
:102A80008603109187032091880330918903601792
:102A900071078207930740F460938603709387035E
:102AA0008093880390938903009186031091870394
:102AB00020918803309189036B017C01C01AD10AEF
:102AC000E20AF30A970186010A3F11052105310543
:102AD00008F4E0C0609386037093870380938803B3
:102AE0009093890324EF31E040E050E020933504D7
:102AF00030933604409337045093380410923904CD
:102B000010923A0410923B0410923C0480912D04E0
:102B100090912E04A0912F04B09130048093310441
:102B200090933204A0933304B09334040E94A60619
:102B300060932D0470932E0480932F04909330049F
:102B40000E94A6066093290470932A0480932B04A4
:102B500090932C040E94A6066B017C0166E972E04A
:102B60008091690490916A040E94EB102AE041E090
:102B700050E060E070E08091690490916A040E94E6
:102B800064106DE972E08091690490916A040E947A
:102B9000EB102AE0B701A6018091690490916A04C4
:102BA0000E9464106FE872E08091690490916A0459
:102BB0000E94EB1080912D0490912E04A0912F047F
:102BC000B0913004B701A601481B590B6A0B7B0B6F
:102BD0002AE08091690490916A040E9464106FE871
:102BE00072E08091690490916A040E94EB10409118
:102BF0002D0450912E0460912F0470913004809127
:102C0000310490913204A0913304B0913404481BF4
:102C1000590B6A0B7B0B2AE08091690490916A043E
:102C20000E94641061EA72E08091690490916A04E4
:102C30000E94EB100E94A606AB01BC012AE0809125
:102C4000690490916A040E94641063EA72E08091C2
:102C5000690490916A040E94AD100E94A6064B017F
:102C60005C016B017C0132E0C30ED11CE11CF11C44
:102C70000E94A606681579058A059B0508F0FDC225
:102C80000E94A60660932D0470932E0480932F0457
:102C9000909330040E946E0D81111AC11FE00E94B2
:102CA0006E0D811115C16AEA72E08AE893E00E9414
:102CB000EB100E946E0D8111D1C0609114057091CE
:102CC000150580917F0490918004409116055091E4
:102CD0001705DC01ED91FC916115710521F000886B
:102CE000F189E02D18C00684F785E02D63E8C62E33
:102CF00061E0D62EDA82C982C0901005D09011050D
:102D0000E0901205F0901305CB82DC82ED82FE820A
:102D1000BE016F5F7F4F09958130910509F095C025
:102D2000909302058093010587E0EEE2F1E0DE0179
:102D3000119601900D928A95E1F7FE013196A6E871
:102D4000B4E081918D93EB8CFC8CEE16FF06C9F7F5
:102D500042E0F42EF0928D0410928E0410938F04B2
:102D60004FE050E061E874E088EC92E00E94E50CEE
:102D7000AC014550510961E874E080E10E94050D05
:102D80000E94A606609303057093040580930505D1
:102D900090930605609307057093080580930905D5
:102DA00090930A0580917F0490918004DC01ED915D
:102DB000FC910084F185E02D0995892BD1F40E94C6
:102DC000A606C0900705D0900805E0900905F09090
:102DD0000A05DC01CB018C199D09AE09BF098839B0
:102DE0009A43A105B105F0F230921B0520921A0515
:102DF00020C0CE0145960E94960E0497D1F4809192
:102E00008404811111C00E94A60660930705709387
:102E100008058093090590930A0510920B051092FE
:102E20001B0510921A051AC090E090931B05809321
:102E30001A0580917F0490918004DC01ED91FC9152
:102E40000488F589E02D09951FC23EEFC32EDD24CD
:102E5000DA94D0921B05C0921A0516C266ED72E094
:102E60008AE893E00E94AD100E946E0D882309F459
:102E700016CF8091010590910205019629F090935B
:102E800002058093010507C0EE24E394F12CF09233
:102E90000205E09201058091010590910205909351
:102EA00086048093870447E050E061E874E080EA9C
:102EB00091E00E94E50CFC01E558FB4F1682AC0145
:102EC0004450510961E874E082E80E94050DE7CEA4
:102ED0000E946E0D882309F41DC10E94A6062B01D5
:102EE0003C018091070590910805A0910905B091DA
:102EF0000A05A3019201281B390B4A0B5B0BDA016F
:102F0000C90189399A43A105B105A8F48091030547
:102F100090910405A0910505B09106057301620129
:102F2000C81AD90AEA0AFB0A29E9C2162AE3D20614
:102F3000E104F104B8F120910B0580917F04909198
:102F40008004222361F030921B0520921A05DC01D7
:102F5000ED91FC910488F589E02D0995DBC020EC0A
:102F60002093810410928204DC01ED91FC91028097
:102F7000F381E02D42E050E061E874E00995409271
:102F80000305509204056092050570920605409273
:102F90000705509208056092090570920A0581E0C4
:102FA00080930B0580917F0490918004DC01ED916A
:102FB000FC910084F185E02D0995892B09F4AAC0C4
:102FC000CE0101960E94960E5C01892B09F4A0C0E7
:102FD00040920705509208056092090570920A0513
:102FE00080918104807F803309F076C080910C0548
:102FF00090910D05892B09F48DC0E980F12CF70122
:10300000E558FB4F078110E0102F00278085080F3F
:10301000111D97012D573B4F4901B7016C577B4F4D
:10302000A801C9010E943D20B8016E0D7F1DDB0182
:10303000A558BB4F18961C921897809181048670F2
:103040008D8FE0910C05F0910D058230C1F5199638
:10305000CC901997D12CDC2CCC241A968C91C80ECC
:10306000D11C4BEF5FEF4E195F09401B510B4A0D0E
:103070005B1D6A577B4FC401099580E480938104EE
:10308000ED8CE0928204D0928304C09284048091FB
:103090007F0490918004DC01ED91FC910280F3812A
:1030A000E02D44E050E061E874E0099540920305AA
:1030B0005092040560920505709206052BC04DEFF5
:1030C0005FEF4E195F09401B510B4A0D5B1D6C579A
:1030D0007B4FC40109951EC0803CA9F480ED80930C
:1030E00081041092820480917F0490918004DC011D
:1030F000ED91FC910280F381E02D42E050E061E827
:1031000074E0099507C0803D29F410920B0502C0B8
:103110000E946E0D8091770490917804892B61F163
:103120000E94A60600917304109174042091750406
:10313000309176046B017C01C01AD10AE20AF30ACD
:1031400000916F0410917004209171043091720409
:10315000C016D106E206F30678F06093730470930C
:1031600074048093750490937604E0917904F0914F
:103170007A04309709F009950E94BC0270CC8EE564
:1031800092E00E94D51068EB7BE080E090E00E9426
:103190006C0680E00E940C0989E592E00E94D5103F
:1031A0008DE492E00E94D51068EC70E080E090E041
:1031B0000E946C0681E492E00E94D51083E392E0C5
:1031C0000E94D51083E292E00E94D51085E192E042
:1031D0000E94D51068EC70E080E090E00E946C06E0
:1031E00010927E0306E010E02EE733E04EEF51E050
:1031F00061E072E08EE092E00E940F0C80917E030D
:103200008153823020F480917F038E32E9F060ECAC
:1032100071E08AE893E00E94EB1060E872E08AE8CF
:1032200093E00E942B1068EB71E08AE893E00E9423
:10323000EB106EE773E08AE893E00E94AD1060EA5D
:103240007FE080E090E08FCA60EC71E08AE893E074
:103250000E94EB1065E672E08AE893E00E942B1072
:1032600068EB71E08AE893E00E94EB106EE773E090
:103270008AE893E00E94AD1078CAC616D706E80621
:10328000F90608F0F5CCFCCC60EE72E08AE893E039
:103290000E94EB1060911A0570911B05072E000C1F
:1032A000880B990B0E94CF0D6CEE72E08AE893E0D8
:1032B0000E94AD1068E873E180E090E00E946C0627
:1032C000EECC8FE891E090931F0580931E058091CE
:1032D0001C0590911D058E51954071F4E0913105CA
:1032E000F091320590818091330580958923808308
:1032F00010921D0510921C050895CF92DF92EF9257
:10330000FF92CF93DF9310928D0310928C0398EE6F
:10331000C92E93E0D92EE12CF12CC0928E03D092CD
:103320008F03E0929003F092910387E491E09093F1
:103330008B0380938A0385EC90E0909397038093AE
:10334000960384EC90E0909399038093980380EC2B
:1033500090E090939B0380939A0381EC90E090938C
:103360009D0380939C0382EC90E090939F03809355
:103370009E0386EC90E09093A1038093A0031092AB
:10338000A3031092A4031092A5031092A603109217
:103390002D0410922E0410922F04109230041092DB
:1033A00031041092320410923304109234041092BB
:1033B000350410923604109237041092380410929B
:1033C000390410923A0410923B0410923C04C3E872
:1033D000D1E0D0934605C093450510924705109261
:1033E00048051092490510924A05D0934C05C093A8
:1033F0004B0510924D0510924E0510924F051092FC
:10340000500580E290E090933E0580933D0581E277
:1034100090E00E94171F9093400580933F059C0108
:10342000205E3F4F30934205209341059093440521
:103430008093430521E2FC0111922A95E9F7D0938C
:103440005205C093510510925305109254051092E5
:10345000550510925605D0935805C0935705109204
:10346000590510925A0510925B0510925C05D09395
:103470005E05C0935D0510925F0510926005109285
:10348000610510926205D0936405C09363051092A4
:103490006505109266051092670510926805D09335
:1034A0006A05C093690510926B0510926C05109225
:1034B0006D0510926E05D0937D05C0937C0510922A
:1034C0007E0510927F051092800510928105109262
:1034D000210510922005C0922205D0922305E0928A
:1034E0002405F09225058FE891E090931F058093C5
:1034F0001E05109235051092340510923705109272
:103500003605109239051092380510923B0510923D
:103510003A0560913C056E7F6D7F60933C05669532
:10352000617081E0682783E00E94D70561E083E055
:103530000E943006E1E0F3E0E491E0932E05EDEE29
:10354000F2E0E491F0E0EE0FFF1FE052FD4F8591B5
:1035500094919093300580932F0560E082E00E9463
:10356000300680913C0581FD04C061E082E00E944C
:10357000D70582E080932A05E0E0F3E0E491E09350
:103580002B05ECEEF2E0E491F0E0EE0FFF1FEA52C3
:10359000FD4F8591949190932D0580932C05109269
:1035A00072051092710588EE93E0A0E0B0E0809380
:1035B000730590937405A0937505B093760585E621
:1035C00091E09093700580936F058FEF80937B055A
:1035D00010927E0410927D0489E591E090937C0422
:1035E00080937B0483E891E090930F0580930E0510
:1035F00010921005109211051092120510921305E9
:103600008FEF9FEF90931B0580931A058FE695E04F
:103610009093800480937F041092190510921805EE
:1036200080ED97E0A0E0B0E080936F049093700489
:10363000A0937104B09372048EEF94E090937A0497
:10364000809379041092730410927404109275049C
:10365000109276041092780410927704DF91CF9143
:10366000FF90EF90DF90CF900895FC018827992775
:10367000E89421912032E9F3293010F02E30C8F37C
:103680002B3241F02D3239F4689404C00E948F1B14
:10369000820F911D219120532A30C0F31EF4909582
:1036A00081959F4F0895FB01DC0105900D9200204C
:1036B000E1F70895FC0105900020E9F780959095C9
:1036C0008E0F9F1F089549E855E00E94681B0895DA
:1036D000FA01A191B081009719F41097E1F0CD01A2
:1036E000DC01CD010D90002011F4C00113C0FB01DD
:1036F0002191222319F02015D9F7F3CFFB01219155
:10370000201519F41E92119606C02223C1F70D90C0
:103710000020A1F7D001FA01A193B08308957AE0C7
:10372000979F902D879F802D910D11240895AEE0D5
:10373000B0E0EDE9FBE10C94B11E0D891E898EE02D
:103740008C831A8309838FEF9FE79E838D83AE015D
:10375000475E5F4F6F89788DCE0101960E94E51B11
:10376000EF81F885E00FF11F10822E96E4E00C94B3
:10377000CD1EAEE0B0E0EFEBFBE10C94B11E8C018E
:10378000FA018EE08C831A83098377FF02C060E020
:1037900070E8CB0101979E838D83A901BF01CE0103
:1037A00001960E94E51B4D815E8157FD0AC02F8165
:1037B0003885421753070CF49A01F801E20FF31F02
:1037C00010822E96E4E00C94CD1EABE0B0E0EBEE60
:1037D000FBE10C94A31E6C017B018A01FC011782A2
:1037E0001682838181FFCCC1CE0101963C01F60196
:1037F0009381F70193FD859193FF81917F01882348
:1038000009F4BAC1853239F493FD859193FF819112
:103810007F01853229F4B60190E00E94DC1DE7CFDC
:10382000912C212C312CFFE1F315D8F08B3279F05B
:1038300038F4803279F08332A1F4232D20611DC049
:103840008D3261F0803369F4232D216016C0832D01
:103850008260382EE32DE4603E2E2AC0F32DF860FE
:103860001DC037FC2DC020ED280F2A3040F08E32CD
:10387000B9F436FC81C1232D2064322E19C036FEE6
:1038800006C08AE0989E200D1124922E11C0EAE015
:103890002E9E200D1124222EF32DF0623F2E08C003
:1038A0008C3621F4832D8068382E02C0883641F48E
:1038B000F70193FD859193FF81917F018111B3CF32
:1038C000982F9F7D9554933028F40C5F1F4F9FE3F2
:1038D00099830DC0833631F0833771F0833509F059
:1038E00059C021C0F801808189830E5F1F4F882451
:1038F0008394912C530113C02801F2E04F0E511C08
:10390000F801A080B18036FE03C0692D70E002C0CE
:103910006FEF7FEFC5010E94D11D4C018201F32D95
:10392000FF773F2E16C0280122E0420E511CF801FD
:10393000A080B18036FE03C0692D70E002C06FEF39
:103940007FEFC5010E94C61D4C01F32DF0683F2E8C
:10395000820133FC1BC0822D90E088169906B0F4DA
:10396000B60180E290E00E94DC1D2A94F4CFF501BC
:1039700037FC859137FE81915F01B60190E00E948E
:10398000DC1D21102A9421E0821A910881149104EF
:1039900071F7E8C0843611F0893641F5F80137FE39
:1039A00007C060817181828193810C5F1F4F08C0C5
:1039B00060817181072E000C880B990B0E5F1F4FE1
:1039C000F32DFF763F2E97FF09C090958095709557
:1039D00061957F4F8F4F9F4FF0683F2E2AE030E078
:1039E000A3010E94181E882E861845C0853731F421
:1039F000232D2F7EB22E2AE030E025C0932D997F13
:103A0000B92E8F36C1F018F4883579F0B5C08037FB
:103A100019F0883721F0B0C0E92FE061BE2EB4FE66
:103A20000DC0FB2DF460BF2E09C034FE0AC0292F43
:103A30002660B22E06C028E030E005C020E130E06C
:103A400002C020E132E0F801B7FE07C06081718159
:103A5000828193810C5F1F4F06C06081718180E07D
:103A600090E00E5F1F4FA3010E94181E882E86183B
:103A7000FB2DFF773F2E36FE0DC0232D2E7FA22E6D
:103A8000891458F434FE0BC032FC09C0832D8E7E9D
:103A9000A82E05C0B82CA32C03C0B82C01C0B92C8B
:103AA000A4FE0FC0FE01E80DF11D8081803321F4DA
:103AB0009A2D997EA92E09C0A2FE06C0B394B39494
:103AC00004C08A2D867809F0B394A3FC11C0A0FE2F
:103AD00006C0B21488F4280C922C9B180EC0B214A5
:103AE00060F4B60180E290E00E94DC1DB394F7CF51
:103AF000B21418F42B1802C0982C212CA4FE10C06C
:103B0000B60180E390E00E94DC1DA2FE17C0A1FC7C
:103B100003C088E790E002C088E590E0B6010CC0E1
:103B20008A2D867859F0A1FE02C08BE201C080E2A6
:103B3000A7FC8DE2B60190E00E94DC1D891438F4E8
:103B4000B60180E390E00E94DC1D9A94F7CF8A943E
:103B5000F301E80DF11D8081B60190E00E94DC1DAB
:103B60008110F5CF222009F442CEB60180E290E028
:103B70000E94DC1D2A94F6CFF6018681978102C04F
:103B80008FEF9FEF2B96E2E10C94BF1EFC01059096
:103B9000615070400110D8F7809590958E0F9F1F4F
:103BA0000895FC016150704001900110D8F7809594
:103BB00090958E0F9F1F08950F931F93CF93DF93C0
:103BC000FB01238121FD03C08FEF9FEF2CC022FF5B
:103BD00016C046815781248135814217530744F42A
:103BE000A081B1819D012F5F3F4F318320838C9352
:103BF000268137812F5F3F4F3783268314C08B0187
:103C0000EC01FB010084F185E02D0995892BE1F69B
:103C1000D80116968D919C911797019617969C93B3
:103C20008E931697CE01DF91CF911F910F9108953A
:103C3000FA01AA27283051F1203181F1E8946F93DD
:103C40006E7F6E5F7F4F8F4F9F4FAF4FB1E03ED083
:103C5000B4E03CD0670F781F891F9A1FA11D680F21
:103C6000791F8A1F911DA11D6A0F711D811D911D54
:103C7000A11D20D009F468943F912AE0269F1124C9
:103C80003019305D3193DEF6CF010895462F47702D
:103C9000405D4193B3E00FD0C9F7F6CF462F4F7088
:103CA000405D4A3318F0495D31FD4052419302D0E6
:103CB000A9F7EACFB4E0A69597958795779567958C
:103CC000BA95C9F700976105710508959B01AC018C
:103CD0000A2E06945795479537952795BA95C9F7B3
:103CE000620F731F841F951FA01D0895A1E21A2E55
:103CF000AA1BBB1BFD010DC0AA1FBB1FEE1FFF1F90
:103D0000A217B307E407F50720F0A21BB30BE40BDF
:103D1000F50B661F771F881F991F1A9469F7609526
:103D20007095809590959B01AC01BD01CF010895E0
:103D30000E94DA1EA59F900DB49F900DA49F800D48
:103D4000911D112408952F923F924F925F926F928E
:103D50007F928F929F92AF92BF92CF92DF92EF921B
:103D6000FF920F931F93CF93DF93CDB7DEB7CA1B9C
:103D7000DB0B0FB6F894DEBF0FBECDBF09942A88C7
:103D8000398848885F846E847D848C849B84AA846F
:103D9000B984C884DF80EE80FD800C811B81AA81FC
:103DA000B981CE0FD11D0FB6F894DEBF0FBECDBFC7
:103DB000ED010895A29FB001B39FC001A39F700DB4
:103DC000811D1124911DB29F700D811D1124911D23
:103DD000089597FB072E16F4009407D077FD09D0BD
:103DE0000E94FD1E07FC05D03EF4909581959F4FE3
:103DF0000895709561957F4F0895AA1BBB1B51E1F3
:103E000007C0AA1FBB1FA617B70710F0A61BB70B4A
:103E1000881F991F5A95A9F780959095BC01CD01EF
:103E20000895EE0FFF1F0590F491E02D09940F9374
:103E30001F93CF93DF938230910510F482E090E0DE
:103E4000E0918D05F0918E0520E030E0A0E0B0E03B
:103E5000309719F140815181028113814817590728
:103E6000C8F08417950769F4109731F012960C93F7
:103E7000129713961C9327C000938D0510938E05FF
:103E800022C02115310519F04217530718F49A0181
:103E9000BD01EF01DF01F801DBCF21153105F9F09C
:103EA000281B390B2430310580F48A819B816115F0
:103EB000710521F0FB019383828304C090938E05EA
:103EC00080938D05FE01329644C0FE01E20FF31F80
:103ED0008193919322503109398328833AC02091EC
:103EE0008B0530918C05232B41F4209120013091DA
:103EF000210130938C0520938B0520911E01309178
:103F00001F012115310541F42DB73EB74091220123
:103F100050912301241B350BE0918B05F0918C050A
:103F2000E217F307A0F42E1B3F0B2817390778F090
:103F3000AC014E5F5F4F2417350748F04E0F5F1FEF
:103F400050938C0540938B058193919302C0E0E0E0
:103F5000F0E0CF01DF91CF911F910F910895CF93A2
:103F6000DF93009709F481C0FC013297138212821B
:103F7000A0918D05B0918E05109781F4208131813B
:103F8000820F931F20918B0530918C0528173907DC
:103F900051F5F0938C05E0938B0567C0ED0120E0AF
:103FA00030E0CE17DF0740F44A815B819E01411566
:103FB0005105F1F0EA01F5CFD383C28340815181ED
:103FC000840F951FC817D90759F488819981840FE8
:103FD000951F0296918380838A819B81938382833C
:103FE0002115310529F4F0938E05E0938D053DC030
:103FF000E901FB83EA8349915991C40FD51FEC175E
:10400000FD0761F480819181840F951F0296E9017B
:1040100099838883828193819B838A83E0E0F0E0A7
:1040200012968D919C911397009719F0FD01DC0178
:10403000F7CF8D919C9111979D012E5F3F4F820F7D
:10404000931F20918B0530918C052817390769F44F
:10405000309729F410928E0510928D0502C01382BC
:104060001282B0938C05A0938B05DF91CF910895B8
:1040700081E090E0F8940C9499206817790768F42F
:10408000FB01DC01E40FF51FA40FB51F02C0029075
:104090000E9241505040D8F708950C949020DC01C6
:1040A00001C06D9341505040E0F70895FB01DC01E1
:1040B0008D91019080190110D9F3990B0895FB019E
:1040C000DC014150504048F001900D920020C9F7AA
:1040D00001C01D9241505040E0F70895AEE0B0E0BD
:1040E000E4E7F0E20C94B11E0D891E8986E08C8312
:1040F0001A8309838FEF9FE79E838D83AE01475E0E
:104100005F4F6F89788DCE0101960E94E51BEF818C
:10411000F885E00FF11F10822E96E4E00C94CD1E7E
:10412000FB01DC0102C001900D9241505040D8F7D4
:10413000089511E0C9EBD1E004C0FE010E94111FF7
:0C4140002196CA3BD107C9F7F894FFCFC5
:10414C00677565737431333537004D554C54495F81
:10415C00475545535400FFFFFFFFFFFFFFFF0000D3
:10416C008F058000CD01D401DE01E701F3010004CD
:10417C004D5154540437302E31322E3131322E31D0
:10418C00333700000000004D02010EE4019A0215C5
:10419C0002F301070200000000D506B206EC03EBA7
:1041AC0003000000003303CB0AEC031C033F087A26
:1041BC00043B04B904FC044A08C50B690A14030047
:1041CC00000000EF03000000003904000000006252
:1041DC0003010EEC036103B203CA03490325640017
:1041EC00686F6D652F6C6976696E67726F6F6D2F76
:1041FC006C6564003100203A20002B4950442C009F
:10420C005B576946694573705D20003E000D0A4F8F
:10421C004B0D0A000D0A4552524F520D0A000D0A61
:10422C004641494C0D0A000D0A53454E44204F4B54
:10423C000D0A0020434F4E4E4543540D0A00564D77
:10424C004450565F317C315F564D4450560D0A0038
:10425C005769466920736869656C64206E6F7420B9
:10426C0070726573656E7400417474656D707469F9
:10427C006E6720746F20636F6E6E65637420746F4D
:10428C002057504120535349443A2000596F752709
:10429C00726520636F6E6E656374656420746F2045
:1042AC00746865206E6574776F726B00495020419D
:1042BC006464726573733A20005369676E616C2095
:1042CC00737472656E677468202852535349293A87
:1042DC00002064426D00564D4450455F003A323A1E
:1042EC00007C005F564D44504500417474656D7000
:1042FC0074696E67204D51545420636F6E6E656304
:10430C0074696F6E2E2E2E0045535038323636435C
:10431C006C69656E7400636F6E6E656374656400C2
:10432C006661696C65642C2072633D00207472793F
:10433C0020616761696E20696E2035207365636F3B
:0E434C006E6473002C434C4F5345440D0A0021
:107E0000112484B714BE81FFF0D085E080938100F7
:107E100082E08093C00088E18093C10086E0809377
:107E2000C20080E18093C4008EE0C9D0259A86E02C
:107E300020E33CEF91E0309385002093840096BBD3
:107E4000B09BFECF1D9AA8958150A9F7CC24DD24C4
:107E500088248394B5E0AB2EA1E19A2EF3E0BF2EE7
:107E6000A2D0813461F49FD0082FAFD0023811F036
:107E7000013811F484E001C083E08DD089C08234E0
:107E800011F484E103C0853419F485E0A6D080C0E4
:107E9000853579F488D0E82EFF2485D0082F10E0AE
:107EA000102F00270E291F29000F111F8ED06801E7
:107EB0006FC0863521F484E090D080E0DECF843638
:107EC00009F040C070D06FD0082F6DD080E0C81688
:107ED00080E7D80618F4F601B7BEE895C0E0D1E017
:107EE00062D089930C17E1F7F0E0CF16F0E7DF06D8
:107EF00018F0F601B7BEE89568D007B600FCFDCFD4
:107F0000A601A0E0B1E02C9130E011968C91119780
:107F100090E0982F8827822B932B1296FA010C0160
:107F200087BEE89511244E5F5F4FF1E0A038BF0790
:107F300051F7F601A7BEE89507B600FCFDCF97BE46
:107F4000E89526C08437B1F42ED02DD0F82E2BD052
:107F50003CD0F601EF2C8F010F5F1F4F84911BD097
:107F6000EA94F801C1F70894C11CD11CFA94CF0C13
:107F7000D11C0EC0853739F428D08EE10CD085E9AC
:107F80000AD08FE07ACF813511F488E018D01DD067
:107F900080E101D065CF982F8091C00085FFFCCF94
:107FA0009093C60008958091C00087FFFCCF809118
:107FB000C00084FD01C0A8958091C6000895E0E648
:107FC000F0E098E1908380830895EDDF803219F02E
:107FD00088E0F5DFFFCF84E1DECF1F93182FE3DFCA
:107FE0001150E9F7F2DF1F91089580E0E8DFEE27F6
:047FF000FF270994CA
:027FFE00040479
:0400000300007E007B
:00000001FF