:100000000C94DF000C9407010C9407010C94070179
:100010000C9407010C9407010C9407010C94070140
:100020000C9407010C9407010C9407010C94070130
:100030000C9407010C9407010C9407010C94070120
:100040000C9455050C9407010C9423050C94FD04A5
:100050000C9407010C9407010C9407010C94070100
:100060000C9407010C94070100407A10F35A00A089
:10007000724E18090010A5D4E80000E87648170071
:1000800000E40B54020000CA9A3B000000E1F505B1
:10009000000080969800000040420F000000A086FB
:1000A00001000000102700000000E803000000002D
:1000B0006400000000000A000000000001000000D1
:1000C00000002C76D888DC674F0823DFC1DFAE59EB
:1000D000E1B1B796E5E3E453C63AE651997696E87E
:1000E000E6C28426EB898C9B62ED407C6FFCEFBC02
:1000F0009C9F40F2BAA56FA5F490055A2AF75C932D
:100100006B6CF9676DC11BFCE0E40D47FEF520E662
:10011000B500D0ED902E0300943577050080841E45
:10012000080000204E0A000000C80C333333330FA0
:10013000986E12831141EF8D2114893BE65516CF3D
:10014000FEE6DB18D1844B381BF77C1D901DA4BB49
:10015000E424203284725E228100C9F124ECA1E5FE
:100160003D2700000000240027002A0000000000B6
:10017000250028002B000000000023002600290095
:10018000040404040404040402020202020203033D
:100190000303030301020408102040800102040845
:1001A00010200102040810200000000800020100D5
:1001B0000003040700000000000000009F05112458
:1001C0001FBECFEFD8E0DEBFCDBF23E0A0E6B1E099
:1001D00001C01D92AC35B207E1F711E0A0E0B1E03B
:1001E000E2EBFEE102C005900D92A036B107D9F70F
:1001F00010E0CFEDD0E004C02197FE010E94460D33
:10020000CE3DD107C9F70E94F2050C94570F0C940C
:100210000000EDE6F2E0A089B18982E08C93A4852C
:10022000B5851C92A685B7858FEC8C93108EA4891A
:10023000B58986E08C93A289B3898C9180618C9377
:10024000A289B3898C9188608C93A289B3898C919F
:1002500080688C930288F389E02D80818F7D808374
:100260000895CF92DF92EF92FF920F931F93CF9357
:10027000DF936C017A018B01C0E0D0E0CE15DF0581
:1002800081F0D8016D918D01D601ED91FC91019025
:10029000F081E02DC6010995892B11F02196EECF52
:1002A0007E01C701DF91CF911F910F91FF90EF90D9
:1002B000DF90CF900895089580E090E00895FC01CC
:1002C000538D448D252F30E0842F90E0821B930BBB
:1002D000541710F0CF96089501970895FC01918D61
:1002E000828D981761F0828DDF01A80FB11D5D9698
:1002F0008C91928D9F5F9F73928F90E008958FEF06
:100300009FEF0895FC01918D828D981731F0828DB9
:10031000E80FF11D858D90E008958FEF9FEF089510
:10032000FC01918D228D892F90E0805C9F4F821B74
:1003300091098F73992708958DE692E00E949001AC
:1003400021E0892B09F420E0822F0895FC01848D9F
:10035000DF01A80FB11DA35ABF4F2C91848D90E0EF
:1003600001968F739927848FA689B7892C93A089CA
:10037000B1898C91837080648C93938D848D981354
:1003800006C00288F389E02D80818F7D80830895E7
:10039000EF92FF920F931F93CF93DF93EC0181E0D5
:1003A000888F9B8D8C8D981305C0E889F989808191
:1003B00085FD26C0F62E0B8D10E00F5F1F4F0F73CB
:1003C0001127E02E8C8DE8120CC00FB607FCFACF77
:1003D000E889F989808185FFF5CFCE010E94A601C9
:1003E000F1CF8B8DFE01E80FF11DE35AFF4FF08234
:1003F0009FB7F8940B8FEA89FB89808180620AC0DD
:100400009FB7F894EE89FF896083E889F989808134
:100410008370806480839FBF81E090E0DF91CF9103
:100420001F910F91FF90EF900895CF93DF93EC0110
:10043000888D8823C9F0EA89FB89808185FD05C004
:10044000A889B9898C9186FD0FC00FB607FCF5CF3E
:10045000808185FFF2CFA889B9898C9185FFEDCF86
:10046000CE010E94A601E7CFDF91CF91089580E0F1
:1004700090E0892B29F00E949C0181110C940000CE
:100480000895833081F028F4813099F08230A1F012
:1004900008958730A9F08830B9F08430D1F4809184
:1004A00080008F7D03C0809180008F7780938000D3
:1004B000089584B58F7702C084B58F7D84BD08957B
:1004C0008091B0008F7703C08091B0008F7D8093C2
:1004D000B0000895CF93DF93282F30E0F901E8555D
:1004E000FE4F8491F901EC56FE4FD491F901E0588A
:1004F000FE4FC491CC2391F081110E944102EC2F58
:10050000F0E0EE0FFF1FEA58FE4FA591B491EC9179
:10051000ED2381E090E021F480E002C080E090E0F3
:10052000DF91CF910895EF92FF921F93CF93DF93C6
:1005300010E0C7E0D0E083E7E82EF12C8091520371
:100540000E946A020197D1F7C7010197F1F78091E4
:1005500052030E946A028130910561F40C2E01C0A1
:10056000880F0A94EAF7182B809152030E946A02BE
:10057000892BD1F7219710F7812FDF91CF911F9110
:10058000FF90EF9008951F93CF93DF93282F30E0D3
:10059000F901E855FE4F8491F901EC56FE4FD491D4
:1005A000F901E058FE4FC491CC23C1F0162F811100
:1005B0000E944102EC2FF0E0EE0FFF1FE459FE4FC6
:1005C000A591B4919FB7F894111104C08C91D09566
:1005D000D82302C0EC91DE2BDC939FBFDF91CF913B
:1005E0001F910895CF93DF9390E0FC01EC56FE4FEE
:1005F0002491FC01E058FE4F8491882361F190E042
:10060000880F991FFC01EE59FE4FC591D491FC0152
:10061000E459FE4FA591B491611109C09FB7F894B8
:100620008881209582238883EC912E230BC0623031
:1006300061F49FB7F8948881322F309583238883A3
:10064000EC912E2B2C939FBF06C08FB7F894E881B6
:100650002E2B28838FBFDF91CF9108953FB7F89459
:100660008091650190916601A0916701B091680148
:1006700026B5A89B05C02F3F19F00196A11DB11DFD
:100680003FBFBA2FA92F982F8827820F911DA11D38
:10069000B11DBC01CD0142E0660F771F881F991F75
:1006A0004A95D1F708958F929F92AF92BF92CF92C1
:1006B000DF92EF92FF92CF93DF93C82F6A017B0105
:1006C0000E942E034B015C01C60ED71EE81EF91EC8
:1006D000D0E0809152030E946A028C179D0759F066
:1006E0000E942E03C616D706E806F90690F76FEFAC
:1006F0007FEFCB0106C00E942E03681979098A0991
:100700009B09DF91CF91FF90EF90DF90CF90BF904A
:10071000AF909F908F9008958F929F92AF92BF92CB
:10072000CF92DF92EF92FF926B017C010E942E0329
:100730004B015C01C114D104E104F104F1F00E9409
:100740002E03DC01CB0188199909AA09BB09883E4F
:100750009340A105B10570F321E0C21AD108E10868
:10076000F10888EE880E83E0981EA11CB11CC1140C
:10077000D104E104F10419F7DDCFFF90EF90DF9091
:10078000CF90BF90AF909F908F9008952FB7F8941F
:1007900060916101709162018091630190916401A7
:1007A0002FBF08956115710579F0FB0101900020BC
:1007B000E9F73197AF01461B570BDC01ED91FC9136
:1007C0000280F381E02D099480E090E008958F92FB
:1007D0009F92AF92BF92EF92FF920F931F93CF938E
:1007E000DF93CDB7DEB7A1970FB6F894DEBF0FBE8B
:1007F000CDBF7C01FA01CB0119A2223008F42AE016
:100800008E010F5D1F4F822E912CA12CB12CBF01A8
:10081000A50194010E940E0CF901CA0101501109B1
:100820006A3014F4605D01C0695CD8016C93232BBD
:10083000242B252B61F7B801C7010E94D203A19692
:100840000FB6F894DEBF0FBECDBFDF91CF911F91E1
:100850000F91FF90EF90BF90AF909F908F90089571
:100860000E94330F0F931F93CF93DF93EC01888186
:100870009981009729F02A813B812617370788F450
:100880008B016F5F7F4F0E946D0E009761F099831F
:1008900088831B830A832C813D81232B11F4FC0167
:1008A000108281E001C080E0DF91CF911F910F9114
:1008B0000895CF93DF93EC0188819981009711F01F
:1008C0000E94E40D198218821D821C821B821A82EA
:1008D000DF91CF910895EF92FF920F931F93CF93E3
:1008E000DF93EC01FB0104811581E080F180E114CC
:1008F000F104C9F001151105C9F08C819D81080F23
:10090000191FB801CE010E943204882361F02881AA
:1009100039818C819D81B701820F931F0E94410F05
:100920001D830C8303C0CE010E945904CE01DF91C8
:10093000CF911F910F91FF90EF900895EF92FF924A
:100940000F931F93CF93DF93EC017B018A01BA01D0
:100950000E943204811104C0CE010E94590407C0D4
:100960001D830C83B701888199810E94410FCE01BC
:10097000DF91CF911F910F91FF90EF900895EF922B
:10098000FF920F931F93CF93DF93CDB7DEB7A1975D
:100990000FB6F894DEBF0FBECDBF7C01CB01BA010C
:1009A000F7011182108213821282158214828E0145
:1009B0000F5F1F4F22E044E00E942E09009769F06C
:1009C000FC0101900020E9F73197AF01481B590B5A
:1009D000BC01C7010E949E0403C0C7010E945904C4
:1009E000A1960FB6F894DEBF0FBECDBFDF91CF91B9
:1009F0001F910F91FF90EF9008951F920F920FB6E5
:100A00000F9211242F933F934F935F936F937F9394
:100A10008F939F93AF93BF93EF93FF938DE692E0F5
:100A20000E94A601FF91EF91BF91AF919F918F918D
:100A30007F916F915F914F913F912F910F900FBEDA
:100A40000F901F9018951F920F920FB60F921124BE
:100A50002F938F939F93EF93FF93E0917D02F091FB
:100A60007E028081E0918302F091840282FD12C0B7
:100A70009081809186028F5F8F7320918702821709
:100A800051F0E0918602F0E0E359FD4F958F80939D
:100A9000860201C08081FF91EF919F918F912F91EC
:100AA0000F900FBE0F901F9018951F920F920FB6C8
:100AB0000F9211242F933F938F939F93AF93BF93E4
:100AC0008091610190916201A0916301B0916401F4
:100AD0003091600123E0230F2D3720F40196A11DF2
:100AE000B11D05C026E8230F0296A11DB11D20935C
:100AF00060018093610190936201A0936301B093C0
:100B000064018091650190916601A0916701B091A7
:100B100068010196A11DB11D809365019093660146
:100B2000A0936701B0936801BF91AF919F918F919E
:100B30003F912F910F900FBE0F901F901895CF935C
:100B4000DF93EDE6F2E01382128288EE93E0A0E0FC
:100B5000B0E084839583A683B7838AE091E0918394
:100B6000808385EC90E09587848784EC90E097877C
:100B7000868780EC90E0918B808B81EC90E0938B6A
:100B8000828B82EC90E0958B848B86EC90E0978B47
:100B9000868B118E128E138E148EEAE0F3E016828D
:100BA000178210861186128613861486158616867D
:100BB0001786108A118A128A138A148A158AC2E546
:100BC000D3E085E090E0998388831A821B821C829F
:100BD0001D8260E00E94F20261E08881DF91CF9186
:100BE0000C94C302CF93DF93CDB7DEB768970FB6EF
:100BF000F894DEBF0FBECDBF789484B5826084BD0B
:100C000084B5816084BD85B5826085BD85B5816010
:100C100085BD80916E00816080936E00109281008E
:100C20008091810082608093810080918100816049
:100C3000809381008091800081608093800080910A
:100C4000B10084608093B1008091B0008160809396
:100C5000B00080917A00846080937A0080917A005D
:100C6000826080937A0080917A00816080937A001C
:100C700080917A00806880937A001092C10010926F
:100C80004E0310924F031092500310925103109292
:100C90000C0310920D0310920E0310920F030E948A
:100CA000C6036B017C014B015C0148EB840E4BE0F9
:100CB000941EA11CB11C0E94C6036C157D058E05F7
:100CC0009F0528F086169706A806B906A0F78DE6B8
:100CD00092E090934D0380934C030E9409010E947F
:100CE000C60360930C0370930D0380930E039093DF
:100CF0000F0368E171E080914C0390914D030E94D5
:100D0000D2030E94C6036B017C014B015C018AE0A7
:100D1000880E911CA11CB11C0E94C6036C157D0598
:100D20008E059F0528F086169706A806B906A0F737
:100D300081E0809320030E94090184EF882E99248A
:100D40009394A12CB12C1E01E7E02E0E311C0E94C1
:100D5000C603672B682B692B41F40E94C6036230DF
:100D600071058105910508F40FC10E94C603009129
:100D7000690210916A0220916B0230916C02601737
:100D800071078207930740F46093690270936A02C7
:100D900080936B0290936C020091690210916A0239
:100DA00020916B0230916C026B017C01C01AD10A58
:100DB000E20AF30A970186010A3F11052105310570
:100DC00008F4E2C06093690270936A0280936B0238
:100DD00090936C028092180390921903A0921A03C8
:100DE000B0921B0310921C0310921D0310921E035D
:100DF00010921F038091100390911103A091120390
:100E0000B09113038093140390931503A0931603DA
:100E1000B09317030E94C6036093100370931103ED
:100E200080931203909313030E94C60360930C03F4
:100E300070930D0380930E0390930F030E94C603DB
:100E40002B013C016AE271E080914C0390914D03CB
:100E50000E94D2032AE041E050E060E070E080911F
:100E60004C0390914D030E94E70361E371E0809190
:100E70004C0390914D030E94D2032AE0B301A201DA
:100E800080914C0390914D030E94E70363E371E06E
:100E900080914C0390914D030E94D20380911003E6
:100EA00090911103A0911203B0911303B301A20119
:100EB000481B590B6A0B7B0B2AE080914C039091E5
:100EC0004D030E94E70363E371E080914C0390912E
:100ED0004D030E94D2034091100350911103609181
:100EE0001203709113038091140390911503A09144
:100EF0001603B0911703481B590B6A0B7B0B2AE0B2
:100F000080914C0390914D030E94E70365E371E0EB
:100F100080914C0390914D030E94D2030E94C6031E
:100F2000AB01BC012AE080914C0390914D030E94DB
:100F3000E70300914C0310914D0367E371E0C80192
:100F40000E94D20367E271E0C8010E94D2030E94AE
:100F5000C6036B017C012B013C0142E0440E511C95
:100F6000611C711C0E94C6036C157D058E059F05D2
:100F700008F09EC00E94C603609310037093110393
:100F8000809312039093130360ED77E080E090E08C
:100F90000E948C030E94C6030091540310915503D4
:100FA0002091560330915703DC01CB01801B910B3C
:100FB000A20BB30B883E9340A105B10538F4012B79
:100FC000022B032B19F00FEF1FEF4BC061E0809154
:100FD00052030E94F20260E0809152030E94C30219
:100FE00062E170E080E090E00E948C0361E080911B
:100FF00052030E94C30260E0809152030E94F202F9
:1010000048E250E060E070E080E00E9453034AE56F
:1010100050E060E070E081E00E9453034AE550E058
:1010200060E070E080E00E9453030E949302F82E7B
:101030000E949302E82E0E949302182F0E949302AE
:10104000082F0E9493022E2D30E02F0D311D210F0D
:10105000311D200F311D90E02817390781F104E080
:1010600010E066E571E08DE692E00E94D2030F3F4A
:10107000FFEF1F0759F46DE28DE692E00E94C80170
:101080002AE041E050E060E070E005C0A801110FE7
:10109000660B770B2AE08DE692E00E94E70367E299
:1010A00071E08DE692E00E94D2030E9437024FCE9B
:1010B000461657066806790608F054CF5BCF6E2DAA
:1010C00070E080E090E00E94800B20E030E048EC8F
:1010D00052E40E94D40C2B013C016F2D70E080E0A3
:1010E00090E00E94800B9B01AC01C301B2010E9401
:1010F000680C6B017C01602F70E080E090E00E9442
:10110000800B20E030E048EC52E40E94D40C2B012C
:101110003C01612F70E080E090E00E94800B9B0119
:10112000AC01C301B2010E94680C2B013C010E947A
:10113000C6036093540370935503809356039093B2
:101140005703B301A201CE0143960E94BF04B70129
:10115000A601CE010D960E94BF041A8219821C823C
:101160001B821E821D824CE050E06EE371E0CE01D6
:1011700001960E949E04BE016D5E7F4FCE010196D6
:101180000E946B048C01FC01E480F580FAE0EF0E14
:10119000F11CB7010E943204882309F45BC0F801F6
:1011A00020813181848195816BE471E0820F931FEE
:1011B0000E94410FF801F582E482BE01635F7F4F18
:1011C000C8010E946B0418861F821A8619861C8625
:1011D0001B868215930559F0FC01608171816115B0
:1011E000710529F044815581C1010E949E048981C5
:1011F0009A810E94E40D0B851C850115110589F06B
:10120000C80101978017910708F48C016F817885D8
:10121000A80189E691E00E94480FF801E759FE4FC6
:10122000108269E671E08DE692E00E94D20367E2E7
:1012300071E08DE692E00E94D2038F8198850E9432
:10124000E40D8D859E850E94E40D8B899C890E940A
:10125000E40D2BCFC8010E945904AFCFEF920F933A
:101260001F93CF93DF93E80147FD02C034E001C034
:1012700034E1042E000C550B57FF03C051954195E6
:101280005109E32E022F242FAE010E944E09CE01F8
:10129000DF91CF911F910F91EF900895A9E0B0E0F9
:1012A000E4E5F9E00C94360C6A01122FB02E2BE322
:1012B000201720F0FF24F394F00E02C02CE3F22E4E
:1012C0000F2D27E0AE014F5F5F4F0E94A80ABC01BF
:1012D0004981842F8970813031F0E1FC06C0E0FE45
:1012E00006C090E205C09DE203C09BE201C090E011
:1012F0005E2D507143FF3CC0911102C083E001C0DC
:1013000084E0811718F4212F281B01C020E051111F
:101310000BC0F601822F30E2882319F031938150FF
:10132000FBCFC20ED11C20E0992329F0D6019C935B
:10133000F60131966F01C6010396E2FE0AC03EE453
:10134000D6013C9341E411964C93119712963C932D
:1013500006C03EE6F601308341E641833283FC015C
:10136000322F40E2332309F442C041933150FACF87
:1013700042FF44C0911102C083E001C084E08117A4
:1013800018F4212F281B01C020E051110BC0F601D9
:10139000822F30E2882319F031938150FBCFC20EA7
:1013A000D11C20E0992329F0D6019C93F6013196B7
:1013B0006F01C6010396E2FE0BC039E4D6013C93EF
:1013C0003EE411963C93119736E412963C9307C085
:1013D00039E6F60130833EE6318336E63283FC019E
:1013E000322F40E2332319F041933150FBCFFC01FF
:1013F000E20FF11D10828EEF9FEFA6C021E030E0DA
:10140000911102C020E030E0161617061CF4FB0113
:10141000319602C0E1E0F0E02E0F3F1FBB2021F02B
:10142000EB2DF0E0319602C0E0E0F0E02E0F3F1F20
:10143000E12FF0E02E173F071CF4121B212F01C0F3
:1014400020E08E2D887159F4F601822F30E2882336
:1014500019F031938150FBCFC20ED11C20E09923AB
:1014600029F0D6019C93F60131966F0151110BC002
:10147000F601822F90E3882319F091938150FBCFDE
:10148000C20ED11C20E00F2D060F9A81342F30712F
:1014900044FF03C0913309F40150101624F40930BD
:1014A00018F008E001C001E0AB0177FF02C040E0A6
:1014B00050E0FB01E41BF50BA1E0B0E0AC0FBD1F59
:1014C000EA0FFB1F8EE2A82E4B01801A91080B2D0C
:1014D00010E01195019511094F3FBFEF5B0721F413
:1014E000D601AC9211966D01641775072CF0841625
:1014F000950614F4818101C080E341505109319671
:10150000D60111967D014017510724F0D6018C9326
:101510006701E2CF6417750739F4963320F49533E9
:1015200019F4311101C081E3F6018083F701822FA4
:1015300090E2882319F091938150FBCFF701E20FDD
:10154000F11D108280E090E02996ECE00C94520CA2
:10155000283008F027E03327DA01990F311D87FD85
:10156000916000966105710539F432602E5F3D93FC
:1015700030E32A95E1F708959F3F30F080387105F8
:10158000610509F03C5F3C5F3D93913008F0806855
:10159000911DDF93CF931F930F93FF92EF92192F1B
:1015A000987F9695E92F96959695E90FFF27EE532C
:1015B000FF4F99273327EE24FF24A701E701059069
:1015C0000894079428F4360FE71EF81E491F511D92
:1015D000660F771F881F991F0694A1F7059007943F
:1015E00028F4E70EF81E491F561FC11D770F881FEC
:1015F000991F661F0694A1F70590079428F4F80E2A
:10160000491F561FC71FD11D880F991F661F771FBF
:101610000694A1F70590079420F4490F561FC71FA1
:10162000D81F990F661F771F881F0694A9F784910A
:101630001095177041F0D695C79557954795F79433
:10164000E7941A95C1F7E8E6F0E0689415901591D3
:1016500035916591959105907FE27395E118F10AB6
:10166000430B560BC90BD009C0F7E10CF11E431F09
:10167000561FC91FD01D7EF4703311F48A95E6CF32
:10168000E894015030F0080F0AF40027021708F41C
:10169000202F2395022F7A3328F079E37D932A9522
:1016A000E9F710C07D932A9589F60694979567957A
:1016B000379517951794E118F10A430B560BC90B90
:1016C000D00998F023957E9173957A3308F070E3F2
:1016D0007C932013B8F77E9170617D9330F08395F1
:1016E00071E37D9370E32A95E1F71124EF90FF9069
:1016F0000F911F91CF91DF91992787FD90950895C4
:10170000E89409C097FB3EF490958095709561959B
:101710007F4F8F4F9F4F9923A9F0F92F96E9BB2751
:101720009395F695879577956795B795F111F8CFCD
:10173000FAF4BB0F11F460FF1BC06F5F7F4F8F4F38
:101740009F4F16C0882311F096E911C0772321F02E
:101750009EE8872F762F05C0662371F096E8862FC6
:1017600070E060E02AF09A95660F771F881FDAF71D
:10177000880F9695879597F9089597F99F6780E860
:1017800070E060E008959FEF80EC089500240A94D3
:101790001616170618060906089500240A9412164C
:1017A0001306140605060895092E0394000C11F47F
:1017B000882352F0BB0F40F4BF2B11F460FF04C02C
:1017C0006F5F7F4F8F4F9F4F089557FD9058440F85
:1017D000551F59F05F3F71F04795880F97FB991F90
:1017E00061F09F3F79F0879508951216130614064D
:1017F000551FF2CF4695F1DF08C0161617061806DA
:10180000991FF1CF86957105610508940895E894B4
:10181000BB2766277727CB0197F90895A1E21A2EF7
:10182000AA1BBB1BFD010DC0AA1FBB1FEE1FFF1F84
:10183000A217B307E407F50720F0A21BB30BE40BD4
:10184000F50B661F771F881F991F1A9469F760951B
:101850007095809590959B01AC01BD01CF010895D5
:101860002F923F924F925F926F927F928F929F92B0
:10187000AF92BF92CF92DF92EF92FF920F931F939E
:10188000CF93DF93CDB7DEB7CA1BDB0B0FB6F8944F
:10189000DEBF0FBECDBF09942A88398848885F848F
:1018A0006E847D848C849B84AA84B984C884DF8000
:1018B000EE80FD800C811B81AA81B981CE0FD11DE4
:1018C0000FB6F894DEBF0FBECDBFED01089550589E
:1018D000BB27AA270E947F0C0C94D40B0E94C60B36
:1018E00038F00E94CD0B20F039F49F3F19F426F414
:1018F0000C94C30B0EF4E095E7FB0C94BD0BE92FA1
:101900000E94E50B58F3BA1762077307840795071F
:1019100020F079F4A6F50C94070C0EF4E0950B2E4C
:10192000BA2FA02D0B01B90190010C01CA01A00131
:101930001124FF27591B99F0593F50F4503E68F18C
:101940001A16F040A22F232F342F4427585FF3CFCD
:10195000469537952795A795F0405395C9F77EF49E
:101960001F16BA0B620B730B840BBAF09150A1F0E7
:10197000FF0FBB1F661F771F881FC2F70EC0BA0F6D
:10198000621F731F841F48F4879577956795B795F5
:10199000F7959E3F08F0B0CF9395880F08F09927F0
:1019A000EE0F9795879508950E94E80C0C94D40B40
:1019B0000E94CD0B58F00E94C60B40F029F45F3F07
:1019C00029F00C94BD0B51110C94080C0C94C30B12
:1019D0000E94E50B68F39923B1F3552391F3951B0E
:1019E000550BBB27AA2762177307840738F09F5F40
:1019F0005F4F220F331F441FAA1FA9F335D00E2EAD
:101A00003AF0E0E832D091505040E695001CCAF719
:101A10002BD0FE2F29D0660F771F881FBB1F2617DC
:101A200037074807AB07B0E809F0BB0B802DBF01B3
:101A3000FF2793585F4F3AF09E3F510578F00C9482
:101A4000BD0B0C94080C5F3FE4F3983ED4F38695ED
:101A500077956795B795F7959F5FC9F7880F911DA3
:101A60009695879597F90895E1E0660F771F881F8F
:101A7000BB1F621773078407BA0720F0621B730B42
:101A8000840BBA0BEE1F88F7E0950895EE0FFF1F49
:101A90000590F491E02D09940F931F93CF93DF935A
:101AA0008230910510F482E090E0E0915A03F091C9
:101AB0005B0320E030E0A0E0B0E0309719F1408116
:101AC00051810281138148175907C8F0841795077F
:101AD00069F4109731F012960C93129713961C9399
:101AE00027C000935A0310935B0322C021153105D0
:101AF00019F04217530718F49A01BD01EF01DF01F5
:101B0000F801DBCF21153105F9F0281B390B243002
:101B1000310580F48A819B816115710521F0FB01FB
:101B20009383828304C090935B0380935A03FE01E6
:101B3000329644C0FE01E20FF31F8193919322502D
:101B40003109398328833AC02091580330915903D1
:101B5000232B41F42091020130910301309359036A
:101B60002093580320910001309101012115310586
:101B700041F42DB73EB74091040150910501241B5B
:101B8000350BE0915803F0915903E217F307A0F4E5
:101B90002E1B3F0B2817390778F0AC014E5F5F4FC3
:101BA0002417350748F04E0F5F1F50935903409399
:101BB00058038193919302C0E0E0F0E0CF01DF9100
:101BC000CF911F910F910895CF93DF93009709F460
:101BD00081C0FC01329713821282A0915A03B09106
:101BE0005B03109781F420813181820F931F209134
:101BF0005803309159032817390751F5F0935903C9
:101C0000E093580367C0ED0120E030E0CE17DF0716
:101C100040F44A815B819E0141155105F1F0EA01D2
:101C2000F5CFD383C28340815181840F951FC8179C
:101C3000D90759F488819981840F951F0296918361
:101C400080838A819B81938382832115310529F4C6
:101C5000F0935B03E0935A033DC0E901FB83EA8301
:101C600049915991C40FD51FEC17FD0761F480818C
:101C70009181840F951F0296E9019983888382815F
:101C800093819B838A83E0E0F0E012968D919C9192
:101C90001397009719F0FD01DC01F7CF8D919C910E
:101CA00011979D012E5F3F4F820F931F2091580384
:101CB000309159032817390769F4309729F41092A5
:101CC0005B0310925A0302C013821282B09359032D
:101CD000A0935803DF91CF910895A0E0B0E0E3E72F
:101CE000FEE00C94340CEC01009721F4CB010E942F
:101CF0004C0DB4C0FC01E60FF71F9C0122503109C6
:101D0000E217F30708F4A8C0D9010D911C911197AF
:101D100006171707B0F00530110508F49BC0C8017D
:101D200004978617970708F495C002501109061BFF
:101D3000170B019311936D937C93CF010E94E40DD7
:101D400089C05B01A01AB10A4C01800E911EA091BE
:101D50005A03B0915B03612C712CE12CF12C10978C
:101D600009F446C08D919C911197A815B905B1F55C
:101D70006C0142E0C40ED11CCA14DB0478F14C01A2
:101D80008A189B08640142E0C40ED11C1296BC90D4
:101D900012971396AC91B5E0CB16D10440F0B28205
:101DA000A38391828082D9016D937C9309C00E5FD9
:101DB0001F4F800F911FF90191838083EB2DFA2F24
:101DC000E114F10431F0D7011396FC93EE931297CE
:101DD00041C0F0935B03E0935A033CC06816790658
:101DE00008F43C017D0112960D90BC91A02DB7CF57
:101DF000809158039091590388169906E1F466166C
:101E00007706C8F48091000190910101009741F498
:101E10008DB79EB74091040150910501841B950B2D
:101E2000E817F907C8F4F0935903E0935803F90150
:101E3000718360830FC0CB010E944C0D7C01009721
:101E400059F0A801BE010E94380FCE010E94E40D96
:101E5000C70104C0CE0102C080E090E0CDB7DEB77C
:101E6000EEE00C94500C81E090E0F8940C94570F45
:101E7000FB01DC0102C001900D9241505040D8F7A7
:101E80000895FB01DC0101900D920020E1F7089517
:101E9000FB01DC014150504048F001900D920020C0
:101EA000C9F701C01D9241505040E0F70895F894E1
:021EB000FFCF62
:101EB20000005C03800000000000C80131015F01E6
:101EC200150290016E018201564D4450565F317CDD
:101ED200315F564D4450560D0A00564D4450455FF1
:101EE200003A323A007C005F564D4450450074651A
:101EF2006D70617261747572653A0068756D6964BE
:101F02006974793A20004552524F52203A2000001B
:00000001FF
