:100000000C9462000C948A000C948A000C948A0070
:100010000C948A000C948A000C948A000C948A0038
:100020000C948A000C948A000C948A000C948A0028
:100030000C948A000C948A000C948A000C948A0018
:100040000C9461040C948A000C942F040C94090401
:100050000C948A000C948A000C948A000C948A00F8
:100060000C948A000C948A000000000024002700F1
:100070002A0000000000250028002B0000000000DE
:1000800023002600290004040404040404040202DA
:100090000202020203030303030301020408102007
:1000A0004080010204081020010204081020000012
:1000B0000008000201000003040700000000000027
:1000C0000000AB0411241FBECFEFD8E0DEBFCDBFD0
:1000D00022E0A8E3B1E001C01D92A833B207E1F726
:1000E00011E0A0E0B1E0E8E4FFE002C005900D926D
:1000F000A833B107D9F710E0C2E6D0E004C02197D9
:10010000FE010E949707C136D107C9F70E941B055F
:100110000C94A2070C940000E7E4F1E0A089B189F7
:1001200082E08C93A485B5851C92A685B7858FEC5B
:100130008C93108EA489B58986E08C93A289B389AB
:100140008C9180618C93A289B3898C9188608C9307
:10015000A289B3898C9180688C930288F389E02D01
:1001600080818F7D80830895CF92DF92EF92FF92FE
:100170000F931F93CF93DF936C017A018B01C0E043
:10018000D0E0CE15DF0581F0D8016D918D01D6014B
:10019000ED91FC910190F081E02DC6010995892B2C
:1001A00011F02196EECF7E01C701DF91CF911F9113
:1001B0000F91FF90EF90DF90CF900895089580E029
:1001C00090E00895FC01538D448D252F30E0842F5D
:1001D00090E0821B930B541710F0CF96089501976F
:1001E0000895FC01918D828D981761F0828DDF0159
:1001F000A80FB11D5D968C91928D9F5F9F73928F1A
:1002000090E008958FEF9FEF0895FC01918D828D0E
:10021000981731F0828DE80FF11D858D90E00895DB
:100220008FEF9FEF0895FC01918D228D892F90E033
:10023000805C9F4F821B91098F739927089587E4F3
:1002400091E00E94130121E0892B09F420E0822F24
:100250000895FC01848DDF01A80FB11DA35ABF4F83
:100260002C91848D90E001968F739927848FA689B5
:10027000B7892C93A089B1898C91837080648C9309
:10028000938D848D981306C00288F389E02D8081B8
:100290008F7D80830895EF92FF920F931F93CF93EA
:1002A000DF93EC0181E0888F9B8D8C8D981305C0C6
:1002B000E889F989808185FD26C0F62E0B8D10E036
:1002C0000F5F1F4F0F731127E02E8C8DE8120CC0AB
:1002D0000FB607FCFACFE889F989808185FFF5CF51
:1002E000CE010E942901F1CF8B8DFE01E80FF11D97
:1002F000E35AFF4FF0829FB7F8940B8FEA89FB898E
:10030000808180620AC09FB7F894EE89FF8960837C
:10031000E889F98980818370806480839FBF81E050
:1003200090E0DF91CF911F910F91FF90EF90089592
:10033000CF93DF93EC01888D8823C9F0EA89FB898C
:10034000808185FD05C0A889B9898C9186FD0FC083
:100350000FB607FCF5CF808185FFF2CFA889B98958
:100360008C9185FFEDCFCE010E942901E7CFDF916F
:10037000CF91089580E090E0892B29F00E941F0121
:1003800081110C9400000895833081F028F48130AD
:1003900099F08230A1F008958730A9F08830B9F043
:1003A0008430D1F4809180008F7D03C080918000E3
:1003B0008F7780938000089584B58F7702C084B5CD
:1003C0008F7D84BD08958091B0008F7703C08091A8
:1003D000B0008F7D8093B0000895CF93DF93282FD6
:1003E00030E0F901E255FF4F8491F901E656FF4FE5
:1003F000D491F901EA57FF4FC491CC2391F08111B8
:100400000E94C401EC2FF0E0EE0FFF1FE458FF4FF5
:10041000A591B491EC91ED2381E090E021F480E08E
:1004200002C080E090E0DF91CF9108951F93CF93B9
:10043000DF93282F30E0F901E255FF4F8491F90155
:10044000E656FF4FD491F901EA57FF4FC491CC23F0
:10045000C1F0162F81110E94C401EC2FF0E0EE0FC5
:10046000FF1FEE58FF4FA591B4919FB7F89411115B
:1004700004C08C91D095D82302C0EC91DE2BDC9384
:100480009FBFDF91CF911F910895CF93DF9390E0AD
:10049000FC01E656FF4F2491FC01EA57FF4F84917F
:1004A000882361F190E0880F991FFC01E859FF4F04
:1004B000C591D491FC01EE58FF4FA591B491611103
:1004C00009C09FB7F8948881209582238883EC9196
:1004D0002E230BC0623061F49FB7F8948881322FCD
:1004E000309583238883EC912E2B2C939FBF06C0DD
:1004F0008FB7F894E8812E2B28838FBFDF91CF919F
:1005000008951F93CF93DF93182FEB0161E00E94B2
:100510004502209711F460E004C0CF3FD10539F4C3
:1005200061E0812FDF91CF911F910C941602E12F92
:10053000F0E0E255FF4FE491E330F9F048F4E130A8
:10054000B9F0E230A1F584B5806284BDC8BD34C085
:10055000E730E9F0E83019F1E43049F580918000A6
:10056000806280938000D0938B00C0938A0024C067
:1005700084B5806884BDC7BD1FC08091800080683D
:1005800080938000D0938900C093880015C080912B
:10059000B00080688093B000C093B3000DC080911C
:1005A000B00080628093B000C093B40005C0C03832
:1005B000D1050CF0B5CFAFCFDF91CF911F9108954A
:1005C000CF93DF93CCE2D2E060E088810E941602F4
:1005D00060E08A810E94160260E070E08C810E94D7
:1005E000810260E08E810E94160260E088850E9490
:1005F000160260E070E08A85DF91CF910C94810251
:10060000CF93DF93CCE2D2E060E088810E941602B3
:1006100061E08A810E9416026FEF70E08C810E9477
:10062000810261E08E810E94160260E088850E944E
:1006300016026FEF70E08A85DF91CF910C948102F2
:10064000CF93DF93CCE2D2E061E088810E94160272
:1006500060E08A810E9416026FEF70E08C810E9438
:10066000810260E08E810E94160261E088850E940E
:1006700016026FEF70E08A85DF91CF910C948102B2
:100680003FB7F89480913D0190913E01A0913F01C8
:10069000B091400126B5A89B05C02F3F19F00196E7
:1006A000A11DB11D3FBFBA2FA92F982F8827820FF8
:1006B000911DA11DB11DBC01CD0142E0660F771F48
:1006C000881F991F4A95D1F708958F929F92AF92F4
:1006D000BF92CF92DF92EF92FF920E9440034B01B4
:1006E0005C0184EFC82EDD24D394E12CF12C0E9410
:1006F0004003DC01CB0188199909AA09BB09883E8E
:100700009340A105B10598F321E0C21AD108E10890
:10071000F10888EE880E83E0981EA11CB11CC1145C
:10072000D104E104F10419F7FF90EF90DF90CF902E
:10073000BF90AF909F908F9008952FB7F8946091DD
:10074000390170913A0180913B0190913C012FBF9A
:1007500008956115710579F0FB0101900020E9F71A
:100760003197AF01461B570BDC01ED91FC910280E4
:10077000F381E02D099480E090E008958F929F929C
:10078000AF92BF92EF92FF920F931F93CF93DF939D
:10079000CDB7DEB7A1970FB6F894DEBF0FBECDBFC1
:1007A0007C01FA01CB0119A2223008F42AE08E0163
:1007B0000F5D1F4F822E912CA12CB12CBF01A501E2
:1007C00094010E947507F901CA01015011096A30AC
:1007D00014F4605D01C0695CD8016C93232B242B59
:1007E000252B61F7B801C7010E94A903A1960FB696
:1007F000F894DEBF0FBECDBFDF91CF911F910F9157
:10080000FF90EF90BF90AF909F908F9008950E94BF
:100810009D071F920F920FB60F9211242F933F93B3
:100820004F935F936F937F938F939F93AF93BF93F8
:10083000EF93FF9387E491E00E942901FF91EF91EC
:10084000BF91AF919F918F917F916F915F914F91E8
:100850003F912F910F900FBE0F901F9018951F92F0
:100860000F920FB60F9211242F938F939F93EF93B4
:10087000FF93E0915701F09158018081E0915D0173
:10088000F0915E0182FD12C09081809160018F5FC6
:100890008F7320916101821751F0E0916001F0E0C7
:1008A000E95BFE4F958F8093600101C08081FF91CD
:1008B000EF919F918F912F910F900FBE0F901F90EE
:1008C00018951F920F920FB60F9211242F933F93FA
:1008D0008F939F93AF93BF938091390190913A0189
:1008E000A0913B01B0913C013091380123E0230FEE
:1008F0002D3720F40196A11DB11D05C026E8230F58
:100900000296A11DB11D2093380180933901909367
:100910003A01A0933B01B0933C0180913D0190913D
:100920003E01A0913F01B09140010196A11DB11D72
:1009300080933D0190933E01A0933F01B09340010D
:10094000BF91AF919F918F913F912F910F900FBECB
:100950000F901F901895E7E4F1E01382128288EE61
:1009600093E0A0E0B0E084839583A683B78384E01E
:1009700091E09183808385EC90E09587848784EC77
:1009800090E09787868780EC90E0918B808B81EC5C
:1009900090E0938B828B82EC90E0958B848B86EC3D
:1009A00090E0978B868B118E128E138E148EE4EE50
:1009B000F1E016821782108611861286138614863D
:1009C000158616861786108A118A128A138A148A47
:1009D000158AECE2F2E089E090E09183808388E080
:1009E00090E0938382838AE090E09583848387E01C
:1009F00090E09783868386E090E09187808785E00A
:100A000090E09387828761E089E00E94450261E07F
:100A100088E00E94450261E08AE00E94450261E0B0
:100A200087E00E94450261E086E00E94450261E0A5
:100A300085E00C944502789484B5826084BD84B5C9
:100A4000816084BD85B5826085BD85B5816085BDC9
:100A500080916E00816080936E0010928100809181
:100A60008100826080938100809181008160809309
:100A70008100809180008160809380008091B1002E
:100A800084608093B1008091B00081608093B00059
:100A900080917A00846080937A0080917A008260ED
:100AA00080937A0080917A00816080937A008091AF
:100AB0007A00806880937A001092C1001092280218
:100AC0001092290210922A0210922B021092E60133
:100AD0001092E7011092E8011092E9010E949D0333
:100AE0006B017C014B015C0128EB820E2BE0921E16
:100AF000A11CB11C0E949D036C157D058E059F05F0
:100B000028F086169706A806B906A0F787E491E0B4
:100B100090932702809326020E948C000E949D03DE
:100B20006093E6017093E7018093E8019093E901F7
:100B300062E171E080912602909127020E94A90350
:100B40000E949D036B017C014B015C013AE0830E26
:100B5000911CA11CB11C0E949D036C157D058E0586
:100B60009F0528F086169706A806B906A0F781E02B
:100B70008093FA0160E083E00E94450260E084E037
:100B80000E9445020E948C0084EF882E9924939441
:100B9000A12CB12C0E949D03672B682B692B41F47B
:100BA0000E949D03623071058105910508F410C112
:100BB0000E949D03C0904301D0904401E090450104
:100BC000F09046016C157D058E059F0540F46093FD
:100BD0004301709344018093450190934601C09076
:100BE0004301D0904401E0904501F09046019B0103
:100BF000AC012C193D094E095F0969017A013AEFF0
:100C0000C316D104E104F10408F4E2C06093430187
:100C10007093440180934501909346018092F201C4
:100C20009092F301A092F401B092F5011092F601B6
:100C30001092F7011092F8011092F9018091EA01E7
:100C40009091EB01A091EC01B091ED018093EE0148
:100C50009093EF01A093F001B093F1010E949D03E6
:100C60006093EA017093EB018093EC019093ED01A6
:100C70000E949D036093E6017093E7018093E80171
:100C80009093E9010E949D036B017C0164E271E095
:100C900080912602909127020E94A9032AE041E058
:100CA00050E060E070E080912602909127020E945F
:100CB000BE036BE271E080912602909127020E94B0
:100CC000A9032AE0B701A60180912602909127028C
:100CD0000E94BE036DE271E080912602909127028E
:100CE0000E94A9038091EA019091EB01A091EC018F
:100CF000B091ED01B701A601481B590B6A0B7B0BA4
:100D00002AE080912602909127020E94BE036DE2A4
:100D100071E080912602909127020E94A9034091E0
:100D2000EA015091EB016091EC017091ED0180912D
:100D3000EE019091EF01A091F001B091F101481BFB
:100D4000590B6A0B7B0B2AE08091260290912702B7
:100D50000E94BE036FE271E080912602909127020B
:100D60000E94A9030E949D03AB01BC012AE080916F
:100D70002602909127020E94BE03E0902602F09086
:100D8000270261E371E0C7010E94A90361E271E0FB
:100D9000C7010E94A9030E949D036B017C012B01E6
:100DA0003C0142E0440E511C611C711C0E949D03D9
:100DB0006C157D058E059F0508F090C00E949D036F
:100DC0006093EA017093EB018093EC019093ED0145
:100DD00083E00E94ED017C019093420180934101E8
:100DE00084E00E94ED01892B09F04AC0EF2809F543
:100DF00060E080912C020E94160261E080912E0238
:100E00000E94160264E670E0809130020E94810226
:100E100060E0809132020E94160261E0809134020B
:100E20000E94160264E670E0809136020E94810200
:100E300052C00E94E0020E9465030E94000383E00A
:100E40000E94ED017C01909342018093410184E076
:100E50000E94ED01892B89F3EF2879F70E94200386
:100E600083E00E94ED017C01909342018093410157
:100E700084E00E94ED01892B89F7EF2879F72BC0D8
:100E8000EF2839F50E94E0020E9465030E942003CA
:100E900083E00E94ED017C01909342018093410127
:100EA00084E00E94ED01892B89F7EF2879F30E94F5
:100EB000000383E00E94ED017C0190934201809346
:100EC000410184E00E94ED01892B89F7EF2879F731
:100ED00002C00E94E0020E94BA015CCE461657068C
:100EE0006806790608F062CF69CFA1E21A2EAA1B24
:100EF000BB1BFD010DC0AA1FBB1FEE1FFF1FA217CA
:100F0000B307E407F50720F0A21BB30BE40BF50BC6
:100F1000661F771F881F991F1A9469F7609570954F
:100F2000809590959B01AC01BD01CF010895EE0F16
:100F3000FF1F0590F491E02D099481E090E0F89472
:080F40000C94A207F894FFCF06
:100F4800000000004B01B400E20098011301F10019
:100F58000501564D4450565F317C315F564D445023
:100F6800560D0A00564D4450455F003A323A007C0F
:080F7800005F564D4450450096
:00000001FF
