:100000000C9462000C948A000C948A000C948A0070
:100010000C948A000C948A000C948A000C948A0038
:100020000C948A000C948A000C948A000C948A0028
:100030000C948A000C948A000C948A000C948A0018
:100040000C94E0020C948A000C94AE020C9488028A
:100050000C948A000C948A000C948A000C948A00F8
:100060000C948A000C948A000000000023002600F3
:10007000290000000008000201000003040700003E
:1000800000000000000000000000250028002B00F8
:1000900000000000240027002A00040404040404D3
:1000A0000404020202020202030303030303010227
:1000B00004081020408001020408102001020408F6
:1000C00010202A0311241FBECFEFD8E0DEBFCDBF22
:1000D00022E0A8E3B1E001C01D92AD32B207E1F722
:1000E00011E0A0E0B1E0E6EFFBE002C005900D9268
:1000F000A833B107D9F710E0C2E6D0E004C02197D9
:10010000FE010E94EE05C136D107C9F70E94B50372
:100110000C94F9050C940000E5E4F1E0A089B189A4
:1001200082E08C93A485B5851C92A685B7858FEC5B
:100130008C93108EA489B58986E08C93A289B389AB
:100140008C9180618C93A289B3898C9188608C9307
:10015000A289B3898C9180688C930288F389E02D01
:1001600080818F7D80830895CF92DF92EF92FF92FE
:100170000F931F93CF93DF936C017A018B01C0E043
:10018000D0E0CE15DF0581F0D8016D918D01D6014B
:10019000ED91FC910190F081E02DC6010995892B2C
:1001A00011F02196EECF7E01C701DF91CF911F9113
:1001B0000F91FF90EF90DF90CF900895089580E029
:1001C00090E00895FC01538D448D252F30E0842F5D
:1001D00090E0821B930B541710F0CF96089501976F
:1001E0000895FC01918D828D981761F0828DDF0159
:1001F000A80FB11D5D968C91928D9F5F9F73928F1A
:1002000090E008958FEF9FEF0895FC01918D828D0E
:10021000981731F0828DE80FF11D858D90E00895DB
:100220008FEF9FEF0895FC01918D228D892F90E033
:10023000805C9F4F821B91098F739927089585E4F5
:1002400091E00E94130121E0892B09F420E0822F24
:100250000895FC01848DDF01A80FB11DA35ABF4F83
:100260002C91848D90E001968F739927848FA689B5
:10027000B7892C93A089B1898C91837080648C9309
:10028000938D848D981306C00288F389E02D8081B8
:100290008F7D80830895EF92FF920F931F93CF93EA
:1002A000DF93EC0181E0888F9B8D8C8D981305C0C6
:1002B000E889F989808185FD26C0F62E0B8D10E036
:1002C0000F5F1F4F0F731127E02E8C8DE8120CC0AB
:1002D0000FB607FCFACFE889F989808185FFF5CF51
:1002E000CE010E942901F1CF8B8DFE01E80FF11D97
:1002F000E35AFF4FF0829FB7F8940B8FEA89FB898E
:10030000808180620AC09FB7F894EE89FF8960837C
:10031000E889F98980818370806480839FBF81E050
:1003200090E0DF91CF911F910F91FF90EF90089592
:10033000CF93DF93EC01888D8823C9F0EA89FB898C
:10034000808185FD05C0A889B9898C9186FD0FC083
:100350000FB607FCF5CF808185FFF2CFA889B98958
:100360008C9185FFEDCFCE010E942901E7CFDF916F
:10037000CF91089580E090E0892B29F00E941F0121
:1003800081110C9400000895833081F028F48130AD
:1003900099F08230A1F008958730A9F08830B9F043
:1003A0008430D1F4809180008F7D03C080918000E3
:1003B0008F7780938000089584B58F7702C084B5CD
:1003C0008F7D84BD08958091B0008F7703C08091A8
:1003D000B0008F7D8093B00008951F93CF93DF937B
:1003E000282F30E0F901EE58FF4F8491F901E255D2
:1003F000FF4FD491F901E656FF4FC491CC23C1F0D1
:10040000162F81110E94C401EC2FF0E0EE0FFF1FA8
:10041000EA57FF4FA591B4919FB7F894111104C00A
:100420008C91D095D82302C0EC91DE2BDC939FBF3A
:10043000DF91CF911F9108952FB7F89460913D01FE
:1004400070913E0180913F01909140012FBF08952E
:100450006115710579F0FB0101900020E9F73197F2
:10046000AF01461B570BDC01ED91FC910280F3813B
:10047000E02D099480E090E008958F929F92AF92D2
:10048000BF92EF92FF920F931F93CF93DF93CDB75D
:10049000DEB7A1970FB6F894DEBF0FBECDBF7C01CB
:1004A000FA01CB0119A2223008F42AE08E010F5D77
:1004B0001F4F822E912CA12CB12CBF01A5019401BC
:1004C0000E94CC05F901CA01015011096A3014F4E7
:1004D000605D01C0695CD8016C93232B242B252B14
:1004E00061F7B801C7010E942802A1960FB6F894DF
:1004F000DEBF0FBECDBFDF91CF911F910F91FF9057
:10050000EF90BF90AF909F908F9008950E94F40558
:100510001F920F920FB60F9211242F933F934F9378
:100520005F936F937F938F939F93AF93BF93EF935B
:10053000FF9385E491E00E942901FF91EF91BF9123
:10054000AF919F918F917F916F915F914F913F916B
:100550002F910F900FBE0F901F9018951F920F9222
:100560000FB60F9211242F938F939F93EF93FF93C6
:10057000E0915501F09156018081E0915B01F0918D
:100580005C0182FD12C0908180915E018F5F8F734C
:1005900020915F01821751F0E0915E01F0E0EB5B8A
:1005A000FE4F958F80935E0101C08081FF91EF9196
:1005B0009F918F912F910F900FBE0F901F901895C4
:1005C0001F920F920FB60F9211242F933F938F9388
:1005D0009F93AF93BF9380913D0190913E01A09175
:1005E0003F01B091400130913C0123E0230F2D37B2
:1005F00020F40196A11DB11D05C026E8230F029627
:10060000A11DB11D20933C0180933D0190933E01BB
:10061000A0933F01B093400180913801909139013E
:10062000A0913A01B0913B010196A11DB11D8093AB
:10063000380190933901A0933A01B0933B01BF91E7
:10064000AF919F918F913F912F910F900FBE0F907F
:100650001F901895109248011092470188EE93E080
:10066000A0E0B0E08093490190934A01A0934B0130
:10067000B0934C0184E091E0909346018093450152
:1006800085EC90E0909352018093510184EC90E0CE
:10069000909354018093530180EC90E09093560125
:1006A0008093550181EC90E090935801809357011D
:1006B00082EC90E090935A018093590186EC90E08F
:1006C00090935C0180935B0110925E0110925F0138
:1006D00010926001109261011092E8011092E901FC
:1006E0001092EA011092EB011092EC011092ED01D0
:1006F0001092EE011092EF011092F0011092F101B0
:100700001092F2011092F3011092F4011092F5018F
:100710001092F6011092F7018CE090E090932B027A
:1007200080932A0210922C02EAEBF0E02491E6EA90
:10073000F0E08491882399F090E0880F991FFC01E4
:10074000E057FF4FA591B491FC01EA57FF4F859107
:1007500094918FB7F894EC91E22BEC938FBF60915A
:100760002C0280912A020C94ED01789484B5826069
:1007700084BD84B5816084BD85B5826085BD85B545
:10078000816085BD80916E00816080936E001092C3
:10079000810080918100826080938100809181003E
:1007A00081608093810080918000816080938000CF
:1007B0008091B10084608093B1008091B00081602D
:1007C0008093B00080917A00846080937A00809159
:1007D0007A00826080937A0080917A0081608093B1
:1007E0007A0080917A00806880937A001092C1002C
:1007F00010922602109227021092280210922902CB
:100800001092E4011092E5011092E6011092E701C6
:100810000E941C026B017C014B015C0128EB820EE3
:100820002BE0921EA11CB11C0E941C026C157D05C0
:100830008E059F0528F086169706A806B906A0F72C
:1008400085E491E090932502809324020E948C001D
:100850000E941C026093E4017093E5018093E6011D
:100860009093E70162E171E080912402909125026A
:100870000E9428020E941C026B017C014B015C015A
:100880003AE0830E911CA11CB11C0E941C026C1545
:100890007D058E059F0528F086169706A806B906E1
:1008A000A0F781E08093F8010EEA10E0F8012491AE
:1008B000CAE9D0E0FE0184918823C9F090E0880F56
:1008C000991FFC01E057FF4FA591B491FC01EA5735
:1008D000FF4F459154913FB7F8949C91822F80959A
:1008E00098239C93FA019081892380833FBF0E94C3
:1008F0008C0094EF492E55245394612C712C22E7DF
:10090000222E20E0322E0E941C02672B682B692BBE
:1009100041F40E941C02623071058105910508F4C2
:100920000FC10E941C02C0904101D0904201E09092
:100930004301F09044016C157D058E059F0540F440
:10094000609341017093420180934301909344016D
:10095000C0904101D0904201E0904301F0904401E9
:100960009B01AC012C193D094E095F0969017A010F
:100970003AEFC316D104E104F10408F4E1C0609336
:10098000410170934201809343019093440140924E
:10099000F0015092F1016092F2017092F301109215
:1009A000F4011092F5011092F6011092F701809176
:1009B000E8019091E901A091EA01B091EB018093E7
:1009C000EC019093ED01A093EE01B093EF010E9432
:1009D0001C026093E8017093E9018093EA0190930F
:1009E000EB010E941C026093E4017093E501809387
:1009F000E6019093E7010E941C026B017C0164E216
:100A000071E080912402909125020E9428022AE040
:100A100041E050E060E070E0809124029091250276
:100A20000E943D026BE271E08091240290912502C8
:100A30000E9428022AE0B701A60180912402909129
:100A400025020E943D026DE271E0809124029091A6
:100A500025020E9428028091E8019091E901A0916D
:100A6000EA01B091EB01B701A601481B590B6A0BD3
:100A70007B0B2AE080912402909125020E943D0286
:100A80006DE271E080912402909125020E9428027B
:100A90004091E8015091E9016091EA017091EB0108
:100AA0008091EC019091ED01A091EE01B091EF01E8
:100AB000481B590B6A0B7B0B2AE080912402909112
:100AC00025020E943D026FE271E080912402909124
:100AD00025020E9428020E941C02AB01BC012AE0F0
:100AE00080912402909125020E943D02E090240210
:100AF000F090250261E371E0C7010E94280261E2E3
:100B000071E0C7010E9428020E941C026B017C0157
:100B10004B015C0142E0840E911CA11CB11C0E949F
:100B20001C026C157D058E059F0508F50E941C02B0
:100B30006093E8017093E9018093EA019093EB01DF
:100B4000F1018491F801F490FE01E490EE20A9F007
:100B500081110E94C401EE2DF0E0EE0FFF1FE85955
:100B6000FF4FA591B4918C91F82239F00BC08616F5
:100B70009706A806B90698F6D9CFF1E0F0932C02B3
:100B800061E003C010922C0260E080912A020E9472
:100B9000ED010E94BA01B7CEA1E21A2EAA1BBB1B1F
:100BA000FD010DC0AA1FBB1FEE1FFF1FA217B30739
:100BB000E407F50720F0A21BB30BE40BF50B661F4F
:100BC000771F881F991F1A9469F760957095809513
:100BD00090959B01AC01BD01CF010895EE0FFF1F61
:100BE0000590F491E02D099481E090E0F8940C9444
:060BF000F905F894FFCFA7
:100BF600000000004B01B400E20098011301F1006F
:100C06000501564D4450565F317C315F564D445078
:100C1600560D0A00564D4450455F003A323A007C64
:080C2600005F564D44504500EB
:00000001FF
