:100000000C9463000C948B000C948B000C949A035A
:100010000C949A030C949A030C948B000C948B0010
:100020000C948B000C948B000C948B000C948B0024
:100030000C948B000C948B000C948B000C948B0014
:100040000C9450030C948B000C941E030C94F80237
:100050000C948B000C948B000C948B000C948B00F4
:100060000C948B000C948B0000000008000201002F
:100070000003040700000000000000000000000072
:1000800023002600290000000000240027002A0089
:1000900000000000250028002B00040404040404D0
:1000A0000404020202020202030303030303010227
:1000B00004081020408001020408102001020408F6
:1000C000102061041F0811241FBECFEFD8E0DEBF4F
:1000D000CDBF22E0AAE4B1E001C01D92AF39B20762
:1000E000E1F711E0A0E0B1E0EAE3F1E102C0059040
:1000F0000D92AA34B107D9F710E0C2E6D0E004C0EF
:100100002197FE010E948508C136D107C9F70E94D8
:1001100063050C9490080C940000EBE9F1E0A089D1
:10012000B18982E08C93A485B5851C92A685B7859C
:100130008FEC8C93108EA489B58986E08C93A2896C
:10014000B3898C9180618C93A289B3898C918860EA
:100150008C93A289B3898C9180688C930288F389EF
:10016000E02D80818F7D80830895CF92DF92EF9282
:10017000FF920F931F93CF93DF936C017A018B0152
:10018000C0E0D0E0CE15DF0581F0D8016D918D0182
:10019000D601ED91FC910190F081E02DC601099509
:1001A000892B11F02196EECF7E01C701DF91CF910F
:1001B0001F910F91FF90EF90DF90CF9008950895D9
:1001C000FC01538D448D252F30E0842F90E0821B5D
:1001D000930B541710F0CF96089501970895FC01E2
:1001E000918D828D981761F0828DDF01A80FB11D6E
:1001F0005D968C91928D9F5F9F73928F90E0089592
:100200008FEF9FEF0895FC01918D828D981731F04B
:10021000828DE80FF11D858D90E008958FEF9FEF9F
:100220000895FC01918D228D892F90E0805C9F4F75
:10023000821B91098F73992708958BE991E00E94A1
:10024000110121E0892B09F420E0822F0895FC019F
:10025000848DDF01A80FB11DA35ABF4F2C91848D4F
:1002600090E001968F739927848FA689B7892C9384
:10027000A089B1898C91837080648C93938D848DD7
:10028000981306C00288F389E02D80818F7D8083DA
:100290000895EF92FF920F931F93CF93DF93EC019A
:1002A00081E0888F9B8D8C8D981305C0E889F98932
:1002B000808185FD26C0F62E0B8D10E00F5F1F4F4D
:1002C0000F731127E02E8C8DE8120CC00FB607FCBF
:1002D000FACFE889F989808185FFF5CFCE010E94A8
:1002E0002701F1CF8B8DFE01E80FF11DE35AFF4F7F
:1002F000F0829FB7F8940B8FEA89FB898081806236
:100300000AC09FB7F894EE89FF896083E889F9896C
:1003100080818370806480839FBF81E090E0DF9163
:10032000CF911F910F91FF90EF900895CF93DF939E
:10033000EC01888D8823C9F0EA89FB89808185FDDD
:1003400005C0A889B9898C9186FD0FC00FB607FC3E
:10035000F5CF808185FFF2CFA889B9898C9185FF7F
:10036000EDCFCE010E942701E7CFDF91CF91089515
:1003700080E090E0892B29F00E941D0181110C94EE
:10038000000008953FB7F89480918F0190919001FB
:10039000A0919101B091920126B5A89B05C02F3F75
:1003A00019F00196A11DB11D3FBFBA2FA92F982F9B
:1003B0008827820F911DA11DB11DBC01CD0142E016
:1003C000660F771F881F991F4A95D1F708952FB799
:1003D000F89460918B0170918C0180918D019091C6
:1003E0008E012FBF08952091950130919601281715
:1003F000390771F49091930180919401981741F01D
:10040000E0919301F0E0E65BFE4F808190E008957B
:100410008FEF9FEF08951F93CF93DF93DC015C96DE
:100420008D919C915D97009739F421E030E013960F
:100430003C932E9312973BC05196ED91FC915297AD
:1004400050962C915097322F30951FB75E964C9155
:100450005E97742F727041FD6095F8944081772308
:1004600011F0422B01C043234083EC012197F1F7A7
:1004700048E0508160FF02C0522B01C053235083DB
:10048000EC012197F1F76695415099F78081772328
:1004900019F08323808302C0282B20831FBF5C9622
:1004A0008D919C915D970197F1F781E090E0DF914C
:1004B000CF911F91089520919501309196012817B1
:1004C000390771F4809194012091930190E0805C50
:1004D0009F4F821B910960E470E00E945D080895BF
:1004E00080E090E0089520919501309196012817C1
:1004F0003907B9F49091930180919401981789F08C
:10050000E0919301F0E0E65BFE4F80812091930142
:1005100030E02F5F3F4F2F7333272093930190E0FC
:1005200008958FEF9FEF0895089580E090E008957B
:100530006115710579F0FB0101900020E9F7319711
:10054000AF01461B570BDC01ED91FC910280F3815A
:10055000E02D099480E090E008958F929F92AF92F1
:10056000BF92EF92FF920F931F93CF93DF93CDB77C
:10057000DEB7A1970FB6F894DEBF0FBECDBF7C01EA
:10058000FA01CB0119A2223008F42AE08E010F5D96
:100590001F4F822E912CA12CB12CBF01A5019401DB
:1005A0000E943B08F901CA01015011096A3014F494
:1005B000605D01C0695CD8016C93232B242B252B33
:1005C00061F7B801C7010E949802A1960FB6F8948E
:1005D000DEBF0FBECDBFDF91CF911F910F91FF9076
:1005E000EF90BF90AF909F908F9008950E948B08DE
:1005F0001F920F920FB60F9211242F933F934F9398
:100600005F936F937F938F939F93AF93BF93EF937A
:10061000FF938BE991E00E942701FF91EF91BF9139
:10062000AF919F918F917F916F915F914F913F918A
:100630002F910F900FBE0F901F9018951F920F9241
:100640000FB60F9211242F938F939F93EF93FF93E5
:10065000E091AB01F091AC018081E091B101F091AA
:10066000B20182FD12C090818091B4018F5F8F73BF
:100670002091B501821751F0E091B401F0E0E55608
:10068000FE4F958F8093B40101C08081FF91EF915F
:100690009F918F912F910F900FBE0F901F901895E3
:1006A0001F920F920FB60F9211242F933F938F93A7
:1006B0009F93AF93BF9380918B0190918C01A091F8
:1006C0008D01B0918E0130918A0123E0230F2D37E7
:1006D00020F40196A11DB11D05C026E8230F029646
:1006E000A11DB11D20938A0180938B0190938C01F1
:1006F000A0938D01B0938E0180918F019091900114
:10070000A0919101B09192010196A11DB11D80931C
:100710008F0190939001A0939101B0939201BF91AA
:10072000AF919F918F913F912F910F900FBE0F909E
:100730001F9018951F920F920FB60F9211242F93AE
:100740003F934F935F936F937F938F939F93AF9359
:10075000BF93EF93FF93E0919501F091960130974D
:1007600009F451C0968DA685B785858591FF04C093
:100770009C91892329F447C09C91892309F043C0A7
:10078000A389B4899C918589809589238C938689D6
:1007900097890197F1F7608D718DA685B78555858D
:1007A00038E020E0CB010197F1F7822F90E095959A
:1007B0008795282F4C91452309F02068315091F7F7
:1007C000868D81FD20958091940190E001968F7334
:1007D000992730919301381749F0A0919401B0E026
:1007E000A65BBE4F2C938093940103C0868D8160DD
:1007F000868F828D938D0197F1F7A389B4899C919F
:100800008589892B8C93FF91EF91BF91AF919F9137
:100810008F917F916F915F914F913F912F910F90A9
:100820000FBE0F901F90189590E0FC01E859FF4F04
:100830002491FC01E255FF4F3491FC01E656FF4F35
:10084000E491EE2309F43CC0222339F1233091F0E6
:1008500038F42130A9F0223001F584B58F7D12C023
:10086000273091F02830A1F02430B9F48091800035
:100870008F7D03C0809180008F77809380000DC0B2
:1008800084B58F7784BD09C08091B0008F7703C095
:100890008091B0008F7D8093B000F0E0EE0FFF1FDD
:1008A000E057FF4FA591B4919FB7F894611104C030
:1008B0008C913095382302C0EC913E2B3C939FBF26
:1008C0000895CF93DF9310929E0110929D0188EEC0
:1008D00093E0A0E0B0E080939F019093A001A093EB
:1008E000A101B093A20124E031E030939C01209358
:1008F0009B0125EC30E03093A8012093A70124EC64
:1009000030E03093AA012093A90120EC30E030932D
:10091000AC012093AB0121EC30E03093AE01209389
:10092000AD0122EC30E03093B0012093AF0126EC12
:1009300030E03093B2012093B1011092B4011092D3
:10094000B5011092B6011092B70110923E021092BA
:100950003F02109240021092410210924202109205
:1009600043021092440210924502109246021092E5
:100970004702109248021092490210924A021092C5
:100980004B0210924C0210924D0210928302109270
:1009900082028093840290938502A0938602B09392
:1009A000870286E191E09093810280938002109209
:1009B0009702109296021092990210929802109249
:1009C0009B0210929A0210929D0210929C026091DA
:1009D0009E026E7F6D7F60939E026695617081E0DE
:1009E000682783E00E941404E1EBF0E02491EDE934
:1009F000F0E08491882399F090E0880F991FFC0122
:100A0000EA57FF4FA591B491FC01E057FF4F859144
:100A100094918FB7F894EC91E22BEC938FBFE1EBBC
:100A2000F0E0E491E0939002EDE9F0E0E491F0E091
:100A3000EE0FFF1FE057FF4F859194919093920224
:100A400080939102E0EBF0E02491ECE9F0E08491F6
:100A50008823C1F090E0880F991FFC01EA57FF4FEF
:100A6000C591D491FC01E057FF4FA591B4919FB778
:100A7000F8948881E22FE0958E2388838C91E82377
:100A8000EC939FBF80919E0281FD04C061E082E0F3
:100A90000E94140482E080938C02E0EBF0E0E49189
:100AA000E0938D02ECE9F0E0E491F0E0EE0FFF1F3F
:100AB000E458FF4F8591949190938F0280938E021A
:100AC000DF91CF910895789484B5826084BD84B518
:100AD000816084BD85B5826085BD85B5816085BD39
:100AE00080916E00816080936E00109281008091F1
:100AF0008100826080938100809181008160809379
:100B00008100809180008160809380008091B1009D
:100B100084608093B1008091B00081608093B000C8
:100B200080917A00846080937A0080917A0082605C
:100B300080937A0080917A00816080937A0080911E
:100B40007A00806880937A001092C10010927C0233
:100B500010927D0210927E0210927F0210923A0251
:100B600010923B0210923C0210923D020E94E7015B
:100B70006B017C014B015C0128EB820E2BE0921E85
:100B8000A11CB11C0E94E7016C157D058E059F0517
:100B900028F086169706A806B906A0F78BE991E01B
:100BA00090937B0280937A020E948D000E94E7015D
:100BB00060933A0270933B0280933C0290933D0213
:100BC00064E271E080917A0290917B020E94980227
:100BD0000E94E7016B017C014B015C013AE0830E4E
:100BE000911CA11CB11C0E94E7016C157D058E05AE
:100BF0009F0528F086169706A806B906A0F781E09B
:100C000080934E020E948D0010929B0210929A02D5
:100C100010929902109298021092970210929602E6
:100C20008DE991E090939D0280939C0290918C02BB
:100C3000963108F058C02DEB30E0309397022093A6
:100C400096022BE931E030939902209398022CE22E
:100C500031E030939B0220939A02409168009830D3
:100C600058F031E09E3008F430E021E0822F01C0DE
:100C7000880F3A95EAF701C084E0842B80936800DE
:100C8000983038F09E3040F0963148F020E030E067
:100C900008C02DE630E005C02BE630E002C02CE6AF
:100CA00030E03093940220939302983030F481E046
:100CB00001C0880F9A95EAF70EC0292F30E09E30C8
:100CC00018F42850310902C02E50310981E001C0CA
:100CD000880F2A95EAF78093950280919C02909163
:100CE0009D020197F1F780919A0290919B02892BC6
:100CF00049F1E0919501F091960142E0E038F40766
:100D000009F1309739F0A389B4899C918589809540
:100D100089238C9380919E028E7F80939E021092F5
:100D200094011092930180E892E090939601809351
:100D30009501E0919302F091940290818091950247
:100D4000892B808388E893E1A0E0B0E0809384025F
:100D500090938502A0938602B09387020E94C201FD
:100D60004B015C0198EEC92E93E0D92EE12CF12CB9
:100D70000E94C201DC01CB0188199909AA09BB09AB
:100D8000883E9340A105B10598F351E0C51AD108FA
:100D9000E108F10888EE880E83E0981EA11CB11CC2
:100DA000C114D104E104F10419F784EF882E9924C9
:100DB0009394A12CB12C0E94E701672B682B692B1F
:100DC00041F40E94E701623071058105910508F444
:100DD0000FC10E94E701C0909701D0909801E09068
:100DE0009901F0909A016C157D058E059F0540F4E0
:100DF00060939701709398018093990190939A0161
:100E0000C0909701D0909801E0909901F0909A01DC
:100E10009B01AC012C193D094E095F0969017A015A
:100E20003AEFC316D104E104F10408F4E1C0609381
:100E30009701709398018093990190939A01809201
:100E4000460290924702A0924802B0924902109244
:100E50004A0210924B0210924C0210924D02809165
:100E60003E0290913F02A0914002B09141028093D6
:100E7000420290934302A0934402B09345020E9421
:100E8000E70160933E0270933F028093400290938B
:100E900041020E94E70160933A0270933B02809303
:100EA0003C0290933D020E94E7016B017C0166E3E6
:100EB00071E080917A0290917B020E9498022AE070
:100EC00041E050E060E070E080917A0290917B0216
:100ED0000E94AD026DE371E080917A0290917B02F5
:100EE0000E9498022AE0B701A60180917A029091AF
:100EF0007B020E94AD026FE371E080917A029091D3
:100F00007B020E94980280913E0290913F02A09144
:100F10004002B0914102B701A601481B590B6A0B70
:100F20007B0B2AE080917A0290917B020E94AD02B5
:100F30006FE371E080917A0290917B020E949802A7
:100F400040913E0250913F026091400270914102F7
:100F50008091420290914302A0914402B0914502D7
:100F6000481B590B6A0B7B0B2AE080917A02909107
:100F70007B020E94AD0261E471E080917A0290915F
:100F80007B020E9498020E94E701AB01BC012AE0AB
:100F900080917A0290917B020E94AD02E0907A02E9
:100FA000F0907B0263E471E0C7010E94980263E362
:100FB00071E0C7010E9498020E94E7016B017C0169
:100FC0002B013C0142E0440E511C611C711C0E942B
:100FD000E7016C157D058E059F0558F50E94E70118
:100FE00060933E0270933F028093400290934102CF
:100FF0008BE991E00E941101892B49F08BE991E086
:101000000E94EF00682F80E892E00E940B0280E8C7
:1010100092E00E945B02892B49F080E892E00E94F6
:101020007302682F8BE991E00E9449010E94B80188
:10103000C2CE461657066806790648F6CFCF86E137
:1010400091E090938102809380028091950190912C
:1010500096018058924071F4E0919302F0919402CD
:1010600090818091950280958923808310929601CA
:10107000109295010895A1E21A2EAA1BBB1BFD0137
:101080000DC0AA1FBB1FEE1FFF1FA217B307E40767
:10109000F50720F0A21BB30BE40BF50B661F771FBF
:1010A000881F991F1A9469F760957095809590959F
:1010B0009B01AC01BD01CF01089597FB072E16F4EB
:1010C000009407D077FD09D00E94710807FC05D075
:1010D0003EF4909581959F4F0895709561957F4F4F
:1010E0000895AA1BBB1B51E107C0AA1FBB1FA6176F
:1010F000B70710F0A61BB70B881F991F5A95A9F7C1
:1011000080959095BC01CD010895EE0FFF1F0590CD
:10111000F491E02D099481E090E0F8940C9490080B
:1011200010E0C2E6D0E004C0FE010E9485082196CE
:0A113000C336D107C9F7F894FFCFCA
:10113A00000000004901B500E00096011101EF002E
:10114A000301000000000B02B5009502DF005B02FC
:10115A007302F301564D4450565F317C315F564D50
:10116A004450560D0A00564D4450455F003A323AF3
:0A117A00007C005F564D4450450014
:00000001FF
