:100000000C943D000C9465000C9465000C94650004
:100010000C9465000C9465000C9465000C946500CC
:100020000C9465000C9465000C9465000C946500BC
:100030000C9465000C9465000C9465000C946500AC
:100040000C94F3010C9465000C94530A0C942D0A43
:100050000C9465000C9465000C9465000C9465008C
:100060000C9465000C9465001F04160448042704D2
:100070002304EC031004B2035F0F11241FBECFEF63
:10008000D8E0DEBFCDBF23E0AEEDB1E001C01D92F0
:10009000AC3BB207E1F711E0A0E0B1E0E0E4F8E248
:1000A00002C005900D92AE3DB107D9F710E0CDE347
:1000B000D0E004C02197FE010E94FF11CC33D1078C
:1000C000C9F70E94EE0C0C941E140C940000FC0165
:1000D000918D228D892F90E0805C9F4F821B91092A
:1000E0008F739927089580E090E0892B29F00E9472
:1000F000B40981110C94000008958091EE018111E2
:100100000BC01092EB011092EA011092ED011092D7
:10011000EC0181E08093EE018AEE91E00895FC010C
:1001200026813781620F731F848195818617970717
:1001300038F08281938177836683820F931F0895BD
:1001400080E090E008950E940014CF92DF92EF9239
:10015000FF920F931F93CF93DF9300D0CDB7DEB7FD
:100160006C01DC01ED91FC910081118169831A829F
:10017000F801E480F580FFEFEF1AFF0AB701C8012C
:100180000E94290C882391F0D8012D913C91119760
:1001900014968D919C911597BE016F5F7F4F820FD2
:1001A000931F0E941714F801F582E482D60112967B
:1001B0008D919C911397019613969C938E93129711
:1001C0000F900F90DF91CF911F910F91FF90EF90C3
:1001D000DF90CF9008958F929F92AF92BF92CF926F
:1001E000DF92EF92FF920F931F93CF93DF937C01E7
:1001F0004B01DC01AD90BC90F50100811181D8016B
:100200001496CD90DC90159761157105F9F0EB010E
:1002100009900020E9F72197C61BD70BB9F0CC0D48
:10022000DD1DBE01C8010E94290C882379F0F80168
:100230002081318184819581B401820F931F0E94B6
:100240001714D8011596DC93CE931497D501ED9130
:10025000FC9124813581F70182819381820F931F64
:100260008C199D0993838283DF91CF911F910F9108
:10027000FF90EF90DF90CF90BF90AF909F908F90C6
:1002800008950F931F93CF93DF93CDB7DEB7669793
:100290000FB6F894DEBF0FBECDBF9C01CB011E8A06
:1002A000FE0176960AE010E0B8010E94EB11805D35
:1002B0008293CB010097C1F7BF01C9010E94EB00F7
:1002C00066960FB6F894DEBF0FBECDBFDF91CF911B
:1002D0001F910F910895FF920F931F93CF93DF9378
:1002E0006115710549F46BE771E0DF91CF911F91C2
:1002F0000F91FF900C94EB008B01EC0162E2CE01B8
:100300000E94A500F80161918F01662351F0ECE68F
:10031000F1E0F080FF2099F38181681759F032965F
:10032000F8CF62E2CE01DF91CF911F910F91FF9044
:100330000C94A5006CE5CE010E94A5006F2DDFCFC7
:10034000FC01848DDF01A80FB11DA35ABF4F2C9172
:10035000848D90E001968F739927848FA689B78941
:100360002C93A089B1898C91837080648C93938D38
:10037000848D981306C00288F389E02D80818F7DDB
:10038000808308953FB7F8948091FB019091FC0120
:10039000A091FD01B091FE0126B5A89B05C02F3F9D
:1003A00019F00196A11DB11D3FBFBA2FA92F982F9B
:1003B0008827820F911DA11DB11DBC01CD0142E016
:1003C000660F771F881F991F4A95D1F708952FB799
:1003D000F8946091F7017091F8018091F901909182
:1003E000FA012FBF08951F920F920FB60F9211249A
:1003F0002F933F938F939F93AF93BF938091F70178
:100400009091F801A091F901B091FA013091F601B3
:1004100023E0230F2D3720F40196A11DB11D05C047
:1004200026E8230F0296A11DB11D2093F6018093AB
:10043000F7019093F801A093F901B093FA0180912C
:10044000FB019091FC01A091FD01B091FE0101968C
:10045000A11DB11D8093FB019093FC01A093FD01B0
:10046000B093FE01BF91AF919F918F913F912F91DA
:100470000F900FBE0F901F901895FC01A081B181C5
:100480008C918D3051F024F489508230B8F505C03C
:10049000803219F08F3219F0089511962CC0119600
:1004A0008C9111978A3219F08F32D1F008951196FC
:1004B000B183A083A081B181CD0101969183808316
:1004C00011968C9111978823C9F08A3299F7129668
:1004D0008C9112978F3271F713960DC08A3071F29A
:1004E000A081B181CD0101969183808311968C9179
:1004F0008111F4CF03C0B183A083C0CF08951F93AF
:10050000CF93DF93EC01162F0E943D02E881F98121
:100510008081181305C03196F983E88381E001C01A
:1005200080E0DF91CF911F910895EF92FF920F939A
:100530001F93CF93DF938C01DC011496CD91DC9156
:100540001597EA80FB808E819F81E80EF91EC80115
:1005500002960E943D02D8011296ED91FC911397EC
:1005600080818732A9F1823299F190ED980F9A300B
:1005700078F091EA980F9C3158F09FEB980F9A31E0
:1005800038F08B3229F093ED980F923008F061C06B
:10059000F801228133812F5F3F4F338322832E81E5
:1005A0003F81A9014F5F5F4F6C817D8164177507A3
:1005B00040F06A817B81FB01E20FF31F5F834E8372
:1005C0008083D8011296ED91FC9113978081CDCF55
:1005D0003196D8011396FC93EE931297D801129698
:1005E000ED91FC9113979081992399F19F012F5FD1
:1005F0003F4F13963C932E931297981751F19C35C9
:10060000A9F49181A0E7B1E02C91222339F0921353
:1006100003C011969C9102C01296F6CF9923C9F09F
:100620003296D8011396FC93EE9312972E813F8158
:10063000A9014F5F5F4F6C817D816417750770F270
:100640006A817B81FB01E20FF31F5F834E839083FE
:10065000C5CF8E819F819C012F5F3F4F4C815D8173
:100660004217530750F04A815B81FA01E80FF91FE6
:100670003F832E831082C70102C080E090E0DF91AB
:10068000CF911F910F91FF90EF9008958091E2011B
:1006900081110BC01092DF011092DE011092E10176
:1006A0001092E00181E08093E2018EED91E00895E7
:1006B0000F931F93CF93DF938C01EB016BE7CE0178
:1006C0000E94A500F8010281138101151105D1F0E6
:1006D000F80162817381CE010E946B016AE3CE0151
:1006E0000E94A500BE01C80104960E948A03F80179
:1006F000008111810115110529F06CE2CE010E94E3
:10070000A500E3CF6DE7CE01DF91CF911F910F914F
:100710000C94A5002F923F924F925F926F927F921E
:100720008F929F92AF92BF92CF92DF92EF92FF9201
:100730000F931F93CF93DF93CDB7DEB76C970FB6B0
:10074000F894DEBF0FBECDBFDC01ED91FC91319777
:10075000E830F10508F038C21B018C01EC5CFF4F5A
:100760000C94FF11FC0182809380A480B580A501C8
:100770009401C501B4010E94AE0F882319F06BE803
:1007800071E094C020E030E0A901C501B4010E94ED
:10079000AE0F87FF08C06DE2C1010E94A500B7FA45
:1007A000B094B7F8B09420E030E0A901C501B401DD
:1007B0000E94AE0F882309F47DC0A5019401C501F4
:1007C000B4010E944611A50194010E94AE0F81114F
:1007D00071C062E971E06AC0DC0112960D911C9152
:1007E00013976BE5C1010E94A500F80102811381F6
:1007F0000115110581F0B101C80102960E948A031A
:10080000D8010D911C910115110529F06CE2C1016F
:100810000E94A500EDCF6DE5C1010E94A500D4C1E5
:10082000FC01828193810E945803CEC1DC011296A3
:100830006D917C911397C1010E946B01C5C1FC01B0
:100840006281738133C06DE2C1010E94A500D801AD
:1008500012966D917D918D919C9115971E8A8E01B6
:100860000A5E1F4F2AE0C22ED12CE12CF12CA701E9
:1008700096010E94D210605DF80162938F01B90168
:10088000CA01611571058105910589F7BF010EC087
:10089000FC0182819381A481B581892B8A2B8B2BCA
:1008A00019F465E871E002C060E871E0C1010E94DE
:1008B000EB008AC120E836E948E15BE4C501B401F8
:1008C0000E94E11187FF4AC100E210E0E5E0DE2E60
:1008D000188E1F8A20E030E0A901C501B4010E94F2
:1008E000E1111816B4F52CEA35EC47E257E3C501DF
:1008F000B4010E94AE0F181664F1BFEFDB1649F188
:10090000ED2DF4E0EF0270011124F701EA5FFE4FD4
:10091000A501940160817181828193810E94E1111E
:1009200018169CF4F701EA5CFE4F20813181428168
:100930005381C501B4010E9414104B015C018F89E1
:10094000988D801B910B988F8F8B15950795DA9456
:10095000D4CFC501B4010E94B2116B017C012B01FF
:100960003C0106E080E492E4AFE0B0E0898F9A8F2A
:10097000AB8FBC8F102F01509AE0491651046104CF
:100980007104C8F0698D7A8D8B8D9C8D2AE030E0E2
:1009900040E050E00E94D210298F3A8F4B8F5C8F3D
:1009A000C301B2012AE030E040E050E00E94D210E2
:1009B00029013A01DFCFC701B6010E94B30F9B01A5
:1009C000AC01C501B4010E9445114B015C01698D68
:1009D0007A8D8B8D9C8D0E94B30F9B01AC01C5015C
:1009E000B4010E9414102B013C010E94B2114B0172
:1009F0005C010E94B30F9B01AC01C301B2010E94D4
:100A000045119B01AC010E9446110E94B211860E55
:100A1000971EA81EB91E898D9A8DAB8DBC8D881628
:100A20009906AA06BB06F8F09FEFC91AD90AE90A87
:100A3000F90AAF89B88DAB2B99F0BAE0CB16D10487
:100A4000E104F10468F0EF89F88D3196F88FEF8BAF
:100A5000812C912C5401C12CD12C7601C39403C05C
:100A6000812C912C54015AE0452E512C612C712C73
:100A7000C501B401A30192010E94D210672B682B1B
:100A8000692B31F4111624F449015A011150F0CFA9
:100A90001E8ACE0146969A8F898F4AE0442E512CA9
:100AA000612C712CC701B601A30192010E94D210E2
:100AB000605DA98DBA8D6E93BA8FA98F69017A0195
:100AC000C114D104E104F10469F7BD01C1010E9420
:100AD000EB00112329F1188A012F6E01B0E1CB0E32
:100AE000D11C76013AE0432E512C612C712C01501F
:100AF00068F0C501B401A30192010E94D210605DAB
:100B0000F60162936F0149015A01F1CFB701611BF0
:100B100071098EE2DB018E93BD01C1010E94EB00E1
:100B2000EF89F88DF7FF0BC06FE871E0C1010E94FB
:100B3000EB006F89788D7195619571090BC08F8974
:100B4000988D892B09F440C065E6C1010E94A5007B
:100B50006F89788DC1010E94410136C08EE4C82E94
:100B600081E0D82E9EE1E92E91E0F92E00E210E01E
:100B7000188E1F8AA5019401D6019E918E917E91B7
:100B80006E916D010E94AE0F18168CF0F70124894A
:100B9000358946895789C501B4010E9414104B015B
:100BA0005C018F89988D800F911F988F8F8B159581
:100BB000079594E0E91AF108A6E3CA16A1E0DA065F
:100BC000C9F6DD24DA9486CE6C960FB6F894DEBFB3
:100BD0000FBECDBFDF91CF911F910F91FF90EF908E
:100BE000DF90CF90BF90AF909F908F907F906F904D
:100BF0005F904F903F902F9008950F931F93CF9346
:100C0000DF938B01FC01C281D3812097A9F06A8117
:100C10007B810115110519F06115710521F460172B
:100C2000710731F409C0C8010E940E14892B21F00C
:100C30000990D881C02DE9CFCE01DF91CF911F91CE
:100C40000F910895DB01109749F0ED91FC911197F8
:100C50000190F081E02DBC01CD01099480E090E08D
:100C60000895CF93DF93EC01BC0184E090E00E94F3
:100C70002206009741F0FC01D183C08313821282C7
:100C8000DF91CF910895DF91CF910C947D00CF93A8
:100C9000DF93EC01688179818AE090E00E9422066E
:100CA000009729F0FC011182108215821482EA81DA
:100CB000FB81309751F0208131812115310511F0F0
:100CC000F901F9CF9183808302C09B838A83DF91EE
:100CD000CF910895AF92BF92CF92DF92EF92FF92A1
:100CE0000F931F93CF93DF9300D000D000D0CDB7E8
:100CF000DEB77C01FC018681882309F456C081504F
:100D0000F7018683819191916F010E9431068C01D8
:100D10006BE7C6010E947F02882309F446C06DE795
:100D2000C6010E947F0281113AC0C7010E9495024C
:100D30005C01892BD1F16AE3C6010E947F028823FE
:100D4000A1F11A821982BE016F5F7F4FC7010E9415
:100D5000D70A882351F1B501C8010E94FD0500970B
:100D600041F4C8010E9447060097F9F0FC01B382E4
:100D7000A28226E0FE013196DC01149601900D92CC
:100D80002A95E1F76DE7C6010E947F02811107C035
:100D90006CE2C6010E947F028111C7CF06C0F70135
:100DA00086818F5F8683C80102C00E947D002696DF
:100DB0000FB6F894DEBF0FBECDBFDF91CF911F916C
:100DC0000F91FF90EF90DF90CF90BF90AF9008957C
:100DD0008F929F92AF92BF92CF92DF92EF92FF924B
:100DE0000F931F93CF93DF93CDB7DEB72E970FB638
:100DF000F894DEBF0FBECDBF6C016BE971E00E94BD
:100E0000FD058C01009709F448C0DC011496ED90B3
:100E1000FC901597B1E0EB16F10461F4FC016681DA
:100E200077816115710531F08BE791E00E940E1416
:100E3000892B79F0F1E0EF1AF10822E0E216F104D3
:100E400040F4D80116966D917C9117976115710544
:100E500031F56AE771E0FE0131967F01CF010E9412
:100E60007B0CFE86ED86CE010D9698878F831A86C1
:100E70001986BE01695F7F4FC80104960E948A03EC
:100E800089819A8198878F838B819C819A878987B2
:100E90008D819E819C878B8706C06AE771E0CE01B9
:100EA00007960E947B0C60EA71E0C6010E94FD0576
:100EB000FC01892B09F42EC1848195818330910531
:100EC00020F4019708F426C118C08530910560F020
:100ED000059709F00CC166817781808591850E9414
:100EE000B30F6B017C01FEC066817781808591859F
:100EF0000E94B30F6B017C0110C10680F781E02DC9
:100F0000309709F407C180818B3229F08D3221F4AA
:100F1000319611E002C0319610E08081843709F4E7
:100F2000EBC08F7D8E3409F4EEC0893409F40EC114
:100F30006F01E12C20E030E0A901F601D6010D910E
:100F40006D0180ED800F8A30E8F42C3CBCEC3B074F
:100F5000BCE04B075105A4F4AAE0B0E00E94F410F5
:100F6000202F000F330B205331094901330FAA08FA
:100F7000BB08A5019401260F371F481F591FDDCF5D
:100F8000E394DBCF0E3241F56F018FEFC81AD80A18
:100F9000F601D6010D916D0180ED800F8A30E0F4ED
:100FA0002C3CBCEC3B07BCE04B0751058CF7AAE09E
:100FB000B0E00E94F410202F000F330B20533109B2
:100FC0004901330FAA08BB08A5019401260F371F5A
:100FD000481F591FEA94DCCF80818F7D0E2C000CB6
:100FE000FF08853409F040C081818D3219F43296B2
:100FF000B1E006C08B3211F0319601C03296B0E0FC
:1010000080E090E00AE0A19160ED6A0F6A3030F56F
:10101000089FB001099F700D11248A2FAA0F990B08
:10102000C097860F971FB701680F791F6732710548
:1010300054F3BB2349F0112309F46CC0C12CD12C0B
:10104000E12C70E8F72E69C0112309F44FC1C12CBF
:10105000D12C60E8E62EFF24FA945FC0BB2331F068
:1010600091958195910902C080E090E0E80EF91E0B
:10107000CA01B9010E94B50F1E141F04B4F400E0A8
:10108000E0FE0CC024E0029FF0011124EA5CFE4F58
:1010900020813181428153810E941410F594E7949C
:1010A0000F5FE114F10461F719C0F194E194F108C4
:1010B00000E0E114F10491F0E0FE0CC0A4E00A9F0E
:1010C000F0011124E25EFE4F208131814281538183
:1010D0000E941410F594E7940F5FEBCF6B017C0135
:1010E0001123D9F0F7FAF094F7F8F09416C0C680FF
:1010F000D780E084F18411C0C12CD12C30E8E32EDC
:101100003FE3F32E0AC0C12CD12C20ECE22E2FE7B6
:10111000F22E03C0C12CD12C76014B855C856F81EA
:10112000788583E092E00E94850A6DEC71E083E0AF
:1011300092E00E94900CA7019601C701B6010E949F
:10114000E6118823D1F066EA71E031C0112309F479
:10115000CDC04B855C856F81788583E092E00E94ED
:10116000850A6DEC71E083E092E00E94900CC12C46
:10117000D12C90E8E92EFF24FA9446015701E89417
:10118000B7F82FEF3FEF4FE75FE7C501B4010E94CB
:10119000E611811111C02FEF3FEF4FE75FE7C50167
:1011A000B4010E94AE0F18163CF46AEA71E083E0C5
:1011B00092E00E94900C7DC02FEF3FEF4FE75FE47D
:1011C000C701B6010E94E11118161CF46EEA71E025
:1011D000EECF2FEF3FEF4FE75FECC701B6010E9464
:1011E000AE0F87FDF3CF20E030E0A901C701B601C3
:1011F0000E94AE0F87FF09C06DE283E092E00E947B
:10120000BE09F7FAF094F7F8F0942AE037ED43EAD4
:101210005BE3C701B6010E9446114B015C010E94CD
:10122000B2116B017C010E94B30F9B01AC01C5019F
:10123000B4010E9445114B015C012AE0B701A601EF
:1012400083E092E00E94A50C6EE283E092E00E94AF
:10125000BE0920E030E040E251E4C501B4010E9443
:1012600014104B015C010E94B2116B01E12CF12CB6
:101270002AE0B701A60183E092E00E94A50CC70115
:10128000B6010E94B30F9B01AC01C501B4010E94DD
:10129000451120E030E040E251E40E9414100E9429
:1012A000B211AB0160E070E02AE083E092E00E94BE
:1012B000A50C61EC71E083E092E00E94900C8F81BC
:1012C00098850E94B1122E960FB6F894DEBF0FBE1D
:1012D000CDBFDF91CF911F910F91FF90EF90DF90E5
:1012E000CF90BF90AF909F908F900895C12CD12C3C
:1012F00080E8E82E8FE7F82E10CF0C94E8060895CA
:1013000080E090E00895FC01538D448D252F30E05E
:10131000842F90E0821B930B541710F0CF96089502
:1013200001970895FC01918D828D981761F0828D4F
:10133000DF01A80FB11D5D968C91928D9F5F9F7309
:10134000928F90E008958FEF9FEF0895FC01918DAB
:10135000828D981731F0828DE80FF11D858D90E018
:1013600008958FEF9FEF089583E092E00E94670059
:1013700021E0892B09F420E0822F0895EF92FF925B
:101380000F931F93CF93DF93EC0181E0888F9B8DA8
:101390008C8D981305C0E889F989808185FD26C068
:1013A000F62E0B8D10E00F5F1F4F0F731127E02EED
:1013B0008C8DE8120CC00FB607FCFACFE889F989CA
:1013C000808185FFF5CFCE010E94A001F1CF8B8DEA
:1013D000FE01E80FF11DE35AFF4FF0829FB7F8942A
:1013E0000B8FEA89FB89808180620AC09FB7F894DD
:1013F000EE89FF896083E889F98980818370806440
:1014000080839FBF81E090E0DF91CF911F910F918A
:10141000FF90EF900895CF93DF93EC01888D8823A0
:10142000C9F0EA89FB89808185FD05C0A889B98951
:101430008C9186FD0FC00FB607FCF5CF808185FF2C
:10144000F2CFA889B9898C9185FFEDCFCE010E949A
:10145000A001E7CFDF91CF9108951F920F920FB6B1
:101460000F9211242F933F934F935F936F937F932A
:101470008F939F93AF93BF93EF93FF9383E092E09B
:101480000E94A001FF91EF91BF91AF919F918F9129
:101490007F916F915F914F913F912F910F900FBE70
:1014A0000F901F9018951F920F920FB60F92112454
:1014B0002F938F939F93EF93FF93E0911302F091FB
:1014C00014028081E0911902F0911A0282FD12C08B
:1014D000908180911C028F5F8F7320911D02821773
:1014E00051F0E0911C02F0E0ED5FFD4F958F80938D
:1014F0001C0201C08081FF91EF919F918F912F91EC
:101500000F900FBE0F901F901895CF92DF92EF9221
:10151000FF920F931F93CF93DF936C017A018B019E
:10152000C0E0D0E0CE15DF0581F0D8016D918D01CE
:10153000D601ED91FC910190F081E02DC601099555
:10154000892B11F02196EECF7E01C701DF91CF915B
:101550001F910F91FF90EF90DF90CF900895E3E0FF
:10156000F2E0A089B18982E08C93A485B5851C92B4
:10157000A685B7858FEC8C93108EA489B58986E0FB
:101580008C93A289B3898C9180618C93A289B38951
:101590008C9188608C93A289B3898C9180688C939C
:1015A0000288F389E02D80818F7D80830895AF923A
:1015B000BF92CF92DF92EF92FF920F931F93CF9340
:1015C000DF9300D000D000D0CDB7DEB77C016B0137
:1015D0005C0182E0A80EB11CC5010E943D02D7014A
:1015E0001296ED91FC91139780818B3521F08B370A
:1015F00009F488C092C0F7018681882309F46DC080
:101600008150868300811181B80184E090E00E94BE
:101610002206009709F4A2C0FC0111830083138203
:1016200012828C016BE5C5010E947F02882309F4B8
:1016300054C06DE5C5010E947F02811146C01A8227
:101640001982BE016F5F7F4FC7010E94D70A8823AE
:1016500009F443C0D8016D917C9188E090E00E942C
:101660002206DC01892B39F011961C921E921396EA
:101670001C921E921297F8012281338121153105A7
:1016800051F0F90180819181009711F09C01F9CF0F
:10169000B183A08303C0F801B383A2831097E9F05C
:1016A00086E0FE013196129601900D928A95E1F73F
:1016B0006DE5C5010E947F02811107C06CE2C50182
:1016C0000E947F028111BBCF08C0D70116968C9172
:1016D00016978F5F16968C9303C00E9446038C0169
:1016E000F80180819181892B11F410E03AC086E0E5
:1016F00090E0D60111969C938E9313961C930E93B3
:1017000012972AC0C7010E946A06FC01208131811C
:10171000232B59F327E030E017C011E0873219F08E
:10172000823209F010E0C7010E9495020097E9F2A9
:10173000112341F022E030E0F601318320839383CE
:1017400082830FC021E030E0D60111963C932E93A6
:1017500013969C938E93129711E003C00E94460348
:1017600060CF812F26960FB6F894DEBF0FBECDBF97
:10177000DF91CF911F910F91FF90EF90DF90CF906D
:10178000BF90AF900895CF93DF93CDB7DEB7279783
:101790000FB6F894DEBF0FBECDBF1092EF021092CD
:1017A000EE02FC0180819181009711F48AE791E0BB
:1017B00028EE32E03A8329839C838B833E832D83FA
:1017C0008AE08F83CE0101960E946A060E94E80695
:1017D00027960FB6F894DEBF0FBECDBFDF91CF9135
:1017E00008958F929F92AF92BF92CF92DF92EF9225
:1017F000FF920E94C2014B015C0188EEC82E83E07B
:10180000D82EE12CF12C0E94C201DC01CB018819F9
:101810009909AA09BB09883E9340A105B10598F32F
:1018200021E0C21AD108E108F10888EE880E83E0B1
:10183000981EA11CB11CC114D104E104F10419F7D4
:10184000FF90EF90DF90CF90BF90AF909F908F90E0
:1018500008950F931F93CF93DF93EC0188819981B3
:10186000009729F02A813B812617370788F48B01DE
:101870006F5F7F4F0E943A13009761F099838883CE
:101880001B830A832C813D81232B11F4FC011082E0
:1018900081E001C080E0DF91CF911F910F91089509
:1018A000EF92FF920F931F93CF93DF93EC017B0195
:1018B0008A01BA010E94290C2881398181110DC049
:1018C0002115310519F0C9010E94B112198218823F
:1018D0001D821C821B821A8206C01D830C83B701E5
:1018E000C9010E941714CE01DF91CF911F910F9172
:1018F000FF90EF900895FC011182108213821282F2
:10190000158214826115710551F0FB0101900020D0
:10191000E9F73197AF01461B570B0C94500C089513
:101920006115710579F0FB0101900020E9F731970D
:10193000AF01461B570BDC01ED91FC910280F38156
:10194000E02D099480E090E008958F929F92AF92ED
:10195000BF92EF92FF920F931F93CF93DF93CDB778
:10196000DEB7A1970FB6F894DEBF0FBECDBF7C01E6
:10197000FA01CB0119A2223008F42AE08E010F5D92
:101980001F4F822E912CA12CB12CBF01A5019401D7
:101990000E94D210F901CA01015011096A3014F4F1
:1019A000605D01C0695CD8016C93232B242B252B2F
:1019B00061F7B801C7010E94900CA1960FB6F89488
:1019C000DEBF0FBECDBFDF91CF911F910F91FF9072
:1019D000EF90BF90AF909F908F900895CF93DF933B
:1019E000CDB7DEB762970FB6F894DEBF0FBECDBF9E
:1019F000789484B5826084BD84B5816084BD85B5EA
:101A0000826085BD85B5816085BD80916E008160F5
:101A100080936E001092810080918100826080939B
:101A2000810080918100816080938100809180009D
:101A30008160809380008091B10084608093B100C8
:101A40008091B00081608093B00080917A008460C2
:101A500080937A0080917A00826080937A008091EE
:101A60007A00816080937A0080917A008068809308
:101A70007A001092C1001092E4021092E5021092D6
:101A8000E6021092E7021092A2021092A3021092B4
:101A9000A4021092A5020E94E7016B017C014B0198
:101AA0005C0128EB820E2BE0921EA11CB11C0E944F
:101AB000E7016C157D058E059F0528F086169706B3
:101AC000A806B906A0F783E092E09093E302809322
:101AD000E2020E94AF0A0E94E7016093A2027093A3
:101AE000A3028093A4029093A50262EB71E080911F
:101AF000E2029091E3020E94900C0E94E7016B01C8
:101B00007C014B015C013AE0830E911CA11CB11CCD
:101B10000E94E7016C157D058E059F0528F086164D
:101B20009706A806B906A0F781E08093B6020E9446
:101B3000AF0A5AE9852E59E9952E51E2A52E51E4B6
:101B4000B52E1E0187E0280E311C0E94E701672B8D
:101B5000682B692B41F40E94E70162307105810511
:101B6000910508F413C10E94E7010091FF01109153
:101B70000002209101023091020260177107820772
:101B8000930740F46093FF01709300028093010279
:101B9000909302020091FF01109100022091010236
:101BA000309102026B017C01C01AD10AE20AF30AE9
:101BB000970186010A3F11052105310508F4E6C0A9
:101BC0006093FF01709300028093010290930202E0
:101BD00084EF91E0A0E0B0E08093AE029093AF027A
:101BE000A093B002B093B1021092B2021092B3026D
:101BF0001092B4021092B5028091A6029091A702B1
:101C0000A091A802B091A9028093AA029093AB027E
:101C1000A093AC02B093AD020E94E7016093A602CC
:101C20007093A7028093A8029093A9020E94E701F3
:101C30006093A2027093A3028093A4029093A502E2
:101C40000E94E7016B017C0164EC71E08091E2028B
:101C50009091E3020E94900C2AE041E050E060E0A5
:101C600070E08091E2029091E3020E94A50C6BEC7F
:101C700071E08091E2029091E3020E94900C2AE0D0
:101C8000B701A6018091E2029091E3020E94A50CA7
:101C90006DEC71E08091E2029091E3020E94900C61
:101CA0008091A6029091A702A091A802B091A902EA
:101CB000B701A601481B590B6A0B7B0B2AE08091E8
:101CC000E2029091E3020E94A50C6DEC71E080911C
:101CD000E2029091E3020E94900C4091A602509182
:101CE000A7026091A8027091A9028091AA02909126
:101CF000AB02A091AC02B091AD02481B590B6A0B2C
:101D00007B0B2AE08091E2029091E3020E94A50CF5
:101D10006FEC71E08091E2029091E3020E94900CDE
:101D20000E94E701AB01BC012AE08091E2029091A0
:101D3000E3020E94A50C0091E2021091E30261ED22
:101D400071E0C8010E94900C61EC71E0C8010E9432
:101D5000900C0E94E7016B017C012B013C0192E099
:101D6000490E511C611C711C0E94E7016C157D0518
:101D70008E059F0508F09CC00E94E7016093A602B3
:101D80007093A7028093A8029093A9021092EF0289
:101D90001092EE0288EE92E00E9431068C016BE90F
:101DA00071E00E94FD05009761F4C8010E9447069A
:101DB000009799F02BE931E0DC0113963C932E93C8
:101DC000129732E0C32ED12CFC01D582C48248ED9B
:101DD000E42E41E0F42EF782E68260EA71E0C80169
:101DE0000E94FD05009761F4C8010E944706009714
:101DF00089F020EA31E0DC0113963C932E93129790
:101E000028E0C22ED12CFC01D582C4828682978222
:101E1000A086B1866AE771E0CE010D960E947B0C28
:101E2000EDE0F0E0EC0FFD1FF887EF833A822982A6
:101E30001C821B82BE016F5F7F4FC8010E94580346
:101E40000E94F10B18861F821A8619861C861B8633
:101E50006D857E856115710529F049895A89C10111
:101E60000E94500C1A8219821C821B821E821D82C3
:101E70006F8178856115710531F04B855C85CE01E8
:101E800001960E94500CCE0101960E94C30B8981DD
:101E90009A810E94B1128F8198850E94B1120E948E
:101EA000F10B8D859E850E94B1120E9473004DCE6C
:101EB000461657066806790608F056CF5DCFE3E070
:101EC000F2E01382128288EE93E0A0E0B0E0848317
:101ED0009583A683B78382E591E09183808385EC27
:101EE00090E09587848784EC90E09787868780ECE4
:101EF00090E0918B808B81EC90E0938B828B82ECD5
:101F000090E0958B848B86EC90E0978B868B118E7E
:101F1000128E138E148EE0EAF2E01682178210867B
:101F20001186128613861486158616861786108AE1
:101F3000118A128A138A148A158AE8EEF2E080EF79
:101F400092E09383828388EC90E095838483178268
:101F5000168284E691E09183808308950E94F00FB9
:101F600008F481E00895E89409C097FB3EF4909549
:101F70008095709561957F4F8F4F9F4F9923A9F062
:101F8000F92F96E9BB279395F695879577956795F1
:101F9000B795F111F8CFFAF4BB0F11F460FF1BC035
:101FA0006F5F7F4F8F4F9F4F16C0882311F096E9C8
:101FB00011C0772321F09EE8872F762F05C0662376
:101FC00071F096E8862F70E060E02AF09A95660F2F
:101FD000771F881FDAF7880F9695879597F90895E8
:101FE000990F0008550FAA0BE0E8FEEF161617062A
:101FF000E807F907C0F012161306E407F50798F092
:10200000621B730B840B950B39F40A2661F0232BAA
:10201000242B252B21F408950A2609F4A140A69526
:102020008FEF811D811D08950E9427100C94981038
:102030000E948A1038F00E94911020F0952311F030
:102040000C9481100C94871011240C94CC100E94D5
:10205000A91070F3959FC1F3950F50E0551F629F33
:10206000F001729FBB27F00DB11D639FAA27F00DF1
:10207000B11DAA1F649F6627B00DA11D661F829F18
:102080002227B00DA11D621F739FB00DA11D621FFD
:10209000839FA00D611D221F749F3327A00D611D1A
:1020A000231F849F600D211D822F762F6A2F1124FC
:1020B0009F5750409AF0F1F088234AF0EE0FFF1F2F
:1020C000BB1F661F771F881F91505040A9F79E3F86
:1020D000510580F00C9481100C94CC105F3FE4F318
:1020E000983ED4F3869577956795B795F795E795DC
:1020F0009F5FC1F7FE2B880F911D9695879597F9E5
:10210000089597F99F6780E870E060E008959FEF79
:1021100080EC089500240A9416161706180609067E
:10212000089500240A94121613061406050608954D
:10213000092E0394000C11F4882352F0BB0F40F4D5
:10214000BF2B11F460FF04C06F5F7F4F8F4F9F4F15
:10215000089557FD9058440F551F59F05F3F71F097
:102160004795880F97FB991F61F09F3F79F08795FE
:102170000895121613061406551FF2CF4695F1DF87
:1021800008C0161617061806991FF1CF8695710517
:10219000610508940895E894BB2766277727CB014B
:1021A00097F90895A1E21A2EAA1BBB1BFD010DC0D1
:1021B000AA1FBB1FEE1FFF1FA217B307E407F507F7
:1021C00020F0A21BB30BE40BF50B661F771F881FD3
:1021D000991F1A9469F760957095809590959B0169
:1021E000AC01BD01CF0108950E943611A59F900D4D
:1021F000B49F900DA49F800D911D112408952F92DE
:102200003F924F925F926F927F928F929F92AF9286
:10221000BF92CF92DF92EF92FF920F931F93CF93D3
:10222000DF93CDB7DEB7CA1BDB0B0FB6F894DEBF6A
:102230000FBECDBF09942A88398848885F846E8490
:102240007D848C849B84AA84B984C884DF80EE80DA
:10225000FD800C811B81AA81B981CE0FD11D0FB6E3
:10226000F894DEBF0FBECDBFED010895A29FB0016F
:10227000B39FC001A39F700D811D1124911DB29FBA
:10228000700D811D1124911D08955058BB27AA2758
:102290000E945D110C9498100E948A1038F00E94E0
:1022A000911020F039F49F3F19F426F40C94871014
:1022B0000EF4E095E7FB0C948110E92F0E94A91021
:1022C00058F3BA17620773078407950720F079F46B
:1022D000A6F50C94CB100EF4E0950B2EBA2FA02D82
:1022E0000B01B90190010C01CA01A0011124FF27C3
:1022F000591B99F0593F50F4503E68F11A16F040BE
:10230000A22F232F342F4427585FF3CF46953795BC
:102310002795A795F0405395C9F77EF41F16BA0B81
:10232000620B730B840BBAF09150A1F0FF0FBB1F2F
:10233000661F771F881FC2F70EC0BA0F621F731F78
:10234000841F48F4879577956795B795F7959E3FD5
:1023500008F0B0CF9395880F08F09927EE0F979566
:10236000879508950E94B11088F09F5798F0B92F73
:102370009927B751B0F0E1F0660F771F881F991FBA
:102380001AF0BA95C9F714C0B13091F00E94CB1081
:10239000B1E008950C94CB10672F782F8827B85F91
:1023A00039F0B93FCCF3869577956795B395D9F712
:1023B0003EF490958095709561957F4F8F4F9F4F1C
:1023C00008950E94F00F08F48FEF08950E94F00F17
:1023D000880B990B089597FB072E16F4009407D0ED
:1023E00077FD09D00E94051207FC05D03EF49095B8
:1023F00081959F4F0895709561957F4F0895EE0FD9
:10240000FF1F0590F491E02D0994AA1BBB1B51E11D
:1024100007C0AA1FBB1FA617B70710F0A61BB70B54
:10242000881F991F5A95A9F780959095BC01CD01F9
:1024300008950F931F93CF93DF938230910510F48B
:1024400082E090E0E091BA03F091BB0320E030E03D
:10245000A0E0B0E0309719F14081518102811381F1
:1024600048175907C8F08417950769F4109731F099
:1024700012960C93129713961C9327C00093BA03DD
:102480001093BB0322C02115310519F042175307E1
:1024900018F49A01BD01EF01DF01F801DBCF21152E
:1024A0003105F9F0281B390B2430310580F48A817D
:1024B0009B816115710521F0FB019383828304C028
:1024C0009093BB038093BA03FE01329644C0FE0191
:1024D000E20FF31F819391932250310939832883AE
:1024E0003AC02091B8033091B903232B41F42091D5
:1024F0000201309103013093B9032093B803209176
:102500000001309101012115310541F42DB73EB78D
:102510004091040150910501241B350BE091B80353
:10252000F091B903E217F307A0F42E1B3F0B281715
:10253000390778F0AC014E5F5F4F2417350748F03C
:102540004E0F5F1F5093B9034093B803819391934B
:1025500002C0E0E0F0E0CF01DF91CF911F910F9139
:102560000895CF93DF93009709F481C0FC0132975F
:1025700013821282A091BA03B091BB03109781F429
:1025800020813181820F931F2091B8033091B903CC
:102590002817390751F5F093B903E093B80367C0E2
:1025A000ED0120E030E0CE17DF0740F44A815B8187
:1025B0009E0141155105F1F0EA01F5CFD383C283A5
:1025C00040815181840F951FC817D90759F488811C
:1025D0009981840F951F0296918380838A819B81C4
:1025E000938382832115310529F4F093BB03E09393
:1025F000BA033DC0E901FB83EA8349915991C40FB5
:10260000D51FEC17FD0761F480819181840F951F20
:102610000296E90199838883828193819B838A83CF
:10262000E0E0F0E012968D919C911397009719F0DD
:10263000FD01DC01F7CF8D919C9111979D012E5FDB
:102640003F4F820F931F2091B8033091B903281791
:10265000390769F4309729F41092BB031092BA033A
:1026600002C013821282B093B903A093B803DF9122
:10267000CF910895A0E0B0E0E0E4F3E10C94031101
:10268000EC01009721F4CB010E941912B4C0FC01A7
:10269000E60FF71F9C0122503109E217F30708F4F7
:1026A000A8C0D9010D911C91119706171707B0F01A
:1026B0000530110508F49BC0C801049786179707D9
:1026C00008F495C002501109061B170B01931193D2
:1026D0006D937C93CF010E94B11289C05B01A01A57
:1026E000B10A4C01800E911EA091BA03B091BB03B8
:1026F000612C712CE12CF12C109709F446C08D91BE
:102700009C911197A815B905B1F56C0142E0C40E72
:10271000D11CCA14DB0478F14C018A189B086401AF
:1027200042E0C40ED11C1296BC9012971396AC9145
:10273000B5E0CB16D10440F0B282A38391828082AF
:10274000D9016D937C9309C00E5F1F4F800F911FBD
:10275000F90191838083EB2DFA2FE114F10431F01C
:10276000D7011396FC93EE93129741C0F093BB03ED
:10277000E093BA033CC06816790608F43C017D0179
:1027800012960D90BC91A02DB7CF8091B803909177
:10279000B90388169906E1F466167706C8F48091A5
:1027A000000190910101009741F48DB79EB74091CF
:1027B000040150910501841B950BE817F907C8F433
:1027C000F093B903E093B803F901718360830FC0FC
:1027D000CB010E9419127C01009759F0A801BE019B
:1027E0000E940514CE010E94B112C70104C0CE019F
:1027F00002C080E090E0CDB7DEB7EEE00C941F1190
:1028000081E090E0F8940C941E14FB01DC0102C0FE
:1028100001900D9241505040D8F70895FB01DC0122
:102820008D91019080190110D9F3990B0895FB0146
:10283000DC0101900D920020E1F70895F894FFCF9C
:102840000000BC0380000000803FCDCCCC3D6F1267
:10285000833A95BFD6337D1D9026B3CE010CCDCCE7
:10286000CC3D0AD7233C17B7D13877CC2B3295957E
:10287000E6241FB14F0A000020410000C84200407A
:102880001C4620BCBE4CCA1B0E5AAEC59D7400002F
:102890000000BE09850A83090B0A67009209A60990
:1028A000000000008F0000000000A30022225C5CFA
:1028B0006208660C6E0A720D7409006E756C6C000D
:1028C000747275650066616C7365004E614E0065DB
:1028D0002D00496E66696E697479006E616D6500E0
:1028E00076616C7565006E616E00696E66006F766C
:1028F0006600564D4450565F317C315F564D445012
:10290000560D0A00564D4450455F003A323A007C5D
:0E291000005F564D4450450074656D70000028
:00000001FF
