:100000000C94BA010C94E2010C94E2010C94420AA3
:100010000C94420A0C94420A0C94E2010C94E20102
:100020000C94E2010C94E2010C94E2010C94E201C4
:100030000C94E2010C94E2010C94E2010C94E201B4
:100040000C9499060C94E2010C94360B0C94100B52
:100050000C94E2010C94E2010C94E2010C94E20194
:100060000C94E2010C94E20125642E25642E256493
:100070002E25640044617461207061636B65742097
:1000800073656E64206572726F7220283229004495
:10009000617461207061636B65742073656E6420A8
:1000A0006572726F72202831290041542B434950E8
:1000B00053454E443D25642C2575004661696C65A9
:1000C0006420746F20777269746520746F20736F79
:1000D000636B65740041542B434950434C4F534567
:1000E0003D256400446973636F6E6E656374696E69
:1000F00067200041542B43495053544154555300F9
:100100002B4349505354415455533A25642C0045D0
:100110006E6420746167206E6F7420666F756E6404
:10012000004E6F2074616720666F756E64003E3EFE
:100130003E2054494D454F5554203E3E3E00000060
:100140000008000201000003040700000000000096
:10015000000022002B43574A41503A220041542BC1
:1001600043574A41503F0022002B43495041503AE7
:1001700069703A220041542B43495041503F0022BC
:10018000003A53544149502C220041542B434946D4
:100190005352000D0A002C2D0041542B43574A4165
:1001A000503F00436F6E6E656374656420746F002A
:1001B0004661696C656420636F6E6E656374696E19
:1001C0006720746F0041542B43574A41505F435599
:1001D000523D222573222C22257322000D0A005342
:1001E00054415455533A0041542B434950535441C0
:1001F000545553000D0A0053444B207665727369C1
:100200006F6E3A0041542B474D520041542B4357D7
:10021000444843503D312C310041542B4357415504
:10022000544F434F4E4E3D300041542B43495044B0
:10023000494E464F3D310041542B4349504D55588E
:100240003D310041542B43574D4F44453D31004112
:100250005445300041542B52535400496E6974691F
:100260006C697A6174696F6E20737563636573730B
:1002700066756C202D005761726E696E673A205565
:100280006E737570706F72746564206669726D77D5
:100290006172650043616E6E6F7420696E69746986
:1002A000616C697A6520455350206D6F64756C658B
:1002B00000415400496E697469616C697A696E67BE
:1002C00020455350206D6F64756C65000000000080
:1002D00023002600290000000000240027002A0037
:1002E00000000000250028002B000404040404047E
:1002F00004040202020202020303030303030102D5
:1003000004081020408001020408102001020408A3
:1003100010204E6F20736F636B6574206176616986
:100320006C61626C650041542B43495053544152F7
:10033000543D25642C22544350222C222573222C18
:10034000257500436F6E6E656374696E6720746F08
:100350000054494D454F55543A0054616720434C71
:100360004F534544206E6F7420666F756E640000B5
:10037000FB12DF1211241FBECFEFD8E0DEBFCDBFCE
:1003800024E0A0ECB2E001C01D92AA38B207E1F768
:1003900012E0A0E0B1E0EEE7F3E302C005900D92B9
:1003A000A03CB107D9F711E0C9EBD1E004C0219717
:1003B000FE010E947018C83BD107C9F70E94E70EE2
:1003C0000C94B2190C940000FC01538D448D252F20
:1003D00030E0842F90E0821B930B541710F0CF96DF
:1003E000089501970895FC01918D828D981761F011
:1003F000828DDF01A80FB11D5D968C91928D9F5F5C
:100400009F73928F90E008958FEF9FEF0895FC0106
:10041000918D828D981731F0828DE80FF11D858DB9
:1004200090E008958FEF9FEF0895FC01918D228D4C
:10043000892F90E0805C9F4F821B91098F739927D1
:10044000089580E090E0892B29F00E94060B81112D
:100450000C94000008953FB7F894809105039091A3
:100460000603A0910703B091080326B5A89B05C019
:100470002F3F19F00196A11DB11D3FBFBA2FA92F23
:10048000982F8827820F911DA11DB11DBC01CD01A0
:1004900042E0660F771F881F991F4A95D1F708958C
:1004A00021E0FC0184858F3F09F420E0822F08952C
:1004B000CF93DF93EC01E881F9810084F185E02D91
:1004C000CE010995892B41F0E881F9810284F385F9
:1004D000E02DCE010995EFCFDF91CF910895CF9315
:1004E000DF931F92CDB7DEB76983DC01ED91FC91FC
:1004F0000280F381E02D41E050E0BE016F5F7F4F4D
:1005000009950F90DF91CF91089520912C0430919F
:100510002D042817390771F49091090380910A037B
:10052000981741F0E0910903F0E0E054FD4F80811D
:1005300090E008958FEF9FEF089508951F93CF9354
:10054000DF93DC015C968D919C915D97009739F467
:1005500021E030E013963C932E9312973BC05196C6
:10056000ED91FC91529750962C915097322F3095E7
:100570001FB75E964C915E97742F727041FD609527
:10058000F8944081772311F0422B01C0432340832C
:10059000EC012197F1F748E0508160FF02C0522B37
:1005A00001C053235083EC012197F1F76695415028
:1005B00099F78081772319F08323808302C0282B49
:1005C00020831FBF5C968D919C915D970197F1F7F9
:1005D00081E090E0DF91CF911F91089520912C044C
:1005E00030912D042817390771F480910A03209166
:1005F000090390E0805C9F4F821B910960E470E0EA
:100600000E944818089580E090E0089520912C04FD
:1006100030912D0428173907B9F49091090380917E
:100620000A03981789F0E0910903F0E0E054FD4FC8
:1006300080812091090330E02F5F3F4F2F733327D4
:100640002093090390E008958FEF9FEF0895089598
:1006500080E090E008950E9497190F931F93CF9325
:10066000DF9300D0CDB7DEB78C01DC01ED91FC91BA
:100670000084F185E02D0995892B29F11A82F80172
:10068000848590917F04891309C09E012E5F3F4F9E
:1006900040E0BE016F5F7F4F0E94470D8A81882333
:1006A00079F0D8011C96EC911C97F0E0EE0FFF1F3B
:1006B000EC5DFE4F8FEF9FEF918380831C968C93B0
:1006C000898190E002C08FEF9FEF0F900F90DF9134
:1006D000CF911F910F9108950F931F93CF93DF93A5
:1006E00000D0CDB7DEB78C01DC01ED91FC91008428
:1006F000F185E02D0995892B29F11A82F80184856D
:1007000090917F04891309C09E012E5F3F4F41E005
:10071000BE016F5F7F4F0E94470D8A81882379F069
:10072000D8011C96EC911C97F0E0EE0FFF1FEC5DDA
:10073000FE4F8FEF9FEF918380831C968C9389816E
:1007400090E002C08FEF9FEF0F900F90DF91CF915D
:100750001F910F910895CF92DF92EF92FF920F9326
:100760001F93CF93DF93CDB7DEB760970FB6F894A2
:10077000DEBF0FBECDBF7C01FB016A0185811F92E8
:100780008F9384811F928F9383811F928F93828195
:100790001F928F9388E690E09F938F938E010F5F57
:1007A0001F4F1F930F930E94F614A601B801C701B3
:1007B0000E942C0E0FB6F894DEBF0FBECDBF609620
:1007C0000FB6F894DEBF0FBECDBFDF91CF911F9162
:1007D0000F91FF90EF90DF90CF9008950C942C0E26
:1007E000FC01848DDF01A80FB11DA35ABF4F2C91CE
:1007F000848D90E001968F739927848FA689B7899D
:100800002C93A089B1898C91837080648C93938D93
:10081000848D981306C00288F389E02D80818F7D36
:1008200080830895EF92FF920F931F93CF93DF93EE
:10083000EC0181E0888F9B8D8C8D981305C0E88931
:10084000F989808185FD26C0F62E0B8D10E00F5FA3
:100850001F4F0F731127E02E8C8DE8120CC00FB6BE
:1008600007FCFACFE889F989808185FFF5CFCE01B1
:100870000E94F003F1CF8B8DFE01E80FF11DE35ACA
:10088000FF4FF0829FB7F8940B8FEA89FB89808134
:1008900080620AC09FB7F894EE89FF896083E88977
:1008A000F98980818370806480839FBF81E090E0BC
:1008B000DF91CF911F910F91FF90EF900895CF930B
:1008C000DF93EC01888D8823C9F0EA89FB89808158
:1008D00085FD05C0A889B9898C9186FD0FC00FB62A
:1008E00007FCF5CF808185FFF2CFA889B9898C916B
:1008F00085FFEDCFCE010E94F003E7CFDF91CF91CE
:1009000008958F929F92AF92BF92CF92DF92EF9213
:10091000FF926B017C010E942B024B015C01C11410
:10092000D104E104F104F1F00E942B02DC01CB01BF
:1009300088199909AA09BB09883E9340A105B10508
:1009400070F321E0C21AD108E108F10888EE880EA0
:1009500083E0981EA11CB11CC114D104E104F10470
:1009600019F7DDCFFF90EF90DF90CF90BF90AF9061
:100970009F908F9008952FB7F89460910103709124
:10098000020380910303909104032FBF08958F9277
:100990009F92AF92BF92CF92DF92EF92FF920F930E
:1009A0001F93CF93DF934091800450918104609115
:1009B000820470918304141615061606170644F473
:1009C00090917F04981711F0911102C0CA0121C1C2
:1009D000F82E8091380390913903DC01ED91FC9160
:1009E0000084F185E02D0995892B19F480E090E0D1
:1009F00010C10091380310913903C0E0D0E00E948B
:100A0000BB04F8016087718782879387D801ED91D5
:100A1000FC910284F385E02DC801099597FF19C068
:100A20000E94BB04F80180849184A284B384DC0119
:100A3000CB0188199909AA09BB0984809580A680F1
:100A4000B78088159905AA05BB0500F38FEF9FEFC6
:100A500011C0FE01E657FE4F2081022E000C330B21
:100A60002817390709F0A0C02196C530D10539F6FD
:100A700080E090E0892B09F0B9CF80913803909104
:100A800039030E942F0C60937F048091380390916A
:100A90003903DC01ED91FC910284F385E02D099589
:100AA00080913803909139030E942F0C6093800449
:100AB000709381048093820490938304809138031F
:100AC00090913903DC01ED91FC910284F385E02DD6
:100AD000099580913803909139030E942F0C8091E1
:100AE000380390913903DC01ED91FC910284F38588
:100AF000E02D099580913803909139030E942F0CC5
:100B00008091380390913903DC01ED91FC910284CE
:100B1000F385E02D099580913803909139030E9467
:100B20002F0C8091380390913903DC01ED91FC91F9
:100B30000284F385E02D0995809138039091390363
:100B40000E942F0C8091380390913903DC01ED91C4
:100B5000FC910284F385E02D0995809138039091F2
:100B60003903DC01ED91FC910284F385E02D0995B8
:100B700080913803909139030E942F0C80913803A3
:100B800090913903DC01ED91FC910284F385E02D15
:100B9000099580917F04F81611F0F11027CF80910C
:100BA00080049091810435C0209709F428CF4F012B
:100BB0006BE871E09E0121503109D4014E914D0145
:100BC000042E000C550B84179507F9F421153105F7
:100BD00009F415CF4AE8C42E41E0D42EDB0140E0F1
:100BE00050E0F601B1906F01ED90BE1441F0421754
:100BF000530709F404CF6F5F7F4FE901DBCF4F5FED
:100C00005F4F4217530768F3F2CF2115310599F76B
:100C1000F4CEDF91CF911F910F91FF90EF90DF9075
:100C2000CF90BF90AF909F908F900895FC018485E6
:100C30008F3F21F00E94C70497FF02C080E090E040
:100C400008958F929F92AF92BF92EF92FF920F936F
:100C50001F93CF93DF93EC017B018A01E881F98137
:100C60000084F185E02D0995892B19F48FEF9FEF12
:100C700055C09C8580917F04981338C08091800472
:100C800090918104A0918204B0918304A80160E056
:100C900070E084179507A607B7070CF48C01E701ED
:100CA000E00EF11ECE15DF05F9F00E94BB044B01EA
:100CB0005C018091380390913903DC01ED91FC9146
:100CC0000284F385E02D099597FF13C00E94BB04B1
:100CD000DC01CB0188199909AA09BB09883E934018
:100CE000A105B10530F3C2CFC80118C080E090E083
:100CF00015C089938091800490918104A091820411
:100D0000B09183040197A109B10980938004909365
:100D10008104A0938204B0938304C4CFDF91CF9168
:100D20001F910F91FF90EF90BF90AF909F908F9089
:100D300008951F920F920FB60F9211242F933F9395
:100D40008F939F93AF93BF93809101039091020380
:100D5000A0910303B09104033091000323E0230F1B
:100D60002D3720F40196A11DB11D05C026E8230FE3
:100D70000296A11DB11D209300038093010390935F
:100D80000203A0930303B0930403809105039091A1
:100D90000603A0910703B09108030196A11DB11DA0
:100DA0008093050390930603A0930703B093080371
:100DB000BF91AF919F918F913F912F910F900FBE57
:100DC0000F901F9018958091380390913903DC01A2
:100DD000ED91FC910084F185E02D09951816190616
:100DE00064F48091380390913903DC01ED91FC911A
:100DF0000284F385E02D0995E6CF08953F924F9246
:100E00005F926F927F928F929F92AF92BF92CF929A
:100E1000DF92EF92FF920F931F93CF93DF936C01BA
:100E20002B01342E80914F049091500490935404E0
:100E3000809353040E94BB044B015C0166246A94B6
:100E4000762C0D2C000CEE08FF080E94BB04DC0180
:100E5000CB0188199909AA09BB098C159D05AE0516
:100E6000BF0508F05BC08FEF6816780609F056C022
:100E70008091380390913903DC01ED91FC9100845D
:100E8000F185E02D0995892B01F38091380390912C
:100E90003903DC01ED91FC910284F385E02D099585
:100EA000E0915304F0915404808380915304909115
:100EB0005404019690935404809353042091510458
:100EC000309152048217930740F080914F04909123
:100ED000500490935404809353044114510441F0FE
:100EE000C2010E948B0B882319F085E0682E712CBB
:100EF000332009F4AACF02E311E0C0E0D0E0F8010A
:100F0000819191918F010E948B0B882311F03E01FA
:100F10009CCF2196C530D10591F797CF0E94BB0495
:100F2000DC01CB0188199909AA09BB098C159D051B
:100F3000AE05BF0560F060E971E08AE393E00E94CE
:100F4000450D6EE271E08AE393E00E94310DC3012A
:100F5000DF91CF911F910F91FF90EF90DF90CF9095
:100F6000BF90AF909F908F907F906F905F904F90C9
:100F70003F900895AF92BF92CF92DF92EF92FF928F
:100F80000F931F93CF93DF935C016B017A01E9010B
:100F9000188281E00E94E306B501809138039091A8
:100FA00039030E94310D41E0B60188EE93E00E94C2
:100FB000FE068530910509F049C080914F0490915B
:100FC0005004909354048093530440914D045091E5
:100FD0004E044F5F5F4F60E070E00E949C1941E05B
:100FE000B70184EF91E00E94FE06059731F5A80154
:100FF00041505109F70101900020E9F73197EE19AE
:10100000FF0960914F0470915004809153049091B6
:101010005404861B970B8E1B9F0B4817590708F02B
:10102000AC01CE010E94A31941E060E070E080EDC8
:1010300097E00E94FE0681E018C060E971E08AE353
:1010400093E00E94450D6FE071E00AC0059760F0E3
:1010500060E971E08AE393E00E94450D61E271E08E
:101060008AE393E00E94310D80E0DF91CF911F91E0
:101070000F91FF90EF90DF90CF90BF90AF900895C9
:10108000CF92DF92EF92FF920F931F93CF93DF9354
:10109000CDB7DEB76E970FB6F894DEBF0FBECDBFEB
:1010A000FC0184858F3FD1F17F010E94C704892B09
:1010B00011F094E034C0D7011C968C911F928F934D
:1010C00080E091E09F938F93FE0131966F01FF9333
:1010D000EF930E94F6140AE010E09E012B5E3F4F52
:1010E0004EE851E0B60183EF90E00E94BA070F90FE
:1010F0000F900F900F900F900F908111DACFD701C2
:101100001C96EC911C97F0E0EE0FFF1FEC5DFE4F7C
:101110008FEF9FEF918380831C968C9390E081E00A
:10112000943009F080E06E960FB6F894DEBF0FBEE3
:10113000CDBFDF91CF911F910F91FF90EF90DF9086
:10114000CF900895AF92BF92CF92DF92EF92FF922D
:101150000F931F93CF93DF93CDB7DEB764970FB68E
:10116000F894DEBF0FBECDBFDC011C962C9124305D
:1011700018F44115510531F421E030E0FC013383CE
:1011800022838AC08A016B017C011F934F931F92B7
:101190002F938AEA90E09F938F939E012F5F3F4F9A
:1011A00059013F932F930E94F614B50180913803A3
:1011B000909139030E941D0D40E06BE971E088EECB
:1011C00093E00E94FE060FB6F894DEBF0FBECDBFBF
:1011D000059749F060E971E08AE393E00E94450DCC
:1011E0006FE870E01FC08091380390913903DC01F3
:1011F000ED91FC910280F381E02DA801B6010995E3
:1012000041E060E070E080ED97E00E94FE06039709
:1012100009F445C060E971E08AE393E00E94450D5E
:1012200064E770E08AE393E00E94310D81E090E092
:10123000F7019383828360E971E08AE393E00E947F
:10124000450D6BEB70E08AE393E00E949B0C6AE132
:1012500072E08AE393E00E94450DD7011C964C9101
:1012600050E060E070E02AE08AE393E00E94D40C52
:101270006DEB72E08AE393E00E94BF0C60EA7FE0CE
:1012800080E090E00E948104D701ED91FC910488F8
:10129000F589E02DC701099580E090E001C0C80103
:1012A00064960FB6F894DEBF0FBECDBFDF91CF912D
:1012B0001F910F91FF90EF90DF90CF90BF90AF9074
:1012C0000895CF93DF93CDB7DEB7C85CD1090FB6D1
:1012D000F894DEBF0FBECDBF9E012F523F4FC353C8
:1012E000DF4F48815981CD5CD04068EC70E0CE0181
:1012F00001960E94181581E00E94E306BE016F5F0F
:101300007F4F80913803909139030E941D0D41E079
:1013100060E070E0C153DF4F88819981CF5CD0409D
:101320000E94FE06C853DF4F0FB6F894DEBF0FBE13
:10133000CDBFDF91CF910895CF93DF93FC0124853A
:101340002F3F09F440C0EC0160E971E08AE393E0CB
:101350000E94450D64EE70E08AE393E00E949B0CCE
:101360006AE172E08AE393E00E94450D4C8550E00B
:1013700060E070E02AE08AE393E00E94D40C6DEB19
:1013800072E08AE393E00E94BF0C8C851F928F93DA
:101390008FE08F9380EA8F9385ED90E09F938F93FA
:1013A0000E946109EC85F0E0EE0FFF1FEC5DFE4F3F
:1013B0008FEF9FEF918380838C870F900F900F901A
:1013C0000F900F900F90DF91CF9108954F925F9201
:1013D0006F927F928F929F92AF92BF92CF92DF9245
:1013E000EF92FF920F931F93CF93DF93CDB7DEB7AA
:1013F0004C016B015A0139014DB65EB6CB010E941A
:10140000B91401962DB73EB7281B390B0FB6F894C7
:101410003EBF0FBE2DBF8DB79EB701967C01B601B2
:101420000E94B214C5010E94B91401962DB73EB7AF
:10143000281B390B0FB6F8943EBF0FBE2DBF8DB7DA
:101440009EB701966C01B5010E94B2149301A601EA
:10145000B701C4010E94BA070FB6F8945EBE0FBE72
:101460004DBEDF91CF911F910F91FF90EF90DF90D4
:10147000CF90BF90AF909F908F907F906F905F9034
:101480004F9008951F920F920FB60F9211242F9331
:101490003F934F935F936F937F938F939F93AF93FC
:1014A000BF93EF93FF93E0912C04F0912D043097BC
:1014B00009F451C0968DA685B785858591FF04C036
:1014C0009C91892329F447C09C91892309F043C04A
:1014D000A389B4899C918589809589238C93868979
:1014E00097890197F1F7608D718DA685B785558530
:1014F00038E020E0CB010197F1F7822F90E095953D
:101500008795282F4C91452309F02068315091F799
:10151000868D81FD209580910A0390E001968F735E
:10152000992730910903381749F0A0910A03B0E0D8
:10153000A054BD4F2C9380930A0303C0868D816015
:10154000868F828D938D0197F1F7A389B4899C9141
:101550008589892B8C93FF91EF91BF91AF919F91DA
:101560008F917F916F915F914F913F912F910F904C
:101570000FBE0F901F9018958F929F92AF92BF92BF
:10158000CF92DF92EF92FF920F931F93CF93DF934F
:101590007C01EB016C0182E0C80ED11C4701E5E043
:1015A0008E0E911C00E010E0F60141916F0150E0B9
:1015B00060E070E02AE0CE010E94D40C5C01E8817A
:1015C000F9810190F081E02D6EE2CE0109958A0D3E
:1015D0009B1D080F191F8C149D0431F7F7014581DD
:1015E00050E060E070E02AE0CE010E94D40C800F51
:1015F000911FDF91CF911F910F91FF90EF90DF909E
:10160000CF90BF90AF909F908F9008958AE393E022
:101610000E94150221E0892B09F420E0822F089511
:101620001F920F920FB60F9211242F933F934F9357
:101630005F936F937F938F939F93AF93BF93EF933A
:10164000FF938AE393E00E94F003FF91EF91BF9133
:10165000AF919F918F917F916F915F914F913F914A
:101660002F910F900FBE0F901F9018951F920F9201
:101670000FB60F9211242F938F939F93EF93FF93A5
:10168000E0914A03F0914B038081E0915003F09187
:10169000510382FD12C09081809153038F5F8F733D
:1016A00020915403821751F0E0915303F0E0E65C7F
:1016B000FC4F958F8093530301C08081FF91EF9180
:1016C0009F918F912F910F900FBE0F901F901895A3
:1016D000CF92DF92EF92FF92CF93DF936B017C0169
:1016E0006DE28AE393E00E941204EC01442755273F
:1016F000BA014C195D096E097F092AE08AE393E07B
:101700000E94D40C8C0F9D1FDF91CF91FF90EF9022
:10171000DF90CF900895FC0101900020E9F7319708
:101720009F01281B390BE0915304F0915404E21BF4
:10173000F30B40914F0450915004E417F50730F437
:1017400060914D0470914E04E60FF71F280F391F6A
:101750006091510470915204DC018217930758F490
:101760000196BC91A081BA1308C03196E617F7071D
:1017700099F7FA01F1CF81E0089580E00895CF93C1
:10178000DF93EC0181E00E94E306BE018091380303
:10179000909139030E94310D41E060E070E088EEE5
:1017A00093E0DF91CF910C94FE06CF92DF92EF92FF
:1017B000FF920F931F93CF93DF936C017A018B01FC
:1017C000C0E0D0E0CE15DF0581F0D8016D918D012C
:1017D000D601ED91FC910190F081E02DC6010995B3
:1017E000892B11F02196EECF7E01C701DF91CF91B9
:1017F0001F910F91FF90EF90DF90CF9008950F937E
:101800001F93CF93DF93EC010E94BB046887798715
:101810008A879B87E881F9810484F585E02DCE01D4
:10182000099597FF17C00E94BB04088519852A8572
:101830003B85DC01CB01801B910BA20BB30B0C8110
:101840001D812E813F8180179107A207B30710F3F6
:101850008FEF9FEFDF91CF911F910F910895CF925E
:10186000DF92EF92FF921F93CF93DF93EC01CE01B3
:101870000E94FF0BFC0197FD0EC08D32910579F09F
:10188000C0970A9760F0E881F9810284F385E02D22
:10189000CE010995ECCF60E070E0CB0144C0C12CD3
:1018A000D12C760110E0E130F10501F1ED32F105C6
:1018B000E1F0CF01C0970A97C8F4AAE0B0E0A70111
:1018C00096010E94F7176F01FF0FEE08FF08DC0179
:1018D000CB018C0D9D1DAE1DBF1D6C017D0120E354
:1018E000C21AD108E108F10801C011E0E881F981CC
:1018F0000284F385E02DCE010995CE010E94FF0BF5
:10190000FC01C0970A9778F2E130F10561F21123EA
:1019100041F066277727CB016C197D098E099F0955
:1019200002C0C701B601DF91CF911F91FF90EF90E8
:10193000DF90CF900895EF92FF920F931F93CF9374
:10194000DF938C017B01C0E0D0E0F701EC0FFD1FBD
:101950006491662361F0D801ED91FC910190F081D2
:10196000E02DC8010995892B11F02196EECFCE010B
:10197000DF91CF911F910F91FF90EF900895611526
:10198000710579F0FB0101900020E9F73197AF0173
:10199000461B570BDC01ED91FC910280F381E02D99
:1019A000099480E090E008958F929F92AF92BF9249
:1019B000EF92FF920F931F93CF93DF93CDB7DEB7D4
:1019C000A1970FB6F894DEBF0FBECDBF7C01FA0120
:1019D000CB0119A2223008F42AE08E010F5D1F4FBF
:1019E000822E912CA12CB12CBF01A50194010E9443
:1019F000D517F901CA01015011096A3014F4605D6C
:101A000001C0695CD8016C93232B242B252B61F733
:101A1000B801C7010E94BF0CA1960FB6F894DEBFB3
:101A20000FBECDBFDF91CF911F910F91FF90EF902F
:101A3000BF90AF909F908F9008950F931F93CF9377
:101A4000DF93EC010E94BF0C8C016DEB72E0CE01C4
:101A50000E94BF0C800F911FDF91CF911F910F91BA
:101A600008950F931F93CF93DF93EC010E949B0C7B
:101A70008C016DEB72E0CE010E94BF0C800F911FB4
:101A8000DF91CF911F910F9108950C94BF0C8F920D
:101A90009F92AF92BF92EF92FF920F931F93CF93BB
:101AA000DF93C82F8B01D42F79010E94BB044B0117
:101AB0005C018091380390913903DC01ED91FC9138
:101AC0000084F185E02D0995892B09F473C080917C
:101AD000380390913903DC01ED91FC91DD2339F05D
:101AE0000484F585E02D0995F801808319C00284EE
:101AF000F385E02D0995F801808380918004909111
:101B00008104A0918204B09183040197A109B109D5
:101B10008093800490938104A0938204B093830403
:101B20008091800490918104A0918204B0918304FB
:101B3000892B8A2B8B2B11F081E083C065E070E04C
:101B400080E090E00E9481048091380390913903F5
:101B5000DC01ED91FC910084F185E02D0995892B44
:101B600059F38091380390913903DC01ED91FC9198
:101B70000484F585E02D0995D0E0E0968C179D074B
:101B8000D9F640E066EB72E084EF91E00E94FE0639
:101B9000059761F060E971E08AE393E00E94450DEA
:101BA0006AE573E08AE393E00E94310D81E0F7017A
:101BB000808347C00E94BB04DC01CB0188199909CE
:101BC000AA09BB09803D9740A105B10508F471CF72
:101BD00060E971E08AE393E00E94450D61E573E0FE
:101BE0008AE393E00E949B0C6AE172E08AE393E04F
:101BF0000E94450D409180045091810460918204BF
:101C00007091830477FF05C0CB01BA010E94680B75
:101C100005C02AE08AE393E00E94D40C6DEB72E0E9
:101C20008AE393E00E94BF0C10928004109281041A
:101C3000109282041092830410927F04D8011C92A7
:101C400080E0DF91CF911F910F91FF90EF90BF90B7
:101C5000AF909F908F900895EF92FF920F931F93F4
:101C6000CF93DF93EC01162F072FF42EE52E60E9BA
:101C700071E08AE393E00E94450D63E473E08AE338
:101C800093E00E949B0C6AE172E08AE393E00E9479
:101C9000450D612F702F8AE393E00E941D0DECE249
:101CA000F1E083E090E0329122912F3F3F4F19F015
:101CB0000197C8F78FEF8C878F3F39F1EF92FF9232
:101CC0000F931F931F928F9383E18F9388E88F93D5
:101CD00086E293E09F938F930E9461092DB73EB7F0
:101CE000265F3F4F0FB6F8943EBF0FBE2DBF892B26
:101CF000C1F48C8590E0FC01EE0FFF1FEC5DFE4F00
:101D00009183808381E090E00EC060E971E08AE316
:101D100093E00E94450D62E173E08AE393E00E9444
:101D2000310D80E090E0DF91CF911F910F91FF90F6
:101D3000EF90089590E0FC01E25CFE4F2491FC01DD
:101D4000E250FD4F3491FC01E651FD4FE491EE234A
:101D500009F43CC0222339F1233091F038F42130CA
:101D6000A9F0223001F584B58F7D12C0273091F0A3
:101D70002830A1F02430B9F4809180008F7D03C019
:101D8000809180008F77809380000DC084B58F771D
:101D900084BD09C08091B0008F7703C08091B000EE
:101DA0008F7D8093B000F0E0EE0FFF1FE052FD4FFB
:101DB000A591B4919FB7F894611104C08C913095AE
:101DC000382302C0EC913E2B3C939FBF0895CF93E4
:101DD000DF93CDB7DEB76A970FB6F894DEBF0FBEBC
:101DE000CDBF789484B5826084BD84B5816084BDA4
:101DF00085B5826085BD85B5816085BD80916E00A9
:101E0000816080936E0010928100809181008260D9
:101E10008093810080918100816080938100809116
:101E200080008160809380008091B1008460809305
:101E3000B1008091B00081608093B00080917A0001
:101E4000846080937A0080917A00826080937A0027
:101E500080917A00816080937A0080917A00806816
:101E600080937A001092C10010921B0410921C04FF
:101E700010921D0410921E041092D9031092DA03DE
:101E80001092DB031092DC030E94BB046B017C0107
:101E90004B015C0128EB820E2BE0921EA11CB11CB1
:101EA0000E94BB046C157D058E059F0528F08616E3
:101EB0009706A806B906A0F78AE393E090931A0460
:101EC00080931904E0914A03F0914B0382E08083F0
:101ED000E0914603F09147031082E0914803F091AE
:101EE000490380E1808310925203E0914E03F09108
:101EF0004F0386E08083E0914C03F0914D03808195
:101F000080618083E0914C03F0914D038081886073
:101F10008083E0914C03F0914D0380818068808341
:101F2000E0914C03F0914D0380818F7D80830E946E
:101F3000BB046093D9037093DA038093DB0390931F
:101F4000DC036EEC71E08091190490911A040E94F8
:101F5000450D0E94BB046B017C014B015C013AE022
:101F6000830E911CA11CB11C0E94BB046C157D0545
:101F70008E059F0528F086169706A806B906A0F7D5
:101F800081E08093ED03E0914A03F0914B0382E0FE
:101F90008083E0914603F09147031082E09148036B
:101FA000F09149038FEC808310925203E0914E032D
:101FB000F0914F0386E08083E0914C03F0914D0354
:101FC000808180618083E0914C03F0914D0380819A
:101FD00088608083E0914C03F0914D03808180689C
:101FE0008083E0914C03F0914D0380818F7D80834D
:101FF000109249041092480410924704109246042B
:1020000010924504109244048DE991E090934B04A2
:1020100080934A0490913A04963108F058C02DEB11
:1020200030E030934504209344042BE931E03093B1
:102030004704209346042CE231E030934904209376
:10204000480440916800983058F031E09E3008F420
:1020500030E021E0822F01C0880F3A95EAF701C0F5
:1020600084E0842B80936800983038F09E3040F0F4
:10207000963148F020E030E008C02DE630E005C0A1
:102080002BE630E002C02CE630E03093420420938F
:102090004104983030F481E001C0880F9A95EAF746
:1020A0000EC0292F30E09E3018F42850310902C0AC
:1020B0002E50310981E001C0880F2A95EAF78093FC
:1020C000430480914A0490914B040197F1F7809169
:1020D000480490914904892B49F1E0912C04F09136
:1020E0002D0484E0EE32F80709F1309739F0A38926
:1020F000B4899C918589809589238C9380914C0427
:102100008E7F80934C0410920A03109209038EE292
:1021100094E090932D0480932C04E0914104F0917D
:102120004204908180914304892B808360E971E0AF
:102130008AE393E00E94450D64EB72E08AE393E04A
:102140000E94310D8EE294E090933903809338031E
:1021500005E010E081EB92E00E94BF0B892B09F4AF
:10216000B0C168EE73E080E090E00E94810401500D
:10217000110981F760E971E08AE393E00E94450D5F
:1021800064E972E08AE393E00E94310D68E873E14C
:1021900080E090E00E9481040AE010E09E012F5F41
:1021A0003F4F4CED51E06FED71E087EE91E00E9402
:1021B000E609882369F0DD24D39400E011E08EE481
:1021C000C82E90E2B92E25ECE22E21E0F22E46C078
:1021D00060EE71E08AE393E00E941D0DFFCF68EF8F
:1021E00071E08AE393E00E94450D6AE071E08AE3C2
:1021F00093E00E941D0DD0922F031F930F938AE04E
:1022000091E09F938F93CF92BF92FF92EF920E94A3
:1022100061090FB6F894DEBF0FBECDBF60E971E073
:10222000892B21F58AE393E00E94450D63EA71E072
:102230008AE393E00E949B0C6AE172E08AE393E0F8
:102240000E94450D6AE071E08AE393E00E941D0D53
:1022500081E090E0909337038093360380913603BA
:1022600090913703019709F0BACF22C08AE393E037
:102270000E94450D60EB71E08AE393E00E949B0CA5
:102280006AE172E08AE393E00E94450D6AE071E042
:102290008AE393E00E941D0D68EE73E080E090E019
:1022A0000E94810480E00E94E30682E090E0D2CFA9
:1022B0006CE172E08AE393E00E941D0D65E172E03B
:1022C0008AE393E00E94450D10920B0300E210E0B8
:1022D0002BE033E042E551E064E571E08DE591E00B
:1022E0000E94E6096BE073E08AE393E00E941D0D13
:1022F00080E791E09E8B8D8B1F8A188E198E1A8E27
:1023000080912F0304E110E09E012F5F3F4F813049
:1023100039F44FE751E061E871E08AE891E006C0E6
:1023200047E651E069E671E085E791E00E94E60941
:102330008823A1F165E872E0CE0101960E94C214E3
:102340000E94941480932B0365E872E080E090E093
:102350000E94C2140E94941480932C0365E872E0DA
:1023600080E090E00E94C2140E94941480932D0398
:1023700065E872E080E090E00E94C2140E9494142C
:1023800080932E0380912B0390912C03A0912D0319
:10239000B0912E038F8B988FA98FBA8F6CE372E068
:1023A0008AE393E00E94450D6AE373E0CE0145960F
:1023B0000E94BC0A6DEB72E08AE393E00E94BF0CBE
:1023C0000AE010E09E012F5F3F4F43E951E066E9CC
:1023D00071E089E991E00E94E6098981082E000CEC
:1023E000990BC0970A9740F4CE0101960E9494146D
:1023F00091958195910902C080E090E06C01990F60
:10240000EE08FF0869E472E08AE393E00E94450D5C
:10241000F7FE05C0C701B6010E94680B07C02AE09D
:10242000B701A6018AE393E00E94D40C61E672E052
:102430008AE393E00E941D0D6DEB72E08AE393E066
:102440000E94BF0C66E672E08AE393E00E941D0DD5
:1024500040E25EE466E171E08FE194E00E94EE0309
:10246000892B91F067E872E08AE393E00E941D0DEA
:102470006AEA72E08FE194E00E941D0D6BE972E060
:102480008AE393E00E941D0D8FE194E00E941606FE
:10249000892B51F08FE194E00E942D03682F8AE38D
:1024A00093E00E941204F0CF8FE194E00E949C0917
:1024B00068EB7BE080E090E00E9481040E942102B2
:1024C000BBCF84E592E00E94BF0B68EB7BE080E02D
:1024D00090E00E94810480E00E94E3068FE492E095
:1024E0000E94BF0B83E492E00E94BF0B68EC70E097
:1024F00080E090E00E94810487E392E00E94BF0B9D
:1025000089E292E00E94BF0B89E192E00E94BF0B3A
:102510008BE092E00E94BF0B68EC70E080E090E0FE
:102520000E9481041092300306E010E020E333E0C3
:1025300044EF51E067EF71E084E092E00E94E60929
:10254000809130038153823020F4809131038E32A8
:10255000E9F060E971E08AE393E00E94450D66E7E7
:1025600072E08AE393E00E949B0C6AE172E08AE3E6
:1025700093E00E94450D60E373E08AE393E00E94DC
:102580001D0D60EA7FE080E090E004CE60E971E03C
:102590008AE393E00E94450D6BE572E08AE393E0E5
:1025A0000E949B0C6AE172E08AE393E00E94450D71
:1025B00060E373E08AE393E00E941D0DEDCD8CE7AC
:1025C00091E090932F0480932E0480912C0490919D
:1025D0002D048E52944071F4E0914104F091420434
:1025E00090818091430480958923808310922D04EB
:1025F00010922C040895CF92DF92EF92FF92CF9326
:10260000DF9310923D0310923C0368EEC62E63E008
:10261000D62EE12CF12CC0923E03D0923F03E092E3
:102620004003F092410380E491E090933B03809358
:102630003A0385EC90E0909347038093460384EC43
:1026400090E0909349038093480380EC90E090934E
:102650004B0380934A0381EC90E090934D03809369
:102660004C0382EC90E090934F0380934E0386ECF2
:1026700090E0909351038093500310925303109273
:10268000540310925503109256031092DD031092DA
:10269000DE031092DF031092E0031092E103109228
:1026A000E2031092E3031092E4031092E503109208
:1026B000E6031092E7031092E8031092E9031092E8
:1026C000EA031092EB031092EC03C0E7D1E0D09341
:1026D0005604C09355041092570410925804109257
:1026E000590410925A0480E290E090934E04809333
:1026F0004D0481E290E00E947618909350048093FC
:102700004F049C01205E3F4F3093520420935104AC
:10271000909354048093530421E2FC0111922A9572
:10272000E9F7D0935C04C0935B0410925D041092AF
:102730005E0410925F0410926004D0936204C09310
:102740006104109263041092640410926504109264
:102750006604D0936804C0936704109269041092D1
:102760006A0410926B0410926C04D0936E04C093B0
:102770006D0410926F041092700410927104109204
:102780007204D0937404C093730410927504109271
:1027900076041092770410927804D0937A04C09350
:1027A000790410927B0410927C0410927D041092A4
:1027B0007E041092310410923004C0923204D09200
:1027C0003304E0923404F09235048CE791E0909366
:1027D0002F0480932E04109245041092440410920A
:1027E0004704109246041092490410924804109233
:1027F0004B0410924A0460914C046E7F6D7F60938D
:102800004C046695617081E0682783E00E949A0E0F
:10281000E1E0F3E02491EDEEF2E08491882399F079
:1028200090E0880F991FFC01EA52FD4FA591B491E9
:10283000FC01E052FD4F859194918FB7F894EC9193
:10284000E22BEC938FBFE1E0F3E0E491E0933E04F0
:10285000EDEEF2E0E491F0E0EE0FFF1FE052FD4FED
:10286000859194919093400480933F04E0E0F3E0DD
:102870002491ECEEF2E084918823C1F090E0880F7F
:10288000991FFC01EA52FD4FC591D491FC01E05221
:10289000FD4FA591B4919FB7F8948881E22FE09500
:1028A0008E2388838C91E823EC939FBF80914C0406
:1028B00081FD04C061E082E00E949A0E82E0809374
:1028C0003A04E0E0F3E0E491E0933B04ECEEF2E064
:1028D000E491F0E0EE0FFF1FE453FD4F85919491DA
:1028E00090933D0480933C041092220410922104A2
:1028F00088EE93E0A0E0B0E080932304909324045A
:10290000A0932504B093260482E591E090932004DF
:1029100080931F048FEF80932B04DF91CF91FF9062
:10292000EF90DF90CF900895FC0188279927E894D5
:1029300021912032E9F3293010F02E30C8F32B32E8
:1029400041F02D3239F4689404C00E94EE14820FD5
:10295000911D219120532A30C0F31EF4909581954A
:102960009F4F0895FB01DC0105900D920020E1F7D7
:102970000895FC0105900020E9F7809590958E0F51
:102980009F1F089544E854E00E94C7140895FA0177
:10299000A191B081009719F41097E1F0CD01DC010D
:1029A000CD010D90002011F4C00113C0FB01219155
:1029B000222319F02015D9F7F3CFFB01219120151F
:1029C00019F41E92119606C02223C1F70D90002023
:1029D000A1F7D001FA01A193B08308957AE0979FFF
:1029E000902D879F802D910D11240895AEE0B0E0C9
:1029F000ECEFF4E10C9410180D891E898EE08C83A5
:102A00001A8309838FEF9FE79E838D83AE01475E14
:102A10005F4F6F89788DCE0101960E944415EF813A
:102A2000F885E00FF11F10822E96E4E00C942C182C
:102A3000AEE0B0E0EEE1F5E10C9410188C01FA0183
:102A40008EE08C831A83098377FF02C060E070E810
:102A5000CB0101979E838D83A901BF01CE01019611
:102A60000E9444154D815E8157FD0AC02F81388533
:102A7000421753070CF49A01F801E20FF31F10827A
:102A80002E96E4E00C942C18ABE0B0E0EAE4F5E11B
:102A90000C9402186C017B018A01FC0117821682DA
:102AA000838181FFCCC1CE0101963C01F601938167
:102AB000F70193FD859193FF81917F01882309F4AC
:102AC000BAC1853239F493FD859193FF81917F01DD
:102AD000853229F4B60190E00E943B17E7CF912C94
:102AE000212C312CFFE1F315D8F08B3279F038F43A
:102AF000803279F08332A1F4232D20611DC08D3204
:102B000061F0803369F4232D216016C0832D82602B
:102B1000382EE32DE4603E2E2AC0F32DF8601DC050
:102B200037FC2DC020ED280F2A3040F08E32B9F44A
:102B300036FC81C1232D2064322E19C036FE06C01A
:102B40008AE0989E200D1124922E11C0EAE02E9E5C
:102B5000200D1124222EF32DF0623F2E08C08C365A
:102B600021F4832D8068382E02C0883641F4F701A5
:102B700093FD859193FF81917F018111B3CF982FB0
:102B80009F7D9554933028F40C5F1F4F9FE39983EA
:102B90000DC0833631F0833771F0833509F059C0A9
:102BA00021C0F801808189830E5F1F4F88248394A0
:102BB000912C530113C02801F2E04F0E511CF80173
:102BC000A080B18036FE03C0692D70E002C06FEFB7
:102BD0007FEFC5010E9430174C018201F32DFF7772
:102BE0003F2E16C0280122E0420E511CF801A080A1
:102BF000B18036FE03C0692D70E002C06FEF7FEF39
:102C0000C5010E9425174C01F32DF0683F2E82016B
:102C100033FC1BC0822D90E088169906B0F4B601F3
:102C200080E290E00E943B172A94F4CFF50137FC34
:102C3000859137FE81915F01B60190E00E943B17BC
:102C400021102A9421E0821A91088114910471F7CD
:102C5000E8C0843611F0893641F5F80137FE07C027
:102C600060817181828193810C5F1F4F08C06081F8
:102C70007181072E000C880B990B0E5F1F4FF32DEF
:102C8000FF763F2E97FF09C09095809570956195CE
:102C90007F4F8F4F9F4FF0683F2E2AE030E0A30117
:102CA0000E947717882E861845C0853731F4232D6A
:102CB0002F7EB22E2AE030E025C0932D997FB92EC9
:102CC0008F36C1F018F4883579F0B5C0803719F027
:102CD000883721F0B0C0E92FE061BE2EB4FE0DC0F0
:102CE000FB2DF460BF2E09C034FE0AC0292F2660D8
:102CF000B22E06C028E030E005C020E130E002C07E
:102D000020E132E0F801B7FE07C060817181828165
:102D100093810C5F1F4F06C06081718180E090E05D
:102D20000E5F1F4FA3010E947717882E8618FB2D78
:102D3000FF773F2E36FE0DC0232D2E7FA22E891445
:102D400058F434FE0BC032FC09C0832D8E7EA82EB1
:102D500005C0B82CA32C03C0B82C01C0B92CA4FE0C
:102D60000FC0FE01E80DF11D8081803321F49A2D02
:102D7000997EA92E09C0A2FE06C0B394B39404C0E4
:102D80008A2D867809F0B394A3FC11C0A0FE06C07A
:102D9000B21488F4280C922C9B180EC0B21460F464
:102DA000B60180E290E00E943B17B394F7CFB214D3
:102DB00018F42B1802C0982C212CA4FE10C0B601C8
:102DC00080E390E00E943B17A2FE17C0A1FC03C065
:102DD00088E790E002C088E590E0B6010CC08A2D3B
:102DE000867859F0A1FE02C08BE201C080E2A7FC08
:102DF0008DE2B60190E00E943B17891438F4B601C9
:102E000080E390E00E943B179A94F7CF8A94F301F5
:102E1000E80DF11D8081B60190E00E943B17811002
:102E2000F5CF222009F442CEB60180E290E00E9464
:102E30003B172A94F6CFF6018681978102C08FEF67
:102E40009FEF2B96E2E10C941E18FC010590615057
:102E500070400110D8F7809590958E0F9F1F0895B0
:102E6000FC016150704001900110D8F78095909559
:102E70008E0F9F1F08950F931F93CF93DF93FB0136
:102E8000238121FD03C08FEF9FEF2CC022FF16C0CE
:102E900046815781248135814217530744F4A0812C
:102EA000B1819D012F5F3F4F318320838C93268119
:102EB00037812F5F3F4F3783268314C08B01EC018E
:102EC000FB010084F185E02D0995892BE1F6D801FD
:102ED00016968D919C911797019617969C938E93B9
:102EE0001697CE01DF91CF911F910F910895FA01AE
:102EF000AA27283051F1203181F1E8946F936E7F39
:102F00006E5F7F4F8F4F9F4FAF4FB1E03ED0B4E029
:102F10003CD0670F781F891F9A1FA11D680F791F6A
:102F20008A1F911DA11D6A0F711D811D911DA11D7B
:102F300020D009F468943F912AE0269F112430198B
:102F4000305D3193DEF6CF010895462F4770405D26
:102F50004193B3E00FD0C9F7F6CF462F4F70405DD5
:102F60004A3318F0495D31FD4052419302D0A9F730
:102F7000EACFB4E0A6959795879577956795BA952A
:102F8000C9F700976105710508959B01AC010A2EF0
:102F900006945795479537952795BA95C9F7620FC7
:102FA000731F841F951FA01D0895A1E21A2EAA1B4E
:102FB000BB1BFD010DC0AA1FBB1FEE1FFF1FA217E9
:102FC000B307E407F50720F0A21BB30BE40BF50BE6
:102FD000661F771F881F991F1A9469F7609570956F
:102FE000809590959B01AC01BD01CF0108950E9491
:102FF0003918A59F900DB49F900DA49F800D911D31
:10300000112408952F923F924F925F926F927F9278
:103010008F929F92AF92BF92CF92DF92EF92FF92E8
:103020000F931F93CF93DF93CDB7DEB7CA1BDB0B94
:103030000FB6F894DEBF0FBECDBF09942A88398839
:1030400048885F846E847D848C849B84AA84B98440
:10305000C884DF80EE80FD800C811B81AA81B9814C
:10306000CE0FD11D0FB6F894DEBF0FBECDBFED0160
:103070000895A29FB001B39FC001A39F700D811D51
:103080001124911DB29F700D811D1124911D089571
:1030900097FB072E16F4009407D077FD09D00E9405
:1030A0005C1807FC05D03EF4909581959F4F0895DC
:1030B000709561957F4F0895AA1BBB1B51E107C016
:1030C000AA1FBB1FA617B70710F0A61BB70B881FB8
:1030D000991F5A95A9F780959095BC01CD01089547
:1030E000EE0FFF1F0590F491E02D09940F931F93AD
:1030F000CF93DF938230910510F482E090E0E0916D
:103100008804F091890420E030E0A0E0B0E030973E
:1031100019F1408151810281138148175907C8F084
:103120008417950769F4109731F012960C93129753
:1031300013961C9327C0009388041093890422C01F
:103140002115310519F04217530718F49A01BD01F2
:10315000EF01DF01F801DBCF21153105F9F0281B64
:10316000390B2430310580F48A819B81611571050A
:1031700021F0FB019383828304C0909389048093A0
:103180008804FE01329644C0FE01E20FF31F8193D2
:10319000919322503109398328833AC020918604C3
:1031A00030918704232B41F420912E0130912F017F
:1031B000309387042093860420912C0130912D01B7
:1031C0002115310541F42DB73EB7409130015091A2
:1031D0003101241B350BE0918604F0918704E2173E
:1031E000F307A0F42E1B3F0B2817390778F0AC012A
:1031F0004E5F5F4F2417350748F04E0F5F1F509307
:103200008704409386048193919302C0E0E0F0E04C
:10321000CF01DF91CF911F910F910895CF93DF934D
:10322000009709F481C0FC01329713821282A091A9
:103230008804B0918904109781F420813181820F34
:10324000931F20918604309187042817390751F580
:10325000F0938704E093860467C0ED0120E030E03E
:10326000CE17DF0740F44A815B819E01411551056D
:10327000F1F0EA01F5CFD383C28340815181840FFD
:10328000951FC817D90759F488819981840F951F14
:103290000296918380838A819B8193838283211507
:1032A000310529F4F0938904E09388043DC0E901D5
:1032B000FB83EA8349915991C40FD51FEC17FD0791
:1032C00061F480819181840F951F0296E9019983B1
:1032D0008883828193819B838A83E0E0F0E0129669
:1032E0008D919C911397009719F0FD01DC01F7CFA8
:1032F0008D919C9111979D012E5F3F4F820F931FDF
:1033000020918604309187042817390769F4309793
:1033100029F4109289041092880402C01382128248
:10332000B0938704A0938604DF91CF91089581E044
:1033300090E0F8940C94B219DC0101C06D934150F7
:103340005040E0F70895FB01DC014150504048F047
:1033500001900D920020C9F701C01D9241505040CC
:10336000E0F7089511E0C9EBD1E004C0FE010E942E
:0E33700070182196CA3BD107C9F7F894FFCF19
:10337E00677565737431333537004D554C54495F5D
:10338E0047554553540037302E31322E3131322EBF
:10339E0031333700FFFFFFFFFFFFFFFF00008A04FE
:1033AE0080009D01A401AE01B701C3010000000021
:1033BE001204D50BE4015F041502F30107020000AD
:1033CE0000006F02A2082803580216062D036C0394
:1033DE00AB03EE0321069C094008500200000000DA
:1033EE00BC0A000000002B03000000009E02D50B5B
:1033FE0028039D02EE02060385022B4950442C0041
:10340E005B576946694573705D20003E000D0A4F9B
:10341E004B0D0A000D0A4552524F520D0A000D0A6D
:10342E004641494C0D0A000D0A53454E44204F4B60
:10343E000D0A0020434F4E4E4543540D0A00564D83
:10344E004450565F317C315F564D4450560D0A0044
:10345E005769466920736869656C64206E6F7420C5
:10346E0070726573656E7400417474656D70746905
:10347E006E6720746F20636F6E6E65637420746F59
:10348E002057504120535349443A2000596F752715
:10349E00726520636F6E6E656374656420746F2051
:1034AE00746865206E6574776F726B0049502041A9
:1034BE006464726573733A20005369676E616C20A1
:1034CE00737472656E677468202852535349293A93
:1034DE00002064426D005374617274696E672063DC
:1034EE006F6E6E656374696F6E20746F2073657294
:1034FE007665722E2E2E00436F6E6E656374656454
:10350E0020746F207365727665720053656E642049
:10351E006D657373616765203A2048656C6C6F202A
:10352E00576F726C64002C434C4F5345440D0A0088
:107E0000112484B714BE81FFF0D085E080938100F7
:107E100082E08093C00088E18093C10086E0809377
:107E2000C20080E18093C4008EE0C9D0259A86E02C
:107E300020E33CEF91E0309385002093840096BBD3
:107E4000B09BFECF1D9AA8958150A9F7CC24DD24C4
:107E500088248394B5E0AB2EA1E19A2EF3E0BF2EE7
:107E6000A2D0813461F49FD0082FAFD0023811F036
:107E7000013811F484E001C083E08DD089C08234E0
:107E800011F484E103C0853419F485E0A6D080C0E4
:107E9000853579F488D0E82EFF2485D0082F10E0AE
:107EA000102F00270E291F29000F111F8ED06801E7
:107EB0006FC0863521F484E090D080E0DECF843638
:107EC00009F040C070D06FD0082F6DD080E0C81688
:107ED00080E7D80618F4F601B7BEE895C0E0D1E017
:107EE00062D089930C17E1F7F0E0CF16F0E7DF06D8
:107EF00018F0F601B7BEE89568D007B600FCFDCFD4
:107F0000A601A0E0B1E02C9130E011968C91119780
:107F100090E0982F8827822B932B1296FA010C0160
:107F200087BEE89511244E5F5F4FF1E0A038BF0790
:107F300051F7F601A7BEE89507B600FCFDCF97BE46
:107F4000E89526C08437B1F42ED02DD0F82E2BD052
:107F50003CD0F601EF2C8F010F5F1F4F84911BD097
:107F6000EA94F801C1F70894C11CD11CFA94CF0C13
:107F7000D11C0EC0853739F428D08EE10CD085E9AC
:107F80000AD08FE07ACF813511F488E018D01DD067
:107F900080E101D065CF982F8091C00085FFFCCF94
:107FA0009093C60008958091C00087FFFCCF809118
:107FB000C00084FD01C0A8958091C6000895E0E648
:107FC000F0E098E1908380830895EDDF803219F02E
:107FD00088E0F5DFFFCF84E1DECF1F93182FE3DFCA
:107FE0001150E9F7F2DF1F91089580E0E8DFEE27F6
:047FF000FF270994CA
:027FFE00040479
:0400000300007E007B
:00000001FF